{
  "contracts/ClaimTheAirdrop.sol": {
    "AirdropTimeLockSMTX": {
      "abi": [
        {
          "inputs": [],
          "stateMutability": "nonpayable",
          "type": "constructor"
        },
        {
          "anonymous": false,
          "inputs": [
            {
              "indexed": false,
              "internalType": "address",
              "name": "recipient",
              "type": "address"
            },
            {
              "indexed": false,
              "internalType": "uint256",
              "name": "amount",
              "type": "uint256"
            }
          ],
          "name": "AllocationPerformed",
          "type": "event"
        },
        {
          "anonymous": false,
          "inputs": [
            {
              "indexed": false,
              "internalType": "address",
              "name": "from",
              "type": "address"
            },
            {
              "indexed": false,
              "internalType": "uint256",
              "name": "amount",
              "type": "uint256"
            }
          ],
          "name": "TokensDeposited",
          "type": "event"
        },
        {
          "anonymous": false,
          "inputs": [
            {
              "indexed": false,
              "internalType": "address",
              "name": "recipient",
              "type": "address"
            },
            {
              "indexed": false,
              "internalType": "uint256",
              "name": "amount",
              "type": "uint256"
            }
          ],
          "name": "TokensUnlocked",
          "type": "event"
        },
        {
          "inputs": [],
          "name": "allIncomingDepositsFinalised",
          "outputs": [
            {
              "internalType": "bool",
              "name": "",
              "type": "bool"
            }
          ],
          "stateMutability": "view",
          "type": "function"
        },
        {
          "inputs": [
            {
              "internalType": "address",
              "name": "",
              "type": "address"
            }
          ],
          "name": "alreadyWithdrawn",
          "outputs": [
            {
              "internalType": "uint256",
              "name": "",
              "type": "uint256"
            }
          ],
          "stateMutability": "view",
          "type": "function"
        },
        {
          "inputs": [
            {
              "internalType": "address",
              "name": "",
              "type": "address"
            }
          ],
          "name": "balances",
          "outputs": [
            {
              "internalType": "uint256",
              "name": "",
              "type": "uint256"
            }
          ],
          "stateMutability": "view",
          "type": "function"
        },
        {
          "inputs": [
            {
              "internalType": "address[]",
              "name": "recipients",
              "type": "address[]"
            },
            {
              "internalType": "uint256[]",
              "name": "amounts",
              "type": "uint256[]"
            }
          ],
          "name": "bulkDepositTokens",
          "outputs": [],
          "stateMutability": "nonpayable",
          "type": "function"
        },
        {
          "inputs": [
            {
              "internalType": "address",
              "name": "recipient",
              "type": "address"
            },
            {
              "internalType": "uint256",
              "name": "amount",
              "type": "uint256"
            },
            {
              "internalType": "uint256[]",
              "name": "_ogSumoList",
              "type": "uint256[]"
            },
            {
              "internalType": "uint256[]",
              "name": "_xSumoList",
              "type": "uint256[]"
            },
            {
              "internalType": "string",
              "name": "secretPhase",
              "type": "string"
            }
          ],
          "name": "claimAirdropToken",
          "outputs": [],
          "stateMutability": "payable",
          "type": "function"
        },
        {
          "inputs": [],
          "name": "cliffEdge",
          "outputs": [
            {
              "internalType": "uint256",
              "name": "",
              "type": "uint256"
            }
          ],
          "stateMutability": "view",
          "type": "function"
        },
        {
          "inputs": [],
          "name": "contractBalance",
          "outputs": [
            {
              "internalType": "uint256",
              "name": "",
              "type": "uint256"
            }
          ],
          "stateMutability": "view",
          "type": "function"
        },
        {
          "inputs": [
            {
              "internalType": "address",
              "name": "recipient",
              "type": "address"
            },
            {
              "internalType": "uint256",
              "name": "amount",
              "type": "uint256"
            }
          ],
          "name": "depositTokens",
          "outputs": [],
          "stateMutability": "nonpayable",
          "type": "function"
        },
        {
          "inputs": [],
          "name": "erc20Contract",
          "outputs": [
            {
              "internalType": "contract IERC20",
              "name": "",
              "type": "address"
            }
          ],
          "stateMutability": "view",
          "type": "function"
        },
        {
          "inputs": [],
          "name": "finalizeAllIncomingDeposits",
          "outputs": [],
          "stateMutability": "nonpayable",
          "type": "function"
        },
        {
          "inputs": [
            {
              "internalType": "address",
              "name": "to",
              "type": "address"
            }
          ],
          "name": "getTotalAvailableAmount",
          "outputs": [
            {
              "internalType": "uint256",
              "name": "",
              "type": "uint256"
            }
          ],
          "stateMutability": "view",
          "type": "function"
        },
        {
          "inputs": [
            {
              "internalType": "address",
              "name": "to",
              "type": "address"
            }
          ],
          "name": "getWithdrawalAmount",
          "outputs": [
            {
              "internalType": "uint256",
              "name": "",
              "type": "uint256"
            }
          ],
          "stateMutability": "view",
          "type": "function"
        },
        {
          "inputs": [
            {
              "internalType": "address",
              "name": "to",
              "type": "address"
            }
          ],
          "name": "getWithdrawalAmountNotVested",
          "outputs": [
            {
              "internalType": "uint256",
              "name": "",
              "type": "uint256"
            }
          ],
          "stateMutability": "view",
          "type": "function"
        },
        {
          "inputs": [],
          "name": "initialTimestamp",
          "outputs": [
            {
              "internalType": "uint256",
              "name": "",
              "type": "uint256"
            }
          ],
          "stateMutability": "view",
          "type": "function"
        },
        {
          "inputs": [],
          "name": "owner",
          "outputs": [
            {
              "internalType": "address payable",
              "name": "",
              "type": "address"
            }
          ],
          "stateMutability": "view",
          "type": "function"
        },
        {
          "inputs": [],
          "name": "releaseEdge",
          "outputs": [
            {
              "internalType": "uint256",
              "name": "",
              "type": "uint256"
            }
          ],
          "stateMutability": "view",
          "type": "function"
        },
        {
          "inputs": [
            {
              "internalType": "int256",
              "name": "_cliffTimePeriod",
              "type": "int256"
            },
            {
              "internalType": "int256",
              "name": "_releaseTimePeriod",
              "type": "int256"
            }
          ],
          "name": "setTimestamp",
          "outputs": [],
          "stateMutability": "nonpayable",
          "type": "function"
        },
        {
          "inputs": [],
          "name": "timestampSet",
          "outputs": [
            {
              "internalType": "bool",
              "name": "",
              "type": "bool"
            }
          ],
          "stateMutability": "view",
          "type": "function"
        },
        {
          "inputs": [
            {
              "internalType": "contract IERC20",
              "name": "token",
              "type": "address"
            },
            {
              "internalType": "uint256",
              "name": "amount",
              "type": "uint256"
            }
          ],
          "name": "transferAccidentallyLockedTokens",
          "outputs": [],
          "stateMutability": "nonpayable",
          "type": "function"
        },
        {
          "inputs": [
            {
              "internalType": "contract IERC20",
              "name": "token",
              "type": "address"
            },
            {
              "internalType": "address",
              "name": "to",
              "type": "address"
            },
            {
              "internalType": "uint256",
              "name": "amount",
              "type": "uint256"
            }
          ],
          "name": "transferTimeLockedTokensAfterTimePeriod",
          "outputs": [],
          "stateMutability": "nonpayable",
          "type": "function"
        },
        {
          "inputs": [],
          "name": "walletOwner",
          "outputs": [
            {
              "internalType": "address",
              "name": "",
              "type": "address"
            }
          ],
          "stateMutability": "view",
          "type": "function"
        },
        {
          "inputs": [
            {
              "internalType": "uint256",
              "name": "amount",
              "type": "uint256"
            }
          ],
          "name": "withdrawEth",
          "outputs": [],
          "stateMutability": "nonpayable",
          "type": "function"
        },
        {
          "stateMutability": "payable",
          "type": "receive"
        }
      ],
      "evm": {
        "bytecode": {
          "linkReferences": {},
          "object": "608060405234801561001057600080fd5b5060008054610100600160b01b03191661010033908102919091179091556002805460ff19169055733c1e3b0ad165a4bb19aee73eaddc5919996d4e8b14156100ab5760405162461bcd60e51b8152602060048201526024808201527f6f776e657220616464726573732063616e206e6f742062652030784332432e2e6044820152632e65346160e01b606482015260840160405180910390fd5b600980546001600160a01b031990811673102203517ce35ac5cab9a2cda80df03f26c7419b17909155600580549091167352e595835c862c6f70275a038bde771f743257811790556000805460ff19169055611d888061010c6000396000f3fe6080604052600436106101395760003560e01c80638b7afe2e116100ab578063a53636641161006f578063a536366414610336578063a8f6c91314610401578063c311d04914610421578063d148429814610441578063d6d1417114610461578063ff4804801461047757600080fd5b80638b7afe2e1461036c5780638c5d0d2a146103825780638da5cb5b146103955780639aa2e39e146103ba5780639b69279a146103e757600080fd5b80633e994942116100fd5780633e994942146102855780634acf914d146102a557806355ce3866146102c557806356582bf9146102f657806366168bd71461031657806369343f271461033657600080fd5b806302cc6e3f146101c0578063084c28d6146101d7578063199b6bba146102005780631ae879e81461022057806327e235e31461025857600080fd5b366101bb57600054600160a81b900460ff16156101715760405162461bcd60e51b815260040161016890611bc4565b60405180910390fd5b60085461017e903461048d565b600855604080513381523460208201527f59062170a285eb80e8c6b8ced60428442a51910635005233fc4ce084a475845e910160405180910390a1005b600080fd5b3480156101cc57600080fd5b506101d56104a0565b005b3480156101e357600080fd5b506101ed60035481565b6040519081526020015b60405180910390f35b34801561020c57600080fd5b506101d561021b36600461198d565b610535565b34801561022c57600080fd5b50600554610240906001600160a01b031681565b6040516001600160a01b0390911681526020016101f7565b34801561026457600080fd5b506101ed6102733660046117ca565b60076020526000908152604090205481565b34801561029157600080fd5b506101d56102a03660046119cd565b610a8e565b3480156102b157600080fd5b506101d56102c03660046119df565b610b70565b3480156102d157600080fd5b506000546102e690600160a81b900460ff1681565b60405190151581526020016101f7565b34801561030257600080fd5b506101ed6103113660046117ca565b610ce4565b34801561032257600080fd5b506101d56103313660046117e6565b610d62565b34801561034257600080fd5b506101ed6103513660046117ca565b6001600160a01b031660009081526007602052604090205490565b34801561037857600080fd5b506101ed60085481565b6101d5610390366004611811565b610e8c565b3480156103a157600080fd5b506000546102409061010090046001600160a01b031681565b3480156103c657600080fd5b506101ed6103d53660046117ca565b60066020526000908152604090205481565b3480156103f357600080fd5b506002546102e69060ff1681565b34801561040d57600080fd5b50600954610240906001600160a01b031681565b34801561042d57600080fd5b506101d561043c366004611a00565b611019565b34801561044d57600080fd5b506101d561045c366004611904565b61110c565b34801561046d57600080fd5b506101ed60015481565b34801561048357600080fd5b506101ed60045481565b60006104998284611c3b565b9392505050565b60005461010090046001600160a01b031633146104cf5760405162461bcd60e51b815260040161016890611b78565b60025460ff1615156001146104f65760405162461bcd60e51b815260040161016890611b00565b600054600160a81b900460ff16156105205760405162461bcd60e51b815260040161016890611bc4565b6000805460ff60a81b1916600160a81b179055565b60025460ff16151560011461055c5760405162461bcd60e51b815260040161016890611b00565b60005460ff161561057f5760405162461bcd60e51b815260040161016890611b50565b6000805460ff191660011790556001600160a01b0382166105b25760405162461bcd60e51b815260040161016890611a67565b6001600160a01b0382166000908152600760205260409020548111156106305760405162461bcd60e51b815260206004820152602d60248201527f496e73756666696369656e7420746f6b656e2062616c616e63652c207472792060448201526c1b195cdcd95c88185b5bdd5b9d609a1b6064820152608401610168565b336001600160a01b038316146106a05760405162461bcd60e51b815260206004820152602f60248201527f4f6e6c792074686520746f6b656e20726563697069656e742063616e2070657260448201526e666f726d2074686520756e6c6f636b60881b6064820152608401610168565b6009546001600160a01b038481169116146107575760405162461bcd60e51b8152602060048201526064602482018190527f546f6b656e20706172616d65746572206d757374206265207468652073616d6560448301527f2061732074686520657263323020636f6e747261637420616464726573732077908201527f68696368207761732070617373656420696e746f2074686520636f6e7374727560848201526331ba37b960e11b60a482015260c401610168565b60035442116107ce5760405162461bcd60e51b815260206004820152603f60248201527f546f6b656e7320617265206f6e6c7920617661696c61626c652061667465722060448201527f636f72726563742074696d6520706572696f642068617320656c6170736564006064820152608401610168565b60045442111561089b576001600160a01b0382166000908152600660205260409020546107fb908261048d565b6001600160a01b03831660009081526006602090815260408083209390935560079052205461082a908261142f565b6001600160a01b03808416600090815260076020526040902091909155610854908416838361143b565b604080516001600160a01b0384168152602081018390527fe7b379c6c1fa169e9079c25e9143b127637eef8ec8c9d5c06ddb4ab3e1195888910160405180910390a1610a7f565b6001600160a01b03821660009081526007602090815260408083205460069092528220546108c89161048d565b9050600061090b6108e660035460045461142f90919063ffffffff16565b6109056108fe6003544261142f90919063ffffffff16565b8590611492565b9061149e565b6001600160a01b038516600090815260066020526040812054919250906109329083611c92565b9050808411156109bd5760405162461bcd60e51b815260206004820152604a60248201527f546f6b656e20616d6f756e74206e6f7420617661696c61626c6520666f72207560448201527f6e6c6f636b207269676874206e6f772c20706c6561736520747279206c65737360648201526932b91030b6b7bab73a1760b11b608482015260a401610168565b6001600160a01b0385166000908152600660205260409020546109e0908561048d565b6001600160a01b038616600090815260066020908152604080832093909355600790522054610a0f908561142f565b6001600160a01b03808716600090815260076020526040902091909155610a39908716868661143b565b604080516001600160a01b0387168152602081018690527fe7b379c6c1fa169e9079c25e9143b127637eef8ec8c9d5c06ddb4ab3e1195888910160405180910390a15050505b50506000805460ff1916905550565b60005461010090046001600160a01b03163314610abd5760405162461bcd60e51b815260040161016890611b78565b60005460ff1615610ae05760405162461bcd60e51b815260040161016890611b50565b6000805460ff191660011790556001600160a01b038216610b435760405162461bcd60e51b815260206004820152601d60248201527f546f6b656e20616464726573732063616e206e6f74206265207a65726f0000006044820152606401610168565b600054610b62906001600160a01b03848116916101009004168361143b565b50506000805460ff19169055565b60005461010090046001600160a01b03163314610b9f5760405162461bcd60e51b815260040161016890611b78565b60025460ff1615610bfe5760405162461bcd60e51b8152602060048201526024808201527f5468652074696d65207374616d702068617320616c7265616479206265656e2060448201526339b2ba1760e11b6064820152608401610168565b8115801590610c0c57508015155b610c585760405162461bcd60e51b815260206004820152601c60248201527f54696d6520706572696f64732063616e206e6f74206265207a65726f000000006044820152606401610168565b6002805460ff191660019081179091554290556000821315610c8957600154610c81908361048d565b600355610ca2565b610c9e610c9583611cf4565b6001549061142f565b6003555b6000811315610cc057600154610cb8908261048d565b600455610cd0565b610ccc610c9582611cf4565b6004555b60045460035410610ce057600080fd5b5050565b6001600160a01b03811660009081526007602090815260408083205460069092528220548291610d14919061048d565b90506000610d326108e660035460045461142f90919063ffffffff16565b6001600160a01b03851660009081526006602052604081205491925090610d599083611c92565b95945050505050565b60005461010090046001600160a01b03163314610d915760405162461bcd60e51b815260040161016890611b78565b600054600160a81b900460ff1615610dbb5760405162461bcd60e51b815260040161016890611bc4565b600354600454610dca9161142f565b811015610de95760405162461bcd60e51b815260040161016890611aaa565b6001600160a01b038216610e0f5760405162461bcd60e51b815260040161016890611a67565b6001600160a01b038216600090815260076020526040902054610e32908261048d565b6001600160a01b0383166000818152600760209081526040918290209390935580519182529181018390527fcad22dd3bcdad18c651a372fe3e7e893af3d354482d9ac6c310c8342eb7af574910160405180910390a15050565b600054600160a81b900460ff1615610eb65760405162461bcd60e51b815260040161016890611bc4565b600354600454610ec59161142f565b841015610ee45760405162461bcd60e51b815260040161016890611aaa565b6040805180820190915260208082527f3231343132353434324134373244344236313530363435333637353636423539818301528251908301207f82eaff15766a91ae7e1dc53b0a78406c1948a404293d4109d775421dbd4d660014610f845760405162461bcd60e51b81526020600482015260156024820152744e6f742066726f6d206d61696e207765627369746560581b6044820152606401610168565b6001600160a01b038616610faa5760405162461bcd60e51b815260040161016890611a67565b33600090815260076020526040902054610fc4908661048d565b336000818152600760209081526040918290209390935580519182529181018790527fcad22dd3bcdad18c651a372fe3e7e893af3d354482d9ac6c310c8342eb7af574910160405180910390a1505050505050565b60005461010090046001600160a01b031633146110485760405162461bcd60e51b815260040161016890611b78565b60005460ff161561106b5760405162461bcd60e51b815260040161016890611b50565b6000805460ff191660011790556008548111156110bf5760405162461bcd60e51b8152602060048201526012602482015271496e73756666696369656e742066756e647360701b6044820152606401610168565b6008546110cc908261142f565b600855600080546040516101009091046001600160a01b0316916108fc841502918491818181858888f19350505050158015610b62573d6000803e3d6000fd5b60005461010090046001600160a01b0316331461113b5760405162461bcd60e51b815260040161016890611b78565b600054600160a81b900460ff16156111655760405162461bcd60e51b815260040161016890611bc4565b8281146111e45760405162461bcd60e51b815260206004820152604160248201527f54686520726563697069656e747320616e6420616d6f756e747320617272617960448201527f73206d757374206265207468652073616d652073697a6520696e206c656e67746064820152600d60fb1b608482015260a401610168565b60005b8381101561142857600085858381811061121157634e487b7160e01b600052603260045260246000fd5b905060200201602081019061122691906117ca565b6001600160a01b0316141561124d5760405162461bcd60e51b815260040161016890611a67565b60035460045461125c9161142f565b83838381811061127c57634e487b7160e01b600052603260045260246000fd5b9050602002013510156112a15760405162461bcd60e51b815260040161016890611aaa565b6113248383838181106112c457634e487b7160e01b600052603260045260246000fd5b90506020020135600760008888868181106112ef57634e487b7160e01b600052603260045260246000fd5b905060200201602081019061130491906117ca565b6001600160a01b031681526020810191909152604001600020549061048d565b6007600087878581811061134857634e487b7160e01b600052603260045260246000fd5b905060200201602081019061135d91906117ca565b6001600160a01b031681526020810191909152604001600020557fcad22dd3bcdad18c651a372fe3e7e893af3d354482d9ac6c310c8342eb7af5748585838181106113b857634e487b7160e01b600052603260045260246000fd5b90506020020160208101906113cd91906117ca565b8484848181106113ed57634e487b7160e01b600052603260045260246000fd5b604080516001600160a01b0390951685526020918202939093013590840152500160405180910390a18061142081611cd9565b9150506111e7565b5050505050565b60006104998284611c92565b604080516001600160a01b038416602482015260448082018490528251808303909101815260649091019091526020810180516001600160e01b031663a9059cbb60e01b17905261148d9084906114aa565b505050565b60006104998284611c73565b60006104998284611c53565b60006114ff826040518060400160405280602081526020017f5361666545524332303a206c6f772d6c6576656c2063616c6c206661696c6564815250856001600160a01b031661157c9092919063ffffffff16565b80519091501561148d578080602001905181019061151d919061196d565b61148d5760405162461bcd60e51b815260206004820152602a60248201527f5361666545524332303a204552433230206f7065726174696f6e20646964206e6044820152691bdd081cdd58d8d9595960b21b6064820152608401610168565b606061158b8484600085611593565b949350505050565b6060824710156115f45760405162461bcd60e51b815260206004820152602660248201527f416464726573733a20696e73756666696369656e742062616c616e636520666f6044820152651c8818d85b1b60d21b6064820152608401610168565b6001600160a01b0385163b61164b5760405162461bcd60e51b815260206004820152601d60248201527f416464726573733a2063616c6c20746f206e6f6e2d636f6e74726163740000006044820152606401610168565b600080866001600160a01b031685876040516116679190611a18565b60006040518083038185875af1925050503d80600081146116a4576040519150601f19603f3d011682016040523d82523d6000602084013e6116a9565b606091505b50915091506116b98282866116c4565b979650505050505050565b606083156116d3575081610499565b8251156116e35782518084602001fd5b8160405162461bcd60e51b81526004016101689190611a34565b60008083601f84011261170e578182fd5b50813567ffffffffffffffff811115611725578182fd5b6020830191508360208260051b850101111561174057600080fd5b9250929050565b600082601f830112611757578081fd5b8135602067ffffffffffffffff82111561177357611773611d24565b8160051b611782828201611c0a565b83815282810190868401838801850189101561179c578687fd5b8693505b858410156117be5780358352600193909301929184019184016117a0565b50979650505050505050565b6000602082840312156117db578081fd5b813561049981611d3a565b600080604083850312156117f8578081fd5b823561180381611d3a565b946020939093013593505050565b600080600080600060a08688031215611828578081fd5b853561183381611d3a565b94506020868101359450604087013567ffffffffffffffff80821115611857578384fd5b6118638a838b01611747565b95506060890135915080821115611878578384fd5b6118848a838b01611747565b94506080890135915080821115611899578384fd5b818901915089601f8301126118ac578384fd5b8135818111156118be576118be611d24565b6118d0601f8201601f19168501611c0a565b91508082528a848285010111156118e5578485fd5b8084840185840137810190920192909252949793965091945092919050565b60008060008060408587031215611919578384fd5b843567ffffffffffffffff80821115611930578586fd5b61193c888389016116fd565b90965094506020870135915080821115611954578384fd5b50611961878288016116fd565b95989497509550505050565b60006020828403121561197e578081fd5b81518015158114610499578182fd5b6000806000606084860312156119a1578283fd5b83356119ac81611d3a565b925060208401356119bc81611d3a565b929592945050506040919091013590565b600080604083850312156117f8578182fd5b600080604083850312156119f1578182fd5b50508035926020909101359150565b600060208284031215611a11578081fd5b5035919050565b60008251611a2a818460208701611ca9565b9190910192915050565b6020815260008251806020840152611a53816040850160208701611ca9565b601f01601f19169190910160400192915050565b60208082526023908201527f45524332303a207472616e7366657220746f20746865207a65726f206164647260408201526265737360e81b606082015260800190565b60208082526036908201527f416d6f756e74206465706f7369746564206d7573742062652067726561746572604082015275081d1a185b881b995d14995b19585cd954195c9a5bd960521b606082015260800190565b60208082526030908201527f506c6561736520736574207468652074696d65207374616d702066697273742c60408201526f103a3432b7103a393c9030b3b0b4b71760811b606082015260800190565b6020808252600e908201526d4e6f2072652d656e7472616e637960901b604082015260600190565b6020808252602c908201527f4d6573736167652073656e646572206d7573742062652074686520636f6e747260408201526b30b1ba13b99037bbb732b91760a11b606082015260800190565b60208082526026908201527f496e636f6d696e67206465706f736974732068617665206265656e2066696e616040820152653634b9b2b21760d11b606082015260800190565b604051601f8201601f1916810167ffffffffffffffff81118282101715611c3357611c33611d24565b604052919050565b60008219821115611c4e57611c4e611d0e565b500190565b600082611c6e57634e487b7160e01b81526012600452602481fd5b500490565b6000816000190483118215151615611c8d57611c8d611d0e565b500290565b600082821015611ca457611ca4611d0e565b500390565b60005b83811015611cc4578181015183820152602001611cac565b83811115611cd3576000848401525b50505050565b6000600019821415611ced57611ced611d0e565b5060010190565b6000600160ff1b821415611d0a57611d0a611d0e565b0390565b634e487b7160e01b600052601160045260246000fd5b634e487b7160e01b600052604160045260246000fd5b6001600160a01b0381168114611d4f57600080fd5b5056fea2646970667358221220837ee30f60c65697015dc25d0ec4846dff3edb4ee2839e3f55682e30bd9e387464736f6c63430008040033",
          "opcodes": "PUSH1 0x80 PUSH1 0x40 MSTORE CALLVALUE DUP1 ISZERO PUSH2 0x10 JUMPI PUSH1 0x0 DUP1 REVERT JUMPDEST POP PUSH1 0x0 DUP1 SLOAD PUSH2 0x100 PUSH1 0x1 PUSH1 0xB0 SHL SUB NOT AND PUSH2 0x100 CALLER SWAP1 DUP2 MUL SWAP2 SWAP1 SWAP2 OR SWAP1 SWAP2 SSTORE PUSH1 0x2 DUP1 SLOAD PUSH1 0xFF NOT AND SWAP1 SSTORE PUSH20 0x3C1E3B0AD165A4BB19AEE73EADDC5919996D4E8B EQ ISZERO PUSH2 0xAB JUMPI PUSH1 0x40 MLOAD PUSH3 0x461BCD PUSH1 0xE5 SHL DUP2 MSTORE PUSH1 0x20 PUSH1 0x4 DUP3 ADD MSTORE PUSH1 0x24 DUP1 DUP3 ADD MSTORE PUSH32 0x6F776E657220616464726573732063616E206E6F742062652030784332432E2E PUSH1 0x44 DUP3 ADD MSTORE PUSH4 0x2E653461 PUSH1 0xE0 SHL PUSH1 0x64 DUP3 ADD MSTORE PUSH1 0x84 ADD PUSH1 0x40 MLOAD DUP1 SWAP2 SUB SWAP1 REVERT JUMPDEST PUSH1 0x9 DUP1 SLOAD PUSH1 0x1 PUSH1 0x1 PUSH1 0xA0 SHL SUB NOT SWAP1 DUP2 AND PUSH20 0x102203517CE35AC5CAB9A2CDA80DF03F26C7419B OR SWAP1 SWAP2 SSTORE PUSH1 0x5 DUP1 SLOAD SWAP1 SWAP2 AND PUSH20 0x52E595835C862C6F70275A038BDE771F74325781 OR SWAP1 SSTORE PUSH1 0x0 DUP1 SLOAD PUSH1 0xFF NOT AND SWAP1 SSTORE PUSH2 0x1D88 DUP1 PUSH2 0x10C PUSH1 0x0 CODECOPY PUSH1 0x0 RETURN INVALID PUSH1 0x80 PUSH1 0x40 MSTORE PUSH1 0x4 CALLDATASIZE LT PUSH2 0x139 JUMPI PUSH1 0x0 CALLDATALOAD PUSH1 0xE0 SHR DUP1 PUSH4 0x8B7AFE2E GT PUSH2 0xAB JUMPI DUP1 PUSH4 0xA5363664 GT PUSH2 0x6F JUMPI DUP1 PUSH4 0xA5363664 EQ PUSH2 0x336 JUMPI DUP1 PUSH4 0xA8F6C913 EQ PUSH2 0x401 JUMPI DUP1 PUSH4 0xC311D049 EQ PUSH2 0x421 JUMPI DUP1 PUSH4 0xD1484298 EQ PUSH2 0x441 JUMPI DUP1 PUSH4 0xD6D14171 EQ PUSH2 0x461 JUMPI DUP1 PUSH4 0xFF480480 EQ PUSH2 0x477 JUMPI PUSH1 0x0 DUP1 REVERT JUMPDEST DUP1 PUSH4 0x8B7AFE2E EQ PUSH2 0x36C JUMPI DUP1 PUSH4 0x8C5D0D2A EQ PUSH2 0x382 JUMPI DUP1 PUSH4 0x8DA5CB5B EQ PUSH2 0x395 JUMPI DUP1 PUSH4 0x9AA2E39E EQ PUSH2 0x3BA JUMPI DUP1 PUSH4 0x9B69279A EQ PUSH2 0x3E7 JUMPI PUSH1 0x0 DUP1 REVERT JUMPDEST DUP1 PUSH4 0x3E994942 GT PUSH2 0xFD JUMPI DUP1 PUSH4 0x3E994942 EQ PUSH2 0x285 JUMPI DUP1 PUSH4 0x4ACF914D EQ PUSH2 0x2A5 JUMPI DUP1 PUSH4 0x55CE3866 EQ PUSH2 0x2C5 JUMPI DUP1 PUSH4 0x56582BF9 EQ PUSH2 0x2F6 JUMPI DUP1 PUSH4 0x66168BD7 EQ PUSH2 0x316 JUMPI DUP1 PUSH4 0x69343F27 EQ PUSH2 0x336 JUMPI PUSH1 0x0 DUP1 REVERT JUMPDEST DUP1 PUSH4 0x2CC6E3F EQ PUSH2 0x1C0 JUMPI DUP1 PUSH4 0x84C28D6 EQ PUSH2 0x1D7 JUMPI DUP1 PUSH4 0x199B6BBA EQ PUSH2 0x200 JUMPI DUP1 PUSH4 0x1AE879E8 EQ PUSH2 0x220 JUMPI DUP1 PUSH4 0x27E235E3 EQ PUSH2 0x258 JUMPI PUSH1 0x0 DUP1 REVERT JUMPDEST CALLDATASIZE PUSH2 0x1BB JUMPI PUSH1 0x0 SLOAD PUSH1 0x1 PUSH1 0xA8 SHL SWAP1 DIV PUSH1 0xFF AND ISZERO PUSH2 0x171 JUMPI PUSH1 0x40 MLOAD PUSH3 0x461BCD PUSH1 0xE5 SHL DUP2 MSTORE PUSH1 0x4 ADD PUSH2 0x168 SWAP1 PUSH2 0x1BC4 JUMP JUMPDEST PUSH1 0x40 MLOAD DUP1 SWAP2 SUB SWAP1 REVERT JUMPDEST PUSH1 0x8 SLOAD PUSH2 0x17E SWAP1 CALLVALUE PUSH2 0x48D JUMP JUMPDEST PUSH1 0x8 SSTORE PUSH1 0x40 DUP1 MLOAD CALLER DUP2 MSTORE CALLVALUE PUSH1 0x20 DUP3 ADD MSTORE PUSH32 0x59062170A285EB80E8C6B8CED60428442A51910635005233FC4CE084A475845E SWAP2 ADD PUSH1 0x40 MLOAD DUP1 SWAP2 SUB SWAP1 LOG1 STOP JUMPDEST PUSH1 0x0 DUP1 REVERT JUMPDEST CALLVALUE DUP1 ISZERO PUSH2 0x1CC JUMPI PUSH1 0x0 DUP1 REVERT JUMPDEST POP PUSH2 0x1D5 PUSH2 0x4A0 JUMP JUMPDEST STOP JUMPDEST CALLVALUE DUP1 ISZERO PUSH2 0x1E3 JUMPI PUSH1 0x0 DUP1 REVERT JUMPDEST POP PUSH2 0x1ED PUSH1 0x3 SLOAD DUP2 JUMP JUMPDEST PUSH1 0x40 MLOAD SWAP1 DUP2 MSTORE PUSH1 0x20 ADD JUMPDEST PUSH1 0x40 MLOAD DUP1 SWAP2 SUB SWAP1 RETURN JUMPDEST CALLVALUE DUP1 ISZERO PUSH2 0x20C JUMPI PUSH1 0x0 DUP1 REVERT JUMPDEST POP PUSH2 0x1D5 PUSH2 0x21B CALLDATASIZE PUSH1 0x4 PUSH2 0x198D JUMP JUMPDEST PUSH2 0x535 JUMP JUMPDEST CALLVALUE DUP1 ISZERO PUSH2 0x22C JUMPI PUSH1 0x0 DUP1 REVERT JUMPDEST POP PUSH1 0x5 SLOAD PUSH2 0x240 SWAP1 PUSH1 0x1 PUSH1 0x1 PUSH1 0xA0 SHL SUB AND DUP2 JUMP JUMPDEST PUSH1 0x40 MLOAD PUSH1 0x1 PUSH1 0x1 PUSH1 0xA0 SHL SUB SWAP1 SWAP2 AND DUP2 MSTORE PUSH1 0x20 ADD PUSH2 0x1F7 JUMP JUMPDEST CALLVALUE DUP1 ISZERO PUSH2 0x264 JUMPI PUSH1 0x0 DUP1 REVERT JUMPDEST POP PUSH2 0x1ED PUSH2 0x273 CALLDATASIZE PUSH1 0x4 PUSH2 0x17CA JUMP JUMPDEST PUSH1 0x7 PUSH1 0x20 MSTORE PUSH1 0x0 SWAP1 DUP2 MSTORE PUSH1 0x40 SWAP1 KECCAK256 SLOAD DUP2 JUMP JUMPDEST CALLVALUE DUP1 ISZERO PUSH2 0x291 JUMPI PUSH1 0x0 DUP1 REVERT JUMPDEST POP PUSH2 0x1D5 PUSH2 0x2A0 CALLDATASIZE PUSH1 0x4 PUSH2 0x19CD JUMP JUMPDEST PUSH2 0xA8E JUMP JUMPDEST CALLVALUE DUP1 ISZERO PUSH2 0x2B1 JUMPI PUSH1 0x0 DUP1 REVERT JUMPDEST POP PUSH2 0x1D5 PUSH2 0x2C0 CALLDATASIZE PUSH1 0x4 PUSH2 0x19DF JUMP JUMPDEST PUSH2 0xB70 JUMP JUMPDEST CALLVALUE DUP1 ISZERO PUSH2 0x2D1 JUMPI PUSH1 0x0 DUP1 REVERT JUMPDEST POP PUSH1 0x0 SLOAD PUSH2 0x2E6 SWAP1 PUSH1 0x1 PUSH1 0xA8 SHL SWAP1 DIV PUSH1 0xFF AND DUP2 JUMP JUMPDEST PUSH1 0x40 MLOAD SWAP1 ISZERO ISZERO DUP2 MSTORE PUSH1 0x20 ADD PUSH2 0x1F7 JUMP JUMPDEST CALLVALUE DUP1 ISZERO PUSH2 0x302 JUMPI PUSH1 0x0 DUP1 REVERT JUMPDEST POP PUSH2 0x1ED PUSH2 0x311 CALLDATASIZE PUSH1 0x4 PUSH2 0x17CA JUMP JUMPDEST PUSH2 0xCE4 JUMP JUMPDEST CALLVALUE DUP1 ISZERO PUSH2 0x322 JUMPI PUSH1 0x0 DUP1 REVERT JUMPDEST POP PUSH2 0x1D5 PUSH2 0x331 CALLDATASIZE PUSH1 0x4 PUSH2 0x17E6 JUMP JUMPDEST PUSH2 0xD62 JUMP JUMPDEST CALLVALUE DUP1 ISZERO PUSH2 0x342 JUMPI PUSH1 0x0 DUP1 REVERT JUMPDEST POP PUSH2 0x1ED PUSH2 0x351 CALLDATASIZE PUSH1 0x4 PUSH2 0x17CA JUMP JUMPDEST PUSH1 0x1 PUSH1 0x1 PUSH1 0xA0 SHL SUB AND PUSH1 0x0 SWAP1 DUP2 MSTORE PUSH1 0x7 PUSH1 0x20 MSTORE PUSH1 0x40 SWAP1 KECCAK256 SLOAD SWAP1 JUMP JUMPDEST CALLVALUE DUP1 ISZERO PUSH2 0x378 JUMPI PUSH1 0x0 DUP1 REVERT JUMPDEST POP PUSH2 0x1ED PUSH1 0x8 SLOAD DUP2 JUMP JUMPDEST PUSH2 0x1D5 PUSH2 0x390 CALLDATASIZE PUSH1 0x4 PUSH2 0x1811 JUMP JUMPDEST PUSH2 0xE8C JUMP JUMPDEST CALLVALUE DUP1 ISZERO PUSH2 0x3A1 JUMPI PUSH1 0x0 DUP1 REVERT JUMPDEST POP PUSH1 0x0 SLOAD PUSH2 0x240 SWAP1 PUSH2 0x100 SWAP1 DIV PUSH1 0x1 PUSH1 0x1 PUSH1 0xA0 SHL SUB AND DUP2 JUMP JUMPDEST CALLVALUE DUP1 ISZERO PUSH2 0x3C6 JUMPI PUSH1 0x0 DUP1 REVERT JUMPDEST POP PUSH2 0x1ED PUSH2 0x3D5 CALLDATASIZE PUSH1 0x4 PUSH2 0x17CA JUMP JUMPDEST PUSH1 0x6 PUSH1 0x20 MSTORE PUSH1 0x0 SWAP1 DUP2 MSTORE PUSH1 0x40 SWAP1 KECCAK256 SLOAD DUP2 JUMP JUMPDEST CALLVALUE DUP1 ISZERO PUSH2 0x3F3 JUMPI PUSH1 0x0 DUP1 REVERT JUMPDEST POP PUSH1 0x2 SLOAD PUSH2 0x2E6 SWAP1 PUSH1 0xFF AND DUP2 JUMP JUMPDEST CALLVALUE DUP1 ISZERO PUSH2 0x40D JUMPI PUSH1 0x0 DUP1 REVERT JUMPDEST POP PUSH1 0x9 SLOAD PUSH2 0x240 SWAP1 PUSH1 0x1 PUSH1 0x1 PUSH1 0xA0 SHL SUB AND DUP2 JUMP JUMPDEST CALLVALUE DUP1 ISZERO PUSH2 0x42D JUMPI PUSH1 0x0 DUP1 REVERT JUMPDEST POP PUSH2 0x1D5 PUSH2 0x43C CALLDATASIZE PUSH1 0x4 PUSH2 0x1A00 JUMP JUMPDEST PUSH2 0x1019 JUMP JUMPDEST CALLVALUE DUP1 ISZERO PUSH2 0x44D JUMPI PUSH1 0x0 DUP1 REVERT JUMPDEST POP PUSH2 0x1D5 PUSH2 0x45C CALLDATASIZE PUSH1 0x4 PUSH2 0x1904 JUMP JUMPDEST PUSH2 0x110C JUMP JUMPDEST CALLVALUE DUP1 ISZERO PUSH2 0x46D JUMPI PUSH1 0x0 DUP1 REVERT JUMPDEST POP PUSH2 0x1ED PUSH1 0x1 SLOAD DUP2 JUMP JUMPDEST CALLVALUE DUP1 ISZERO PUSH2 0x483 JUMPI PUSH1 0x0 DUP1 REVERT JUMPDEST POP PUSH2 0x1ED PUSH1 0x4 SLOAD DUP2 JUMP JUMPDEST PUSH1 0x0 PUSH2 0x499 DUP3 DUP5 PUSH2 0x1C3B JUMP JUMPDEST SWAP4 SWAP3 POP POP POP JUMP JUMPDEST PUSH1 0x0 SLOAD PUSH2 0x100 SWAP1 DIV PUSH1 0x1 PUSH1 0x1 PUSH1 0xA0 SHL SUB AND CALLER EQ PUSH2 0x4CF JUMPI PUSH1 0x40 MLOAD PUSH3 0x461BCD PUSH1 0xE5 SHL DUP2 MSTORE PUSH1 0x4 ADD PUSH2 0x168 SWAP1 PUSH2 0x1B78 JUMP JUMPDEST PUSH1 0x2 SLOAD PUSH1 0xFF AND ISZERO ISZERO PUSH1 0x1 EQ PUSH2 0x4F6 JUMPI PUSH1 0x40 MLOAD PUSH3 0x461BCD PUSH1 0xE5 SHL DUP2 MSTORE PUSH1 0x4 ADD PUSH2 0x168 SWAP1 PUSH2 0x1B00 JUMP JUMPDEST PUSH1 0x0 SLOAD PUSH1 0x1 PUSH1 0xA8 SHL SWAP1 DIV PUSH1 0xFF AND ISZERO PUSH2 0x520 JUMPI PUSH1 0x40 MLOAD PUSH3 0x461BCD PUSH1 0xE5 SHL DUP2 MSTORE PUSH1 0x4 ADD PUSH2 0x168 SWAP1 PUSH2 0x1BC4 JUMP JUMPDEST PUSH1 0x0 DUP1 SLOAD PUSH1 0xFF PUSH1 0xA8 SHL NOT AND PUSH1 0x1 PUSH1 0xA8 SHL OR SWAP1 SSTORE JUMP JUMPDEST PUSH1 0x2 SLOAD PUSH1 0xFF AND ISZERO ISZERO PUSH1 0x1 EQ PUSH2 0x55C JUMPI PUSH1 0x40 MLOAD PUSH3 0x461BCD PUSH1 0xE5 SHL DUP2 MSTORE PUSH1 0x4 ADD PUSH2 0x168 SWAP1 PUSH2 0x1B00 JUMP JUMPDEST PUSH1 0x0 SLOAD PUSH1 0xFF AND ISZERO PUSH2 0x57F JUMPI PUSH1 0x40 MLOAD PUSH3 0x461BCD PUSH1 0xE5 SHL DUP2 MSTORE PUSH1 0x4 ADD PUSH2 0x168 SWAP1 PUSH2 0x1B50 JUMP JUMPDEST PUSH1 0x0 DUP1 SLOAD PUSH1 0xFF NOT AND PUSH1 0x1 OR SWAP1 SSTORE PUSH1 0x1 PUSH1 0x1 PUSH1 0xA0 SHL SUB DUP3 AND PUSH2 0x5B2 JUMPI PUSH1 0x40 MLOAD PUSH3 0x461BCD PUSH1 0xE5 SHL DUP2 MSTORE PUSH1 0x4 ADD PUSH2 0x168 SWAP1 PUSH2 0x1A67 JUMP JUMPDEST PUSH1 0x1 PUSH1 0x1 PUSH1 0xA0 SHL SUB DUP3 AND PUSH1 0x0 SWAP1 DUP2 MSTORE PUSH1 0x7 PUSH1 0x20 MSTORE PUSH1 0x40 SWAP1 KECCAK256 SLOAD DUP2 GT ISZERO PUSH2 0x630 JUMPI PUSH1 0x40 MLOAD PUSH3 0x461BCD PUSH1 0xE5 SHL DUP2 MSTORE PUSH1 0x20 PUSH1 0x4 DUP3 ADD MSTORE PUSH1 0x2D PUSH1 0x24 DUP3 ADD MSTORE PUSH32 0x496E73756666696369656E7420746F6B656E2062616C616E63652C2074727920 PUSH1 0x44 DUP3 ADD MSTORE PUSH13 0x1B195CDCD95C88185B5BDD5B9D PUSH1 0x9A SHL PUSH1 0x64 DUP3 ADD MSTORE PUSH1 0x84 ADD PUSH2 0x168 JUMP JUMPDEST CALLER PUSH1 0x1 PUSH1 0x1 PUSH1 0xA0 SHL SUB DUP4 AND EQ PUSH2 0x6A0 JUMPI PUSH1 0x40 MLOAD PUSH3 0x461BCD PUSH1 0xE5 SHL DUP2 MSTORE PUSH1 0x20 PUSH1 0x4 DUP3 ADD MSTORE PUSH1 0x2F PUSH1 0x24 DUP3 ADD MSTORE PUSH32 0x4F6E6C792074686520746F6B656E20726563697069656E742063616E20706572 PUSH1 0x44 DUP3 ADD MSTORE PUSH15 0x666F726D2074686520756E6C6F636B PUSH1 0x88 SHL PUSH1 0x64 DUP3 ADD MSTORE PUSH1 0x84 ADD PUSH2 0x168 JUMP JUMPDEST PUSH1 0x9 SLOAD PUSH1 0x1 PUSH1 0x1 PUSH1 0xA0 SHL SUB DUP5 DUP2 AND SWAP2 AND EQ PUSH2 0x757 JUMPI PUSH1 0x40 MLOAD PUSH3 0x461BCD PUSH1 0xE5 SHL DUP2 MSTORE PUSH1 0x20 PUSH1 0x4 DUP3 ADD MSTORE PUSH1 0x64 PUSH1 0x24 DUP3 ADD DUP2 SWAP1 MSTORE PUSH32 0x546F6B656E20706172616D65746572206D757374206265207468652073616D65 PUSH1 0x44 DUP4 ADD MSTORE PUSH32 0x2061732074686520657263323020636F6E747261637420616464726573732077 SWAP1 DUP3 ADD MSTORE PUSH32 0x68696368207761732070617373656420696E746F2074686520636F6E73747275 PUSH1 0x84 DUP3 ADD MSTORE PUSH4 0x31BA37B9 PUSH1 0xE1 SHL PUSH1 0xA4 DUP3 ADD MSTORE PUSH1 0xC4 ADD PUSH2 0x168 JUMP JUMPDEST PUSH1 0x3 SLOAD TIMESTAMP GT PUSH2 0x7CE JUMPI PUSH1 0x40 MLOAD PUSH3 0x461BCD PUSH1 0xE5 SHL DUP2 MSTORE PUSH1 0x20 PUSH1 0x4 DUP3 ADD MSTORE PUSH1 0x3F PUSH1 0x24 DUP3 ADD MSTORE PUSH32 0x546F6B656E7320617265206F6E6C7920617661696C61626C6520616674657220 PUSH1 0x44 DUP3 ADD MSTORE PUSH32 0x636F72726563742074696D6520706572696F642068617320656C617073656400 PUSH1 0x64 DUP3 ADD MSTORE PUSH1 0x84 ADD PUSH2 0x168 JUMP JUMPDEST PUSH1 0x4 SLOAD TIMESTAMP GT ISZERO PUSH2 0x89B JUMPI PUSH1 0x1 PUSH1 0x1 PUSH1 0xA0 SHL SUB DUP3 AND PUSH1 0x0 SWAP1 DUP2 MSTORE PUSH1 0x6 PUSH1 0x20 MSTORE PUSH1 0x40 SWAP1 KECCAK256 SLOAD PUSH2 0x7FB SWAP1 DUP3 PUSH2 0x48D JUMP JUMPDEST PUSH1 0x1 PUSH1 0x1 PUSH1 0xA0 SHL SUB DUP4 AND PUSH1 0x0 SWAP1 DUP2 MSTORE PUSH1 0x6 PUSH1 0x20 SWAP1 DUP2 MSTORE PUSH1 0x40 DUP1 DUP4 KECCAK256 SWAP4 SWAP1 SWAP4 SSTORE PUSH1 0x7 SWAP1 MSTORE KECCAK256 SLOAD PUSH2 0x82A SWAP1 DUP3 PUSH2 0x142F JUMP JUMPDEST PUSH1 0x1 PUSH1 0x1 PUSH1 0xA0 SHL SUB DUP1 DUP5 AND PUSH1 0x0 SWAP1 DUP2 MSTORE PUSH1 0x7 PUSH1 0x20 MSTORE PUSH1 0x40 SWAP1 KECCAK256 SWAP2 SWAP1 SWAP2 SSTORE PUSH2 0x854 SWAP1 DUP5 AND DUP4 DUP4 PUSH2 0x143B JUMP JUMPDEST PUSH1 0x40 DUP1 MLOAD PUSH1 0x1 PUSH1 0x1 PUSH1 0xA0 SHL SUB DUP5 AND DUP2 MSTORE PUSH1 0x20 DUP2 ADD DUP4 SWAP1 MSTORE PUSH32 0xE7B379C6C1FA169E9079C25E9143B127637EEF8EC8C9D5C06DDB4AB3E1195888 SWAP2 ADD PUSH1 0x40 MLOAD DUP1 SWAP2 SUB SWAP1 LOG1 PUSH2 0xA7F JUMP JUMPDEST PUSH1 0x1 PUSH1 0x1 PUSH1 0xA0 SHL SUB DUP3 AND PUSH1 0x0 SWAP1 DUP2 MSTORE PUSH1 0x7 PUSH1 0x20 SWAP1 DUP2 MSTORE PUSH1 0x40 DUP1 DUP4 KECCAK256 SLOAD PUSH1 0x6 SWAP1 SWAP3 MSTORE DUP3 KECCAK256 SLOAD PUSH2 0x8C8 SWAP2 PUSH2 0x48D JUMP JUMPDEST SWAP1 POP PUSH1 0x0 PUSH2 0x90B PUSH2 0x8E6 PUSH1 0x3 SLOAD PUSH1 0x4 SLOAD PUSH2 0x142F SWAP1 SWAP2 SWAP1 PUSH4 0xFFFFFFFF AND JUMP JUMPDEST PUSH2 0x905 PUSH2 0x8FE PUSH1 0x3 SLOAD TIMESTAMP PUSH2 0x142F SWAP1 SWAP2 SWAP1 PUSH4 0xFFFFFFFF AND JUMP JUMPDEST DUP6 SWAP1 PUSH2 0x1492 JUMP JUMPDEST SWAP1 PUSH2 0x149E JUMP JUMPDEST PUSH1 0x1 PUSH1 0x1 PUSH1 0xA0 SHL SUB DUP6 AND PUSH1 0x0 SWAP1 DUP2 MSTORE PUSH1 0x6 PUSH1 0x20 MSTORE PUSH1 0x40 DUP2 KECCAK256 SLOAD SWAP2 SWAP3 POP SWAP1 PUSH2 0x932 SWAP1 DUP4 PUSH2 0x1C92 JUMP JUMPDEST SWAP1 POP DUP1 DUP5 GT ISZERO PUSH2 0x9BD JUMPI PUSH1 0x40 MLOAD PUSH3 0x461BCD PUSH1 0xE5 SHL DUP2 MSTORE PUSH1 0x20 PUSH1 0x4 DUP3 ADD MSTORE PUSH1 0x4A PUSH1 0x24 DUP3 ADD MSTORE PUSH32 0x546F6B656E20616D6F756E74206E6F7420617661696C61626C6520666F722075 PUSH1 0x44 DUP3 ADD MSTORE PUSH32 0x6E6C6F636B207269676874206E6F772C20706C6561736520747279206C657373 PUSH1 0x64 DUP3 ADD MSTORE PUSH10 0x32B91030B6B7BAB73A17 PUSH1 0xB1 SHL PUSH1 0x84 DUP3 ADD MSTORE PUSH1 0xA4 ADD PUSH2 0x168 JUMP JUMPDEST PUSH1 0x1 PUSH1 0x1 PUSH1 0xA0 SHL SUB DUP6 AND PUSH1 0x0 SWAP1 DUP2 MSTORE PUSH1 0x6 PUSH1 0x20 MSTORE PUSH1 0x40 SWAP1 KECCAK256 SLOAD PUSH2 0x9E0 SWAP1 DUP6 PUSH2 0x48D JUMP JUMPDEST PUSH1 0x1 PUSH1 0x1 PUSH1 0xA0 SHL SUB DUP7 AND PUSH1 0x0 SWAP1 DUP2 MSTORE PUSH1 0x6 PUSH1 0x20 SWAP1 DUP2 MSTORE PUSH1 0x40 DUP1 DUP4 KECCAK256 SWAP4 SWAP1 SWAP4 SSTORE PUSH1 0x7 SWAP1 MSTORE KECCAK256 SLOAD PUSH2 0xA0F SWAP1 DUP6 PUSH2 0x142F JUMP JUMPDEST PUSH1 0x1 PUSH1 0x1 PUSH1 0xA0 SHL SUB DUP1 DUP8 AND PUSH1 0x0 SWAP1 DUP2 MSTORE PUSH1 0x7 PUSH1 0x20 MSTORE PUSH1 0x40 SWAP1 KECCAK256 SWAP2 SWAP1 SWAP2 SSTORE PUSH2 0xA39 SWAP1 DUP8 AND DUP7 DUP7 PUSH2 0x143B JUMP JUMPDEST PUSH1 0x40 DUP1 MLOAD PUSH1 0x1 PUSH1 0x1 PUSH1 0xA0 SHL SUB DUP8 AND DUP2 MSTORE PUSH1 0x20 DUP2 ADD DUP7 SWAP1 MSTORE PUSH32 0xE7B379C6C1FA169E9079C25E9143B127637EEF8EC8C9D5C06DDB4AB3E1195888 SWAP2 ADD PUSH1 0x40 MLOAD DUP1 SWAP2 SUB SWAP1 LOG1 POP POP POP JUMPDEST POP POP PUSH1 0x0 DUP1 SLOAD PUSH1 0xFF NOT AND SWAP1 SSTORE POP JUMP JUMPDEST PUSH1 0x0 SLOAD PUSH2 0x100 SWAP1 DIV PUSH1 0x1 PUSH1 0x1 PUSH1 0xA0 SHL SUB AND CALLER EQ PUSH2 0xABD JUMPI PUSH1 0x40 MLOAD PUSH3 0x461BCD PUSH1 0xE5 SHL DUP2 MSTORE PUSH1 0x4 ADD PUSH2 0x168 SWAP1 PUSH2 0x1B78 JUMP JUMPDEST PUSH1 0x0 SLOAD PUSH1 0xFF AND ISZERO PUSH2 0xAE0 JUMPI PUSH1 0x40 MLOAD PUSH3 0x461BCD PUSH1 0xE5 SHL DUP2 MSTORE PUSH1 0x4 ADD PUSH2 0x168 SWAP1 PUSH2 0x1B50 JUMP JUMPDEST PUSH1 0x0 DUP1 SLOAD PUSH1 0xFF NOT AND PUSH1 0x1 OR SWAP1 SSTORE PUSH1 0x1 PUSH1 0x1 PUSH1 0xA0 SHL SUB DUP3 AND PUSH2 0xB43 JUMPI PUSH1 0x40 MLOAD PUSH3 0x461BCD PUSH1 0xE5 SHL DUP2 MSTORE PUSH1 0x20 PUSH1 0x4 DUP3 ADD MSTORE PUSH1 0x1D PUSH1 0x24 DUP3 ADD MSTORE PUSH32 0x546F6B656E20616464726573732063616E206E6F74206265207A65726F000000 PUSH1 0x44 DUP3 ADD MSTORE PUSH1 0x64 ADD PUSH2 0x168 JUMP JUMPDEST PUSH1 0x0 SLOAD PUSH2 0xB62 SWAP1 PUSH1 0x1 PUSH1 0x1 PUSH1 0xA0 SHL SUB DUP5 DUP2 AND SWAP2 PUSH2 0x100 SWAP1 DIV AND DUP4 PUSH2 0x143B JUMP JUMPDEST POP POP PUSH1 0x0 DUP1 SLOAD PUSH1 0xFF NOT AND SWAP1 SSTORE JUMP JUMPDEST PUSH1 0x0 SLOAD PUSH2 0x100 SWAP1 DIV PUSH1 0x1 PUSH1 0x1 PUSH1 0xA0 SHL SUB AND CALLER EQ PUSH2 0xB9F JUMPI PUSH1 0x40 MLOAD PUSH3 0x461BCD PUSH1 0xE5 SHL DUP2 MSTORE PUSH1 0x4 ADD PUSH2 0x168 SWAP1 PUSH2 0x1B78 JUMP JUMPDEST PUSH1 0x2 SLOAD PUSH1 0xFF AND ISZERO PUSH2 0xBFE JUMPI PUSH1 0x40 MLOAD PUSH3 0x461BCD PUSH1 0xE5 SHL DUP2 MSTORE PUSH1 0x20 PUSH1 0x4 DUP3 ADD MSTORE PUSH1 0x24 DUP1 DUP3 ADD MSTORE PUSH32 0x5468652074696D65207374616D702068617320616C7265616479206265656E20 PUSH1 0x44 DUP3 ADD MSTORE PUSH4 0x39B2BA17 PUSH1 0xE1 SHL PUSH1 0x64 DUP3 ADD MSTORE PUSH1 0x84 ADD PUSH2 0x168 JUMP JUMPDEST DUP2 ISZERO DUP1 ISZERO SWAP1 PUSH2 0xC0C JUMPI POP DUP1 ISZERO ISZERO JUMPDEST PUSH2 0xC58 JUMPI PUSH1 0x40 MLOAD PUSH3 0x461BCD PUSH1 0xE5 SHL DUP2 MSTORE PUSH1 0x20 PUSH1 0x4 DUP3 ADD MSTORE PUSH1 0x1C PUSH1 0x24 DUP3 ADD MSTORE PUSH32 0x54696D6520706572696F64732063616E206E6F74206265207A65726F00000000 PUSH1 0x44 DUP3 ADD MSTORE PUSH1 0x64 ADD PUSH2 0x168 JUMP JUMPDEST PUSH1 0x2 DUP1 SLOAD PUSH1 0xFF NOT AND PUSH1 0x1 SWAP1 DUP2 OR SWAP1 SWAP2 SSTORE TIMESTAMP SWAP1 SSTORE PUSH1 0x0 DUP3 SGT ISZERO PUSH2 0xC89 JUMPI PUSH1 0x1 SLOAD PUSH2 0xC81 SWAP1 DUP4 PUSH2 0x48D JUMP JUMPDEST PUSH1 0x3 SSTORE PUSH2 0xCA2 JUMP JUMPDEST PUSH2 0xC9E PUSH2 0xC95 DUP4 PUSH2 0x1CF4 JUMP JUMPDEST PUSH1 0x1 SLOAD SWAP1 PUSH2 0x142F JUMP JUMPDEST PUSH1 0x3 SSTORE JUMPDEST PUSH1 0x0 DUP2 SGT ISZERO PUSH2 0xCC0 JUMPI PUSH1 0x1 SLOAD PUSH2 0xCB8 SWAP1 DUP3 PUSH2 0x48D JUMP JUMPDEST PUSH1 0x4 SSTORE PUSH2 0xCD0 JUMP JUMPDEST PUSH2 0xCCC PUSH2 0xC95 DUP3 PUSH2 0x1CF4 JUMP JUMPDEST PUSH1 0x4 SSTORE JUMPDEST PUSH1 0x4 SLOAD PUSH1 0x3 SLOAD LT PUSH2 0xCE0 JUMPI PUSH1 0x0 DUP1 REVERT JUMPDEST POP POP JUMP JUMPDEST PUSH1 0x1 PUSH1 0x1 PUSH1 0xA0 SHL SUB DUP2 AND PUSH1 0x0 SWAP1 DUP2 MSTORE PUSH1 0x7 PUSH1 0x20 SWAP1 DUP2 MSTORE PUSH1 0x40 DUP1 DUP4 KECCAK256 SLOAD PUSH1 0x6 SWAP1 SWAP3 MSTORE DUP3 KECCAK256 SLOAD DUP3 SWAP2 PUSH2 0xD14 SWAP2 SWAP1 PUSH2 0x48D JUMP JUMPDEST SWAP1 POP PUSH1 0x0 PUSH2 0xD32 PUSH2 0x8E6 PUSH1 0x3 SLOAD PUSH1 0x4 SLOAD PUSH2 0x142F SWAP1 SWAP2 SWAP1 PUSH4 0xFFFFFFFF AND JUMP JUMPDEST PUSH1 0x1 PUSH1 0x1 PUSH1 0xA0 SHL SUB DUP6 AND PUSH1 0x0 SWAP1 DUP2 MSTORE PUSH1 0x6 PUSH1 0x20 MSTORE PUSH1 0x40 DUP2 KECCAK256 SLOAD SWAP2 SWAP3 POP SWAP1 PUSH2 0xD59 SWAP1 DUP4 PUSH2 0x1C92 JUMP JUMPDEST SWAP6 SWAP5 POP POP POP POP POP JUMP JUMPDEST PUSH1 0x0 SLOAD PUSH2 0x100 SWAP1 DIV PUSH1 0x1 PUSH1 0x1 PUSH1 0xA0 SHL SUB AND CALLER EQ PUSH2 0xD91 JUMPI PUSH1 0x40 MLOAD PUSH3 0x461BCD PUSH1 0xE5 SHL DUP2 MSTORE PUSH1 0x4 ADD PUSH2 0x168 SWAP1 PUSH2 0x1B78 JUMP JUMPDEST PUSH1 0x0 SLOAD PUSH1 0x1 PUSH1 0xA8 SHL SWAP1 DIV PUSH1 0xFF AND ISZERO PUSH2 0xDBB JUMPI PUSH1 0x40 MLOAD PUSH3 0x461BCD PUSH1 0xE5 SHL DUP2 MSTORE PUSH1 0x4 ADD PUSH2 0x168 SWAP1 PUSH2 0x1BC4 JUMP JUMPDEST PUSH1 0x3 SLOAD PUSH1 0x4 SLOAD PUSH2 0xDCA SWAP2 PUSH2 0x142F JUMP JUMPDEST DUP2 LT ISZERO PUSH2 0xDE9 JUMPI PUSH1 0x40 MLOAD PUSH3 0x461BCD PUSH1 0xE5 SHL DUP2 MSTORE PUSH1 0x4 ADD PUSH2 0x168 SWAP1 PUSH2 0x1AAA JUMP JUMPDEST PUSH1 0x1 PUSH1 0x1 PUSH1 0xA0 SHL SUB DUP3 AND PUSH2 0xE0F JUMPI PUSH1 0x40 MLOAD PUSH3 0x461BCD PUSH1 0xE5 SHL DUP2 MSTORE PUSH1 0x4 ADD PUSH2 0x168 SWAP1 PUSH2 0x1A67 JUMP JUMPDEST PUSH1 0x1 PUSH1 0x1 PUSH1 0xA0 SHL SUB DUP3 AND PUSH1 0x0 SWAP1 DUP2 MSTORE PUSH1 0x7 PUSH1 0x20 MSTORE PUSH1 0x40 SWAP1 KECCAK256 SLOAD PUSH2 0xE32 SWAP1 DUP3 PUSH2 0x48D JUMP JUMPDEST PUSH1 0x1 PUSH1 0x1 PUSH1 0xA0 SHL SUB DUP4 AND PUSH1 0x0 DUP2 DUP2 MSTORE PUSH1 0x7 PUSH1 0x20 SWAP1 DUP2 MSTORE PUSH1 0x40 SWAP2 DUP3 SWAP1 KECCAK256 SWAP4 SWAP1 SWAP4 SSTORE DUP1 MLOAD SWAP2 DUP3 MSTORE SWAP2 DUP2 ADD DUP4 SWAP1 MSTORE PUSH32 0xCAD22DD3BCDAD18C651A372FE3E7E893AF3D354482D9AC6C310C8342EB7AF574 SWAP2 ADD PUSH1 0x40 MLOAD DUP1 SWAP2 SUB SWAP1 LOG1 POP POP JUMP JUMPDEST PUSH1 0x0 SLOAD PUSH1 0x1 PUSH1 0xA8 SHL SWAP1 DIV PUSH1 0xFF AND ISZERO PUSH2 0xEB6 JUMPI PUSH1 0x40 MLOAD PUSH3 0x461BCD PUSH1 0xE5 SHL DUP2 MSTORE PUSH1 0x4 ADD PUSH2 0x168 SWAP1 PUSH2 0x1BC4 JUMP JUMPDEST PUSH1 0x3 SLOAD PUSH1 0x4 SLOAD PUSH2 0xEC5 SWAP2 PUSH2 0x142F JUMP JUMPDEST DUP5 LT ISZERO PUSH2 0xEE4 JUMPI PUSH1 0x40 MLOAD PUSH3 0x461BCD PUSH1 0xE5 SHL DUP2 MSTORE PUSH1 0x4 ADD PUSH2 0x168 SWAP1 PUSH2 0x1AAA JUMP JUMPDEST PUSH1 0x40 DUP1 MLOAD DUP1 DUP3 ADD SWAP1 SWAP2 MSTORE PUSH1 0x20 DUP1 DUP3 MSTORE PUSH32 0x3231343132353434324134373244344236313530363435333637353636423539 DUP2 DUP4 ADD MSTORE DUP3 MLOAD SWAP1 DUP4 ADD KECCAK256 PUSH32 0x82EAFF15766A91AE7E1DC53B0A78406C1948A404293D4109D775421DBD4D6600 EQ PUSH2 0xF84 JUMPI PUSH1 0x40 MLOAD PUSH3 0x461BCD PUSH1 0xE5 SHL DUP2 MSTORE PUSH1 0x20 PUSH1 0x4 DUP3 ADD MSTORE PUSH1 0x15 PUSH1 0x24 DUP3 ADD MSTORE PUSH21 0x4E6F742066726F6D206D61696E2077656273697465 PUSH1 0x58 SHL PUSH1 0x44 DUP3 ADD MSTORE PUSH1 0x64 ADD PUSH2 0x168 JUMP JUMPDEST PUSH1 0x1 PUSH1 0x1 PUSH1 0xA0 SHL SUB DUP7 AND PUSH2 0xFAA JUMPI PUSH1 0x40 MLOAD PUSH3 0x461BCD PUSH1 0xE5 SHL DUP2 MSTORE PUSH1 0x4 ADD PUSH2 0x168 SWAP1 PUSH2 0x1A67 JUMP JUMPDEST CALLER PUSH1 0x0 SWAP1 DUP2 MSTORE PUSH1 0x7 PUSH1 0x20 MSTORE PUSH1 0x40 SWAP1 KECCAK256 SLOAD PUSH2 0xFC4 SWAP1 DUP7 PUSH2 0x48D JUMP JUMPDEST CALLER PUSH1 0x0 DUP2 DUP2 MSTORE PUSH1 0x7 PUSH1 0x20 SWAP1 DUP2 MSTORE PUSH1 0x40 SWAP2 DUP3 SWAP1 KECCAK256 SWAP4 SWAP1 SWAP4 SSTORE DUP1 MLOAD SWAP2 DUP3 MSTORE SWAP2 DUP2 ADD DUP8 SWAP1 MSTORE PUSH32 0xCAD22DD3BCDAD18C651A372FE3E7E893AF3D354482D9AC6C310C8342EB7AF574 SWAP2 ADD PUSH1 0x40 MLOAD DUP1 SWAP2 SUB SWAP1 LOG1 POP POP POP POP POP POP JUMP JUMPDEST PUSH1 0x0 SLOAD PUSH2 0x100 SWAP1 DIV PUSH1 0x1 PUSH1 0x1 PUSH1 0xA0 SHL SUB AND CALLER EQ PUSH2 0x1048 JUMPI PUSH1 0x40 MLOAD PUSH3 0x461BCD PUSH1 0xE5 SHL DUP2 MSTORE PUSH1 0x4 ADD PUSH2 0x168 SWAP1 PUSH2 0x1B78 JUMP JUMPDEST PUSH1 0x0 SLOAD PUSH1 0xFF AND ISZERO PUSH2 0x106B JUMPI PUSH1 0x40 MLOAD PUSH3 0x461BCD PUSH1 0xE5 SHL DUP2 MSTORE PUSH1 0x4 ADD PUSH2 0x168 SWAP1 PUSH2 0x1B50 JUMP JUMPDEST PUSH1 0x0 DUP1 SLOAD PUSH1 0xFF NOT AND PUSH1 0x1 OR SWAP1 SSTORE PUSH1 0x8 SLOAD DUP2 GT ISZERO PUSH2 0x10BF JUMPI PUSH1 0x40 MLOAD PUSH3 0x461BCD PUSH1 0xE5 SHL DUP2 MSTORE PUSH1 0x20 PUSH1 0x4 DUP3 ADD MSTORE PUSH1 0x12 PUSH1 0x24 DUP3 ADD MSTORE PUSH18 0x496E73756666696369656E742066756E6473 PUSH1 0x70 SHL PUSH1 0x44 DUP3 ADD MSTORE PUSH1 0x64 ADD PUSH2 0x168 JUMP JUMPDEST PUSH1 0x8 SLOAD PUSH2 0x10CC SWAP1 DUP3 PUSH2 0x142F JUMP JUMPDEST PUSH1 0x8 SSTORE PUSH1 0x0 DUP1 SLOAD PUSH1 0x40 MLOAD PUSH2 0x100 SWAP1 SWAP2 DIV PUSH1 0x1 PUSH1 0x1 PUSH1 0xA0 SHL SUB AND SWAP2 PUSH2 0x8FC DUP5 ISZERO MUL SWAP2 DUP5 SWAP2 DUP2 DUP2 DUP2 DUP6 DUP9 DUP9 CALL SWAP4 POP POP POP POP ISZERO DUP1 ISZERO PUSH2 0xB62 JUMPI RETURNDATASIZE PUSH1 0x0 DUP1 RETURNDATACOPY RETURNDATASIZE PUSH1 0x0 REVERT JUMPDEST PUSH1 0x0 SLOAD PUSH2 0x100 SWAP1 DIV PUSH1 0x1 PUSH1 0x1 PUSH1 0xA0 SHL SUB AND CALLER EQ PUSH2 0x113B JUMPI PUSH1 0x40 MLOAD PUSH3 0x461BCD PUSH1 0xE5 SHL DUP2 MSTORE PUSH1 0x4 ADD PUSH2 0x168 SWAP1 PUSH2 0x1B78 JUMP JUMPDEST PUSH1 0x0 SLOAD PUSH1 0x1 PUSH1 0xA8 SHL SWAP1 DIV PUSH1 0xFF AND ISZERO PUSH2 0x1165 JUMPI PUSH1 0x40 MLOAD PUSH3 0x461BCD PUSH1 0xE5 SHL DUP2 MSTORE PUSH1 0x4 ADD PUSH2 0x168 SWAP1 PUSH2 0x1BC4 JUMP JUMPDEST DUP3 DUP2 EQ PUSH2 0x11E4 JUMPI PUSH1 0x40 MLOAD PUSH3 0x461BCD PUSH1 0xE5 SHL DUP2 MSTORE PUSH1 0x20 PUSH1 0x4 DUP3 ADD MSTORE PUSH1 0x41 PUSH1 0x24 DUP3 ADD MSTORE PUSH32 0x54686520726563697069656E747320616E6420616D6F756E7473206172726179 PUSH1 0x44 DUP3 ADD MSTORE PUSH32 0x73206D757374206265207468652073616D652073697A6520696E206C656E6774 PUSH1 0x64 DUP3 ADD MSTORE PUSH1 0xD PUSH1 0xFB SHL PUSH1 0x84 DUP3 ADD MSTORE PUSH1 0xA4 ADD PUSH2 0x168 JUMP JUMPDEST PUSH1 0x0 JUMPDEST DUP4 DUP2 LT ISZERO PUSH2 0x1428 JUMPI PUSH1 0x0 DUP6 DUP6 DUP4 DUP2 DUP2 LT PUSH2 0x1211 JUMPI PUSH4 0x4E487B71 PUSH1 0xE0 SHL PUSH1 0x0 MSTORE PUSH1 0x32 PUSH1 0x4 MSTORE PUSH1 0x24 PUSH1 0x0 REVERT JUMPDEST SWAP1 POP PUSH1 0x20 MUL ADD PUSH1 0x20 DUP2 ADD SWAP1 PUSH2 0x1226 SWAP2 SWAP1 PUSH2 0x17CA JUMP JUMPDEST PUSH1 0x1 PUSH1 0x1 PUSH1 0xA0 SHL SUB AND EQ ISZERO PUSH2 0x124D JUMPI PUSH1 0x40 MLOAD PUSH3 0x461BCD PUSH1 0xE5 SHL DUP2 MSTORE PUSH1 0x4 ADD PUSH2 0x168 SWAP1 PUSH2 0x1A67 JUMP JUMPDEST PUSH1 0x3 SLOAD PUSH1 0x4 SLOAD PUSH2 0x125C SWAP2 PUSH2 0x142F JUMP JUMPDEST DUP4 DUP4 DUP4 DUP2 DUP2 LT PUSH2 0x127C JUMPI PUSH4 0x4E487B71 PUSH1 0xE0 SHL PUSH1 0x0 MSTORE PUSH1 0x32 PUSH1 0x4 MSTORE PUSH1 0x24 PUSH1 0x0 REVERT JUMPDEST SWAP1 POP PUSH1 0x20 MUL ADD CALLDATALOAD LT ISZERO PUSH2 0x12A1 JUMPI PUSH1 0x40 MLOAD PUSH3 0x461BCD PUSH1 0xE5 SHL DUP2 MSTORE PUSH1 0x4 ADD PUSH2 0x168 SWAP1 PUSH2 0x1AAA JUMP JUMPDEST PUSH2 0x1324 DUP4 DUP4 DUP4 DUP2 DUP2 LT PUSH2 0x12C4 JUMPI PUSH4 0x4E487B71 PUSH1 0xE0 SHL PUSH1 0x0 MSTORE PUSH1 0x32 PUSH1 0x4 MSTORE PUSH1 0x24 PUSH1 0x0 REVERT JUMPDEST SWAP1 POP PUSH1 0x20 MUL ADD CALLDATALOAD PUSH1 0x7 PUSH1 0x0 DUP9 DUP9 DUP7 DUP2 DUP2 LT PUSH2 0x12EF JUMPI PUSH4 0x4E487B71 PUSH1 0xE0 SHL PUSH1 0x0 MSTORE PUSH1 0x32 PUSH1 0x4 MSTORE PUSH1 0x24 PUSH1 0x0 REVERT JUMPDEST SWAP1 POP PUSH1 0x20 MUL ADD PUSH1 0x20 DUP2 ADD SWAP1 PUSH2 0x1304 SWAP2 SWAP1 PUSH2 0x17CA JUMP JUMPDEST PUSH1 0x1 PUSH1 0x1 PUSH1 0xA0 SHL SUB AND DUP2 MSTORE PUSH1 0x20 DUP2 ADD SWAP2 SWAP1 SWAP2 MSTORE PUSH1 0x40 ADD PUSH1 0x0 KECCAK256 SLOAD SWAP1 PUSH2 0x48D JUMP JUMPDEST PUSH1 0x7 PUSH1 0x0 DUP8 DUP8 DUP6 DUP2 DUP2 LT PUSH2 0x1348 JUMPI PUSH4 0x4E487B71 PUSH1 0xE0 SHL PUSH1 0x0 MSTORE PUSH1 0x32 PUSH1 0x4 MSTORE PUSH1 0x24 PUSH1 0x0 REVERT JUMPDEST SWAP1 POP PUSH1 0x20 MUL ADD PUSH1 0x20 DUP2 ADD SWAP1 PUSH2 0x135D SWAP2 SWAP1 PUSH2 0x17CA JUMP JUMPDEST PUSH1 0x1 PUSH1 0x1 PUSH1 0xA0 SHL SUB AND DUP2 MSTORE PUSH1 0x20 DUP2 ADD SWAP2 SWAP1 SWAP2 MSTORE PUSH1 0x40 ADD PUSH1 0x0 KECCAK256 SSTORE PUSH32 0xCAD22DD3BCDAD18C651A372FE3E7E893AF3D354482D9AC6C310C8342EB7AF574 DUP6 DUP6 DUP4 DUP2 DUP2 LT PUSH2 0x13B8 JUMPI PUSH4 0x4E487B71 PUSH1 0xE0 SHL PUSH1 0x0 MSTORE PUSH1 0x32 PUSH1 0x4 MSTORE PUSH1 0x24 PUSH1 0x0 REVERT JUMPDEST SWAP1 POP PUSH1 0x20 MUL ADD PUSH1 0x20 DUP2 ADD SWAP1 PUSH2 0x13CD SWAP2 SWAP1 PUSH2 0x17CA JUMP JUMPDEST DUP5 DUP5 DUP5 DUP2 DUP2 LT PUSH2 0x13ED JUMPI PUSH4 0x4E487B71 PUSH1 0xE0 SHL PUSH1 0x0 MSTORE PUSH1 0x32 PUSH1 0x4 MSTORE PUSH1 0x24 PUSH1 0x0 REVERT JUMPDEST PUSH1 0x40 DUP1 MLOAD PUSH1 0x1 PUSH1 0x1 PUSH1 0xA0 SHL SUB SWAP1 SWAP6 AND DUP6 MSTORE PUSH1 0x20 SWAP2 DUP3 MUL SWAP4 SWAP1 SWAP4 ADD CALLDATALOAD SWAP1 DUP5 ADD MSTORE POP ADD PUSH1 0x40 MLOAD DUP1 SWAP2 SUB SWAP1 LOG1 DUP1 PUSH2 0x1420 DUP2 PUSH2 0x1CD9 JUMP JUMPDEST SWAP2 POP POP PUSH2 0x11E7 JUMP JUMPDEST POP POP POP POP POP JUMP JUMPDEST PUSH1 0x0 PUSH2 0x499 DUP3 DUP5 PUSH2 0x1C92 JUMP JUMPDEST PUSH1 0x40 DUP1 MLOAD PUSH1 0x1 PUSH1 0x1 PUSH1 0xA0 SHL SUB DUP5 AND PUSH1 0x24 DUP3 ADD MSTORE PUSH1 0x44 DUP1 DUP3 ADD DUP5 SWAP1 MSTORE DUP3 MLOAD DUP1 DUP4 SUB SWAP1 SWAP2 ADD DUP2 MSTORE PUSH1 0x64 SWAP1 SWAP2 ADD SWAP1 SWAP2 MSTORE PUSH1 0x20 DUP2 ADD DUP1 MLOAD PUSH1 0x1 PUSH1 0x1 PUSH1 0xE0 SHL SUB AND PUSH4 0xA9059CBB PUSH1 0xE0 SHL OR SWAP1 MSTORE PUSH2 0x148D SWAP1 DUP5 SWAP1 PUSH2 0x14AA JUMP JUMPDEST POP POP POP JUMP JUMPDEST PUSH1 0x0 PUSH2 0x499 DUP3 DUP5 PUSH2 0x1C73 JUMP JUMPDEST PUSH1 0x0 PUSH2 0x499 DUP3 DUP5 PUSH2 0x1C53 JUMP JUMPDEST PUSH1 0x0 PUSH2 0x14FF DUP3 PUSH1 0x40 MLOAD DUP1 PUSH1 0x40 ADD PUSH1 0x40 MSTORE DUP1 PUSH1 0x20 DUP2 MSTORE PUSH1 0x20 ADD PUSH32 0x5361666545524332303A206C6F772D6C6576656C2063616C6C206661696C6564 DUP2 MSTORE POP DUP6 PUSH1 0x1 PUSH1 0x1 PUSH1 0xA0 SHL SUB AND PUSH2 0x157C SWAP1 SWAP3 SWAP2 SWAP1 PUSH4 0xFFFFFFFF AND JUMP JUMPDEST DUP1 MLOAD SWAP1 SWAP2 POP ISZERO PUSH2 0x148D JUMPI DUP1 DUP1 PUSH1 0x20 ADD SWAP1 MLOAD DUP2 ADD SWAP1 PUSH2 0x151D SWAP2 SWAP1 PUSH2 0x196D JUMP JUMPDEST PUSH2 0x148D JUMPI PUSH1 0x40 MLOAD PUSH3 0x461BCD PUSH1 0xE5 SHL DUP2 MSTORE PUSH1 0x20 PUSH1 0x4 DUP3 ADD MSTORE PUSH1 0x2A PUSH1 0x24 DUP3 ADD MSTORE PUSH32 0x5361666545524332303A204552433230206F7065726174696F6E20646964206E PUSH1 0x44 DUP3 ADD MSTORE PUSH10 0x1BDD081CDD58D8D95959 PUSH1 0xB2 SHL PUSH1 0x64 DUP3 ADD MSTORE PUSH1 0x84 ADD PUSH2 0x168 JUMP JUMPDEST PUSH1 0x60 PUSH2 0x158B DUP5 DUP5 PUSH1 0x0 DUP6 PUSH2 0x1593 JUMP JUMPDEST SWAP5 SWAP4 POP POP POP POP JUMP JUMPDEST PUSH1 0x60 DUP3 SELFBALANCE LT ISZERO PUSH2 0x15F4 JUMPI PUSH1 0x40 MLOAD PUSH3 0x461BCD PUSH1 0xE5 SHL DUP2 MSTORE PUSH1 0x20 PUSH1 0x4 DUP3 ADD MSTORE PUSH1 0x26 PUSH1 0x24 DUP3 ADD MSTORE PUSH32 0x416464726573733A20696E73756666696369656E742062616C616E636520666F PUSH1 0x44 DUP3 ADD MSTORE PUSH6 0x1C8818D85B1B PUSH1 0xD2 SHL PUSH1 0x64 DUP3 ADD MSTORE PUSH1 0x84 ADD PUSH2 0x168 JUMP JUMPDEST PUSH1 0x1 PUSH1 0x1 PUSH1 0xA0 SHL SUB DUP6 AND EXTCODESIZE PUSH2 0x164B JUMPI PUSH1 0x40 MLOAD PUSH3 0x461BCD PUSH1 0xE5 SHL DUP2 MSTORE PUSH1 0x20 PUSH1 0x4 DUP3 ADD MSTORE PUSH1 0x1D PUSH1 0x24 DUP3 ADD MSTORE PUSH32 0x416464726573733A2063616C6C20746F206E6F6E2D636F6E7472616374000000 PUSH1 0x44 DUP3 ADD MSTORE PUSH1 0x64 ADD PUSH2 0x168 JUMP JUMPDEST PUSH1 0x0 DUP1 DUP7 PUSH1 0x1 PUSH1 0x1 PUSH1 0xA0 SHL SUB AND DUP6 DUP8 PUSH1 0x40 MLOAD PUSH2 0x1667 SWAP2 SWAP1 PUSH2 0x1A18 JUMP JUMPDEST PUSH1 0x0 PUSH1 0x40 MLOAD DUP1 DUP4 SUB DUP2 DUP6 DUP8 GAS CALL SWAP3 POP POP POP RETURNDATASIZE DUP1 PUSH1 0x0 DUP2 EQ PUSH2 0x16A4 JUMPI PUSH1 0x40 MLOAD SWAP2 POP PUSH1 0x1F NOT PUSH1 0x3F RETURNDATASIZE ADD AND DUP3 ADD PUSH1 0x40 MSTORE RETURNDATASIZE DUP3 MSTORE RETURNDATASIZE PUSH1 0x0 PUSH1 0x20 DUP5 ADD RETURNDATACOPY PUSH2 0x16A9 JUMP JUMPDEST PUSH1 0x60 SWAP2 POP JUMPDEST POP SWAP2 POP SWAP2 POP PUSH2 0x16B9 DUP3 DUP3 DUP7 PUSH2 0x16C4 JUMP JUMPDEST SWAP8 SWAP7 POP POP POP POP POP POP POP JUMP JUMPDEST PUSH1 0x60 DUP4 ISZERO PUSH2 0x16D3 JUMPI POP DUP2 PUSH2 0x499 JUMP JUMPDEST DUP3 MLOAD ISZERO PUSH2 0x16E3 JUMPI DUP3 MLOAD DUP1 DUP5 PUSH1 0x20 ADD REVERT JUMPDEST DUP2 PUSH1 0x40 MLOAD PUSH3 0x461BCD PUSH1 0xE5 SHL DUP2 MSTORE PUSH1 0x4 ADD PUSH2 0x168 SWAP2 SWAP1 PUSH2 0x1A34 JUMP JUMPDEST PUSH1 0x0 DUP1 DUP4 PUSH1 0x1F DUP5 ADD SLT PUSH2 0x170E JUMPI DUP2 DUP3 REVERT JUMPDEST POP DUP2 CALLDATALOAD PUSH8 0xFFFFFFFFFFFFFFFF DUP2 GT ISZERO PUSH2 0x1725 JUMPI DUP2 DUP3 REVERT JUMPDEST PUSH1 0x20 DUP4 ADD SWAP2 POP DUP4 PUSH1 0x20 DUP3 PUSH1 0x5 SHL DUP6 ADD ADD GT ISZERO PUSH2 0x1740 JUMPI PUSH1 0x0 DUP1 REVERT JUMPDEST SWAP3 POP SWAP3 SWAP1 POP JUMP JUMPDEST PUSH1 0x0 DUP3 PUSH1 0x1F DUP4 ADD SLT PUSH2 0x1757 JUMPI DUP1 DUP2 REVERT JUMPDEST DUP2 CALLDATALOAD PUSH1 0x20 PUSH8 0xFFFFFFFFFFFFFFFF DUP3 GT ISZERO PUSH2 0x1773 JUMPI PUSH2 0x1773 PUSH2 0x1D24 JUMP JUMPDEST DUP2 PUSH1 0x5 SHL PUSH2 0x1782 DUP3 DUP3 ADD PUSH2 0x1C0A JUMP JUMPDEST DUP4 DUP2 MSTORE DUP3 DUP2 ADD SWAP1 DUP7 DUP5 ADD DUP4 DUP9 ADD DUP6 ADD DUP10 LT ISZERO PUSH2 0x179C JUMPI DUP7 DUP8 REVERT JUMPDEST DUP7 SWAP4 POP JUMPDEST DUP6 DUP5 LT ISZERO PUSH2 0x17BE JUMPI DUP1 CALLDATALOAD DUP4 MSTORE PUSH1 0x1 SWAP4 SWAP1 SWAP4 ADD SWAP3 SWAP2 DUP5 ADD SWAP2 DUP5 ADD PUSH2 0x17A0 JUMP JUMPDEST POP SWAP8 SWAP7 POP POP POP POP POP POP POP JUMP JUMPDEST PUSH1 0x0 PUSH1 0x20 DUP3 DUP5 SUB SLT ISZERO PUSH2 0x17DB JUMPI DUP1 DUP2 REVERT JUMPDEST DUP2 CALLDATALOAD PUSH2 0x499 DUP2 PUSH2 0x1D3A JUMP JUMPDEST PUSH1 0x0 DUP1 PUSH1 0x40 DUP4 DUP6 SUB SLT ISZERO PUSH2 0x17F8 JUMPI DUP1 DUP2 REVERT JUMPDEST DUP3 CALLDATALOAD PUSH2 0x1803 DUP2 PUSH2 0x1D3A JUMP JUMPDEST SWAP5 PUSH1 0x20 SWAP4 SWAP1 SWAP4 ADD CALLDATALOAD SWAP4 POP POP POP JUMP JUMPDEST PUSH1 0x0 DUP1 PUSH1 0x0 DUP1 PUSH1 0x0 PUSH1 0xA0 DUP7 DUP9 SUB SLT ISZERO PUSH2 0x1828 JUMPI DUP1 DUP2 REVERT JUMPDEST DUP6 CALLDATALOAD PUSH2 0x1833 DUP2 PUSH2 0x1D3A JUMP JUMPDEST SWAP5 POP PUSH1 0x20 DUP7 DUP2 ADD CALLDATALOAD SWAP5 POP PUSH1 0x40 DUP8 ADD CALLDATALOAD PUSH8 0xFFFFFFFFFFFFFFFF DUP1 DUP3 GT ISZERO PUSH2 0x1857 JUMPI DUP4 DUP5 REVERT JUMPDEST PUSH2 0x1863 DUP11 DUP4 DUP12 ADD PUSH2 0x1747 JUMP JUMPDEST SWAP6 POP PUSH1 0x60 DUP10 ADD CALLDATALOAD SWAP2 POP DUP1 DUP3 GT ISZERO PUSH2 0x1878 JUMPI DUP4 DUP5 REVERT JUMPDEST PUSH2 0x1884 DUP11 DUP4 DUP12 ADD PUSH2 0x1747 JUMP JUMPDEST SWAP5 POP PUSH1 0x80 DUP10 ADD CALLDATALOAD SWAP2 POP DUP1 DUP3 GT ISZERO PUSH2 0x1899 JUMPI DUP4 DUP5 REVERT JUMPDEST DUP2 DUP10 ADD SWAP2 POP DUP10 PUSH1 0x1F DUP4 ADD SLT PUSH2 0x18AC JUMPI DUP4 DUP5 REVERT JUMPDEST DUP2 CALLDATALOAD DUP2 DUP2 GT ISZERO PUSH2 0x18BE JUMPI PUSH2 0x18BE PUSH2 0x1D24 JUMP JUMPDEST PUSH2 0x18D0 PUSH1 0x1F DUP3 ADD PUSH1 0x1F NOT AND DUP6 ADD PUSH2 0x1C0A JUMP JUMPDEST SWAP2 POP DUP1 DUP3 MSTORE DUP11 DUP5 DUP3 DUP6 ADD ADD GT ISZERO PUSH2 0x18E5 JUMPI DUP5 DUP6 REVERT JUMPDEST DUP1 DUP5 DUP5 ADD DUP6 DUP5 ADD CALLDATACOPY DUP2 ADD SWAP1 SWAP3 ADD SWAP3 SWAP1 SWAP3 MSTORE SWAP5 SWAP8 SWAP4 SWAP7 POP SWAP2 SWAP5 POP SWAP3 SWAP2 SWAP1 POP JUMP JUMPDEST PUSH1 0x0 DUP1 PUSH1 0x0 DUP1 PUSH1 0x40 DUP6 DUP8 SUB SLT ISZERO PUSH2 0x1919 JUMPI DUP4 DUP5 REVERT JUMPDEST DUP5 CALLDATALOAD PUSH8 0xFFFFFFFFFFFFFFFF DUP1 DUP3 GT ISZERO PUSH2 0x1930 JUMPI DUP6 DUP7 REVERT JUMPDEST PUSH2 0x193C DUP9 DUP4 DUP10 ADD PUSH2 0x16FD JUMP JUMPDEST SWAP1 SWAP7 POP SWAP5 POP PUSH1 0x20 DUP8 ADD CALLDATALOAD SWAP2 POP DUP1 DUP3 GT ISZERO PUSH2 0x1954 JUMPI DUP4 DUP5 REVERT JUMPDEST POP PUSH2 0x1961 DUP8 DUP3 DUP9 ADD PUSH2 0x16FD JUMP JUMPDEST SWAP6 SWAP9 SWAP5 SWAP8 POP SWAP6 POP POP POP POP JUMP JUMPDEST PUSH1 0x0 PUSH1 0x20 DUP3 DUP5 SUB SLT ISZERO PUSH2 0x197E JUMPI DUP1 DUP2 REVERT JUMPDEST DUP2 MLOAD DUP1 ISZERO ISZERO DUP2 EQ PUSH2 0x499 JUMPI DUP2 DUP3 REVERT JUMPDEST PUSH1 0x0 DUP1 PUSH1 0x0 PUSH1 0x60 DUP5 DUP7 SUB SLT ISZERO PUSH2 0x19A1 JUMPI DUP3 DUP4 REVERT JUMPDEST DUP4 CALLDATALOAD PUSH2 0x19AC DUP2 PUSH2 0x1D3A JUMP JUMPDEST SWAP3 POP PUSH1 0x20 DUP5 ADD CALLDATALOAD PUSH2 0x19BC DUP2 PUSH2 0x1D3A JUMP JUMPDEST SWAP3 SWAP6 SWAP3 SWAP5 POP POP POP PUSH1 0x40 SWAP2 SWAP1 SWAP2 ADD CALLDATALOAD SWAP1 JUMP JUMPDEST PUSH1 0x0 DUP1 PUSH1 0x40 DUP4 DUP6 SUB SLT ISZERO PUSH2 0x17F8 JUMPI DUP2 DUP3 REVERT JUMPDEST PUSH1 0x0 DUP1 PUSH1 0x40 DUP4 DUP6 SUB SLT ISZERO PUSH2 0x19F1 JUMPI DUP2 DUP3 REVERT JUMPDEST POP POP DUP1 CALLDATALOAD SWAP3 PUSH1 0x20 SWAP1 SWAP2 ADD CALLDATALOAD SWAP2 POP JUMP JUMPDEST PUSH1 0x0 PUSH1 0x20 DUP3 DUP5 SUB SLT ISZERO PUSH2 0x1A11 JUMPI DUP1 DUP2 REVERT JUMPDEST POP CALLDATALOAD SWAP2 SWAP1 POP JUMP JUMPDEST PUSH1 0x0 DUP3 MLOAD PUSH2 0x1A2A DUP2 DUP5 PUSH1 0x20 DUP8 ADD PUSH2 0x1CA9 JUMP JUMPDEST SWAP2 SWAP1 SWAP2 ADD SWAP3 SWAP2 POP POP JUMP JUMPDEST PUSH1 0x20 DUP2 MSTORE PUSH1 0x0 DUP3 MLOAD DUP1 PUSH1 0x20 DUP5 ADD MSTORE PUSH2 0x1A53 DUP2 PUSH1 0x40 DUP6 ADD PUSH1 0x20 DUP8 ADD PUSH2 0x1CA9 JUMP JUMPDEST PUSH1 0x1F ADD PUSH1 0x1F NOT AND SWAP2 SWAP1 SWAP2 ADD PUSH1 0x40 ADD SWAP3 SWAP2 POP POP JUMP JUMPDEST PUSH1 0x20 DUP1 DUP3 MSTORE PUSH1 0x23 SWAP1 DUP3 ADD MSTORE PUSH32 0x45524332303A207472616E7366657220746F20746865207A65726F2061646472 PUSH1 0x40 DUP3 ADD MSTORE PUSH3 0x657373 PUSH1 0xE8 SHL PUSH1 0x60 DUP3 ADD MSTORE PUSH1 0x80 ADD SWAP1 JUMP JUMPDEST PUSH1 0x20 DUP1 DUP3 MSTORE PUSH1 0x36 SWAP1 DUP3 ADD MSTORE PUSH32 0x416D6F756E74206465706F7369746564206D7573742062652067726561746572 PUSH1 0x40 DUP3 ADD MSTORE PUSH22 0x81D1A185B881B995D14995B19585CD954195C9A5BD9 PUSH1 0x52 SHL PUSH1 0x60 DUP3 ADD MSTORE PUSH1 0x80 ADD SWAP1 JUMP JUMPDEST PUSH1 0x20 DUP1 DUP3 MSTORE PUSH1 0x30 SWAP1 DUP3 ADD MSTORE PUSH32 0x506C6561736520736574207468652074696D65207374616D702066697273742C PUSH1 0x40 DUP3 ADD MSTORE PUSH16 0x103A3432B7103A393C9030B3B0B4B717 PUSH1 0x81 SHL PUSH1 0x60 DUP3 ADD MSTORE PUSH1 0x80 ADD SWAP1 JUMP JUMPDEST PUSH1 0x20 DUP1 DUP3 MSTORE PUSH1 0xE SWAP1 DUP3 ADD MSTORE PUSH14 0x4E6F2072652D656E7472616E6379 PUSH1 0x90 SHL PUSH1 0x40 DUP3 ADD MSTORE PUSH1 0x60 ADD SWAP1 JUMP JUMPDEST PUSH1 0x20 DUP1 DUP3 MSTORE PUSH1 0x2C SWAP1 DUP3 ADD MSTORE PUSH32 0x4D6573736167652073656E646572206D7573742062652074686520636F6E7472 PUSH1 0x40 DUP3 ADD MSTORE PUSH12 0x30B1BA13B99037BBB732B917 PUSH1 0xA1 SHL PUSH1 0x60 DUP3 ADD MSTORE PUSH1 0x80 ADD SWAP1 JUMP JUMPDEST PUSH1 0x20 DUP1 DUP3 MSTORE PUSH1 0x26 SWAP1 DUP3 ADD MSTORE PUSH32 0x496E636F6D696E67206465706F736974732068617665206265656E2066696E61 PUSH1 0x40 DUP3 ADD MSTORE PUSH6 0x3634B9B2B217 PUSH1 0xD1 SHL PUSH1 0x60 DUP3 ADD MSTORE PUSH1 0x80 ADD SWAP1 JUMP JUMPDEST PUSH1 0x40 MLOAD PUSH1 0x1F DUP3 ADD PUSH1 0x1F NOT AND DUP2 ADD PUSH8 0xFFFFFFFFFFFFFFFF DUP2 GT DUP3 DUP3 LT OR ISZERO PUSH2 0x1C33 JUMPI PUSH2 0x1C33 PUSH2 0x1D24 JUMP JUMPDEST PUSH1 0x40 MSTORE SWAP2 SWAP1 POP JUMP JUMPDEST PUSH1 0x0 DUP3 NOT DUP3 GT ISZERO PUSH2 0x1C4E JUMPI PUSH2 0x1C4E PUSH2 0x1D0E JUMP JUMPDEST POP ADD SWAP1 JUMP JUMPDEST PUSH1 0x0 DUP3 PUSH2 0x1C6E JUMPI PUSH4 0x4E487B71 PUSH1 0xE0 SHL DUP2 MSTORE PUSH1 0x12 PUSH1 0x4 MSTORE PUSH1 0x24 DUP2 REVERT JUMPDEST POP DIV SWAP1 JUMP JUMPDEST PUSH1 0x0 DUP2 PUSH1 0x0 NOT DIV DUP4 GT DUP3 ISZERO ISZERO AND ISZERO PUSH2 0x1C8D JUMPI PUSH2 0x1C8D PUSH2 0x1D0E JUMP JUMPDEST POP MUL SWAP1 JUMP JUMPDEST PUSH1 0x0 DUP3 DUP3 LT ISZERO PUSH2 0x1CA4 JUMPI PUSH2 0x1CA4 PUSH2 0x1D0E JUMP JUMPDEST POP SUB SWAP1 JUMP JUMPDEST PUSH1 0x0 JUMPDEST DUP4 DUP2 LT ISZERO PUSH2 0x1CC4 JUMPI DUP2 DUP2 ADD MLOAD DUP4 DUP3 ADD MSTORE PUSH1 0x20 ADD PUSH2 0x1CAC JUMP JUMPDEST DUP4 DUP2 GT ISZERO PUSH2 0x1CD3 JUMPI PUSH1 0x0 DUP5 DUP5 ADD MSTORE JUMPDEST POP POP POP POP JUMP JUMPDEST PUSH1 0x0 PUSH1 0x0 NOT DUP3 EQ ISZERO PUSH2 0x1CED JUMPI PUSH2 0x1CED PUSH2 0x1D0E JUMP JUMPDEST POP PUSH1 0x1 ADD SWAP1 JUMP JUMPDEST PUSH1 0x0 PUSH1 0x1 PUSH1 0xFF SHL DUP3 EQ ISZERO PUSH2 0x1D0A JUMPI PUSH2 0x1D0A PUSH2 0x1D0E JUMP JUMPDEST SUB SWAP1 JUMP JUMPDEST PUSH4 0x4E487B71 PUSH1 0xE0 SHL PUSH1 0x0 MSTORE PUSH1 0x11 PUSH1 0x4 MSTORE PUSH1 0x24 PUSH1 0x0 REVERT JUMPDEST PUSH4 0x4E487B71 PUSH1 0xE0 SHL PUSH1 0x0 MSTORE PUSH1 0x41 PUSH1 0x4 MSTORE PUSH1 0x24 PUSH1 0x0 REVERT JUMPDEST PUSH1 0x1 PUSH1 0x1 PUSH1 0xA0 SHL SUB DUP2 AND DUP2 EQ PUSH2 0x1D4F JUMPI PUSH1 0x0 DUP1 REVERT JUMPDEST POP JUMP INVALID LOG2 PUSH5 0x6970667358 0x22 SLT KECCAK256 DUP4 PUSH31 0xE30F60C65697015DC25D0EC4846DFF3EDB4EE2839E3F55682E30BD9E387464 PUSH20 0x6F6C634300080400330000000000000000000000 "
        },
        "methodIdentifiers": {
          "allIncomingDepositsFinalised()": "55ce3866",
          "alreadyWithdrawn(address)": "9aa2e39e",
          "balances(address)": "27e235e3",
          "bulkDepositTokens(address[],uint256[])": "d1484298",
          "claimAirdropToken(address,uint256,uint256[],uint256[],string)": "8c5d0d2a",
          "cliffEdge()": "084c28d6",
          "contractBalance()": "8b7afe2e",
          "depositTokens(address,uint256)": "66168bd7",
          "erc20Contract()": "a8f6c913",
          "finalizeAllIncomingDeposits()": "02cc6e3f",
          "getTotalAvailableAmount(address)": "69343f27",
          "getWithdrawalAmount(address)": "56582bf9",
          "getWithdrawalAmountNotVested(address)": "a5363664",
          "initialTimestamp()": "d6d14171",
          "owner()": "8da5cb5b",
          "releaseEdge()": "ff480480",
          "setTimestamp(int256,int256)": "4acf914d",
          "timestampSet()": "9b69279a",
          "transferAccidentallyLockedTokens(address,uint256)": "3e994942",
          "transferTimeLockedTokensAfterTimePeriod(address,address,uint256)": "199b6bba",
          "walletOwner()": "1ae879e8",
          "withdrawEth(uint256)": "c311d049"
        }
      },
      "storageLayout": {
        "storage": [
          {
            "astId": 695,
            "contract": "contracts/ClaimTheAirdrop.sol:AirdropTimeLockSMTX",
            "label": "locked",
            "offset": 0,
            "slot": "0",
            "type": "t_bool"
          },
          {
            "astId": 704,
            "contract": "contracts/ClaimTheAirdrop.sol:AirdropTimeLockSMTX",
            "label": "owner",
            "offset": 1,
            "slot": "0",
            "type": "t_address_payable"
          },
          {
            "astId": 706,
            "contract": "contracts/ClaimTheAirdrop.sol:AirdropTimeLockSMTX",
            "label": "allIncomingDepositsFinalised",
            "offset": 21,
            "slot": "0",
            "type": "t_bool"
          },
          {
            "astId": 708,
            "contract": "contracts/ClaimTheAirdrop.sol:AirdropTimeLockSMTX",
            "label": "initialTimestamp",
            "offset": 0,
            "slot": "1",
            "type": "t_uint256"
          },
          {
            "astId": 710,
            "contract": "contracts/ClaimTheAirdrop.sol:AirdropTimeLockSMTX",
            "label": "timestampSet",
            "offset": 0,
            "slot": "2",
            "type": "t_bool"
          },
          {
            "astId": 712,
            "contract": "contracts/ClaimTheAirdrop.sol:AirdropTimeLockSMTX",
            "label": "cliffEdge",
            "offset": 0,
            "slot": "3",
            "type": "t_uint256"
          },
          {
            "astId": 714,
            "contract": "contracts/ClaimTheAirdrop.sol:AirdropTimeLockSMTX",
            "label": "releaseEdge",
            "offset": 0,
            "slot": "4",
            "type": "t_uint256"
          },
          {
            "astId": 716,
            "contract": "contracts/ClaimTheAirdrop.sol:AirdropTimeLockSMTX",
            "label": "walletOwner",
            "offset": 0,
            "slot": "5",
            "type": "t_address"
          },
          {
            "astId": 720,
            "contract": "contracts/ClaimTheAirdrop.sol:AirdropTimeLockSMTX",
            "label": "alreadyWithdrawn",
            "offset": 0,
            "slot": "6",
            "type": "t_mapping(t_address,t_uint256)"
          },
          {
            "astId": 724,
            "contract": "contracts/ClaimTheAirdrop.sol:AirdropTimeLockSMTX",
            "label": "balances",
            "offset": 0,
            "slot": "7",
            "type": "t_mapping(t_address,t_uint256)"
          },
          {
            "astId": 726,
            "contract": "contracts/ClaimTheAirdrop.sol:AirdropTimeLockSMTX",
            "label": "contractBalance",
            "offset": 0,
            "slot": "8",
            "type": "t_uint256"
          },
          {
            "astId": 729,
            "contract": "contracts/ClaimTheAirdrop.sol:AirdropTimeLockSMTX",
            "label": "erc20Contract",
            "offset": 0,
            "slot": "9",
            "type": "t_contract(IERC20)77"
          }
        ],
        "types": {
          "t_address": {
            "encoding": "inplace",
            "label": "address",
            "numberOfBytes": "20"
          },
          "t_address_payable": {
            "encoding": "inplace",
            "label": "address payable",
            "numberOfBytes": "20"
          },
          "t_bool": {
            "encoding": "inplace",
            "label": "bool",
            "numberOfBytes": "1"
          },
          "t_contract(IERC20)77": {
            "encoding": "inplace",
            "label": "contract IERC20",
            "numberOfBytes": "20"
          },
          "t_mapping(t_address,t_uint256)": {
            "encoding": "mapping",
            "key": "t_address",
            "label": "mapping(address => uint256)",
            "numberOfBytes": "32",
            "value": "t_uint256"
          },
          "t_uint256": {
            "encoding": "inplace",
            "label": "uint256",
            "numberOfBytes": "32"
          }
        }
      }
    }
  }
}