{
  "_format": "hh-sol-artifact-1",
  "contractName": "SST",
  "sourceName": "contracts/SST.sol",
  "abi": [
    {
      "anonymous": false,
      "inputs": [
        {
          "indexed": false,
          "internalType": "address",
          "name": "previousAdmin",
          "type": "address"
        },
        {
          "indexed": false,
          "internalType": "address",
          "name": "newAdmin",
          "type": "address"
        }
      ],
      "name": "AdminChanged",
      "type": "event"
    },
    {
      "anonymous": false,
      "inputs": [
        {
          "indexed": true,
          "internalType": "address",
          "name": "owner",
          "type": "address"
        },
        {
          "indexed": true,
          "internalType": "address",
          "name": "approved",
          "type": "address"
        },
        {
          "indexed": true,
          "internalType": "uint256",
          "name": "tokenId",
          "type": "uint256"
        }
      ],
      "name": "Approval",
      "type": "event"
    },
    {
      "anonymous": false,
      "inputs": [
        {
          "indexed": true,
          "internalType": "address",
          "name": "owner",
          "type": "address"
        },
        {
          "indexed": true,
          "internalType": "address",
          "name": "operator",
          "type": "address"
        },
        {
          "indexed": false,
          "internalType": "bool",
          "name": "approved",
          "type": "bool"
        }
      ],
      "name": "ApprovalForAll",
      "type": "event"
    },
    {
      "anonymous": false,
      "inputs": [
        {
          "indexed": true,
          "internalType": "address",
          "name": "beacon",
          "type": "address"
        }
      ],
      "name": "BeaconUpgraded",
      "type": "event"
    },
    {
      "anonymous": false,
      "inputs": [
        {
          "indexed": false,
          "internalType": "uint8",
          "name": "version",
          "type": "uint8"
        }
      ],
      "name": "Initialized",
      "type": "event"
    },
    {
      "anonymous": false,
      "inputs": [
        {
          "indexed": true,
          "internalType": "address",
          "name": "previousOwner",
          "type": "address"
        },
        {
          "indexed": true,
          "internalType": "address",
          "name": "newOwner",
          "type": "address"
        }
      ],
      "name": "OwnershipTransferred",
      "type": "event"
    },
    {
      "anonymous": false,
      "inputs": [
        {
          "indexed": false,
          "internalType": "address",
          "name": "account",
          "type": "address"
        }
      ],
      "name": "Paused",
      "type": "event"
    },
    {
      "anonymous": false,
      "inputs": [
        {
          "indexed": true,
          "internalType": "address",
          "name": "from",
          "type": "address"
        },
        {
          "indexed": true,
          "internalType": "address",
          "name": "to",
          "type": "address"
        },
        {
          "indexed": true,
          "internalType": "uint256",
          "name": "tokenId",
          "type": "uint256"
        }
      ],
      "name": "Transfer",
      "type": "event"
    },
    {
      "anonymous": false,
      "inputs": [
        {
          "indexed": false,
          "internalType": "address",
          "name": "account",
          "type": "address"
        }
      ],
      "name": "Unpaused",
      "type": "event"
    },
    {
      "anonymous": false,
      "inputs": [
        {
          "indexed": true,
          "internalType": "address",
          "name": "implementation",
          "type": "address"
        }
      ],
      "name": "Upgraded",
      "type": "event"
    },
    {
      "inputs": [
        {
          "internalType": "address",
          "name": "_auditorAddress",
          "type": "address"
        }
      ],
      "name": "addNFTContract",
      "outputs": [],
      "stateMutability": "nonpayable",
      "type": "function"
    },
    {
      "inputs": [
        {
          "internalType": "address",
          "name": "to",
          "type": "address"
        },
        {
          "internalType": "uint256",
          "name": "tokenId",
          "type": "uint256"
        }
      ],
      "name": "approve",
      "outputs": [],
      "stateMutability": "nonpayable",
      "type": "function"
    },
    {
      "inputs": [
        {
          "internalType": "address",
          "name": "owner",
          "type": "address"
        }
      ],
      "name": "balanceOf",
      "outputs": [
        {
          "internalType": "uint256",
          "name": "",
          "type": "uint256"
        }
      ],
      "stateMutability": "view",
      "type": "function"
    },
    {
      "inputs": [
        {
          "internalType": "uint256",
          "name": "tokenId",
          "type": "uint256"
        }
      ],
      "name": "burn",
      "outputs": [],
      "stateMutability": "nonpayable",
      "type": "function"
    },
    {
      "inputs": [
        {
          "internalType": "address",
          "name": "_auditorAddress",
          "type": "address"
        }
      ],
      "name": "checkAuditor",
      "outputs": [
        {
          "internalType": "bool",
          "name": "",
          "type": "bool"
        }
      ],
      "stateMutability": "view",
      "type": "function"
    },
    {
      "inputs": [
        {
          "internalType": "address",
          "name": "_auditorAddress",
          "type": "address"
        }
      ],
      "name": "deleteNFTContract",
      "outputs": [],
      "stateMutability": "nonpayable",
      "type": "function"
    },
    {
      "inputs": [
        {
          "internalType": "uint256",
          "name": "",
          "type": "uint256"
        }
      ],
      "name": "firstFuseAddress",
      "outputs": [
        {
          "internalType": "address",
          "name": "",
          "type": "address"
        }
      ],
      "stateMutability": "view",
      "type": "function"
    },
    {
      "inputs": [
        {
          "internalType": "uint256",
          "name": "tokenId",
          "type": "uint256"
        }
      ],
      "name": "getApproved",
      "outputs": [
        {
          "internalType": "address",
          "name": "",
          "type": "address"
        }
      ],
      "stateMutability": "view",
      "type": "function"
    },
    {
      "inputs": [
        {
          "internalType": "uint256",
          "name": "tokenId",
          "type": "uint256"
        }
      ],
      "name": "getFirstMinterInfo",
      "outputs": [
        {
          "internalType": "address",
          "name": "firstMinter",
          "type": "address"
        }
      ],
      "stateMutability": "view",
      "type": "function"
    },
    {
      "inputs": [],
      "name": "getNFTContract",
      "outputs": [
        {
          "internalType": "address[]",
          "name": "",
          "type": "address[]"
        }
      ],
      "stateMutability": "view",
      "type": "function"
    },
    {
      "inputs": [
        {
          "internalType": "uint256",
          "name": "_x",
          "type": "uint256"
        }
      ],
      "name": "initialize",
      "outputs": [],
      "stateMutability": "nonpayable",
      "type": "function"
    },
    {
      "inputs": [
        {
          "internalType": "address",
          "name": "owner",
          "type": "address"
        },
        {
          "internalType": "address",
          "name": "operator",
          "type": "address"
        }
      ],
      "name": "isApprovedForAll",
      "outputs": [
        {
          "internalType": "bool",
          "name": "",
          "type": "bool"
        }
      ],
      "stateMutability": "view",
      "type": "function"
    },
    {
      "inputs": [],
      "name": "maxSupply",
      "outputs": [
        {
          "internalType": "uint256",
          "name": "",
          "type": "uint256"
        }
      ],
      "stateMutability": "view",
      "type": "function"
    },
    {
      "inputs": [],
      "name": "name",
      "outputs": [
        {
          "internalType": "string",
          "name": "",
          "type": "string"
        }
      ],
      "stateMutability": "view",
      "type": "function"
    },
    {
      "inputs": [],
      "name": "owner",
      "outputs": [
        {
          "internalType": "address",
          "name": "",
          "type": "address"
        }
      ],
      "stateMutability": "view",
      "type": "function"
    },
    {
      "inputs": [
        {
          "internalType": "uint256",
          "name": "tokenId",
          "type": "uint256"
        }
      ],
      "name": "ownerOf",
      "outputs": [
        {
          "internalType": "address",
          "name": "",
          "type": "address"
        }
      ],
      "stateMutability": "view",
      "type": "function"
    },
    {
      "inputs": [],
      "name": "pause",
      "outputs": [],
      "stateMutability": "nonpayable",
      "type": "function"
    },
    {
      "inputs": [],
      "name": "paused",
      "outputs": [
        {
          "internalType": "bool",
          "name": "",
          "type": "bool"
        }
      ],
      "stateMutability": "view",
      "type": "function"
    },
    {
      "inputs": [],
      "name": "proxiableUUID",
      "outputs": [
        {
          "internalType": "bytes32",
          "name": "",
          "type": "bytes32"
        }
      ],
      "stateMutability": "view",
      "type": "function"
    },
    {
      "inputs": [],
      "name": "renounceOwnership",
      "outputs": [],
      "stateMutability": "nonpayable",
      "type": "function"
    },
    {
      "inputs": [
        {
          "internalType": "address",
          "name": "_to",
          "type": "address"
        },
        {
          "internalType": "string",
          "name": "theURI",
          "type": "string"
        }
      ],
      "name": "safeMint",
      "outputs": [],
      "stateMutability": "nonpayable",
      "type": "function"
    },
    {
      "inputs": [
        {
          "internalType": "address",
          "name": "_to",
          "type": "address"
        },
        {
          "internalType": "string",
          "name": "theURI",
          "type": "string"
        }
      ],
      "name": "safeMintAuditor",
      "outputs": [],
      "stateMutability": "nonpayable",
      "type": "function"
    },
    {
      "inputs": [
        {
          "internalType": "address",
          "name": "from",
          "type": "address"
        },
        {
          "internalType": "address",
          "name": "to",
          "type": "address"
        },
        {
          "internalType": "uint256",
          "name": "tokenId",
          "type": "uint256"
        }
      ],
      "name": "safeTransferFrom",
      "outputs": [],
      "stateMutability": "nonpayable",
      "type": "function"
    },
    {
      "inputs": [
        {
          "internalType": "address",
          "name": "from",
          "type": "address"
        },
        {
          "internalType": "address",
          "name": "to",
          "type": "address"
        },
        {
          "internalType": "uint256",
          "name": "tokenId",
          "type": "uint256"
        },
        {
          "internalType": "bytes",
          "name": "data",
          "type": "bytes"
        }
      ],
      "name": "safeTransferFrom",
      "outputs": [],
      "stateMutability": "nonpayable",
      "type": "function"
    },
    {
      "inputs": [
        {
          "internalType": "address",
          "name": "operator",
          "type": "address"
        },
        {
          "internalType": "bool",
          "name": "approved",
          "type": "bool"
        }
      ],
      "name": "setApprovalForAll",
      "outputs": [],
      "stateMutability": "nonpayable",
      "type": "function"
    },
    {
      "inputs": [
        {
          "internalType": "bytes4",
          "name": "interfaceId",
          "type": "bytes4"
        }
      ],
      "name": "supportsInterface",
      "outputs": [
        {
          "internalType": "bool",
          "name": "",
          "type": "bool"
        }
      ],
      "stateMutability": "view",
      "type": "function"
    },
    {
      "inputs": [],
      "name": "symbol",
      "outputs": [
        {
          "internalType": "string",
          "name": "",
          "type": "string"
        }
      ],
      "stateMutability": "view",
      "type": "function"
    },
    {
      "inputs": [
        {
          "internalType": "uint256",
          "name": "index",
          "type": "uint256"
        }
      ],
      "name": "tokenByIndex",
      "outputs": [
        {
          "internalType": "uint256",
          "name": "",
          "type": "uint256"
        }
      ],
      "stateMutability": "view",
      "type": "function"
    },
    {
      "inputs": [
        {
          "internalType": "address",
          "name": "owner",
          "type": "address"
        },
        {
          "internalType": "uint256",
          "name": "index",
          "type": "uint256"
        }
      ],
      "name": "tokenOfOwnerByIndex",
      "outputs": [
        {
          "internalType": "uint256",
          "name": "",
          "type": "uint256"
        }
      ],
      "stateMutability": "view",
      "type": "function"
    },
    {
      "inputs": [
        {
          "internalType": "uint256",
          "name": "tokenId",
          "type": "uint256"
        }
      ],
      "name": "tokenURI",
      "outputs": [
        {
          "internalType": "string",
          "name": "",
          "type": "string"
        }
      ],
      "stateMutability": "view",
      "type": "function"
    },
    {
      "inputs": [],
      "name": "totalSupply",
      "outputs": [
        {
          "internalType": "uint256",
          "name": "",
          "type": "uint256"
        }
      ],
      "stateMutability": "view",
      "type": "function"
    },
    {
      "inputs": [
        {
          "internalType": "address",
          "name": "from",
          "type": "address"
        },
        {
          "internalType": "address",
          "name": "to",
          "type": "address"
        },
        {
          "internalType": "uint256",
          "name": "tokenId",
          "type": "uint256"
        }
      ],
      "name": "transferFrom",
      "outputs": [],
      "stateMutability": "nonpayable",
      "type": "function"
    },
    {
      "inputs": [
        {
          "internalType": "address",
          "name": "newOwner",
          "type": "address"
        }
      ],
      "name": "transferOwnership",
      "outputs": [],
      "stateMutability": "nonpayable",
      "type": "function"
    },
    {
      "inputs": [],
      "name": "unpause",
      "outputs": [],
      "stateMutability": "nonpayable",
      "type": "function"
    },
    {
      "inputs": [
        {
          "internalType": "uint256",
          "name": "tokenId",
          "type": "uint256"
        },
        {
          "internalType": "string",
          "name": "_uri",
          "type": "string"
        }
      ],
      "name": "updateTokenURI",
      "outputs": [],
      "stateMutability": "nonpayable",
      "type": "function"
    },
    {
      "inputs": [
        {
          "internalType": "address",
          "name": "newImplementation",
          "type": "address"
        }
      ],
      "name": "upgradeTo",
      "outputs": [],
      "stateMutability": "nonpayable",
      "type": "function"
    },
    {
      "inputs": [
        {
          "internalType": "address",
          "name": "newImplementation",
          "type": "address"
        },
        {
          "internalType": "bytes",
          "name": "data",
          "type": "bytes"
        }
      ],
      "name": "upgradeToAndCall",
      "outputs": [],
      "stateMutability": "payable",
      "type": "function"
    },
    {
      "inputs": [
        {
          "internalType": "uint256",
          "name": "",
          "type": "uint256"
        }
      ],
      "name": "whiteListedAuditor",
      "outputs": [
        {
          "internalType": "address",
          "name": "",
          "type": "address"
        }
      ],
      "stateMutability": "view",
      "type": "function"
    },
    {
      "inputs": [],
      "name": "withdraw",
      "outputs": [],
      "stateMutability": "payable",
      "type": "function"
    },
    {
      "inputs": [],
      "name": "x",
      "outputs": [
        {
          "internalType": "uint256",
          "name": "",
          "type": "uint256"
        }
      ],
      "stateMutability": "view",
      "type": "function"
    }
  ],
  "bytecode": "0x60a06040523060601b60805234801561001757600080fd5b5060805160601c61314c61005260003960008181610a8601528181610ac601528181610c7e01528181610cbe0152610dee015261314c6000f3fe60806040526004361061023b5760003560e01c80635c975abb1161012e578063b88d4fde116100ab578063d76784b91161006f578063d76784b91461068d578063e75be109146106ad578063e985e9c5146106cd578063f2fde38b14610716578063fe4b84df1461073657600080fd5b8063b88d4fde146105f6578063c87b56dd14610616578063cfac5d7c14610636578063d204c45e14610656578063d5abeb011461067657600080fd5b80638456cb59116100f25780638456cb59146105565780638da5cb5b1461056b57806395d89b411461058a578063a1bdc18b1461059f578063a22cb465146105d657600080fd5b80635c975abb146104c95780636352211e146104e157806370a0823114610501578063715018a6146105215780638159da6b1461053657600080fd5b80632f745c59116101bc57806342966c681161018057806342966c6814610441578063444c71cc146104615780634f1ef286146104815780634f6ccce71461049457806352d1902d146104b457600080fd5b80632f745c59146103c45780633659cfe6146103e45780633ccfd60b146104045780633f4ba83a1461040c57806342842e0e1461042157600080fd5b806318160ddd1161020357806318160ddd1461031657806318e97fd11461032b57806321b6396a1461034b57806323b872dd146103825780632b1f4ad6146103a257600080fd5b806301ffc9a71461024057806306fdde0314610275578063081812fc14610297578063095ea7b3146102cf5780630c55699c146102f1575b600080fd5b34801561024c57600080fd5b5061026061025b366004612c88565b610756565b60405190151581526020015b60405180910390f35b34801561028157600080fd5b5061028a610767565b60405161026c9190612e08565b3480156102a357600080fd5b506102b76102b2366004612cc0565b6107f9565b6040516001600160a01b03909116815260200161026c565b3480156102db57600080fd5b506102ef6102ea366004612c47565b610820565b005b3480156102fd57600080fd5b506103086101f95481565b60405190815260200161026c565b34801561032257600080fd5b50609954610308565b34801561033757600080fd5b506102ef610346366004612cd8565b61093b565b34801561035757600080fd5b506102b7610366366004612cc0565b60009081526101f760205260409020546001600160a01b031690565b34801561038e57600080fd5b506102ef61039d366004612b20565b610951565b3480156103ae57600080fd5b506103b7610983565b60405161026c9190612dbb565b3480156103d057600080fd5b506103086103df366004612c47565b6109e5565b3480156103f057600080fd5b506102ef6103ff366004612ad4565b610a7b565b6102ef610b5b565b34801561041857600080fd5b506102ef610bed565b34801561042d57600080fd5b506102ef61043c366004612b20565b610bff565b34801561044d57600080fd5b506102ef61045c366004612cc0565b610c1a565b34801561046d57600080fd5b506102b761047c366004612cc0565b610c48565b6102ef61048f366004612bfb565b610c73565b3480156104a057600080fd5b506103086104af366004612cc0565b610d40565b3480156104c057600080fd5b50610308610de1565b3480156104d557600080fd5b5060fb5460ff16610260565b3480156104ed57600080fd5b506102b76104fc366004612cc0565b610e94565b34801561050d57600080fd5b5061030861051c366004612ad4565b610ef4565b34801561052d57600080fd5b506102ef610f7a565b34801561054257600080fd5b506102ef610551366004612ad4565b610f8c565b34801561056257600080fd5b506102ef611037565b34801561057757600080fd5b5061012d546001600160a01b03166102b7565b34801561059657600080fd5b5061028a611047565b3480156105ab57600080fd5b506102b76105ba366004612cc0565b6101f7602052600090815260409020546001600160a01b031681565b3480156105e257600080fd5b506102ef6105f1366004612bc1565b611056565b34801561060257600080fd5b506102ef610611366004612b5b565b611061565b34801561062257600080fd5b5061028a610631366004612cc0565b611099565b34801561064257600080fd5b506102ef610651366004612ad4565b6110a4565b34801561066257600080fd5b506102ef610671366004612bfb565b6110ff565b34801561068257600080fd5b506103086101f65481565b34801561069957600080fd5b506102ef6106a8366004612bfb565b611184565b3480156106b957600080fd5b506102606106c8366004612ad4565b6111d5565b3480156106d957600080fd5b506102606106e8366004612aee565b6001600160a01b039182166000908152606a6020908152604080832093909416825291909152205460ff1690565b34801561072257600080fd5b506102ef610731366004612ad4565b61124f565b34801561074257600080fd5b506102ef610751366004612cc0565b6112c5565b6000610761826114c7565b92915050565b6060606580546107769061300d565b80601f01602080910402602001604051908101604052809291908181526020018280546107a29061300d565b80156107ef5780601f106107c4576101008083540402835291602001916107ef565b820191906000526020600020905b8154815290600101906020018083116107d257829003601f168201915b5050505050905090565b6000610804826114ec565b506000908152606960205260409020546001600160a01b031690565b600061082b82610e94565b9050806001600160a01b0316836001600160a01b0316141561089e5760405162461bcd60e51b815260206004820152602160248201527f4552433732313a20617070726f76616c20746f2063757272656e74206f776e656044820152603960f91b60648201526084015b60405180910390fd5b336001600160a01b03821614806108ba57506108ba81336106e8565b61092c5760405162461bcd60e51b815260206004820152603e60248201527f4552433732313a20617070726f76652063616c6c6572206973206e6f7420746f60448201527f6b656e206f776e6572206e6f7220617070726f76656420666f7220616c6c00006064820152608401610895565b610936838361154b565b505050565b6109436115b9565b61094d8282611614565b5050565b61095c335b826116ae565b6109785760405162461bcd60e51b815260040161089590612f50565b61093683838361172d565b60606101f88054806020026020016040519081016040528092919081815260200182805480156107ef57602002820191906000526020600020905b81546001600160a01b031681526001909101906020018083116109be575050505050905090565b60006109f083610ef4565b8210610a525760405162461bcd60e51b815260206004820152602b60248201527f455243373231456e756d657261626c653a206f776e657220696e646578206f7560448201526a74206f6620626f756e647360a81b6064820152608401610895565b506001600160a01b03919091166000908152609760209081526040808320938352929052205490565b306001600160a01b037f0000000000000000000000000000000000000000000000000000000000000000161415610ac45760405162461bcd60e51b815260040161089590612e6d565b7f00000000000000000000000000000000000000000000000000000000000000006001600160a01b0316610b0d6000805160206130d0833981519152546001600160a01b031690565b6001600160a01b031614610b335760405162461bcd60e51b815260040161089590612eb9565b610b3c816118d4565b60408051600080825260208201909252610b58918391906118dc565b50565b610b636115b9565b604051600090339047908381818185875af1925050503d8060008114610ba5576040519150601f19603f3d011682016040523d82523d6000602084013e610baa565b606091505b5050905080610b585760405162461bcd60e51b815260206004820152600f60248201526e11985a5b1d5c99481d1bc81cd95b99608a1b6044820152606401610895565b610bf56115b9565b610bfd611a56565b565b61093683838360405180602001604052806000815250611061565b610c2333610956565b610c3f5760405162461bcd60e51b815260040161089590612f50565b610b5881611aa8565b6101f88181548110610c5957600080fd5b6000918252602090912001546001600160a01b0316905081565b306001600160a01b037f0000000000000000000000000000000000000000000000000000000000000000161415610cbc5760405162461bcd60e51b815260040161089590612e6d565b7f00000000000000000000000000000000000000000000000000000000000000006001600160a01b0316610d056000805160206130d0833981519152546001600160a01b031690565b6001600160a01b031614610d2b5760405162461bcd60e51b815260040161089590612eb9565b610d34826118d4565b61094d828260016118dc565b6000610d4b60995490565b8210610dae5760405162461bcd60e51b815260206004820152602c60248201527f455243373231456e756d657261626c653a20676c6f62616c20696e646578206f60448201526b7574206f6620626f756e647360a01b6064820152608401610895565b60998281548110610dcf57634e487b7160e01b600052603260045260246000fd5b90600052602060002001549050919050565b6000306001600160a01b037f00000000000000000000000000000000000000000000000000000000000000001614610e815760405162461bcd60e51b815260206004820152603860248201527f555550535570677261646561626c653a206d757374206e6f742062652063616c60448201527f6c6564207468726f7567682064656c656761746563616c6c00000000000000006064820152608401610895565b506000805160206130d083398151915290565b6000818152606760205260408120546001600160a01b0316806107615760405162461bcd60e51b8152602060048201526018602482015277115490cdcc8c4e881a5b9d985b1a59081d1bdad95b88125160421b6044820152606401610895565b60006001600160a01b038216610f5e5760405162461bcd60e51b815260206004820152602960248201527f4552433732313a2061646472657373207a65726f206973206e6f7420612076616044820152683634b21037bbb732b960b91b6064820152608401610895565b506001600160a01b031660009081526068602052604090205490565b610f826115b9565b610bfd6000611ab1565b610f946115b9565b60005b6101f85481101561094d57816001600160a01b03166101f88281548110610fce57634e487b7160e01b600052603260045260246000fd5b6000918252602090912001546001600160a01b03161415611025576101f8818154811061100b57634e487b7160e01b600052603260045260246000fd5b600091825260209091200180546001600160a01b03191690555b8061102f81613048565b915050610f97565b61103f6115b9565b610bfd611b04565b6060606680546107769061300d565b61094d338383611b41565b61106b33836116ae565b6110875760405162461bcd60e51b815260040161089590612f50565b61109384848484611c10565b50505050565b606061076182611c43565b6110ac6115b9565b6101f880546001810182556000919091527f8266c9cfd8dabe6f78455c38dd0de8582c4fa8f7b2e2a0cae9fbe2a3861fc0c60180546001600160a01b0319166001600160a01b0392909216919091179055565b6111076115b9565b600061111260995490565b905061112883611123836001612f9e565b611d4c565b61113c611136826001612f9e565b83611614565b336101f7600061114d846001612f9e565b815260200190815260200160002060006101000a8154816001600160a01b0302191690836001600160a01b03160217905550505050565b61118d336111d5565b15156001146111075760405162461bcd60e51b8152602060048201526014602482015273105d591a5d1bdc881b9bdd081d995c9a599a595960621b6044820152606401610895565b6000805b6101f85481101561124657826001600160a01b03166101f8828154811061121057634e487b7160e01b600052603260045260246000fd5b6000918252602090912001546001600160a01b031614156112345750600192915050565b8061123e81613048565b9150506111d9565b50600092915050565b6112576115b9565b6001600160a01b0381166112bc5760405162461bcd60e51b815260206004820152602660248201527f4f776e61626c653a206e6577206f776e657220697320746865207a65726f206160448201526564647265737360d01b6064820152608401610895565b610b5881611ab1565b600054610100900460ff16158080156112e55750600054600160ff909116105b806112ff5750303b1580156112ff575060005460ff166001145b6113625760405162461bcd60e51b815260206004820152602e60248201527f496e697469616c697a61626c653a20636f6e747261637420697320616c72656160448201526d191e481a5b9a5d1a585b1a5e995960921b6064820152608401610895565b6000805460ff191660011790558015611385576000805461ff0019166101001790555b6101f55460ff16156113f05760405162461bcd60e51b815260206004820152602e60248201527f436f6e747261637420696e7374616e63652068617320616c726561647920626560448201526d195b881a5b9a5d1a585b1a5e995960921b6064820152608401610895565b6101f5805460ff19166001179055604080518082018252600e8082526d29a9aa16a337bab73230ba34b7b760911b602080840182905284518086019095529184529083015261143e91611d66565b611446611d97565b61144e611d97565b611456611dbe565b61145e611ded565b611466611d97565b61146e611d97565b6101f98290556402540be4006101f655801561094d576000805461ff0019169055604051600181527f7f26b83ff96e1f2b6a682f133852f6798a09c465da95921460cefb38474024989060200160405180910390a15050565b60006001600160e01b0319821663780e9d6360e01b1480610761575061076182611e1c565b6000818152606760205260409020546001600160a01b0316610b585760405162461bcd60e51b8152602060048201526018602482015277115490cdcc8c4e881a5b9d985b1a59081d1bdad95b88125160421b6044820152606401610895565b600081815260696020526040902080546001600160a01b0319166001600160a01b038416908117909155819061158082610e94565b6001600160a01b03167f8c5be1e5ebec7d5bd14f71427d1e84f3dd0314c0f7b2291e5b200ac8c7c3b92560405160405180910390a45050565b61012d546001600160a01b03163314610bfd5760405162461bcd60e51b815260206004820181905260248201527f4f776e61626c653a2063616c6c6572206973206e6f7420746865206f776e65726044820152606401610895565b6000828152606760205260409020546001600160a01b031661168f5760405162461bcd60e51b815260206004820152602e60248201527f45524337323155524953746f726167653a2055524920736574206f66206e6f6e60448201526d32bc34b9ba32b73a103a37b5b2b760911b6064820152608401610895565b600082815260c960209081526040909120825161093692840190612962565b6000806116ba83610e94565b9050806001600160a01b0316846001600160a01b0316148061170157506001600160a01b038082166000908152606a602090815260408083209388168352929052205460ff165b806117255750836001600160a01b031661171a846107f9565b6001600160a01b0316145b949350505050565b826001600160a01b031661174082610e94565b6001600160a01b0316146117a45760405162461bcd60e51b815260206004820152602560248201527f4552433732313a207472616e736665722066726f6d20696e636f72726563742060448201526437bbb732b960d91b6064820152608401610895565b6001600160a01b0382166118065760405162461bcd60e51b8152602060048201526024808201527f4552433732313a207472616e7366657220746f20746865207a65726f206164646044820152637265737360e01b6064820152608401610895565b611811838383611e6c565b61181c60008261154b565b6001600160a01b0383166000908152606860205260408120805460019290611845908490612fca565b90915550506001600160a01b0382166000908152606860205260408120805460019290611873908490612f9e565b909155505060008181526067602052604080822080546001600160a01b0319166001600160a01b0386811691821790925591518493918716917fddf252ad1be2c89b69c2b068fc378daa952ba7f163c4a11628f55a4df523b3ef91a4505050565b610b586115b9565b7f4910fdfa16fed3260ed0e7147f7cc6da11a60208b5b9406d12a635614ffd91435460ff161561190f5761093683611e7f565b826001600160a01b03166352d1902d6040518163ffffffff1660e01b815260040160206040518083038186803b15801561194857600080fd5b505afa925050508015611978575060408051601f3d908101601f1916820190925261197591810190612c70565b60015b6119db5760405162461bcd60e51b815260206004820152602e60248201527f45524331393637557067726164653a206e657720696d706c656d656e7461746960448201526d6f6e206973206e6f74205555505360901b6064820152608401610895565b6000805160206130d08339815191528114611a4a5760405162461bcd60e51b815260206004820152602960248201527f45524331393637557067726164653a20756e737570706f727465642070726f786044820152681a58589b195555525160ba1b6064820152608401610895565b50610936838383611f1b565b611a5e611f40565b60fb805460ff191690557f5db9ee0a495bf2e6ff9c91a7834c1ba4fdd244a5e8aa4e537bd38aeae4b073aa335b6040516001600160a01b03909116815260200160405180910390a1565b610b5881611f89565b61012d80546001600160a01b038381166001600160a01b0319831681179093556040519116919082907f8be0079c531659141344cd1fd0a4f28419497f9722a3daafe3b4186f6b6457e090600090a35050565b611b0c611fc9565b60fb805460ff191660011790557f62e78cea01bee320cd4e420270b5ea74000d11b0c9f74754ebdbfc544b05a258611a8b3390565b816001600160a01b0316836001600160a01b03161415611ba35760405162461bcd60e51b815260206004820152601960248201527f4552433732313a20617070726f766520746f2063616c6c6572000000000000006044820152606401610895565b6001600160a01b038381166000818152606a6020908152604080832094871680845294825291829020805460ff191686151590811790915591519182527f17307eab39ab6107e8899845ad3d59bd9653f200f220920489ca2b5937696c31910160405180910390a3505050565b611c1b84848461172d565b611c278484848461200f565b6110935760405162461bcd60e51b815260040161089590612e1b565b6060611c4e826114ec565b600082815260c9602052604081208054611c679061300d565b80601f0160208091040260200160405190810160405280929190818152602001828054611c939061300d565b8015611ce05780601f10611cb557610100808354040283529160200191611ce0565b820191906000526020600020905b815481529060010190602001808311611cc357829003601f168201915b505050505090506000611cfe60408051602081019091526000815290565b9050805160001415611d11575092915050565b815115611d43578082604051602001611d2b929190612d4f565b60405160208183030381529060405292505050919050565b6117258461211c565b61094d828260405180602001604052806000815250612190565b600054610100900460ff16611d8d5760405162461bcd60e51b815260040161089590612f05565b61094d82826121c3565b600054610100900460ff16610bfd5760405162461bcd60e51b815260040161089590612f05565b600054610100900460ff16611de55760405162461bcd60e51b815260040161089590612f05565b610bfd612211565b600054610100900460ff16611e145760405162461bcd60e51b815260040161089590612f05565b610bfd612244565b60006001600160e01b031982166380ac58cd60e01b1480611e4d57506001600160e01b03198216635b5e139f60e01b145b8061076157506301ffc9a760e01b6001600160e01b0319831614610761565b611e74611fc9565b610936838383612274565b6001600160a01b0381163b611eec5760405162461bcd60e51b815260206004820152602d60248201527f455243313936373a206e657720696d706c656d656e746174696f6e206973206e60448201526c1bdd08184818dbdb9d1c9858dd609a1b6064820152608401610895565b6000805160206130d083398151915280546001600160a01b0319166001600160a01b0392909216919091179055565b611f248361232c565b600082511180611f315750805b1561093657611093838361236c565b60fb5460ff16610bfd5760405162461bcd60e51b815260206004820152601460248201527314185d5cd8589b194e881b9bdd081c185d5cd95960621b6044820152606401610895565b611f9281612460565b600081815260c9602052604090208054611fab9061300d565b159050610b5857600081815260c960205260408120610b58916129e6565b60fb5460ff1615610bfd5760405162461bcd60e51b815260206004820152601060248201526f14185d5cd8589b194e881c185d5cd95960821b6044820152606401610895565b60006001600160a01b0384163b1561211157604051630a85bd0160e11b81526001600160a01b0385169063150b7a0290612053903390899088908890600401612d7e565b602060405180830381600087803b15801561206d57600080fd5b505af192505050801561209d575060408051601f3d908101601f1916820190925261209a91810190612ca4565b60015b6120f7573d8080156120cb576040519150601f19603f3d011682016040523d82523d6000602084013e6120d0565b606091505b5080516120ef5760405162461bcd60e51b815260040161089590612e1b565b805181602001fd5b6001600160e01b031916630a85bd0160e11b149050611725565b506001949350505050565b6060612127826114ec565b600061213e60408051602081019091526000815290565b9050600081511161215e5760405180602001604052806000815250612189565b8061216884612507565b604051602001612179929190612d4f565b6040516020818303038152906040525b9392505050565b61219a8383612621565b6121a7600084848461200f565b6109365760405162461bcd60e51b815260040161089590612e1b565b600054610100900460ff166121ea5760405162461bcd60e51b815260040161089590612f05565b81516121fd906065906020850190612962565b508051610936906066906020840190612962565b600054610100900460ff166122385760405162461bcd60e51b815260040161089590612f05565b60fb805460ff19169055565b600054610100900460ff1661226b5760405162461bcd60e51b815260040161089590612f05565b610bfd33611ab1565b6001600160a01b0383166122cf576122ca81609980546000838152609a60205260408120829055600182018355919091527f72a152ddfb8e864297c917af52ea6c1c68aead0fee1a62673fcc7e0c94979d000155565b6122f2565b816001600160a01b0316836001600160a01b0316146122f2576122f2838261276f565b6001600160a01b038216612309576109368161280c565b826001600160a01b0316826001600160a01b0316146109365761093682826128e5565b61233581611e7f565b6040516001600160a01b038216907fbc7cd75a20ee27fd9adebab32041f755214dbc6bffa90cc0225b39da2e5c2d3b90600090a250565b60606001600160a01b0383163b6123d45760405162461bcd60e51b815260206004820152602660248201527f416464726573733a2064656c65676174652063616c6c20746f206e6f6e2d636f6044820152651b9d1c9858dd60d21b6064820152608401610895565b600080846001600160a01b0316846040516123ef9190612d33565b600060405180830381855af49150503d806000811461242a576040519150601f19603f3d011682016040523d82523d6000602084013e61242f565b606091505b509150915061245782826040518060600160405280602781526020016130f060279139612929565b95945050505050565b600061246b82610e94565b905061247981600084611e6c565b61248460008361154b565b6001600160a01b03811660009081526068602052604081208054600192906124ad908490612fca565b909155505060008281526067602052604080822080546001600160a01b0319169055518391906001600160a01b038416907fddf252ad1be2c89b69c2b068fc378daa952ba7f163c4a11628f55a4df523b3ef908390a45050565b60608161252b5750506040805180820190915260018152600360fc1b602082015290565b8160005b8115612555578061253f81613048565b915061254e9050600a83612fb6565b915061252f565b60008167ffffffffffffffff81111561257e57634e487b7160e01b600052604160045260246000fd5b6040519080825280601f01601f1916602001820160405280156125a8576020820181803683370190505b5090505b8415611725576125bd600183612fca565b91506125ca600a86613063565b6125d5906030612f9e565b60f81b8183815181106125f857634e487b7160e01b600052603260045260246000fd5b60200101906001600160f81b031916908160001a90535061261a600a86612fb6565b94506125ac565b6001600160a01b0382166126775760405162461bcd60e51b815260206004820181905260248201527f4552433732313a206d696e7420746f20746865207a65726f20616464726573736044820152606401610895565b6000818152606760205260409020546001600160a01b0316156126dc5760405162461bcd60e51b815260206004820152601c60248201527f4552433732313a20746f6b656e20616c7265616479206d696e746564000000006044820152606401610895565b6126e860008383611e6c565b6001600160a01b0382166000908152606860205260408120805460019290612711908490612f9e565b909155505060008181526067602052604080822080546001600160a01b0319166001600160a01b03861690811790915590518392907fddf252ad1be2c89b69c2b068fc378daa952ba7f163c4a11628f55a4df523b3ef908290a45050565b6000600161277c84610ef4565b6127869190612fca565b6000838152609860205260409020549091508082146127d9576001600160a01b03841660009081526097602090815260408083208584528252808320548484528184208190558352609890915290208190555b5060009182526098602090815260408084208490556001600160a01b039094168352609781528383209183525290812055565b60995460009061281e90600190612fca565b6000838152609a60205260408120546099805493945090928490811061285457634e487b7160e01b600052603260045260246000fd5b90600052602060002001549050806099838154811061288357634e487b7160e01b600052603260045260246000fd5b6000918252602080832090910192909255828152609a909152604080822084905585825281205560998054806128c957634e487b7160e01b600052603160045260246000fd5b6001900381819060005260206000200160009055905550505050565b60006128f083610ef4565b6001600160a01b039093166000908152609760209081526040808320868452825280832085905593825260989052919091209190915550565b60608315612938575081612189565b8251156129485782518084602001fd5b8160405162461bcd60e51b81526004016108959190612e08565b82805461296e9061300d565b90600052602060002090601f01602090048101928261299057600085556129d6565b82601f106129a957805160ff19168380011785556129d6565b828001600101855582156129d6579182015b828111156129d65782518255916020019190600101906129bb565b506129e2929150612a1c565b5090565b5080546129f29061300d565b6000825580601f10612a02575050565b601f016020900490600052602060002090810190610b5891905b5b808211156129e25760008155600101612a1d565b80356001600160a01b0381168114612a4857600080fd5b919050565b600082601f830112612a5d578081fd5b813567ffffffffffffffff80821115612a7857612a786130a3565b604051601f8301601f19908116603f01168101908282118183101715612aa057612aa06130a3565b81604052838152866020858801011115612ab8578485fd5b8360208701602083013792830160200193909352509392505050565b600060208284031215612ae5578081fd5b61218982612a31565b60008060408385031215612b00578081fd5b612b0983612a31565b9150612b1760208401612a31565b90509250929050565b600080600060608486031215612b34578081fd5b612b3d84612a31565b9250612b4b60208501612a31565b9150604084013590509250925092565b60008060008060808587031215612b70578081fd5b612b7985612a31565b9350612b8760208601612a31565b925060408501359150606085013567ffffffffffffffff811115612ba9578182fd5b612bb587828801612a4d565b91505092959194509250565b60008060408385031215612bd3578182fd5b612bdc83612a31565b915060208301358015158114612bf0578182fd5b809150509250929050565b60008060408385031215612c0d578182fd5b612c1683612a31565b9150602083013567ffffffffffffffff811115612c31578182fd5b612c3d85828601612a4d565b9150509250929050565b60008060408385031215612c59578182fd5b612c6283612a31565b946020939093013593505050565b600060208284031215612c81578081fd5b5051919050565b600060208284031215612c99578081fd5b8135612189816130b9565b600060208284031215612cb5578081fd5b8151612189816130b9565b600060208284031215612cd1578081fd5b5035919050565b60008060408385031215612cea578182fd5b82359150602083013567ffffffffffffffff811115612c31578182fd5b60008151808452612d1f816020860160208601612fe1565b601f01601f19169290920160200192915050565b60008251612d45818460208701612fe1565b9190910192915050565b60008351612d61818460208801612fe1565b835190830190612d75818360208801612fe1565b01949350505050565b6001600160a01b0385811682528416602082015260408101839052608060608201819052600090612db190830184612d07565b9695505050505050565b6020808252825182820181905260009190848201906040850190845b81811015612dfc5783516001600160a01b031683529284019291840191600101612dd7565b50909695505050505050565b6020815260006121896020830184612d07565b60208082526032908201527f4552433732313a207472616e7366657220746f206e6f6e20455243373231526560408201527131b2b4bb32b91034b6b83632b6b2b73a32b960711b606082015260800190565b6020808252602c908201527f46756e6374696f6e206d7573742062652063616c6c6564207468726f7567682060408201526b19195b1959d85d1958d85b1b60a21b606082015260800190565b6020808252602c908201527f46756e6374696f6e206d7573742062652063616c6c6564207468726f7567682060408201526b6163746976652070726f787960a01b606082015260800190565b6020808252602b908201527f496e697469616c697a61626c653a20636f6e7472616374206973206e6f74206960408201526a6e697469616c697a696e6760a81b606082015260800190565b6020808252602e908201527f4552433732313a2063616c6c6572206973206e6f7420746f6b656e206f776e6560408201526d1c881b9bdc88185c1c1c9bdd995960921b606082015260800190565b60008219821115612fb157612fb1613077565b500190565b600082612fc557612fc561308d565b500490565b600082821015612fdc57612fdc613077565b500390565b60005b83811015612ffc578181015183820152602001612fe4565b838111156110935750506000910152565b600181811c9082168061302157607f821691505b6020821081141561304257634e487b7160e01b600052602260045260246000fd5b50919050565b600060001982141561305c5761305c613077565b5060010190565b6000826130725761307261308d565b500690565b634e487b7160e01b600052601160045260246000fd5b634e487b7160e01b600052601260045260246000fd5b634e487b7160e01b600052604160045260246000fd5b6001600160e01b031981168114610b5857600080fdfe360894a13ba1a3210667c828492db98dca3e2076cc3735a920a3ca505d382bbc416464726573733a206c6f772d6c6576656c2064656c65676174652063616c6c206661696c6564a264697066735822122035f4ac2915e7ca19d45a4e85035258465913a72caf5a9f17508c6cc00993437564736f6c63430008040033",
  "linkReferences": {},
  "deployedLinkReferences": {}
}