{
  "_format": "hh-sol-artifact-1",
  "contractName": "SMTXMultiSwap",
  "sourceName": "contracts/MultiSwap.sol",
  "abi": [
    {
      "inputs": [
        {
          "internalType": "uint256",
          "name": "amountIn",
          "type": "uint256"
        },
        {
          "internalType": "uint256",
          "name": "amountOutMin",
          "type": "uint256"
        }
      ],
      "name": "swapMultiHopExactAmountIn",
      "outputs": [
        {
          "internalType": "uint256",
          "name": "amoutnOut",
          "type": "uint256"
        }
      ],
      "stateMutability": "nonpayable",
      "type": "function"
    },
    {
      "inputs": [
        {
          "internalType": "uint256",
          "name": "amountOutDesired",
          "type": "uint256"
        },
        {
          "internalType": "uint256",
          "name": "amountInMax",
          "type": "uint256"
        }
      ],
      "name": "swapMultiHopExactAmountOut",
      "outputs": [
        {
          "internalType": "uint256",
          "name": "amountOut",
          "type": "uint256"
        }
      ],
      "stateMutability": "nonpayable",
      "type": "function"
    },
    {
      "inputs": [
        {
          "internalType": "uint256",
          "name": "amountIn",
          "type": "uint256"
        },
        {
          "internalType": "uint256",
          "name": "amountOutMin",
          "type": "uint256"
        }
      ],
      "name": "swapSingleHopExactAmountIn",
      "outputs": [
        {
          "internalType": "uint256",
          "name": "amoutnOut",
          "type": "uint256"
        }
      ],
      "stateMutability": "nonpayable",
      "type": "function"
    },
    {
      "inputs": [
        {
          "internalType": "uint256",
          "name": "amountOutDesired",
          "type": "uint256"
        },
        {
          "internalType": "uint256",
          "name": "amountInMax",
          "type": "uint256"
        }
      ],
      "name": "swapSingleHopExactAmountOut",
      "outputs": [
        {
          "internalType": "uint256",
          "name": "amountOut",
          "type": "uint256"
        }
      ],
      "stateMutability": "nonpayable",
      "type": "function"
    }
  ],
  "bytecode": "0x6080604052600080546001600160a01b0319908116737a250d5630b4cf539739df2c5dacb4c659f2488d1790915560018054821673c02aaa39b223fe8d0a0e5c4f27ead9083c756cc217905560028054909116739fc7d181fd814e9036d60335245ae8240871133117905534801561007657600080fd5b50610f66806100866000396000f3fe608060405234801561001057600080fd5b506004361061004c5760003560e01c80633dfd8f8514610051578063a00edeff14610076578063da8458df14610089578063e47677771461009c575b600080fd5b61006461005f366004610e42565b6100af565b60405190815260200160405180910390f35b610064610084366004610e42565b610439565b610064610097366004610e42565b610809565b6100646100aa366004610e42565b610ade565b6001546040516323b872dd60e01b81526000916001600160a01b0316906323b872dd906100e490339030908790600401610e63565b602060405180830381600087803b1580156100fe57600080fd5b505af1158015610112573d6000803e3d6000fd5b505050506040513d601f19601f820116820180604052508101906101369190610e1b565b5060015460005460405163095ea7b360e01b81526001600160a01b0391821660048201526024810185905291169063095ea7b390604401602060405180830381600087803b15801561018757600080fd5b505af115801561019b573d6000803e3d6000fd5b505050506040513d601f19601f820116820180604052508101906101bf9190610e1b565b50604080516002808252606080830184529260208301908036833701905050905073c02aaa39b223fe8d0a0e5c4f27ead9083c756cc28160008151811061021657634e487b7160e01b600052603260045260246000fd5b60200260200101906001600160a01b031690816001600160a01b031681525050739fc7d181fd814e9036d60335245ae824087113318160018151811061026c57634e487b7160e01b600052603260045260246000fd5b6001600160a01b03928316602091820292909201015260008054604051634401edf760e11b815291921690638803dbee906102b39088908890879033904290600401610e87565b600060405180830381600087803b1580156102cd57600080fd5b505af11580156102e1573d6000803e3d6000fd5b505050506040513d6000823e601f3d908101601f191682016040526103099190810190610d5b565b9050838160008151811061032d57634e487b7160e01b600052603260045260246000fd5b602002602001015110156104065760015481516001600160a01b039091169063a9059cbb903390849060009061037357634e487b7160e01b600052603260045260246000fd5b6020026020010151876103869190610ef7565b6040516001600160e01b031960e085901b1681526001600160a01b0390921660048301526024820152604401602060405180830381600087803b1580156103cc57600080fd5b505af11580156103e0573d6000803e3d6000fd5b505050506040513d601f19601f820116820180604052508101906104049190610e1b565b505b8060018151811061042757634e487b7160e01b600052603260045260246000fd5b60200260200101519250505092915050565b6002546040516323b872dd60e01b81526000916001600160a01b0316906323b872dd9061046e90339030908790600401610e63565b602060405180830381600087803b15801561048857600080fd5b505af115801561049c573d6000803e3d6000fd5b505050506040513d601f19601f820116820180604052508101906104c09190610e1b565b5060025460005460405163095ea7b360e01b81526001600160a01b0391821660048201526024810185905291169063095ea7b390604401602060405180830381600087803b15801561051157600080fd5b505af1158015610525573d6000803e3d6000fd5b505050506040513d601f19601f820116820180604052508101906105499190610e1b565b5060408051600380825260808201909252606091602082018380368337019050509050739fc7d181fd814e9036d60335245ae82408711331816000815181106105a257634e487b7160e01b600052603260045260246000fd5b60200260200101906001600160a01b031690816001600160a01b03168152505073c02aaa39b223fe8d0a0e5c4f27ead9083c756cc2816001815181106105f857634e487b7160e01b600052603260045260246000fd5b60200260200101906001600160a01b031690816001600160a01b03168152505073a0b86991c6218b36c1d19d4a2e9eb0ce3606eb488160028151811061064e57634e487b7160e01b600052603260045260246000fd5b6001600160a01b03928316602091820292909201015260008054604051634401edf760e11b815291921690638803dbee906106959088908890879033904290600401610e87565b600060405180830381600087803b1580156106af57600080fd5b505af11580156106c3573d6000803e3d6000fd5b505050506040513d6000823e601f3d908101601f191682016040526106eb9190810190610d5b565b9050838160008151811061070f57634e487b7160e01b600052603260045260246000fd5b602002602001015110156107e85760025481516001600160a01b039091169063a9059cbb903390849060009061075557634e487b7160e01b600052603260045260246000fd5b6020026020010151876107689190610ef7565b6040516001600160e01b031960e085901b1681526001600160a01b0390921660048301526024820152604401602060405180830381600087803b1580156107ae57600080fd5b505af11580156107c2573d6000803e3d6000fd5b505050506040513d601f19601f820116820180604052508101906107e69190610e1b565b505b8060028151811061042757634e487b7160e01b600052603260045260246000fd5b6002546040516323b872dd60e01b81526000916001600160a01b0316906323b872dd9061083e90339030908890600401610e63565b602060405180830381600087803b15801561085857600080fd5b505af115801561086c573d6000803e3d6000fd5b505050506040513d601f19601f820116820180604052508101906108909190610e1b565b5060025460005460405163095ea7b360e01b81526001600160a01b0391821660048201526024810186905291169063095ea7b390604401602060405180830381600087803b1580156108e157600080fd5b505af11580156108f5573d6000803e3d6000fd5b505050506040513d601f19601f820116820180604052508101906109199190610e1b565b5060408051600380825260808201909252606091602082018380368337019050509050739fc7d181fd814e9036d60335245ae824087113318160008151811061097257634e487b7160e01b600052603260045260246000fd5b60200260200101906001600160a01b031690816001600160a01b03168152505073c02aaa39b223fe8d0a0e5c4f27ead9083c756cc2816001815181106109c857634e487b7160e01b600052603260045260246000fd5b60200260200101906001600160a01b031690816001600160a01b03168152505073a0b86991c6218b36c1d19d4a2e9eb0ce3606eb4881600281518110610a1e57634e487b7160e01b600052603260045260246000fd5b6001600160a01b039283166020918202929092010152600080546040516338ed173960e01b8152919216906338ed173990610a659088908890879033904290600401610e87565b600060405180830381600087803b158015610a7f57600080fd5b505af1158015610a93573d6000803e3d6000fd5b505050506040513d6000823e601f3d908101601f19168201604052610abb9190810190610d5b565b90508060028151811061042757634e487b7160e01b600052603260045260246000fd5b6001546040516323b872dd60e01b81526000916001600160a01b0316906323b872dd90610b1390339030908890600401610e63565b602060405180830381600087803b158015610b2d57600080fd5b505af1158015610b41573d6000803e3d6000fd5b505050506040513d601f19601f82011682018060405250810190610b659190610e1b565b5060015460005460405163095ea7b360e01b81526001600160a01b0391821660048201526024810186905291169063095ea7b390604401602060405180830381600087803b158015610bb657600080fd5b505af1158015610bca573d6000803e3d6000fd5b505050506040513d601f19601f82011682018060405250810190610bee9190610e1b565b50604080516002808252606080830184529260208301908036833701905050905073c02aaa39b223fe8d0a0e5c4f27ead9083c756cc281600081518110610c4557634e487b7160e01b600052603260045260246000fd5b60200260200101906001600160a01b031690816001600160a01b031681525050739fc7d181fd814e9036d60335245ae8240871133181600181518110610c9b57634e487b7160e01b600052603260045260246000fd5b6001600160a01b039283166020918202929092010152600080546040516338ed173960e01b8152919216906338ed173990610ce29088908890879033904290600401610e87565b600060405180830381600087803b158015610cfc57600080fd5b505af1158015610d10573d6000803e3d6000fd5b505050506040513d6000823e601f3d908101601f19168201604052610d389190810190610d5b565b90508060018151811061042757634e487b7160e01b600052603260045260246000fd5b60006020808385031215610d6d578182fd5b825167ffffffffffffffff80821115610d84578384fd5b818501915085601f830112610d97578384fd5b815181811115610da957610da9610f1a565b8060051b604051601f19603f83011681018181108582111715610dce57610dce610f1a565b604052828152858101935084860182860187018a1015610dec578788fd5b8795505b83861015610e0e578051855260019590950194938601938601610df0565b5098975050505050505050565b600060208284031215610e2c578081fd5b81518015158114610e3b578182fd5b9392505050565b60008060408385031215610e54578081fd5b50508035926020909101359150565b6001600160a01b039384168152919092166020820152604081019190915260600190565b600060a082018783526020878185015260a0604085015281875180845260c0860191508289019350845b81811015610ed65784516001600160a01b031683529383019391830191600101610eb1565b50506001600160a01b03969096166060850152505050608001529392505050565b600082821015610f1557634e487b7160e01b81526011600452602481fd5b500390565b634e487b7160e01b600052604160045260246000fdfea2646970667358221220a3effa03d59ec9e0b22d27e18224f00e1907f2c2f41a8bdb56368d09cb6370d464736f6c63430008040033",
  "linkReferences": {},
  "deployedLinkReferences": {}
}