{
  "_format": "hh-sol-artifact-1",
  "contractName": "LinearTimeLockSMTX",
  "sourceName": "contracts/TimeLockWallet.sol",
  "abi": [
    {
      "inputs": [],
      "stateMutability": "nonpayable",
      "type": "constructor"
    },
    {
      "anonymous": false,
      "inputs": [
        {
          "indexed": false,
          "internalType": "address",
          "name": "recipient",
          "type": "address"
        },
        {
          "indexed": false,
          "internalType": "uint256",
          "name": "amount",
          "type": "uint256"
        }
      ],
      "name": "AllocationPerformed",
      "type": "event"
    },
    {
      "anonymous": false,
      "inputs": [
        {
          "indexed": false,
          "internalType": "address",
          "name": "from",
          "type": "address"
        },
        {
          "indexed": false,
          "internalType": "uint256",
          "name": "amount",
          "type": "uint256"
        }
      ],
      "name": "TokensDeposited",
      "type": "event"
    },
    {
      "anonymous": false,
      "inputs": [
        {
          "indexed": false,
          "internalType": "address",
          "name": "recipient",
          "type": "address"
        },
        {
          "indexed": false,
          "internalType": "uint256",
          "name": "amount",
          "type": "uint256"
        }
      ],
      "name": "TokensUnlocked",
      "type": "event"
    },
    {
      "inputs": [],
      "name": "allIncomingDepositsFinalised",
      "outputs": [
        {
          "internalType": "bool",
          "name": "",
          "type": "bool"
        }
      ],
      "stateMutability": "view",
      "type": "function"
    },
    {
      "inputs": [
        {
          "internalType": "address",
          "name": "",
          "type": "address"
        }
      ],
      "name": "alreadyWithdrawn",
      "outputs": [
        {
          "internalType": "uint256",
          "name": "",
          "type": "uint256"
        }
      ],
      "stateMutability": "view",
      "type": "function"
    },
    {
      "inputs": [
        {
          "internalType": "address",
          "name": "",
          "type": "address"
        }
      ],
      "name": "balances",
      "outputs": [
        {
          "internalType": "uint256",
          "name": "",
          "type": "uint256"
        }
      ],
      "stateMutability": "view",
      "type": "function"
    },
    {
      "inputs": [
        {
          "internalType": "address[]",
          "name": "recipients",
          "type": "address[]"
        },
        {
          "internalType": "uint256[]",
          "name": "amounts",
          "type": "uint256[]"
        }
      ],
      "name": "bulkDepositTokens",
      "outputs": [],
      "stateMutability": "nonpayable",
      "type": "function"
    },
    {
      "inputs": [],
      "name": "cliffEdge",
      "outputs": [
        {
          "internalType": "uint256",
          "name": "",
          "type": "uint256"
        }
      ],
      "stateMutability": "view",
      "type": "function"
    },
    {
      "inputs": [],
      "name": "contractBalance",
      "outputs": [
        {
          "internalType": "uint256",
          "name": "",
          "type": "uint256"
        }
      ],
      "stateMutability": "view",
      "type": "function"
    },
    {
      "inputs": [
        {
          "internalType": "address",
          "name": "recipient",
          "type": "address"
        },
        {
          "internalType": "uint256",
          "name": "amount",
          "type": "uint256"
        }
      ],
      "name": "depositTokens",
      "outputs": [],
      "stateMutability": "nonpayable",
      "type": "function"
    },
    {
      "inputs": [],
      "name": "erc20Contract",
      "outputs": [
        {
          "internalType": "contract IERC20",
          "name": "",
          "type": "address"
        }
      ],
      "stateMutability": "view",
      "type": "function"
    },
    {
      "inputs": [],
      "name": "finalizeAllIncomingDeposits",
      "outputs": [],
      "stateMutability": "nonpayable",
      "type": "function"
    },
    {
      "inputs": [
        {
          "internalType": "address",
          "name": "to",
          "type": "address"
        }
      ],
      "name": "getTotalAvailableAmount",
      "outputs": [
        {
          "internalType": "uint256",
          "name": "",
          "type": "uint256"
        }
      ],
      "stateMutability": "view",
      "type": "function"
    },
    {
      "inputs": [],
      "name": "getTotalSaleAvailable",
      "outputs": [
        {
          "internalType": "uint256",
          "name": "",
          "type": "uint256"
        }
      ],
      "stateMutability": "view",
      "type": "function"
    },
    {
      "inputs": [
        {
          "internalType": "address",
          "name": "to",
          "type": "address"
        }
      ],
      "name": "getWithdrawalAmount",
      "outputs": [
        {
          "internalType": "uint256",
          "name": "",
          "type": "uint256"
        }
      ],
      "stateMutability": "view",
      "type": "function"
    },
    {
      "inputs": [],
      "name": "initialTimestamp",
      "outputs": [
        {
          "internalType": "uint256",
          "name": "",
          "type": "uint256"
        }
      ],
      "stateMutability": "view",
      "type": "function"
    },
    {
      "inputs": [],
      "name": "owner",
      "outputs": [
        {
          "internalType": "address payable",
          "name": "",
          "type": "address"
        }
      ],
      "stateMutability": "view",
      "type": "function"
    },
    {
      "inputs": [
        {
          "internalType": "address",
          "name": "recipient",
          "type": "address"
        },
        {
          "internalType": "uint256",
          "name": "amount",
          "type": "uint256"
        },
        {
          "internalType": "uint256",
          "name": "usdtAmount",
          "type": "uint256"
        }
      ],
      "name": "purchaseToken",
      "outputs": [],
      "stateMutability": "payable",
      "type": "function"
    },
    {
      "inputs": [],
      "name": "releaseEdge",
      "outputs": [
        {
          "internalType": "uint256",
          "name": "",
          "type": "uint256"
        }
      ],
      "stateMutability": "view",
      "type": "function"
    },
    {
      "inputs": [
        {
          "internalType": "int256",
          "name": "_cliffTimePeriod",
          "type": "int256"
        },
        {
          "internalType": "int256",
          "name": "_releaseTimePeriod",
          "type": "int256"
        }
      ],
      "name": "setTimestamp",
      "outputs": [],
      "stateMutability": "nonpayable",
      "type": "function"
    },
    {
      "inputs": [],
      "name": "timestampSet",
      "outputs": [
        {
          "internalType": "bool",
          "name": "",
          "type": "bool"
        }
      ],
      "stateMutability": "view",
      "type": "function"
    },
    {
      "inputs": [],
      "name": "totalPurchased",
      "outputs": [
        {
          "internalType": "uint256",
          "name": "",
          "type": "uint256"
        }
      ],
      "stateMutability": "view",
      "type": "function"
    },
    {
      "inputs": [
        {
          "internalType": "contract IERC20",
          "name": "token",
          "type": "address"
        },
        {
          "internalType": "uint256",
          "name": "amount",
          "type": "uint256"
        }
      ],
      "name": "transferAccidentallyLockedTokens",
      "outputs": [],
      "stateMutability": "nonpayable",
      "type": "function"
    },
    {
      "inputs": [
        {
          "internalType": "contract IERC20",
          "name": "token",
          "type": "address"
        },
        {
          "internalType": "address",
          "name": "to",
          "type": "address"
        },
        {
          "internalType": "uint256",
          "name": "amount",
          "type": "uint256"
        }
      ],
      "name": "transferTimeLockedTokensAfterTimePeriod",
      "outputs": [],
      "stateMutability": "nonpayable",
      "type": "function"
    },
    {
      "inputs": [],
      "name": "usdc",
      "outputs": [
        {
          "internalType": "contract IERC20",
          "name": "",
          "type": "address"
        }
      ],
      "stateMutability": "view",
      "type": "function"
    },
    {
      "inputs": [],
      "name": "walletOwner",
      "outputs": [
        {
          "internalType": "address",
          "name": "",
          "type": "address"
        }
      ],
      "stateMutability": "view",
      "type": "function"
    },
    {
      "inputs": [
        {
          "internalType": "uint256",
          "name": "amount",
          "type": "uint256"
        }
      ],
      "name": "withdrawEth",
      "outputs": [],
      "stateMutability": "nonpayable",
      "type": "function"
    },
    {
      "stateMutability": "payable",
      "type": "receive"
    }
  ],
  "bytecode": "0x608060405234801561001057600080fd5b5060008054610100600160b01b03191661010033908102919091179091556002805460ff19169055733c1e3b0ad165a4bb19aee73eaddc5919996d4e8b14156100ab5760405162461bcd60e51b8152602060048201526024808201527f6f776e657220616464726573732063616e206e6f742062652030784332432e2e6044820152632e65346160e01b606482015260840160405180910390fd5b600a80546001600160a01b031990811673102203517ce35ac5cab9a2cda80df03f26c7419b1790915560058054821673a6f49c590a8e1afbebf5c245e1768435c7718bf61790556000805460ff19168155600b805490921673dac17f958d2ee523a2206206994597c13d831ec717909155600955611d308061012e6000396000f3fe60806040526004361061014f5760003560e01c806369343f27116100b6578063a8f6c9131161006f578063a8f6c9131461044c578063c311d0491461046c578063d14842981461048c578063d6d14171146104ac578063e632c2f3146104c2578063ff480480146104d857600080fd5b806369343f271461037f5780638b7afe2e146103b55780638da5cb5b146103cb5780639aa2e39e146103f05780639b69279a1461041d578063a2985d881461043757600080fd5b80633e413bee116101085780633e413bee146102ae5780633e994942146102ce5780634acf914d146102ee57806355ce38661461030e57806356582bf91461033f57806366168bd71461035f57600080fd5b806301966256146101d657806302cc6e3f146101eb578063084c28d614610200578063199b6bba146102295780631ae879e81461024957806327e235e31461028157600080fd5b366101d157600054600160a81b900460ff16156101875760405162461bcd60e51b815260040161017e90611bb3565b60405180910390fd5b60085461019490346104ee565b600855604080513381523460208201527f59062170a285eb80e8c6b8ced60428442a51910635005233fc4ce084a475845e910160405180910390a1005b600080fd5b6101e96101e43660046118bf565b610501565b005b3480156101f757600080fd5b506101e96106d2565b34801561020c57600080fd5b5061021660035481565b6040519081526020015b60405180910390f35b34801561023557600080fd5b506101e961024436600461197c565b610767565b34801561025557600080fd5b50600554610269906001600160a01b031681565b6040516001600160a01b039091168152602001610220565b34801561028d57600080fd5b5061021661029c366004611878565b60076020526000908152604090205481565b3480156102ba57600080fd5b50600b54610269906001600160a01b031681565b3480156102da57600080fd5b506101e96102e93660046119bc565b610cc0565b3480156102fa57600080fd5b506101e96103093660046119ce565b610da2565b34801561031a57600080fd5b5060005461032f90600160a81b900460ff1681565b6040519015158152602001610220565b34801561034b57600080fd5b5061021661035a366004611878565b610f16565b34801561036b57600080fd5b506101e961037a366004611894565b610f94565b34801561038b57600080fd5b5061021661039a366004611878565b6001600160a01b031660009081526007602052604090205490565b3480156103c157600080fd5b5061021660085481565b3480156103d757600080fd5b506000546102699061010090046001600160a01b031681565b3480156103fc57600080fd5b5061021661040b366004611878565b60066020526000908152604090205481565b34801561042957600080fd5b5060025461032f9060ff1681565b34801561044357600080fd5b50600954610216565b34801561045857600080fd5b50600a54610269906001600160a01b031681565b34801561047857600080fd5b506101e96104873660046119ef565b6110e5565b34801561049857600080fd5b506101e96104a73660046118f3565b6111d8565b3480156104b857600080fd5b5061021660015481565b3480156104ce57600080fd5b5061021660095481565b3480156104e457600080fd5b5061021660045481565b60006104fa8284611bf9565b9392505050565b60025460ff1615156001146105285760405162461bcd60e51b815260040161017e90611aef565b600054600160a81b900460ff16156105525760405162461bcd60e51b815260040161017e90611bb3565b60035460045461056191611560565b8210156105805760405162461bcd60e51b815260040161017e90611a99565b6001600160a01b0383166105a65760405162461bcd60e51b815260040161017e90611a56565b600b546005546040516323b872dd60e01b81523360048201526001600160a01b039182166024820152604481018490529116906323b872dd90606401602060405180830381600087803b1580156105fc57600080fd5b505af1158015610610573d6000803e3d6000fd5b505050506040513d601f19601f82011682018060405250810190610634919061195c565b506001600160a01b03831660009081526007602052604090205461065890836104ee565b6001600160a01b03841660009081526007602052604081209190915560098054849290610686908490611bf9565b9091555050604080516001600160a01b0385168152602081018490527fcad22dd3bcdad18c651a372fe3e7e893af3d354482d9ac6c310c8342eb7af574910160405180910390a1505050565b60005461010090046001600160a01b031633146107015760405162461bcd60e51b815260040161017e90611b67565b60025460ff1615156001146107285760405162461bcd60e51b815260040161017e90611aef565b600054600160a81b900460ff16156107525760405162461bcd60e51b815260040161017e90611bb3565b6000805460ff60a81b1916600160a81b179055565b60025460ff16151560011461078e5760405162461bcd60e51b815260040161017e90611aef565b60005460ff16156107b15760405162461bcd60e51b815260040161017e90611b3f565b6000805460ff191660011790556001600160a01b0382166107e45760405162461bcd60e51b815260040161017e90611a56565b6001600160a01b0382166000908152600760205260409020548111156108625760405162461bcd60e51b815260206004820152602d60248201527f496e73756666696369656e7420746f6b656e2062616c616e63652c207472792060448201526c1b195cdcd95c88185b5bdd5b9d609a1b606482015260840161017e565b336001600160a01b038316146108d25760405162461bcd60e51b815260206004820152602f60248201527f4f6e6c792074686520746f6b656e20726563697069656e742063616e2070657260448201526e666f726d2074686520756e6c6f636b60881b606482015260840161017e565b600a546001600160a01b038481169116146109895760405162461bcd60e51b8152602060048201526064602482018190527f546f6b656e20706172616d65746572206d757374206265207468652073616d6560448301527f2061732074686520657263323020636f6e747261637420616464726573732077908201527f68696368207761732070617373656420696e746f2074686520636f6e7374727560848201526331ba37b960e11b60a482015260c40161017e565b6003544211610a005760405162461bcd60e51b815260206004820152603f60248201527f546f6b656e7320617265206f6e6c7920617661696c61626c652061667465722060448201527f636f72726563742074696d6520706572696f642068617320656c617073656400606482015260840161017e565b600454421115610acd576001600160a01b038216600090815260066020526040902054610a2d90826104ee565b6001600160a01b038316600090815260066020908152604080832093909355600790522054610a5c9082611560565b6001600160a01b03808416600090815260076020526040902091909155610a86908416838361156c565b604080516001600160a01b0384168152602081018390527fe7b379c6c1fa169e9079c25e9143b127637eef8ec8c9d5c06ddb4ab3e1195888910160405180910390a1610cb1565b6001600160a01b0382166000908152600760209081526040808320546006909252822054610afa916104ee565b90506000610b3d610b1860035460045461156090919063ffffffff16565b610b37610b306003544261156090919063ffffffff16565b85906115c3565b906115cf565b6001600160a01b03851660009081526006602052604081205491925090610b649083611c50565b905080841115610bef5760405162461bcd60e51b815260206004820152604a60248201527f546f6b656e20616d6f756e74206e6f7420617661696c61626c6520666f72207560448201527f6e6c6f636b207269676874206e6f772c20706c6561736520747279206c65737360648201526932b91030b6b7bab73a1760b11b608482015260a40161017e565b6001600160a01b038516600090815260066020526040902054610c1290856104ee565b6001600160a01b038616600090815260066020908152604080832093909355600790522054610c419085611560565b6001600160a01b03808716600090815260076020526040902091909155610c6b908716868661156c565b604080516001600160a01b0387168152602081018690527fe7b379c6c1fa169e9079c25e9143b127637eef8ec8c9d5c06ddb4ab3e1195888910160405180910390a15050505b50506000805460ff1916905550565b60005461010090046001600160a01b03163314610cef5760405162461bcd60e51b815260040161017e90611b67565b60005460ff1615610d125760405162461bcd60e51b815260040161017e90611b3f565b6000805460ff191660011790556001600160a01b038216610d755760405162461bcd60e51b815260206004820152601d60248201527f546f6b656e20616464726573732063616e206e6f74206265207a65726f000000604482015260640161017e565b600054610d94906001600160a01b03848116916101009004168361156c565b50506000805460ff19169055565b60005461010090046001600160a01b03163314610dd15760405162461bcd60e51b815260040161017e90611b67565b60025460ff1615610e305760405162461bcd60e51b8152602060048201526024808201527f5468652074696d65207374616d702068617320616c7265616479206265656e2060448201526339b2ba1760e11b606482015260840161017e565b8115801590610e3e57508015155b610e8a5760405162461bcd60e51b815260206004820152601c60248201527f54696d6520706572696f64732063616e206e6f74206265207a65726f00000000604482015260640161017e565b6002805460ff191660019081179091554290556000821315610ebb57600154610eb390836104ee565b600355610ed4565b610ed0610ec783611cb2565b60015490611560565b6003555b6000811315610ef257600154610eea90826104ee565b600455610f02565b610efe610ec782611cb2565b6004555b60045460035410610f1257600080fd5b5050565b6001600160a01b03811660009081526007602090815260408083205460069092528220548291610f4691906104ee565b90506000610f64610b1860035460045461156090919063ffffffff16565b6001600160a01b03851660009081526006602052604081205491925090610f8b9083611c50565b95945050505050565b60005461010090046001600160a01b03163314610fc35760405162461bcd60e51b815260040161017e90611b67565b60025460ff161515600114610fea5760405162461bcd60e51b815260040161017e90611aef565b600054600160a81b900460ff16156110145760405162461bcd60e51b815260040161017e90611bb3565b60035460045461102391611560565b8110156110425760405162461bcd60e51b815260040161017e90611a99565b6001600160a01b0382166110685760405162461bcd60e51b815260040161017e90611a56565b6001600160a01b03821660009081526007602052604090205461108b90826104ee565b6001600160a01b0383166000818152600760209081526040918290209390935580519182529181018390527fcad22dd3bcdad18c651a372fe3e7e893af3d354482d9ac6c310c8342eb7af574910160405180910390a15050565b60005461010090046001600160a01b031633146111145760405162461bcd60e51b815260040161017e90611b67565b60005460ff16156111375760405162461bcd60e51b815260040161017e90611b3f565b6000805460ff1916600117905560085481111561118b5760405162461bcd60e51b8152602060048201526012602482015271496e73756666696369656e742066756e647360701b604482015260640161017e565b6008546111989082611560565b600855600080546040516101009091046001600160a01b0316916108fc841502918491818181858888f19350505050158015610d94573d6000803e3d6000fd5b60005461010090046001600160a01b031633146112075760405162461bcd60e51b815260040161017e90611b67565b60025460ff16151560011461122e5760405162461bcd60e51b815260040161017e90611aef565b600054600160a81b900460ff16156112585760405162461bcd60e51b815260040161017e90611bb3565b8281146112d75760405162461bcd60e51b815260206004820152604160248201527f54686520726563697069656e747320616e6420616d6f756e747320617272617960448201527f73206d757374206265207468652073616d652073697a6520696e206c656e67746064820152600d60fb1b608482015260a40161017e565b60005b8381101561155957600085858381811061130457634e487b7160e01b600052603260045260246000fd5b90506020020160208101906113199190611878565b6001600160a01b031614156113405760405162461bcd60e51b815260040161017e90611a56565b60035460045461134f91611560565b83838381811061136f57634e487b7160e01b600052603260045260246000fd5b9050602002013510156113945760405162461bcd60e51b815260040161017e90611a99565b6114178383838181106113b757634e487b7160e01b600052603260045260246000fd5b90506020020135600760008888868181106113e257634e487b7160e01b600052603260045260246000fd5b90506020020160208101906113f79190611878565b6001600160a01b03168152602081019190915260400160002054906104ee565b6007600087878581811061143b57634e487b7160e01b600052603260045260246000fd5b90506020020160208101906114509190611878565b6001600160a01b0316815260208101919091526040016000205582828281811061148a57634e487b7160e01b600052603260045260246000fd5b90506020020135600960008282546114a29190611bf9565b909155507fcad22dd3bcdad18c651a372fe3e7e893af3d354482d9ac6c310c8342eb7af57490508585838181106114e957634e487b7160e01b600052603260045260246000fd5b90506020020160208101906114fe9190611878565b84848481811061151e57634e487b7160e01b600052603260045260246000fd5b604080516001600160a01b0390951685526020918202939093013590840152500160405180910390a18061155181611c97565b9150506112da565b5050505050565b60006104fa8284611c50565b604080516001600160a01b038416602482015260448082018490528251808303909101815260649091019091526020810180516001600160e01b031663a9059cbb60e01b1790526115be9084906115db565b505050565b60006104fa8284611c31565b60006104fa8284611c11565b6000611630826040518060400160405280602081526020017f5361666545524332303a206c6f772d6c6576656c2063616c6c206661696c6564815250856001600160a01b03166116ad9092919063ffffffff16565b8051909150156115be578080602001905181019061164e919061195c565b6115be5760405162461bcd60e51b815260206004820152602a60248201527f5361666545524332303a204552433230206f7065726174696f6e20646964206e6044820152691bdd081cdd58d8d9595960b21b606482015260840161017e565b60606116bc84846000856116c4565b949350505050565b6060824710156117255760405162461bcd60e51b815260206004820152602660248201527f416464726573733a20696e73756666696369656e742062616c616e636520666f6044820152651c8818d85b1b60d21b606482015260840161017e565b6001600160a01b0385163b61177c5760405162461bcd60e51b815260206004820152601d60248201527f416464726573733a2063616c6c20746f206e6f6e2d636f6e7472616374000000604482015260640161017e565b600080866001600160a01b031685876040516117989190611a07565b60006040518083038185875af1925050503d80600081146117d5576040519150601f19603f3d011682016040523d82523d6000602084013e6117da565b606091505b50915091506117ea8282866117f5565b979650505050505050565b606083156118045750816104fa565b8251156118145782518084602001fd5b8160405162461bcd60e51b815260040161017e9190611a23565b60008083601f84011261183f578182fd5b50813567ffffffffffffffff811115611856578182fd5b6020830191508360208260051b850101111561187157600080fd5b9250929050565b600060208284031215611889578081fd5b81356104fa81611ce2565b600080604083850312156118a6578081fd5b82356118b181611ce2565b946020939093013593505050565b6000806000606084860312156118d3578081fd5b83356118de81611ce2565b95602085013595506040909401359392505050565b60008060008060408587031215611908578081fd5b843567ffffffffffffffff8082111561191f578283fd5b61192b8883890161182e565b90965094506020870135915080821115611943578283fd5b506119508782880161182e565b95989497509550505050565b60006020828403121561196d578081fd5b815180151581146104fa578182fd5b600080600060608486031215611990578283fd5b833561199b81611ce2565b925060208401356119ab81611ce2565b929592945050506040919091013590565b600080604083850312156118a6578182fd5b600080604083850312156119e0578182fd5b50508035926020909101359150565b600060208284031215611a00578081fd5b5035919050565b60008251611a19818460208701611c67565b9190910192915050565b6020815260008251806020840152611a42816040850160208701611c67565b601f01601f19169190910160400192915050565b60208082526023908201527f45524332303a207472616e7366657220746f20746865207a65726f206164647260408201526265737360e81b606082015260800190565b60208082526036908201527f416d6f756e74206465706f7369746564206d7573742062652067726561746572604082015275081d1a185b881b995d14995b19585cd954195c9a5bd960521b606082015260800190565b60208082526030908201527f506c6561736520736574207468652074696d65207374616d702066697273742c60408201526f103a3432b7103a393c9030b3b0b4b71760811b606082015260800190565b6020808252600e908201526d4e6f2072652d656e7472616e637960901b604082015260600190565b6020808252602c908201527f4d6573736167652073656e646572206d7573742062652074686520636f6e747260408201526b30b1ba13b99037bbb732b91760a11b606082015260800190565b60208082526026908201527f496e636f6d696e67206465706f736974732068617665206265656e2066696e616040820152653634b9b2b21760d11b606082015260800190565b60008219821115611c0c57611c0c611ccc565b500190565b600082611c2c57634e487b7160e01b81526012600452602481fd5b500490565b6000816000190483118215151615611c4b57611c4b611ccc565b500290565b600082821015611c6257611c62611ccc565b500390565b60005b83811015611c82578181015183820152602001611c6a565b83811115611c91576000848401525b50505050565b6000600019821415611cab57611cab611ccc565b5060010190565b6000600160ff1b821415611cc857611cc8611ccc565b0390565b634e487b7160e01b600052601160045260246000fd5b6001600160a01b0381168114611cf757600080fd5b5056fea2646970667358221220883df0e952e62b42a1c8e624e8caab3fcf668556f8389ab2440c40c5d568ce2464736f6c63430008040033",
  "linkReferences": {},
  "deployedLinkReferences": {}
}