{
  "_format": "hh-sol-artifact-1",
  "contractName": "FSTToken",
  "sourceName": "contracts/FST-Token.sol",
  "abi": [
    {
      "anonymous": false,
      "inputs": [
        {
          "indexed": true,
          "internalType": "address",
          "name": "owner",
          "type": "address"
        },
        {
          "indexed": true,
          "internalType": "address",
          "name": "spender",
          "type": "address"
        },
        {
          "indexed": false,
          "internalType": "uint256",
          "name": "value",
          "type": "uint256"
        }
      ],
      "name": "Approval",
      "type": "event"
    },
    {
      "anonymous": false,
      "inputs": [
        {
          "indexed": false,
          "internalType": "uint8",
          "name": "version",
          "type": "uint8"
        }
      ],
      "name": "Initialized",
      "type": "event"
    },
    {
      "anonymous": false,
      "inputs": [
        {
          "indexed": true,
          "internalType": "address",
          "name": "previousOwner",
          "type": "address"
        },
        {
          "indexed": true,
          "internalType": "address",
          "name": "newOwner",
          "type": "address"
        }
      ],
      "name": "OwnershipTransferred",
      "type": "event"
    },
    {
      "anonymous": false,
      "inputs": [
        {
          "indexed": false,
          "internalType": "address",
          "name": "account",
          "type": "address"
        }
      ],
      "name": "Paused",
      "type": "event"
    },
    {
      "anonymous": false,
      "inputs": [
        {
          "indexed": true,
          "internalType": "address",
          "name": "from",
          "type": "address"
        },
        {
          "indexed": true,
          "internalType": "address",
          "name": "to",
          "type": "address"
        },
        {
          "indexed": false,
          "internalType": "uint256",
          "name": "value",
          "type": "uint256"
        }
      ],
      "name": "Transfer",
      "type": "event"
    },
    {
      "anonymous": false,
      "inputs": [
        {
          "indexed": false,
          "internalType": "address",
          "name": "account",
          "type": "address"
        }
      ],
      "name": "Unpaused",
      "type": "event"
    },
    {
      "inputs": [
        {
          "internalType": "address",
          "name": "_blacklistUser",
          "type": "address"
        }
      ],
      "name": "addblackListUser",
      "outputs": [],
      "stateMutability": "nonpayable",
      "type": "function"
    },
    {
      "inputs": [
        {
          "internalType": "address",
          "name": "owner",
          "type": "address"
        },
        {
          "internalType": "address",
          "name": "spender",
          "type": "address"
        }
      ],
      "name": "allowance",
      "outputs": [
        {
          "internalType": "uint256",
          "name": "",
          "type": "uint256"
        }
      ],
      "stateMutability": "view",
      "type": "function"
    },
    {
      "inputs": [
        {
          "internalType": "address",
          "name": "spender",
          "type": "address"
        },
        {
          "internalType": "uint256",
          "name": "amount",
          "type": "uint256"
        }
      ],
      "name": "approve",
      "outputs": [
        {
          "internalType": "bool",
          "name": "",
          "type": "bool"
        }
      ],
      "stateMutability": "nonpayable",
      "type": "function"
    },
    {
      "inputs": [
        {
          "internalType": "address",
          "name": "account",
          "type": "address"
        }
      ],
      "name": "balanceOf",
      "outputs": [
        {
          "internalType": "uint256",
          "name": "",
          "type": "uint256"
        }
      ],
      "stateMutability": "view",
      "type": "function"
    },
    {
      "inputs": [
        {
          "internalType": "address",
          "name": "",
          "type": "address"
        }
      ],
      "name": "blacklisted",
      "outputs": [
        {
          "internalType": "bool",
          "name": "",
          "type": "bool"
        }
      ],
      "stateMutability": "view",
      "type": "function"
    },
    {
      "inputs": [],
      "name": "decimals",
      "outputs": [
        {
          "internalType": "uint8",
          "name": "",
          "type": "uint8"
        }
      ],
      "stateMutability": "view",
      "type": "function"
    },
    {
      "inputs": [
        {
          "internalType": "address",
          "name": "spender",
          "type": "address"
        },
        {
          "internalType": "uint256",
          "name": "subtractedValue",
          "type": "uint256"
        }
      ],
      "name": "decreaseAllowance",
      "outputs": [
        {
          "internalType": "bool",
          "name": "",
          "type": "bool"
        }
      ],
      "stateMutability": "nonpayable",
      "type": "function"
    },
    {
      "inputs": [
        {
          "internalType": "address",
          "name": "spender",
          "type": "address"
        },
        {
          "internalType": "uint256",
          "name": "addedValue",
          "type": "uint256"
        }
      ],
      "name": "increaseAllowance",
      "outputs": [
        {
          "internalType": "bool",
          "name": "",
          "type": "bool"
        }
      ],
      "stateMutability": "nonpayable",
      "type": "function"
    },
    {
      "inputs": [],
      "name": "initialSupply",
      "outputs": [
        {
          "internalType": "uint256",
          "name": "",
          "type": "uint256"
        }
      ],
      "stateMutability": "view",
      "type": "function"
    },
    {
      "inputs": [],
      "name": "initialize",
      "outputs": [],
      "stateMutability": "nonpayable",
      "type": "function"
    },
    {
      "inputs": [
        {
          "internalType": "address",
          "name": "to",
          "type": "address"
        },
        {
          "internalType": "uint256",
          "name": "amount",
          "type": "uint256"
        }
      ],
      "name": "mint",
      "outputs": [],
      "stateMutability": "nonpayable",
      "type": "function"
    },
    {
      "inputs": [
        {
          "internalType": "address",
          "name": "to",
          "type": "address"
        },
        {
          "internalType": "uint256",
          "name": "amount",
          "type": "uint256"
        }
      ],
      "name": "mintAsInvestor",
      "outputs": [],
      "stateMutability": "nonpayable",
      "type": "function"
    },
    {
      "inputs": [],
      "name": "name",
      "outputs": [
        {
          "internalType": "string",
          "name": "",
          "type": "string"
        }
      ],
      "stateMutability": "view",
      "type": "function"
    },
    {
      "inputs": [],
      "name": "owner",
      "outputs": [
        {
          "internalType": "address",
          "name": "",
          "type": "address"
        }
      ],
      "stateMutability": "view",
      "type": "function"
    },
    {
      "inputs": [],
      "name": "pause",
      "outputs": [],
      "stateMutability": "nonpayable",
      "type": "function"
    },
    {
      "inputs": [],
      "name": "paused",
      "outputs": [
        {
          "internalType": "bool",
          "name": "",
          "type": "bool"
        }
      ],
      "stateMutability": "view",
      "type": "function"
    },
    {
      "inputs": [
        {
          "internalType": "address",
          "name": "_blacklistUser",
          "type": "address"
        }
      ],
      "name": "removeblackListUser",
      "outputs": [],
      "stateMutability": "nonpayable",
      "type": "function"
    },
    {
      "inputs": [],
      "name": "renounceOwnership",
      "outputs": [],
      "stateMutability": "nonpayable",
      "type": "function"
    },
    {
      "inputs": [],
      "name": "symbol",
      "outputs": [
        {
          "internalType": "string",
          "name": "",
          "type": "string"
        }
      ],
      "stateMutability": "view",
      "type": "function"
    },
    {
      "inputs": [],
      "name": "totalSupply",
      "outputs": [
        {
          "internalType": "uint256",
          "name": "",
          "type": "uint256"
        }
      ],
      "stateMutability": "view",
      "type": "function"
    },
    {
      "inputs": [
        {
          "internalType": "address",
          "name": "_to",
          "type": "address"
        },
        {
          "internalType": "uint256",
          "name": "_value",
          "type": "uint256"
        }
      ],
      "name": "transfer",
      "outputs": [
        {
          "internalType": "bool",
          "name": "",
          "type": "bool"
        }
      ],
      "stateMutability": "nonpayable",
      "type": "function"
    },
    {
      "inputs": [
        {
          "internalType": "address",
          "name": "from",
          "type": "address"
        },
        {
          "internalType": "address",
          "name": "to",
          "type": "address"
        },
        {
          "internalType": "uint256",
          "name": "amount",
          "type": "uint256"
        }
      ],
      "name": "transferFrom",
      "outputs": [
        {
          "internalType": "bool",
          "name": "",
          "type": "bool"
        }
      ],
      "stateMutability": "nonpayable",
      "type": "function"
    },
    {
      "inputs": [
        {
          "internalType": "address",
          "name": "newOwner",
          "type": "address"
        }
      ],
      "name": "transferOwnership",
      "outputs": [],
      "stateMutability": "nonpayable",
      "type": "function"
    },
    {
      "inputs": [],
      "name": "unpause",
      "outputs": [],
      "stateMutability": "nonpayable",
      "type": "function"
    }
  ],
  "bytecode": "0x608060405234801561001057600080fd5b506113c3806100206000396000f3fe608060405234801561001057600080fd5b50600436106101585760003560e01c8063810a2c7e116100c3578063a457c2d71161007c578063a457c2d71461029f578063a9059cbb146102b2578063d7fb5f2c146102c5578063dbac26e9146102d8578063dd62ed3e146102fb578063f2fde38b1461030e57600080fd5b8063810a2c7e146102465780638129fc1c146102595780638456cb59146102615780638da5cb5b1461026957806395d89b4114610284578063a39e38ed1461028c57600080fd5b8063395093511161011557806339509351146101da5780633f4ba83a146101ed57806340c10f19146101f75780635c975abb1461020a57806370a0823114610215578063715018a61461023e57600080fd5b806306fdde031461015d578063095ea7b31461017b57806318160ddd1461019e57806323b872dd146101b0578063313ce567146101c3578063378dc3dc146101d2575b600080fd5b610165610321565b604051610172919061117c565b60405180910390f35b61018e610189366004611153565b6103b3565b6040519015158152602001610172565b60cc545b604051908152602001610172565b61018e6101be366004611118565b6103cd565b60405160128152602001610172565b60cd546101a2565b61018e6101e8366004611153565b61042e565b6101f5610450565b005b6101f5610205366004611153565b610462565b60975460ff1661018e565b6101a26102233660046110c5565b6001600160a01b031660009081526033602052604090205490565b6101f56104b3565b6101f56102543660046110c5565b6104c5565b6101f56104f9565b6101f561067d565b6065546040516001600160a01b039091168152602001610172565b61016561068d565b6101f561029a366004611153565b61069c565b61018e6102ad366004611153565b61071d565b61018e6102c0366004611153565b610798565b6101f56102d33660046110c5565b6107e3565b61018e6102e63660046110c5565b60ce6020526000908152604090205460ff1681565b6101a26103093660046110e6565b610814565b6101f561031c3660046110c5565b61083f565b6060603680546103309061133c565b80601f016020809104026020016040519081016040528092919081815260200182805461035c9061133c565b80156103a95780601f1061037e576101008083540402835291602001916103a9565b820191906000526020600020905b81548152906001019060200180831161038c57829003601f168201915b5050505050905090565b6000336103c18185856108b5565b60019150505b92915050565b60006103d76109d9565b336001600160a01b0384166103eb57600080fd5b33600090815260ce602052604090205460ff1615156001141561040d57600080fd5b610418858285610a1f565b610423858585610a99565b506001949350505050565b6000336103c18185856104418383610814565b61044b919061121a565b6108b5565b610458610c67565b610460610cc1565b565b61046a6109d9565b610472610c67565b60cc548160cd54610483919061121a565b111561048e57600080fd5b6104988282610d13565b8060cd60008282546104aa919061121a565b90915550505050565b6104bb610c67565b6104606000610df3565b6104cd6109d9565b6104d5610c67565b6001600160a01b0316600090815260ce60205260409020805460ff19166001179055565b600054610100900460ff16158080156105195750600054600160ff909116105b806105335750303b158015610533575060005460ff166001145b61059b5760405162461bcd60e51b815260206004820152602e60248201527f496e697469616c697a61626c653a20636f6e747261637420697320616c72656160448201526d191e481a5b9a5d1a585b1a5e995960921b60648201526084015b60405180910390fd5b6000805460ff1916600117905580156105be576000805461ff0019166101001790555b61060860405180604001604052806008815260200167121bdb595d995cdd60c21b81525060405180604001604052806008815260200167121bdb595d995cdd60c21b815250610e45565b610610610e76565b610618610ea5565b6106246012600a611275565b61063190622625a061131d565b60cc55801561067a576000805461ff0019169055604051600181527f7f26b83ff96e1f2b6a682f133852f6798a09c465da95921460cefb38474024989060200160405180910390a15b50565b610685610c67565b610460610ed4565b6060603780546103309061133c565b6106a46109d9565b6106ac610c67565b6106b86012600a611275565b6106c4906103e861131d565b8110156104725760405162461bcd60e51b815260206004820152602160248201527f6d696e696d756d207075726368617365206973206120312c30303020546f6b656044820152603760f91b6064820152608401610592565b6000338161072b8286610814565b90508381101561078b5760405162461bcd60e51b815260206004820152602560248201527f45524332303a2064656372656173656420616c6c6f77616e63652062656c6f77604482015264207a65726f60d81b6064820152608401610592565b61042382868684036108b5565b60006107a26109d9565b6001600160a01b0383166107b557600080fd5b33600090815260ce602052604090205460ff161515600114156107d757600080fd5b336103c1818585610a99565b6107eb6109d9565b6107f3610c67565b6001600160a01b0316600090815260ce60205260409020805460ff19169055565b6001600160a01b03918216600090815260346020908152604080832093909416825291909152205490565b610847610c67565b6001600160a01b0381166108ac5760405162461bcd60e51b815260206004820152602660248201527f4f776e61626c653a206e6577206f776e657220697320746865207a65726f206160448201526564647265737360d01b6064820152608401610592565b61067a81610df3565b6001600160a01b0383166109175760405162461bcd60e51b8152602060048201526024808201527f45524332303a20617070726f76652066726f6d20746865207a65726f206164646044820152637265737360e01b6064820152608401610592565b6001600160a01b0382166109785760405162461bcd60e51b815260206004820152602260248201527f45524332303a20617070726f766520746f20746865207a65726f206164647265604482015261737360f01b6064820152608401610592565b6001600160a01b0383811660008181526034602090815260408083209487168084529482529182902085905590518481527f8c5be1e5ebec7d5bd14f71427d1e84f3dd0314c0f7b2291e5b200ac8c7c3b925910160405180910390a3505050565b60975460ff16156104605760405162461bcd60e51b815260206004820152601060248201526f14185d5cd8589b194e881c185d5cd95960821b6044820152606401610592565b6000610a2b8484610814565b90506000198114610a935781811015610a865760405162461bcd60e51b815260206004820152601d60248201527f45524332303a20696e73756666696369656e7420616c6c6f77616e63650000006044820152606401610592565b610a9384848484036108b5565b50505050565b6001600160a01b038316610afd5760405162461bcd60e51b815260206004820152602560248201527f45524332303a207472616e736665722066726f6d20746865207a65726f206164604482015264647265737360d81b6064820152608401610592565b6001600160a01b038216610b5f5760405162461bcd60e51b815260206004820152602360248201527f45524332303a207472616e7366657220746f20746865207a65726f206164647260448201526265737360e81b6064820152608401610592565b6001600160a01b03831660009081526033602052604090205481811015610bd75760405162461bcd60e51b815260206004820152602660248201527f45524332303a207472616e7366657220616d6f756e7420657863656564732062604482015265616c616e636560d01b6064820152608401610592565b6001600160a01b03808516600090815260336020526040808220858503905591851681529081208054849290610c0e90849061121a565b92505081905550826001600160a01b0316846001600160a01b03167fddf252ad1be2c89b69c2b068fc378daa952ba7f163c4a11628f55a4df523b3ef84604051610c5a91815260200190565b60405180910390a3610a93565b6065546001600160a01b031633146104605760405162461bcd60e51b815260206004820181905260248201527f4f776e61626c653a2063616c6c6572206973206e6f7420746865206f776e65726044820152606401610592565b610cc9610f16565b6097805460ff191690557f5db9ee0a495bf2e6ff9c91a7834c1ba4fdd244a5e8aa4e537bd38aeae4b073aa335b6040516001600160a01b03909116815260200160405180910390a1565b6001600160a01b038216610d695760405162461bcd60e51b815260206004820152601f60248201527f45524332303a206d696e7420746f20746865207a65726f2061646472657373006044820152606401610592565b8060356000828254610d7b919061121a565b90915550506001600160a01b03821660009081526033602052604081208054839290610da890849061121a565b90915550506040518181526001600160a01b038316906000907fddf252ad1be2c89b69c2b068fc378daa952ba7f163c4a11628f55a4df523b3ef9060200160405180910390a35b5050565b606580546001600160a01b038381166001600160a01b0319831681179093556040519116919082907f8be0079c531659141344cd1fd0a4f28419497f9722a3daafe3b4186f6b6457e090600090a35050565b600054610100900460ff16610e6c5760405162461bcd60e51b8152600401610592906111cf565b610def8282610f5f565b600054610100900460ff16610e9d5760405162461bcd60e51b8152600401610592906111cf565b610460610fad565b600054610100900460ff16610ecc5760405162461bcd60e51b8152600401610592906111cf565b610460610fdd565b610edc6109d9565b6097805460ff191660011790557f62e78cea01bee320cd4e420270b5ea74000d11b0c9f74754ebdbfc544b05a258610cf63390565b505050565b60975460ff166104605760405162461bcd60e51b815260206004820152601460248201527314185d5cd8589b194e881b9bdd081c185d5cd95960621b6044820152606401610592565b600054610100900460ff16610f865760405162461bcd60e51b8152600401610592906111cf565b8151610f99906036906020850190611010565b508051610f11906037906020840190611010565b600054610100900460ff16610fd45760405162461bcd60e51b8152600401610592906111cf565b61046033610df3565b600054610100900460ff166110045760405162461bcd60e51b8152600401610592906111cf565b6097805460ff19169055565b82805461101c9061133c565b90600052602060002090601f01602090048101928261103e5760008555611084565b82601f1061105757805160ff1916838001178555611084565b82800160010185558215611084579182015b82811115611084578251825591602001919060010190611069565b50611090929150611094565b5090565b5b808211156110905760008155600101611095565b80356001600160a01b03811681146110c057600080fd5b919050565b6000602082840312156110d6578081fd5b6110df826110a9565b9392505050565b600080604083850312156110f8578081fd5b611101836110a9565b915061110f602084016110a9565b90509250929050565b60008060006060848603121561112c578081fd5b611135846110a9565b9250611143602085016110a9565b9150604084013590509250925092565b60008060408385031215611165578182fd5b61116e836110a9565b946020939093013593505050565b6000602080835283518082850152825b818110156111a85785810183015185820160400152820161118c565b818111156111b95783604083870101525b50601f01601f1916929092016040019392505050565b6020808252602b908201527f496e697469616c697a61626c653a20636f6e7472616374206973206e6f74206960408201526a6e697469616c697a696e6760a81b606082015260800190565b6000821982111561122d5761122d611377565b500190565b600181815b8085111561126d57816000190482111561125357611253611377565b8085161561126057918102915b93841c9390800290611237565b509250929050565b60006110df838360008261128b575060016103c7565b81611298575060006103c7565b81600181146112ae57600281146112b8576112d4565b60019150506103c7565b60ff8411156112c9576112c9611377565b50506001821b6103c7565b5060208310610133831016604e8410600b84101617156112f7575081810a6103c7565b6113018383611232565b806000190482111561131557611315611377565b029392505050565b600081600019048311821515161561133757611337611377565b500290565b600181811c9082168061135057607f821691505b6020821081141561137157634e487b7160e01b600052602260045260246000fd5b50919050565b634e487b7160e01b600052601160045260246000fdfea264697066735822122094b3e9260013b40b45f94097aadc8b2c6138ba7973218972e2f907e8576ec8d064736f6c63430008040033",
  "linkReferences": {},
  "deployedLinkReferences": {}
}