{
  "_format": "hh-sol-artifact-1",
  "contractName": "ClaimAirdropSMTX",
  "sourceName": "contracts/ClaimAirdrop.sol",
  "abi": [
    {
      "anonymous": false,
      "inputs": [
        {
          "indexed": true,
          "internalType": "uint256",
          "name": "itemId",
          "type": "uint256"
        },
        {
          "indexed": false,
          "internalType": "address",
          "name": "owner",
          "type": "address"
        },
        {
          "indexed": false,
          "internalType": "uint256",
          "name": "amount",
          "type": "uint256"
        },
        {
          "indexed": false,
          "internalType": "bool",
          "name": "claimed",
          "type": "bool"
        },
        {
          "indexed": false,
          "internalType": "uint256[]",
          "name": "xSumoArray",
          "type": "uint256[]"
        },
        {
          "indexed": false,
          "internalType": "uint256[]",
          "name": "ogSumoArray",
          "type": "uint256[]"
        }
      ],
      "name": "ClaimAirdropCreated",
      "type": "event"
    },
    {
      "anonymous": false,
      "inputs": [
        {
          "indexed": false,
          "internalType": "uint8",
          "name": "version",
          "type": "uint8"
        }
      ],
      "name": "Initialized",
      "type": "event"
    },
    {
      "anonymous": false,
      "inputs": [
        {
          "indexed": true,
          "internalType": "address",
          "name": "previousOwner",
          "type": "address"
        },
        {
          "indexed": true,
          "internalType": "address",
          "name": "newOwner",
          "type": "address"
        }
      ],
      "name": "OwnershipTransferred",
      "type": "event"
    },
    {
      "inputs": [
        {
          "internalType": "uint256",
          "name": "amount",
          "type": "uint256"
        },
        {
          "internalType": "uint256[]",
          "name": "_xSumoList",
          "type": "uint256[]"
        },
        {
          "internalType": "uint256[]",
          "name": "_ogSumoList",
          "type": "uint256[]"
        }
      ],
      "name": "createAirdropItem",
      "outputs": [],
      "stateMutability": "nonpayable",
      "type": "function"
    },
    {
      "inputs": [],
      "name": "fetchMyAirdrop",
      "outputs": [
        {
          "components": [
            {
              "internalType": "uint256",
              "name": "itemId",
              "type": "uint256"
            },
            {
              "internalType": "address",
              "name": "owner",
              "type": "address"
            },
            {
              "internalType": "uint256",
              "name": "amount",
              "type": "uint256"
            },
            {
              "internalType": "bool",
              "name": "claimed",
              "type": "bool"
            },
            {
              "internalType": "uint256[]",
              "name": "xSumoArray",
              "type": "uint256[]"
            },
            {
              "internalType": "uint256[]",
              "name": "ogSumoArray",
              "type": "uint256[]"
            }
          ],
          "internalType": "struct ClaimAirdropSMTX.AirdropList[]",
          "name": "",
          "type": "tuple[]"
        }
      ],
      "stateMutability": "view",
      "type": "function"
    },
    {
      "inputs": [
        {
          "internalType": "address",
          "name": "claimAddress",
          "type": "address"
        }
      ],
      "name": "getAirdropItem",
      "outputs": [
        {
          "components": [
            {
              "internalType": "uint256",
              "name": "itemId",
              "type": "uint256"
            },
            {
              "internalType": "address",
              "name": "owner",
              "type": "address"
            },
            {
              "internalType": "uint256",
              "name": "amount",
              "type": "uint256"
            },
            {
              "internalType": "bool",
              "name": "claimed",
              "type": "bool"
            },
            {
              "internalType": "uint256[]",
              "name": "xSumoArray",
              "type": "uint256[]"
            },
            {
              "internalType": "uint256[]",
              "name": "ogSumoArray",
              "type": "uint256[]"
            }
          ],
          "internalType": "struct ClaimAirdropSMTX.AirdropList",
          "name": "",
          "type": "tuple"
        }
      ],
      "stateMutability": "view",
      "type": "function"
    },
    {
      "inputs": [],
      "name": "initialize",
      "outputs": [],
      "stateMutability": "nonpayable",
      "type": "function"
    },
    {
      "inputs": [
        {
          "internalType": "uint256",
          "name": "",
          "type": "uint256"
        }
      ],
      "name": "ogSumoList",
      "outputs": [
        {
          "internalType": "uint256",
          "name": "",
          "type": "uint256"
        }
      ],
      "stateMutability": "view",
      "type": "function"
    },
    {
      "inputs": [],
      "name": "owner",
      "outputs": [
        {
          "internalType": "address",
          "name": "",
          "type": "address"
        }
      ],
      "stateMutability": "view",
      "type": "function"
    },
    {
      "inputs": [],
      "name": "pause",
      "outputs": [
        {
          "internalType": "bool",
          "name": "",
          "type": "bool"
        }
      ],
      "stateMutability": "view",
      "type": "function"
    },
    {
      "inputs": [],
      "name": "renounceOwnership",
      "outputs": [],
      "stateMutability": "nonpayable",
      "type": "function"
    },
    {
      "inputs": [],
      "name": "returnOGSumoList",
      "outputs": [
        {
          "internalType": "uint256[]",
          "name": "",
          "type": "uint256[]"
        }
      ],
      "stateMutability": "view",
      "type": "function"
    },
    {
      "inputs": [],
      "name": "returnXSumoList",
      "outputs": [
        {
          "internalType": "uint256[]",
          "name": "",
          "type": "uint256[]"
        }
      ],
      "stateMutability": "view",
      "type": "function"
    },
    {
      "inputs": [
        {
          "internalType": "address",
          "name": "newOwner",
          "type": "address"
        }
      ],
      "name": "transferOwnership",
      "outputs": [],
      "stateMutability": "nonpayable",
      "type": "function"
    },
    {
      "inputs": [
        {
          "internalType": "uint256",
          "name": "_itemId",
          "type": "uint256"
        },
        {
          "internalType": "address",
          "name": "claimAddress",
          "type": "address"
        }
      ],
      "name": "updateAirdropItem",
      "outputs": [
        {
          "components": [
            {
              "internalType": "uint256",
              "name": "itemId",
              "type": "uint256"
            },
            {
              "internalType": "address",
              "name": "owner",
              "type": "address"
            },
            {
              "internalType": "uint256",
              "name": "amount",
              "type": "uint256"
            },
            {
              "internalType": "bool",
              "name": "claimed",
              "type": "bool"
            },
            {
              "internalType": "uint256[]",
              "name": "xSumoArray",
              "type": "uint256[]"
            },
            {
              "internalType": "uint256[]",
              "name": "ogSumoArray",
              "type": "uint256[]"
            }
          ],
          "internalType": "struct ClaimAirdropSMTX.AirdropList",
          "name": "",
          "type": "tuple"
        }
      ],
      "stateMutability": "nonpayable",
      "type": "function"
    },
    {
      "inputs": [],
      "name": "x",
      "outputs": [
        {
          "internalType": "uint256",
          "name": "",
          "type": "uint256"
        }
      ],
      "stateMutability": "view",
      "type": "function"
    },
    {
      "inputs": [
        {
          "internalType": "uint256",
          "name": "",
          "type": "uint256"
        }
      ],
      "name": "xSumoList",
      "outputs": [
        {
          "internalType": "uint256",
          "name": "",
          "type": "uint256"
        }
      ],
      "stateMutability": "view",
      "type": "function"
    }
  ],
  "bytecode": "0x608060405234801561001057600080fd5b50611231806100206000396000f3fe608060405234801561001057600080fd5b50600436106100ea5760003560e01c80638456cb591161008c578063ddf27e7c11610066578063ddf27e7c146101bd578063ed7342ef146101d0578063efc8f89d146101e5578063f2fde38b146101f857600080fd5b80638456cb591461016d5780638da5cb5b1461018f578063dcee1ce5146101aa57600080fd5b806362832ff8116100c857806362832ff814610128578063715018a61461013d57806371a984f0146101455780638129fc1c1461016557600080fd5b80630c55699c146100ef57806319cd44051461010b578063536d45b014610120575b600080fd5b6100f860985481565b6040519081526020015b60405180910390f35b61011361020b565b604051610102919061112b565b610113610263565b61013b610136366004610f70565b6102b9565b005b61013b61050b565b610158610153366004610f0c565b61051f565b6040516101029190611189565b61013b6106e4565b60995461017f90610100900460ff1681565b6040519015158152602001610102565b6065546040516001600160a01b039091168152602001610102565b6101586101b8366004610f45565b61087c565b6100f86101cb366004610f2d565b61097e565b6101d861099f565b60405161010291906110ca565b6100f86101f3366004610f2d565b610c25565b61013b610206366004610f0c565b610c35565b6060609a80548060200260200160405190810160405280929190818152602001828054801561025957602002820191906000526020600020905b815481526020019060010190808311610245575b5050505050905090565b6060609b8054806020026020016040519081016040528092919081815260200182805480156102595760200282019190600052602060002090815481526020019060010190808311610245575050505050905090565b600260015414156103115760405162461bcd60e51b815260206004820152601f60248201527f5265656e7472616e637947756172643a207265656e7472616e742063616c6c0060448201526064015b60405180910390fd5b6002600155609954610100900460ff161561032b57600080fd5b610339609780546001019055565b600061034460975490565b6040805160c081018252828152336020808301918252828401898152600060608501818152608086018b815260a087018b9052888352609c8552969091208551815593516001850180546001600160a01b0319166001600160a01b03909216919091179055905160028401555160038301805460ff191691151591909117905592518051949550919390926103e0926004850192910190610db1565b5060a082015180516103fc916005840191602090910190610db1565b5090505060005b825181101561045f57609a83828151811061042e57634e487b7160e01b600052603260045260246000fd5b6020908102919091018101518254600181018455600093845291909220015580610457816111b4565b915050610403565b5060005b83518110156104bf57609b84828151811061048e57634e487b7160e01b600052603260045260246000fd5b60209081029190910181015182546001810184556000938452919092200155806104b7816111b4565b915050610463565b50807f6b93fd4cc44a18917600674304cb77963d5cfa91720b61999de0e6a13a20d6143386600087876040516104f995949392919061107d565b60405180910390a25050600180555050565b610513610cab565b61051d6000610d05565b565b610527610dfc565b600061053260975490565b905060008167ffffffffffffffff81111561055d57634e487b7160e01b600052604160045260246000fd5b60405190808252806020026020018201604052801561059657816020015b610583610dfc565b81526020019060019003908161057b5790505b50905060005b8281116106dc576000818152609c60205260409020600101546001600160a01b03868116911614156106ca576000818152609c6020908152604091829020825160c0810184528154815260018201546001600160a01b031681840152600282015481850152600382015460ff1615156060820152600482018054855181860281018601909652808652919492936080860193929083018282801561065f57602002820191906000526020600020905b81548152602001906001019080831161064b575b50505050508152602001600582018054806020026020016040519081016040528092919081815260200182805480156106b757602002820191906000526020600020905b8154815260200190600101908083116106a3575b5050505050815250509350505050919050565b806106d4816111b4565b91505061059c565b505050919050565b600054610100900460ff16158080156107045750600054600160ff909116105b8061071e5750303b15801561071e575060005460ff166001145b6107815760405162461bcd60e51b815260206004820152602e60248201527f496e697469616c697a61626c653a20636f6e747261637420697320616c72656160448201526d191e481a5b9a5d1a585b1a5e995960921b6064820152608401610308565b6000805460ff1916600117905580156107a4576000805461ff0019166101001790555b60995460ff161561080e5760405162461bcd60e51b815260206004820152602e60248201527f436f6e747261637420696e7374616e63652068617320616c726561647920626560448201526d195b881a5b9a5d1a585b1a5e995960921b6064820152608401610308565b6099805460ff19166001179055610823610d57565b602a6098556099805461ff00191690558015610879576000805461ff0019169055604051600181527f7f26b83ff96e1f2b6a682f133852f6798a09c465da95921460cefb38474024989060200160405180910390a15b50565b610884610dfc565b61088c610cab565b600061089760975490565b905060008167ffffffffffffffff8111156108c257634e487b7160e01b600052604160045260246000fd5b6040519080825280602002602001820160405280156108fb57816020015b6108e8610dfc565b8152602001906001900390816108e05790505b50905060005b828111610975576000818152609c60205260409020600101546001600160a01b03868116911614801561094157506000818152609c602052604090205486145b15610963576000818152609c60205260409020600301805460ff191660011790555b8061096d816111b4565b915050610901565b50505092915050565b609b818154811061098e57600080fd5b600091825260209091200154905081565b606060006109ac60975490565b905060008060005b83811015610a0f5733609c60006109cc84600161119c565b81526020810191909152604001600020600101546001600160a01b031614156109fd576109fa60018461119c565b92505b80610a07816111b4565b9150506109b4565b5060008267ffffffffffffffff811115610a3957634e487b7160e01b600052604160045260246000fd5b604051908082528060200260200182016040528015610a7257816020015b610a5f610dfc565b815260200190600190039081610a575790505b50905060005b84811015610c1c5733609c6000610a9084600161119c565b81526020810191909152604001600020600101546001600160a01b03161415610c0a576000609c81610ac384600161119c565b81526020808201929092526040908101600090812054808252609c845290829020825160c0810184528154815260018201546001600160a01b031681860152600282015481850152600382015460ff161515606082015260048201805485518188028101880190965280865293965091949093859360808601939192830182828015610b6e57602002820191906000526020600020905b815481526020019060010190808311610b5a575b5050505050815260200160058201805480602002602001604051908101604052809291908181526020018280548015610bc657602002820191906000526020600020905b815481526020019060010190808311610bb2575b505050505081525050848681518110610bef57634e487b7160e01b600052603260045260246000fd5b6020908102919091010152610c0560018661119c565b945050505b80610c14816111b4565b915050610a78565b50949350505050565b609a818154811061098e57600080fd5b610c3d610cab565b6001600160a01b038116610ca25760405162461bcd60e51b815260206004820152602660248201527f4f776e61626c653a206e6577206f776e657220697320746865207a65726f206160448201526564647265737360d01b6064820152608401610308565b61087981610d05565b6065546001600160a01b0316331461051d5760405162461bcd60e51b815260206004820181905260248201527f4f776e61626c653a2063616c6c6572206973206e6f7420746865206f776e65726044820152606401610308565b606580546001600160a01b038381166001600160a01b0319831681179093556040519116919082907f8be0079c531659141344cd1fd0a4f28419497f9722a3daafe3b4186f6b6457e090600090a35050565b600054610100900460ff16610d7e5760405162461bcd60e51b81526004016103089061113e565b61051d600054610100900460ff16610da85760405162461bcd60e51b81526004016103089061113e565b61051d33610d05565b828054828255906000526020600020908101928215610dec579160200282015b82811115610dec578251825591602001919060010190610dd1565b50610df8929150610e3d565b5090565b6040518060c001604052806000815260200160006001600160a01b031681526020016000815260200160001515815260200160608152602001606081525090565b5b80821115610df85760008155600101610e3e565b80356001600160a01b0381168114610e6957600080fd5b919050565b600082601f830112610e7e578081fd5b8135602067ffffffffffffffff80831115610e9b57610e9b6111e5565b8260051b604051601f19603f83011681018181108482111715610ec057610ec06111e5565b60405284815283810192508684018288018501891015610ede578687fd5b8692505b85831015610f00578035845292840192600192909201918401610ee2565b50979650505050505050565b600060208284031215610f1d578081fd5b610f2682610e52565b9392505050565b600060208284031215610f3e578081fd5b5035919050565b60008060408385031215610f57578081fd5b82359150610f6760208401610e52565b90509250929050565b600080600060608486031215610f84578081fd5b83359250602084013567ffffffffffffffff80821115610fa2578283fd5b610fae87838801610e6e565b93506040860135915080821115610fc3578283fd5b50610fd086828701610e6e565b9150509250925092565b6000815180845260208085019450808401835b8381101561100957815187529582019590820190600101610fed565b509495945050505050565b8051825260018060a01b036020820151166020830152604081015160408301526060810151151560608301526000608082015160c0608085015261105b60c0850182610fda565b905060a083015184820360a08601526110748282610fda565b95945050505050565b60018060a01b0386168152846020820152831515604082015260a0606082015260006110ac60a0830185610fda565b82810360808401526110be8185610fda565b98975050505050505050565b6000602080830181845280855180835260408601915060408160051b8701019250838701855b8281101561111e57603f1988860301845261110c858351611014565b945092850192908501906001016110f0565b5092979650505050505050565b602081526000610f266020830184610fda565b6020808252602b908201527f496e697469616c697a61626c653a20636f6e7472616374206973206e6f74206960408201526a6e697469616c697a696e6760a81b606082015260800190565b602081526000610f266020830184611014565b600082198211156111af576111af6111cf565b500190565b60006000198214156111c8576111c86111cf565b5060010190565b634e487b7160e01b600052601160045260246000fd5b634e487b7160e01b600052604160045260246000fdfea264697066735822122087bafc002d5250130d38f8ab5b518fd5d1d9aa973256a7897cfe9f22f46b929a64736f6c63430008040033",
  "linkReferences": {},
  "deployedLinkReferences": {}
}