{
  "_format": "hh-sol-artifact-1",
  "contractName": "SMTXToken",
  "sourceName": "contracts/SMTX.sol",
  "abi": [
    {
      "anonymous": false,
      "inputs": [
        {
          "indexed": true,
          "internalType": "address",
          "name": "owner",
          "type": "address"
        },
        {
          "indexed": true,
          "internalType": "address",
          "name": "spender",
          "type": "address"
        },
        {
          "indexed": false,
          "internalType": "uint256",
          "name": "value",
          "type": "uint256"
        }
      ],
      "name": "Approval",
      "type": "event"
    },
    {
      "anonymous": false,
      "inputs": [
        {
          "indexed": false,
          "internalType": "uint8",
          "name": "version",
          "type": "uint8"
        }
      ],
      "name": "Initialized",
      "type": "event"
    },
    {
      "anonymous": false,
      "inputs": [
        {
          "indexed": true,
          "internalType": "address",
          "name": "previousOwner",
          "type": "address"
        },
        {
          "indexed": true,
          "internalType": "address",
          "name": "newOwner",
          "type": "address"
        }
      ],
      "name": "OwnershipTransferred",
      "type": "event"
    },
    {
      "anonymous": false,
      "inputs": [
        {
          "indexed": false,
          "internalType": "address",
          "name": "account",
          "type": "address"
        }
      ],
      "name": "Paused",
      "type": "event"
    },
    {
      "anonymous": false,
      "inputs": [
        {
          "indexed": true,
          "internalType": "address",
          "name": "from",
          "type": "address"
        },
        {
          "indexed": true,
          "internalType": "address",
          "name": "to",
          "type": "address"
        },
        {
          "indexed": false,
          "internalType": "uint256",
          "name": "value",
          "type": "uint256"
        }
      ],
      "name": "Transfer",
      "type": "event"
    },
    {
      "anonymous": false,
      "inputs": [
        {
          "indexed": false,
          "internalType": "address",
          "name": "account",
          "type": "address"
        }
      ],
      "name": "Unpaused",
      "type": "event"
    },
    {
      "inputs": [
        {
          "internalType": "address",
          "name": "_blacklistUser",
          "type": "address"
        }
      ],
      "name": "addblackListUser",
      "outputs": [],
      "stateMutability": "nonpayable",
      "type": "function"
    },
    {
      "inputs": [
        {
          "internalType": "address",
          "name": "owner",
          "type": "address"
        },
        {
          "internalType": "address",
          "name": "spender",
          "type": "address"
        }
      ],
      "name": "allowance",
      "outputs": [
        {
          "internalType": "uint256",
          "name": "",
          "type": "uint256"
        }
      ],
      "stateMutability": "view",
      "type": "function"
    },
    {
      "inputs": [
        {
          "internalType": "address",
          "name": "spender",
          "type": "address"
        },
        {
          "internalType": "uint256",
          "name": "amount",
          "type": "uint256"
        }
      ],
      "name": "approve",
      "outputs": [
        {
          "internalType": "bool",
          "name": "",
          "type": "bool"
        }
      ],
      "stateMutability": "nonpayable",
      "type": "function"
    },
    {
      "inputs": [
        {
          "internalType": "address",
          "name": "account",
          "type": "address"
        }
      ],
      "name": "balanceOf",
      "outputs": [
        {
          "internalType": "uint256",
          "name": "",
          "type": "uint256"
        }
      ],
      "stateMutability": "view",
      "type": "function"
    },
    {
      "inputs": [
        {
          "internalType": "address",
          "name": "",
          "type": "address"
        }
      ],
      "name": "blacklisted",
      "outputs": [
        {
          "internalType": "bool",
          "name": "",
          "type": "bool"
        }
      ],
      "stateMutability": "view",
      "type": "function"
    },
    {
      "inputs": [],
      "name": "decimals",
      "outputs": [
        {
          "internalType": "uint8",
          "name": "",
          "type": "uint8"
        }
      ],
      "stateMutability": "view",
      "type": "function"
    },
    {
      "inputs": [
        {
          "internalType": "address",
          "name": "spender",
          "type": "address"
        },
        {
          "internalType": "uint256",
          "name": "subtractedValue",
          "type": "uint256"
        }
      ],
      "name": "decreaseAllowance",
      "outputs": [
        {
          "internalType": "bool",
          "name": "",
          "type": "bool"
        }
      ],
      "stateMutability": "nonpayable",
      "type": "function"
    },
    {
      "inputs": [
        {
          "internalType": "address",
          "name": "spender",
          "type": "address"
        },
        {
          "internalType": "uint256",
          "name": "addedValue",
          "type": "uint256"
        }
      ],
      "name": "increaseAllowance",
      "outputs": [
        {
          "internalType": "bool",
          "name": "",
          "type": "bool"
        }
      ],
      "stateMutability": "nonpayable",
      "type": "function"
    },
    {
      "inputs": [],
      "name": "initialSupply",
      "outputs": [
        {
          "internalType": "uint256",
          "name": "",
          "type": "uint256"
        }
      ],
      "stateMutability": "view",
      "type": "function"
    },
    {
      "inputs": [],
      "name": "initialize",
      "outputs": [],
      "stateMutability": "nonpayable",
      "type": "function"
    },
    {
      "inputs": [
        {
          "internalType": "address",
          "name": "to",
          "type": "address"
        },
        {
          "internalType": "uint256",
          "name": "amount",
          "type": "uint256"
        }
      ],
      "name": "mint",
      "outputs": [],
      "stateMutability": "nonpayable",
      "type": "function"
    },
    {
      "inputs": [],
      "name": "name",
      "outputs": [
        {
          "internalType": "string",
          "name": "",
          "type": "string"
        }
      ],
      "stateMutability": "view",
      "type": "function"
    },
    {
      "inputs": [],
      "name": "owner",
      "outputs": [
        {
          "internalType": "address",
          "name": "",
          "type": "address"
        }
      ],
      "stateMutability": "view",
      "type": "function"
    },
    {
      "inputs": [],
      "name": "pause",
      "outputs": [],
      "stateMutability": "nonpayable",
      "type": "function"
    },
    {
      "inputs": [],
      "name": "paused",
      "outputs": [
        {
          "internalType": "bool",
          "name": "",
          "type": "bool"
        }
      ],
      "stateMutability": "view",
      "type": "function"
    },
    {
      "inputs": [
        {
          "internalType": "address",
          "name": "_blacklistUser",
          "type": "address"
        }
      ],
      "name": "removeblackListUser",
      "outputs": [],
      "stateMutability": "nonpayable",
      "type": "function"
    },
    {
      "inputs": [],
      "name": "renounceOwnership",
      "outputs": [],
      "stateMutability": "nonpayable",
      "type": "function"
    },
    {
      "inputs": [],
      "name": "symbol",
      "outputs": [
        {
          "internalType": "string",
          "name": "",
          "type": "string"
        }
      ],
      "stateMutability": "view",
      "type": "function"
    },
    {
      "inputs": [],
      "name": "totalSupply",
      "outputs": [
        {
          "internalType": "uint256",
          "name": "",
          "type": "uint256"
        }
      ],
      "stateMutability": "view",
      "type": "function"
    },
    {
      "inputs": [
        {
          "internalType": "address",
          "name": "_to",
          "type": "address"
        },
        {
          "internalType": "uint256",
          "name": "_value",
          "type": "uint256"
        }
      ],
      "name": "transfer",
      "outputs": [
        {
          "internalType": "bool",
          "name": "",
          "type": "bool"
        }
      ],
      "stateMutability": "nonpayable",
      "type": "function"
    },
    {
      "inputs": [
        {
          "internalType": "address",
          "name": "from",
          "type": "address"
        },
        {
          "internalType": "address",
          "name": "to",
          "type": "address"
        },
        {
          "internalType": "uint256",
          "name": "amount",
          "type": "uint256"
        }
      ],
      "name": "transferFrom",
      "outputs": [
        {
          "internalType": "bool",
          "name": "",
          "type": "bool"
        }
      ],
      "stateMutability": "nonpayable",
      "type": "function"
    },
    {
      "inputs": [
        {
          "internalType": "address",
          "name": "newOwner",
          "type": "address"
        }
      ],
      "name": "transferOwnership",
      "outputs": [],
      "stateMutability": "nonpayable",
      "type": "function"
    },
    {
      "inputs": [],
      "name": "unpause",
      "outputs": [],
      "stateMutability": "nonpayable",
      "type": "function"
    }
  ],
  "bytecode": "0x608060405234801561001057600080fd5b50611320806100206000396000f3fe608060405234801561001057600080fd5b506004361061014d5760003560e01c8063715018a6116100c3578063a457c2d71161007c578063a457c2d714610281578063a9059cbb14610294578063d7fb5f2c146102a7578063dbac26e9146102ba578063dd62ed3e146102dd578063f2fde38b146102f057600080fd5b8063715018a614610233578063810a2c7e1461023b5780638129fc1c1461024e5780638456cb59146102565780638da5cb5b1461025e57806395d89b411461027957600080fd5b8063378dc3dc11610115578063378dc3dc146101c757806339509351146101cf5780633f4ba83a146101e257806340c10f19146101ec5780635c975abb146101ff57806370a082311461020a57600080fd5b806306fdde0314610152578063095ea7b31461017057806318160ddd1461019357806323b872dd146101a5578063313ce567146101b8575b600080fd5b61015a610303565b60405161016791906110d9565b60405180910390f35b61018361017e3660046110b0565b610395565b6040519015158152602001610167565b60cc545b604051908152602001610167565b6101836101b3366004611075565b6103af565b60405160128152602001610167565b60cd54610197565b6101836101dd3660046110b0565b610410565b6101ea610432565b005b6101ea6101fa3660046110b0565b610444565b60975460ff16610183565b610197610218366004611022565b6001600160a01b031660009081526033602052604090205490565b6101ea610495565b6101ea610249366004611022565b6104a7565b6101ea6104db565b6101ea61065b565b6065546040516001600160a01b039091168152602001610167565b61015a61066b565b61018361028f3660046110b0565b61067a565b6101836102a23660046110b0565b6106f5565b6101ea6102b5366004611022565b610740565b6101836102c8366004611022565b60ce6020526000908152604090205460ff1681565b6101976102eb366004611043565b610771565b6101ea6102fe366004611022565b61079c565b60606036805461031290611299565b80601f016020809104026020016040519081016040528092919081815260200182805461033e90611299565b801561038b5780601f106103605761010080835404028352916020019161038b565b820191906000526020600020905b81548152906001019060200180831161036e57829003601f168201915b5050505050905090565b6000336103a3818585610812565b60019150505b92915050565b60006103b9610936565b336001600160a01b0384166103cd57600080fd5b33600090815260ce602052604090205460ff161515600114156103ef57600080fd5b6103fa85828561097c565b6104058585856109f6565b506001949350505050565b6000336103a38185856104238383610771565b61042d9190611177565b610812565b61043a610bc4565b610442610c1e565b565b61044c610936565b610454610bc4565b60cc548160cd546104659190611177565b111561047057600080fd5b61047a8282610c70565b8060cd600082825461048c9190611177565b90915550505050565b61049d610bc4565b6104426000610d50565b6104af610936565b6104b7610bc4565b6001600160a01b0316600090815260ce60205260409020805460ff19166001179055565b600054610100900460ff16158080156104fb5750600054600160ff909116105b806105155750303b158015610515575060005460ff166001145b61057d5760405162461bcd60e51b815260206004820152602e60248201527f496e697469616c697a61626c653a20636f6e747261637420697320616c72656160448201526d191e481a5b9a5d1a585b1a5e995960921b60648201526084015b60405180910390fd5b6000805460ff1916600117905580156105a0576000805461ff0019166101001790555b6105e5604051806040016040528060078152602001660a6aa9a9ea88ab60cb1b815250604051806040016040528060048152602001630a69aa8b60e31b815250610da2565b6105ed610dd3565b6105f5610e02565b6106016012600a6111d2565b61060f90633b9aca0061127a565b60cc558015610658576000805461ff0019169055604051600181527f7f26b83ff96e1f2b6a682f133852f6798a09c465da95921460cefb38474024989060200160405180910390a15b50565b610663610bc4565b610442610e31565b60606037805461031290611299565b600033816106888286610771565b9050838110156106e85760405162461bcd60e51b815260206004820152602560248201527f45524332303a2064656372656173656420616c6c6f77616e63652062656c6f77604482015264207a65726f60d81b6064820152608401610574565b6104058286868403610812565b60006106ff610936565b6001600160a01b03831661071257600080fd5b33600090815260ce602052604090205460ff1615156001141561073457600080fd5b336103a38185856109f6565b610748610936565b610750610bc4565b6001600160a01b0316600090815260ce60205260409020805460ff19169055565b6001600160a01b03918216600090815260346020908152604080832093909416825291909152205490565b6107a4610bc4565b6001600160a01b0381166108095760405162461bcd60e51b815260206004820152602660248201527f4f776e61626c653a206e6577206f776e657220697320746865207a65726f206160448201526564647265737360d01b6064820152608401610574565b61065881610d50565b6001600160a01b0383166108745760405162461bcd60e51b8152602060048201526024808201527f45524332303a20617070726f76652066726f6d20746865207a65726f206164646044820152637265737360e01b6064820152608401610574565b6001600160a01b0382166108d55760405162461bcd60e51b815260206004820152602260248201527f45524332303a20617070726f766520746f20746865207a65726f206164647265604482015261737360f01b6064820152608401610574565b6001600160a01b0383811660008181526034602090815260408083209487168084529482529182902085905590518481527f8c5be1e5ebec7d5bd14f71427d1e84f3dd0314c0f7b2291e5b200ac8c7c3b925910160405180910390a3505050565b60975460ff16156104425760405162461bcd60e51b815260206004820152601060248201526f14185d5cd8589b194e881c185d5cd95960821b6044820152606401610574565b60006109888484610771565b905060001981146109f057818110156109e35760405162461bcd60e51b815260206004820152601d60248201527f45524332303a20696e73756666696369656e7420616c6c6f77616e63650000006044820152606401610574565b6109f08484848403610812565b50505050565b6001600160a01b038316610a5a5760405162461bcd60e51b815260206004820152602560248201527f45524332303a207472616e736665722066726f6d20746865207a65726f206164604482015264647265737360d81b6064820152608401610574565b6001600160a01b038216610abc5760405162461bcd60e51b815260206004820152602360248201527f45524332303a207472616e7366657220746f20746865207a65726f206164647260448201526265737360e81b6064820152608401610574565b6001600160a01b03831660009081526033602052604090205481811015610b345760405162461bcd60e51b815260206004820152602660248201527f45524332303a207472616e7366657220616d6f756e7420657863656564732062604482015265616c616e636560d01b6064820152608401610574565b6001600160a01b03808516600090815260336020526040808220858503905591851681529081208054849290610b6b908490611177565b92505081905550826001600160a01b0316846001600160a01b03167fddf252ad1be2c89b69c2b068fc378daa952ba7f163c4a11628f55a4df523b3ef84604051610bb791815260200190565b60405180910390a36109f0565b6065546001600160a01b031633146104425760405162461bcd60e51b815260206004820181905260248201527f4f776e61626c653a2063616c6c6572206973206e6f7420746865206f776e65726044820152606401610574565b610c26610e73565b6097805460ff191690557f5db9ee0a495bf2e6ff9c91a7834c1ba4fdd244a5e8aa4e537bd38aeae4b073aa335b6040516001600160a01b03909116815260200160405180910390a1565b6001600160a01b038216610cc65760405162461bcd60e51b815260206004820152601f60248201527f45524332303a206d696e7420746f20746865207a65726f2061646472657373006044820152606401610574565b8060356000828254610cd89190611177565b90915550506001600160a01b03821660009081526033602052604081208054839290610d05908490611177565b90915550506040518181526001600160a01b038316906000907fddf252ad1be2c89b69c2b068fc378daa952ba7f163c4a11628f55a4df523b3ef9060200160405180910390a35b5050565b606580546001600160a01b038381166001600160a01b0319831681179093556040519116919082907f8be0079c531659141344cd1fd0a4f28419497f9722a3daafe3b4186f6b6457e090600090a35050565b600054610100900460ff16610dc95760405162461bcd60e51b81526004016105749061112c565b610d4c8282610ebc565b600054610100900460ff16610dfa5760405162461bcd60e51b81526004016105749061112c565b610442610f0a565b600054610100900460ff16610e295760405162461bcd60e51b81526004016105749061112c565b610442610f3a565b610e39610936565b6097805460ff191660011790557f62e78cea01bee320cd4e420270b5ea74000d11b0c9f74754ebdbfc544b05a258610c533390565b505050565b60975460ff166104425760405162461bcd60e51b815260206004820152601460248201527314185d5cd8589b194e881b9bdd081c185d5cd95960621b6044820152606401610574565b600054610100900460ff16610ee35760405162461bcd60e51b81526004016105749061112c565b8151610ef6906036906020850190610f6d565b508051610e6e906037906020840190610f6d565b600054610100900460ff16610f315760405162461bcd60e51b81526004016105749061112c565b61044233610d50565b600054610100900460ff16610f615760405162461bcd60e51b81526004016105749061112c565b6097805460ff19169055565b828054610f7990611299565b90600052602060002090601f016020900481019282610f9b5760008555610fe1565b82601f10610fb457805160ff1916838001178555610fe1565b82800160010185558215610fe1579182015b82811115610fe1578251825591602001919060010190610fc6565b50610fed929150610ff1565b5090565b5b80821115610fed5760008155600101610ff2565b80356001600160a01b038116811461101d57600080fd5b919050565b600060208284031215611033578081fd5b61103c82611006565b9392505050565b60008060408385031215611055578081fd5b61105e83611006565b915061106c60208401611006565b90509250929050565b600080600060608486031215611089578081fd5b61109284611006565b92506110a060208501611006565b9150604084013590509250925092565b600080604083850312156110c2578182fd5b6110cb83611006565b946020939093013593505050565b6000602080835283518082850152825b81811015611105578581018301518582016040015282016110e9565b818111156111165783604083870101525b50601f01601f1916929092016040019392505050565b6020808252602b908201527f496e697469616c697a61626c653a20636f6e7472616374206973206e6f74206960408201526a6e697469616c697a696e6760a81b606082015260800190565b6000821982111561118a5761118a6112d4565b500190565b600181815b808511156111ca5781600019048211156111b0576111b06112d4565b808516156111bd57918102915b93841c9390800290611194565b509250929050565b600061103c83836000826111e8575060016103a9565b816111f5575060006103a9565b816001811461120b576002811461121557611231565b60019150506103a9565b60ff841115611226576112266112d4565b50506001821b6103a9565b5060208310610133831016604e8410600b8410161715611254575081810a6103a9565b61125e838361118f565b8060001904821115611272576112726112d4565b029392505050565b6000816000190483118215151615611294576112946112d4565b500290565b600181811c908216806112ad57607f821691505b602082108114156112ce57634e487b7160e01b600052602260045260246000fd5b50919050565b634e487b7160e01b600052601160045260246000fdfea26469706673582212209190f4f1a12bc43346a4dfd44442bf7c4fd2a889dce0b2c0aee26c744718075b64736f6c63430008040033",
  "linkReferences": {},
  "deployedLinkReferences": {}
}