{
  "_format": "hh-sol-artifact-1",
  "contractName": "FST",
  "sourceName": "contracts/FST.sol",
  "abi": [
    {
      "anonymous": false,
      "inputs": [
        {
          "indexed": false,
          "internalType": "address",
          "name": "previousAdmin",
          "type": "address"
        },
        {
          "indexed": false,
          "internalType": "address",
          "name": "newAdmin",
          "type": "address"
        }
      ],
      "name": "AdminChanged",
      "type": "event"
    },
    {
      "anonymous": false,
      "inputs": [
        {
          "indexed": true,
          "internalType": "address",
          "name": "owner",
          "type": "address"
        },
        {
          "indexed": true,
          "internalType": "address",
          "name": "approved",
          "type": "address"
        },
        {
          "indexed": true,
          "internalType": "uint256",
          "name": "tokenId",
          "type": "uint256"
        }
      ],
      "name": "Approval",
      "type": "event"
    },
    {
      "anonymous": false,
      "inputs": [
        {
          "indexed": true,
          "internalType": "address",
          "name": "owner",
          "type": "address"
        },
        {
          "indexed": true,
          "internalType": "address",
          "name": "operator",
          "type": "address"
        },
        {
          "indexed": false,
          "internalType": "bool",
          "name": "approved",
          "type": "bool"
        }
      ],
      "name": "ApprovalForAll",
      "type": "event"
    },
    {
      "anonymous": false,
      "inputs": [
        {
          "indexed": true,
          "internalType": "address",
          "name": "beacon",
          "type": "address"
        }
      ],
      "name": "BeaconUpgraded",
      "type": "event"
    },
    {
      "anonymous": false,
      "inputs": [
        {
          "indexed": false,
          "internalType": "uint8",
          "name": "version",
          "type": "uint8"
        }
      ],
      "name": "Initialized",
      "type": "event"
    },
    {
      "anonymous": false,
      "inputs": [
        {
          "indexed": true,
          "internalType": "address",
          "name": "previousOwner",
          "type": "address"
        },
        {
          "indexed": true,
          "internalType": "address",
          "name": "newOwner",
          "type": "address"
        }
      ],
      "name": "OwnershipTransferred",
      "type": "event"
    },
    {
      "anonymous": false,
      "inputs": [
        {
          "indexed": false,
          "internalType": "address",
          "name": "account",
          "type": "address"
        }
      ],
      "name": "Paused",
      "type": "event"
    },
    {
      "anonymous": false,
      "inputs": [
        {
          "indexed": true,
          "internalType": "address",
          "name": "from",
          "type": "address"
        },
        {
          "indexed": true,
          "internalType": "address",
          "name": "to",
          "type": "address"
        },
        {
          "indexed": true,
          "internalType": "uint256",
          "name": "tokenId",
          "type": "uint256"
        }
      ],
      "name": "Transfer",
      "type": "event"
    },
    {
      "anonymous": false,
      "inputs": [
        {
          "indexed": false,
          "internalType": "address",
          "name": "account",
          "type": "address"
        }
      ],
      "name": "Unpaused",
      "type": "event"
    },
    {
      "anonymous": false,
      "inputs": [
        {
          "indexed": true,
          "internalType": "address",
          "name": "implementation",
          "type": "address"
        }
      ],
      "name": "Upgraded",
      "type": "event"
    },
    {
      "inputs": [
        {
          "internalType": "address",
          "name": "to",
          "type": "address"
        },
        {
          "internalType": "uint256",
          "name": "tokenId",
          "type": "uint256"
        }
      ],
      "name": "approve",
      "outputs": [],
      "stateMutability": "nonpayable",
      "type": "function"
    },
    {
      "inputs": [],
      "name": "auditedLink",
      "outputs": [
        {
          "internalType": "string",
          "name": "",
          "type": "string"
        }
      ],
      "stateMutability": "view",
      "type": "function"
    },
    {
      "inputs": [
        {
          "internalType": "address",
          "name": "owner",
          "type": "address"
        }
      ],
      "name": "balanceOf",
      "outputs": [
        {
          "internalType": "uint256",
          "name": "",
          "type": "uint256"
        }
      ],
      "stateMutability": "view",
      "type": "function"
    },
    {
      "inputs": [
        {
          "internalType": "uint256",
          "name": "tokenId",
          "type": "uint256"
        }
      ],
      "name": "burn",
      "outputs": [],
      "stateMutability": "nonpayable",
      "type": "function"
    },
    {
      "inputs": [],
      "name": "cost",
      "outputs": [
        {
          "internalType": "uint256",
          "name": "",
          "type": "uint256"
        }
      ],
      "stateMutability": "view",
      "type": "function"
    },
    {
      "inputs": [],
      "name": "erc20Contract",
      "outputs": [
        {
          "internalType": "contract IERC20Upgradeable",
          "name": "",
          "type": "address"
        }
      ],
      "stateMutability": "view",
      "type": "function"
    },
    {
      "inputs": [
        {
          "internalType": "uint256",
          "name": "",
          "type": "uint256"
        }
      ],
      "name": "firstFuseAddress",
      "outputs": [
        {
          "internalType": "address",
          "name": "",
          "type": "address"
        }
      ],
      "stateMutability": "view",
      "type": "function"
    },
    {
      "inputs": [],
      "name": "fundManagerAddress",
      "outputs": [
        {
          "internalType": "address",
          "name": "",
          "type": "address"
        }
      ],
      "stateMutability": "view",
      "type": "function"
    },
    {
      "inputs": [],
      "name": "fundManagerName",
      "outputs": [
        {
          "internalType": "string",
          "name": "",
          "type": "string"
        }
      ],
      "stateMutability": "view",
      "type": "function"
    },
    {
      "inputs": [
        {
          "internalType": "uint256",
          "name": "tokenId",
          "type": "uint256"
        }
      ],
      "name": "getApproved",
      "outputs": [
        {
          "internalType": "address",
          "name": "",
          "type": "address"
        }
      ],
      "stateMutability": "view",
      "type": "function"
    },
    {
      "inputs": [
        {
          "internalType": "uint256",
          "name": "tokenId",
          "type": "uint256"
        }
      ],
      "name": "getFirstMinterInfo",
      "outputs": [
        {
          "internalType": "address",
          "name": "firstMinter",
          "type": "address"
        }
      ],
      "stateMutability": "view",
      "type": "function"
    },
    {
      "inputs": [],
      "name": "getFundManager",
      "outputs": [
        {
          "internalType": "string",
          "name": "theFundManager",
          "type": "string"
        }
      ],
      "stateMutability": "view",
      "type": "function"
    },
    {
      "inputs": [],
      "name": "getUSDCost",
      "outputs": [
        {
          "internalType": "uint256",
          "name": "theCost",
          "type": "uint256"
        }
      ],
      "stateMutability": "view",
      "type": "function"
    },
    {
      "inputs": [
        {
          "internalType": "uint256",
          "name": "_x",
          "type": "uint256"
        }
      ],
      "name": "initialize",
      "outputs": [],
      "stateMutability": "nonpayable",
      "type": "function"
    },
    {
      "inputs": [
        {
          "internalType": "address",
          "name": "owner",
          "type": "address"
        },
        {
          "internalType": "address",
          "name": "operator",
          "type": "address"
        }
      ],
      "name": "isApprovedForAll",
      "outputs": [
        {
          "internalType": "bool",
          "name": "",
          "type": "bool"
        }
      ],
      "stateMutability": "view",
      "type": "function"
    },
    {
      "inputs": [],
      "name": "maxMintAmount",
      "outputs": [
        {
          "internalType": "uint256",
          "name": "",
          "type": "uint256"
        }
      ],
      "stateMutability": "view",
      "type": "function"
    },
    {
      "inputs": [],
      "name": "maxSupply",
      "outputs": [
        {
          "internalType": "uint256",
          "name": "",
          "type": "uint256"
        }
      ],
      "stateMutability": "view",
      "type": "function"
    },
    {
      "inputs": [],
      "name": "name",
      "outputs": [
        {
          "internalType": "string",
          "name": "",
          "type": "string"
        }
      ],
      "stateMutability": "view",
      "type": "function"
    },
    {
      "inputs": [],
      "name": "owner",
      "outputs": [
        {
          "internalType": "address",
          "name": "",
          "type": "address"
        }
      ],
      "stateMutability": "view",
      "type": "function"
    },
    {
      "inputs": [
        {
          "internalType": "uint256",
          "name": "tokenId",
          "type": "uint256"
        }
      ],
      "name": "ownerOf",
      "outputs": [
        {
          "internalType": "address",
          "name": "",
          "type": "address"
        }
      ],
      "stateMutability": "view",
      "type": "function"
    },
    {
      "inputs": [],
      "name": "partnerAddress",
      "outputs": [
        {
          "internalType": "address",
          "name": "",
          "type": "address"
        }
      ],
      "stateMutability": "view",
      "type": "function"
    },
    {
      "inputs": [],
      "name": "partnerName",
      "outputs": [
        {
          "internalType": "string",
          "name": "",
          "type": "string"
        }
      ],
      "stateMutability": "view",
      "type": "function"
    },
    {
      "inputs": [
        {
          "internalType": "address",
          "name": "_creatorAddress",
          "type": "address"
        }
      ],
      "name": "partnerNameAdd",
      "outputs": [],
      "stateMutability": "nonpayable",
      "type": "function"
    },
    {
      "inputs": [],
      "name": "pause",
      "outputs": [],
      "stateMutability": "nonpayable",
      "type": "function"
    },
    {
      "inputs": [],
      "name": "paused",
      "outputs": [
        {
          "internalType": "bool",
          "name": "",
          "type": "bool"
        }
      ],
      "stateMutability": "view",
      "type": "function"
    },
    {
      "inputs": [],
      "name": "presaleAmount",
      "outputs": [
        {
          "internalType": "uint256",
          "name": "",
          "type": "uint256"
        }
      ],
      "stateMutability": "view",
      "type": "function"
    },
    {
      "inputs": [],
      "name": "presaleCost",
      "outputs": [
        {
          "internalType": "uint256",
          "name": "",
          "type": "uint256"
        }
      ],
      "stateMutability": "view",
      "type": "function"
    },
    {
      "inputs": [
        {
          "internalType": "address",
          "name": "",
          "type": "address"
        }
      ],
      "name": "presaleWallets",
      "outputs": [
        {
          "internalType": "bool",
          "name": "",
          "type": "bool"
        }
      ],
      "stateMutability": "view",
      "type": "function"
    },
    {
      "inputs": [],
      "name": "proxiableUUID",
      "outputs": [
        {
          "internalType": "bytes32",
          "name": "",
          "type": "bytes32"
        }
      ],
      "stateMutability": "view",
      "type": "function"
    },
    {
      "inputs": [
        {
          "internalType": "address",
          "name": "_user",
          "type": "address"
        }
      ],
      "name": "removeWhitelistUser",
      "outputs": [],
      "stateMutability": "nonpayable",
      "type": "function"
    },
    {
      "inputs": [],
      "name": "renounceOwnership",
      "outputs": [],
      "stateMutability": "nonpayable",
      "type": "function"
    },
    {
      "inputs": [
        {
          "internalType": "address",
          "name": "_to",
          "type": "address"
        },
        {
          "internalType": "uint256",
          "name": "_mintAmount",
          "type": "uint256"
        },
        {
          "internalType": "string",
          "name": "theURI",
          "type": "string"
        }
      ],
      "name": "safeMint",
      "outputs": [],
      "stateMutability": "payable",
      "type": "function"
    },
    {
      "inputs": [
        {
          "internalType": "address",
          "name": "_to",
          "type": "address"
        },
        {
          "internalType": "uint256",
          "name": "_mintAmount",
          "type": "uint256"
        },
        {
          "internalType": "string",
          "name": "theURI",
          "type": "string"
        },
        {
          "internalType": "uint256",
          "name": "smtxAmount",
          "type": "uint256"
        }
      ],
      "name": "safeMintViaSMTX",
      "outputs": [],
      "stateMutability": "payable",
      "type": "function"
    },
    {
      "inputs": [
        {
          "internalType": "address",
          "name": "_to",
          "type": "address"
        },
        {
          "internalType": "uint256",
          "name": "_mintAmount",
          "type": "uint256"
        },
        {
          "internalType": "string",
          "name": "theURI",
          "type": "string"
        },
        {
          "internalType": "uint256",
          "name": "usdcAmount",
          "type": "uint256"
        }
      ],
      "name": "safeMintViaUSDC",
      "outputs": [],
      "stateMutability": "payable",
      "type": "function"
    },
    {
      "inputs": [
        {
          "internalType": "address",
          "name": "from",
          "type": "address"
        },
        {
          "internalType": "address",
          "name": "to",
          "type": "address"
        },
        {
          "internalType": "uint256",
          "name": "tokenId",
          "type": "uint256"
        }
      ],
      "name": "safeTransferFrom",
      "outputs": [],
      "stateMutability": "nonpayable",
      "type": "function"
    },
    {
      "inputs": [
        {
          "internalType": "address",
          "name": "from",
          "type": "address"
        },
        {
          "internalType": "address",
          "name": "to",
          "type": "address"
        },
        {
          "internalType": "uint256",
          "name": "tokenId",
          "type": "uint256"
        },
        {
          "internalType": "bytes",
          "name": "data",
          "type": "bytes"
        }
      ],
      "name": "safeTransferFrom",
      "outputs": [],
      "stateMutability": "nonpayable",
      "type": "function"
    },
    {
      "inputs": [
        {
          "internalType": "address",
          "name": "operator",
          "type": "address"
        },
        {
          "internalType": "bool",
          "name": "approved",
          "type": "bool"
        }
      ],
      "name": "setApprovalForAll",
      "outputs": [],
      "stateMutability": "nonpayable",
      "type": "function"
    },
    {
      "inputs": [
        {
          "internalType": "uint256",
          "name": "_newCost",
          "type": "uint256"
        }
      ],
      "name": "setCost",
      "outputs": [],
      "stateMutability": "nonpayable",
      "type": "function"
    },
    {
      "inputs": [],
      "name": "smtx",
      "outputs": [
        {
          "internalType": "contract IERC20Upgradeable",
          "name": "",
          "type": "address"
        }
      ],
      "stateMutability": "view",
      "type": "function"
    },
    {
      "inputs": [],
      "name": "sumoAddress",
      "outputs": [
        {
          "internalType": "address",
          "name": "",
          "type": "address"
        }
      ],
      "stateMutability": "view",
      "type": "function"
    },
    {
      "inputs": [],
      "name": "sumoName",
      "outputs": [
        {
          "internalType": "string",
          "name": "",
          "type": "string"
        }
      ],
      "stateMutability": "view",
      "type": "function"
    },
    {
      "inputs": [
        {
          "internalType": "bytes4",
          "name": "interfaceId",
          "type": "bytes4"
        }
      ],
      "name": "supportsInterface",
      "outputs": [
        {
          "internalType": "bool",
          "name": "",
          "type": "bool"
        }
      ],
      "stateMutability": "view",
      "type": "function"
    },
    {
      "inputs": [],
      "name": "symbol",
      "outputs": [
        {
          "internalType": "string",
          "name": "",
          "type": "string"
        }
      ],
      "stateMutability": "view",
      "type": "function"
    },
    {
      "inputs": [
        {
          "internalType": "uint256",
          "name": "index",
          "type": "uint256"
        }
      ],
      "name": "tokenByIndex",
      "outputs": [
        {
          "internalType": "uint256",
          "name": "",
          "type": "uint256"
        }
      ],
      "stateMutability": "view",
      "type": "function"
    },
    {
      "inputs": [
        {
          "internalType": "address",
          "name": "owner",
          "type": "address"
        },
        {
          "internalType": "uint256",
          "name": "index",
          "type": "uint256"
        }
      ],
      "name": "tokenOfOwnerByIndex",
      "outputs": [
        {
          "internalType": "uint256",
          "name": "",
          "type": "uint256"
        }
      ],
      "stateMutability": "view",
      "type": "function"
    },
    {
      "inputs": [
        {
          "internalType": "uint256",
          "name": "tokenId",
          "type": "uint256"
        }
      ],
      "name": "tokenURI",
      "outputs": [
        {
          "internalType": "string",
          "name": "",
          "type": "string"
        }
      ],
      "stateMutability": "view",
      "type": "function"
    },
    {
      "inputs": [],
      "name": "totalSupply",
      "outputs": [
        {
          "internalType": "uint256",
          "name": "",
          "type": "uint256"
        }
      ],
      "stateMutability": "view",
      "type": "function"
    },
    {
      "inputs": [
        {
          "internalType": "address",
          "name": "from",
          "type": "address"
        },
        {
          "internalType": "address",
          "name": "to",
          "type": "address"
        },
        {
          "internalType": "uint256",
          "name": "tokenId",
          "type": "uint256"
        }
      ],
      "name": "transferFrom",
      "outputs": [],
      "stateMutability": "nonpayable",
      "type": "function"
    },
    {
      "inputs": [
        {
          "internalType": "address",
          "name": "newOwner",
          "type": "address"
        }
      ],
      "name": "transferOwnership",
      "outputs": [],
      "stateMutability": "nonpayable",
      "type": "function"
    },
    {
      "inputs": [],
      "name": "unpause",
      "outputs": [],
      "stateMutability": "nonpayable",
      "type": "function"
    },
    {
      "inputs": [
        {
          "internalType": "string",
          "name": "_newAuditLink",
          "type": "string"
        }
      ],
      "name": "updateAuditedLink",
      "outputs": [],
      "stateMutability": "nonpayable",
      "type": "function"
    },
    {
      "inputs": [
        {
          "internalType": "address",
          "name": "_creatorAddress",
          "type": "address"
        }
      ],
      "name": "updateCreatorAdd",
      "outputs": [],
      "stateMutability": "nonpayable",
      "type": "function"
    },
    {
      "inputs": [
        {
          "internalType": "address",
          "name": "_managerAddress",
          "type": "address"
        }
      ],
      "name": "updateFundManagerAdd",
      "outputs": [],
      "stateMutability": "nonpayable",
      "type": "function"
    },
    {
      "inputs": [
        {
          "internalType": "string",
          "name": "_managerName",
          "type": "string"
        }
      ],
      "name": "updateFundManagerName",
      "outputs": [],
      "stateMutability": "nonpayable",
      "type": "function"
    },
    {
      "inputs": [
        {
          "internalType": "uint256",
          "name": "tokenId",
          "type": "uint256"
        },
        {
          "internalType": "string",
          "name": "_uri",
          "type": "string"
        }
      ],
      "name": "updateTokenURI",
      "outputs": [],
      "stateMutability": "nonpayable",
      "type": "function"
    },
    {
      "inputs": [
        {
          "internalType": "address",
          "name": "newImplementation",
          "type": "address"
        }
      ],
      "name": "upgradeTo",
      "outputs": [],
      "stateMutability": "nonpayable",
      "type": "function"
    },
    {
      "inputs": [
        {
          "internalType": "address",
          "name": "newImplementation",
          "type": "address"
        },
        {
          "internalType": "bytes",
          "name": "data",
          "type": "bytes"
        }
      ],
      "name": "upgradeToAndCall",
      "outputs": [],
      "stateMutability": "payable",
      "type": "function"
    },
    {
      "inputs": [],
      "name": "usdCost",
      "outputs": [
        {
          "internalType": "uint256",
          "name": "",
          "type": "uint256"
        }
      ],
      "stateMutability": "view",
      "type": "function"
    },
    {
      "inputs": [],
      "name": "usdc",
      "outputs": [
        {
          "internalType": "contract IERC20Upgradeable",
          "name": "",
          "type": "address"
        }
      ],
      "stateMutability": "view",
      "type": "function"
    },
    {
      "inputs": [
        {
          "internalType": "address",
          "name": "_user",
          "type": "address"
        }
      ],
      "name": "whitelistUser",
      "outputs": [],
      "stateMutability": "nonpayable",
      "type": "function"
    },
    {
      "inputs": [
        {
          "internalType": "address",
          "name": "",
          "type": "address"
        }
      ],
      "name": "whitelisted",
      "outputs": [
        {
          "internalType": "bool",
          "name": "",
          "type": "bool"
        }
      ],
      "stateMutability": "view",
      "type": "function"
    },
    {
      "inputs": [],
      "name": "withdraw",
      "outputs": [],
      "stateMutability": "payable",
      "type": "function"
    },
    {
      "inputs": [],
      "name": "withdrawAsFundManager",
      "outputs": [],
      "stateMutability": "payable",
      "type": "function"
    },
    {
      "inputs": [],
      "name": "x",
      "outputs": [
        {
          "internalType": "uint256",
          "name": "",
          "type": "uint256"
        }
      ],
      "stateMutability": "view",
      "type": "function"
    }
  ],
  "bytecode": "0x60a06040523060601b60805234801561001757600080fd5b5060805160601c613f32610052600039600081816112b5015281816112f501528181611492015281816114d201526119110152613f326000f3fe6080604052600436106103c35760003560e01c80635022faec116101f2578063a22cb4651161010d578063d936547e116100a0578063ec0b712e1161006f578063ec0b712e14610ac1578063f2fde38b14610ad6578063f7d48ebb14610af6578063fe4b84df14610b1757600080fd5b8063d936547e14610a11578063db12dccf14610a42578063e013b22414610a58578063e985e9c514610a7857600080fd5b8063b88d4fde116100dc578063b88d4fde146109a7578063c87b56dd146109c7578063cd279c7c146109e7578063d5abeb01146109fa57600080fd5b8063a22cb4651461092e578063a8f6c9131461094e578063a99a583c1461096f578063b138d5001461099057600080fd5b80636ec22722116101855780638da5cb5b116101545780638da5cb5b146108a3578063955c50a5146108c257806395d89b41146108e2578063a1bdc18b146108f757600080fd5b80636ec22722146105ab57806370a0823114610859578063715018a6146108795780638456cb591461088e57600080fd5b80636352211e116101c15780636352211e146107f857806364b507c4146108185780636ab5e3991461082d5780636c7113e41461084457600080fd5b80635022faec1461079757806352d1902d146107aa578063576168fc146107bf5780635c975abb146107e057600080fd5b80632a23d07d116102e25780633f4ba83a116102755780634a4c560d116102445780634a4c560d146107245780634e63d6cc146107445780634f1ef286146107645780634f6ccce71461077757600080fd5b80633f4ba83a146106af57806342842e0e146106c457806342966c68146106e457806344a0d68a1461070457600080fd5b806335328bf7116102b157806335328bf7146106535780633659cfe6146106665780633ccfd60b146106865780633e413bee1461068e57600080fd5b80632a23d07d146105cb5780632f745c59146105e257806330b2264e1461060257806330cc7ae01461063357600080fd5b806318160ddd1161035a578063239c70ae11610329578063239c70ae1461056c57806323b872dd1461058357806327430865146105a35780632800aa37146105ab57600080fd5b806318160ddd146104df57806318e97fd1146104f45780631f43f14b1461051457806321b6396a1461053557600080fd5b80630c55699c116103965780630c55699c14610479578063116ffdd61461049e57806313420e2e146104b357806313faede6146104c857600080fd5b806301ffc9a7146103c857806306fdde03146103fd578063081812fc1461041f578063095ea7b314610457575b600080fd5b3480156103d457600080fd5b506103e86103e3366004613a37565b610b37565b60405190151581526020015b60405180910390f35b34801561040957600080fd5b50610412610b48565b6040516103f49190613bc1565b34801561042b57600080fd5b5061043f61043a366004613aa2565b610bda565b6040516001600160a01b0390911681526020016103f4565b34801561046357600080fd5b50610477610472366004613928565b610c01565b005b34801561048557600080fd5b506104906102095481565b6040519081526020016103f4565b3480156104aa57600080fd5b50610412610d1c565b3480156104bf57600080fd5b50610412610dab565b3480156104d457600080fd5b506104906101fe5481565b3480156104eb57600080fd5b50609954610490565b34801561050057600080fd5b5061047761050f366004613aba565b610db9565b34801561052057600080fd5b506102085461043f906001600160a01b031681565b34801561054157600080fd5b5061043f610550366004613aa2565b600090815261020360205260409020546001600160a01b031690565b34801561057857600080fd5b506104906102025481565b34801561058f57600080fd5b5061047761059e366004613805565b610dcf565b610477610e01565b3480156105b757600080fd5b506104776105c63660046137b9565b610ee9565b3480156105d757600080fd5b506104906102005481565b3480156105ee57600080fd5b506104906105fd366004613928565b610f14565b34801561060e57600080fd5b506103e861061d3660046137b9565b6102056020526000908152604090205460ff1681565b34801561063f57600080fd5b5061047761064e3660046137b9565b610faa565b6104776106613660046139a6565b610fd4565b34801561067257600080fd5b506104776106813660046137b9565b6112aa565b610477611387565b34801561069a57600080fd5b506102075461043f906001600160a01b031681565b3480156106bb57600080fd5b5061047761138f565b3480156106d057600080fd5b506104776106df366004613805565b6113a1565b3480156106f057600080fd5b506104776106ff366004613aa2565b6113bc565b34801561071057600080fd5b5061047761071f366004613aa2565b611430565b34801561073057600080fd5b5061047761073f3660046137b9565b61143e565b34801561075057600080fd5b5061047761075f366004613a6f565b61146b565b6104776107723660046138dc565b611487565b34801561078357600080fd5b50610490610792366004613aa2565b611554565b6104776107a53660046139a6565b6115f5565b3480156107b657600080fd5b50610490611904565b3480156107cb57600080fd5b506101f95461043f906001600160a01b031681565b3480156107ec57600080fd5b5060fb5460ff166103e8565b34801561080457600080fd5b5061043f610813366004613aa2565b6119b7565b34801561082457600080fd5b50610412611a17565b34801561083957600080fd5b506104906101ff5481565b34801561085057600080fd5b50610412611a25565b34801561086557600080fd5b506104906108743660046137b9565b611a35565b34801561088557600080fd5b50610477611abb565b34801561089a57600080fd5b50610477611acd565b3480156108af57600080fd5b5061012d546001600160a01b031661043f565b3480156108ce57600080fd5b506104776108dd3660046137b9565b611add565b3480156108ee57600080fd5b50610412611b08565b34801561090357600080fd5b5061043f610912366004613aa2565b610203602052600090815260409020546001600160a01b031681565b34801561093a57600080fd5b506104776109493660046138a6565b611b17565b34801561095a57600080fd5b506102065461043f906001600160a01b031681565b34801561097b57600080fd5b506101f85461043f906001600160a01b031681565b34801561099c57600080fd5b506104906102015481565b3480156109b357600080fd5b506104776109c2366004613840565b611b22565b3480156109d357600080fd5b506104126109e2366004613aa2565b611b5a565b6104776109f5366004613951565b611b65565b348015610a0657600080fd5b506104906101f65481565b348015610a1d57600080fd5b506103e8610a2c3660046137b9565b6102046020526000908152604090205460ff1681565b348015610a4e57600080fd5b506101ff54610490565b348015610a6457600080fd5b50610477610a73366004613a6f565b611d5c565b348015610a8457600080fd5b506103e8610a933660046137d3565b6001600160a01b039182166000908152606a6020908152604080832093909416825291909152205460ff1690565b348015610acd57600080fd5b50610412611d78565b348015610ae257600080fd5b50610477610af13660046137b9565b611d86565b348015610b0257600080fd5b506101f75461043f906001600160a01b031681565b348015610b2357600080fd5b50610477610b32366004613aa2565b611dfc565b6000610b42826121ac565b92915050565b606060658054610b5790613de5565b80601f0160208091040260200160405190810160405280929190818152602001828054610b8390613de5565b8015610bd05780601f10610ba557610100808354040283529160200191610bd0565b820191906000526020600020905b815481529060010190602001808311610bb357829003601f168201915b5050505050905090565b6000610be5826121d1565b506000908152606960205260409020546001600160a01b031690565b6000610c0c826119b7565b9050806001600160a01b0316836001600160a01b03161415610c7f5760405162461bcd60e51b815260206004820152602160248201527f4552433732313a20617070726f76616c20746f2063757272656e74206f776e656044820152603960f91b60648201526084015b60405180910390fd5b336001600160a01b0382161480610c9b5750610c9b8133610a93565b610d0d5760405162461bcd60e51b815260206004820152603e60248201527f4552433732313a20617070726f76652063616c6c6572206973206e6f7420746f60448201527f6b656e206f776e6572206e6f7220617070726f76656420666f7220616c6c00006064820152608401610c76565b610d178383612230565b505050565b6101fc8054610d2a90613de5565b80601f0160208091040260200160405190810160405280929190818152602001828054610d5690613de5565b8015610da35780601f10610d7857610100808354040283529160200191610da3565b820191906000526020600020905b815481529060010190602001808311610d8657829003601f168201915b505050505081565b6101fd8054610d2a90613de5565b610dc161229e565b610dcb82826122f9565b5050565b610dda335b82612393565b610df65760405162461bcd60e51b8152600401610c7690613d09565b610d17838383612412565b6101f8546001600160a01b03163314610e5c5760405162461bcd60e51b815260206004820152601c60248201527f596f7520617265206e6f74207468652046756e64204d616e61676572000000006044820152606401610c76565b604051600090339047908381818185875af1925050503d8060008114610e9e576040519150601f19603f3d011682016040523d82523d6000602084013e610ea3565b606091505b5050905080610ee65760405162461bcd60e51b815260206004820152600f60248201526e11985a5b1d5c99481d1bc81cd95b99608a1b6044820152606401610c76565b50565b610ef161229e565b6101f780546001600160a01b0319166001600160a01b0392909216919091179055565b6000610f1f83611a35565b8210610f815760405162461bcd60e51b815260206004820152602b60248201527f455243373231456e756d657261626c653a206f776e657220696e646578206f7560448201526a74206f6620626f756e647360a81b6064820152608401610c76565b506001600160a01b03919091166000908152609760209081526040808320938352929052205490565b610fb261229e565b6001600160a01b0316600090815261020460205260409020805460ff19169055565b6000610fdf60995490565b905060008411610fee57600080fd5b6101f654610ffc8583613d57565b111561100757600080fd5b600061101c61012d546001600160a01b031690565b6001600160a01b0316336001600160a01b0316146112215761271061104986678ac7230489e80000613d83565b611054906096613d83565b61105e9190613d6f565b610208546101f8549192506001600160a01b03908116916323b872dd91339116846110898189613da2565b6110939190613da2565b6040518463ffffffff1660e01b81526004016110b193929190613b60565b602060405180830381600087803b1580156110cb57600080fd5b505af11580156110df573d6000803e3d6000fd5b505050506040513d601f19601f820116820180604052508101906111039190613a03565b50610208546101f7546040516323b872dd60e01b81526001600160a01b03928316926323b872dd9261113f923392909116908690600401613b60565b602060405180830381600087803b15801561115957600080fd5b505af115801561116d573d6000803e3d6000fd5b505050506040513d601f19601f820116820180604052508101906111919190613a03565b50610208546101f9546040516323b872dd60e01b81526001600160a01b03928316926323b872dd926111cd923392909116908690600401613b60565b602060405180830381600087803b1580156111e757600080fd5b505af11580156111fb573d6000803e3d6000fd5b505050506040513d601f19601f8201168201806040525081019061121f9190613a03565b505b60015b8581116112a15761123e876112398386613d57565b6125b9565b61125161124b8285613d57565b866122f9565b3361020360006112618487613d57565b8152602081019190915260400160002080546001600160a01b0319166001600160a01b03929092169190911790558061129981613e20565b915050611224565b50505050505050565b306001600160a01b037f00000000000000000000000000000000000000000000000000000000000000001614156112f35760405162461bcd60e51b8152600401610c7690613c26565b7f00000000000000000000000000000000000000000000000000000000000000006001600160a01b031661133c600080516020613eb6833981519152546001600160a01b031690565b6001600160a01b0316146113625760405162461bcd60e51b8152600401610c7690613c72565b61136b816125d3565b60408051600080825260208201909252610ee6918391906125db565b610e5c61229e565b61139761229e565b61139f612755565b565b610d1783838360405180602001604052806000815250611b22565b6113c533610dd4565b6114275760405162461bcd60e51b815260206004820152602d60248201527f4552433732313a2063616c6c6572206973206e6f7420746f6b656e206f776e6560448201526c1c881bdc88185c1c1c9bdd9959609a1b6064820152608401610c76565b610ee6816127a7565b61143861229e565b6101fe55565b61144661229e565b6001600160a01b0316600090815261020460205260409020805460ff19166001179055565b61147361229e565b8051610dcb906101fc906020840190613647565b306001600160a01b037f00000000000000000000000000000000000000000000000000000000000000001614156114d05760405162461bcd60e51b8152600401610c7690613c26565b7f00000000000000000000000000000000000000000000000000000000000000006001600160a01b0316611519600080516020613eb6833981519152546001600160a01b031690565b6001600160a01b03161461153f5760405162461bcd60e51b8152600401610c7690613c72565b611548826125d3565b610dcb828260016125db565b600061155f60995490565b82106115c25760405162461bcd60e51b815260206004820152602c60248201527f455243373231456e756d657261626c653a20676c6f62616c20696e646578206f60448201526b7574206f6620626f756e647360a01b6064820152608401610c76565b609982815481106115e357634e487b7160e01b600052603260045260246000fd5b90600052602060002001549050919050565b600061160060995490565b90506000841161160f57600080fd5b6101f65461161d8583613d57565b111561162857600080fd5b600061163d61012d546001600160a01b031690565b6001600160a01b0316336001600160a01b03161461188f576116628562989680613d83565b8310156116a75760405162461bcd60e51b8152602060048201526013602482015272125b9cdd59999a58da595b9d08105b5bdd5b9d606a1b6044820152606401610c76565b6127106116b78662989680613d83565b6116c2906096613d83565b6116cc9190613d6f565b610207546101f8549192506001600160a01b03908116916323b872dd91339116846116f78189613da2565b6117019190613da2565b6040518463ffffffff1660e01b815260040161171f93929190613b60565b602060405180830381600087803b15801561173957600080fd5b505af115801561174d573d6000803e3d6000fd5b505050506040513d601f19601f820116820180604052508101906117719190613a03565b50610207546101f7546040516323b872dd60e01b81526001600160a01b03928316926323b872dd926117ad923392909116908690600401613b60565b602060405180830381600087803b1580156117c757600080fd5b505af11580156117db573d6000803e3d6000fd5b505050506040513d601f19601f820116820180604052508101906117ff9190613a03565b50610207546101f9546040516323b872dd60e01b81526001600160a01b03928316926323b872dd9261183b923392909116908690600401613b60565b602060405180830381600087803b15801561185557600080fd5b505af1158015611869573d6000803e3d6000fd5b505050506040513d601f19601f8201168201806040525081019061188d9190613a03565b505b60015b8581116112a1576118a7876112398386613d57565b6118b461124b8285613d57565b3361020360006118c48487613d57565b8152602081019190915260400160002080546001600160a01b0319166001600160a01b0392909216919091179055806118fc81613e20565b915050611892565b6000306001600160a01b037f000000000000000000000000000000000000000000000000000000000000000016146119a45760405162461bcd60e51b815260206004820152603860248201527f555550535570677261646561626c653a206d757374206e6f742062652063616c60448201527f6c6564207468726f7567682064656c656761746563616c6c00000000000000006064820152608401610c76565b50600080516020613eb683398151915290565b6000818152606760205260408120546001600160a01b031680610b425760405162461bcd60e51b8152602060048201526018602482015277115490cdcc8c4e881a5b9d985b1a59081d1bdad95b88125160421b6044820152606401610c76565b6101fa8054610d2a90613de5565b60606101fc8054610b5790613de5565b60006001600160a01b038216611a9f5760405162461bcd60e51b815260206004820152602960248201527f4552433732313a2061646472657373207a65726f206973206e6f7420612076616044820152683634b21037bbb732b960b91b6064820152608401610c76565b506001600160a01b031660009081526068602052604090205490565b611ac361229e565b61139f60006127b0565b611ad561229e565b61139f612803565b611ae561229e565b6101f880546001600160a01b0319166001600160a01b0392909216919091179055565b606060668054610b5790613de5565b610dcb338383612840565b611b2c3383612393565b611b485760405162461bcd60e51b8152600401610c7690613d09565b611b548484848461290f565b50505050565b6060610b4282612942565b6000611b7060995490565b905060008311611b7f57600080fd5b6101f654611b8d8483613d57565b1115611b9857600080fd5b61012d546001600160a01b03163314611bff57826101fe54611bba9190613d83565b341015611bff5760405162461bcd60e51b8152602060048201526013602482015272125b9cdd59999a58da595b9d08185b5bdd5b9d606a1b6044820152606401610c76565b6000612710611c0f346096613d83565b611c199190613d6f565b905060015b848111611c9657611c33866112398386613d57565b611c46611c408285613d57565b856122f9565b336102036000611c568487613d57565b8152602081019190915260400160002080546001600160a01b0319166001600160a01b039290921691909117905580611c8e81613e20565b915050611c1e565b506101f7546040516000916001600160a01b03169083908381818185875af1925050503d8060008114611ce5576040519150601f19603f3d011682016040523d82523d6000602084013e611cea565b606091505b50506101f9546040519192506000916001600160a01b039091169084908381818185875af1925050503d8060008114611d3f576040519150601f19603f3d011682016040523d82523d6000602084013e611d44565b606091505b5050905081611d5257600080fd5b806112a157600080fd5b611d6461229e565b8051610dcb906101fd906020840190613647565b6101fb8054610d2a90613de5565b611d8e61229e565b6001600160a01b038116611df35760405162461bcd60e51b815260206004820152602660248201527f4f776e61626c653a206e6577206f776e657220697320746865207a65726f206160448201526564647265737360d01b6064820152608401610c76565b610ee6816127b0565b600054610100900460ff1615808015611e1c5750600054600160ff909116105b80611e365750303b158015611e36575060005460ff166001145b611e995760405162461bcd60e51b815260206004820152602e60248201527f496e697469616c697a61626c653a20636f6e747261637420697320616c72656160448201526d191e481a5b9a5d1a585b1a5e995960921b6064820152608401610c76565b6000805460ff191660011790558015611ebc576000805461ff0019166101001790555b6101f55460ff1615611f275760405162461bcd60e51b815260206004820152602e60248201527f436f6e747261637420696e7374616e63652068617320616c726561647920626560448201526d195b881a5b9a5d1a585b1a5e995960921b6064820152608401610c76565b6101f5805460ff19166001179055604080518082018252600c8082526b1194d50b521bdb595d995cdd60a21b6020808401829052845180860190955291845290830152611f7391612a4b565b611f7b612a7c565b611f83612a7c565b611f8b612aa3565b611f93612ad2565b611f9b612a7c565b611fa3612a7c565b610209829055662386f26fc100006101fe55600a6101ff556109c46101f6819055610202556101f780546001600160a01b031990811673a359f9524a4986b5dc180fedfac9c0ed941b0615179091556101f880548216734eb30b34381348ba5fcee47f65f93489e71c34521790556101f980549091167366975cf95cfd6b8744dbd13589afbc91b0bb9d3e1790556040805180820190915260138082527215509088141c9a5d985d1948131a5b5a5d1959606a1b602090920191825261206c916101fb91613647565b506040805180820190915260188082527f53554d4f4c41422050726976617465204c696d6974656420000000000000000060209092019182526120b2916101fa91613647565b506040805180820190915260188082527f486f6d65766573742050726976617465204c696d69746564000000000000000060209092019182526120f8916101fc91613647565b50604080516020810191829052600090819052612118916101fd91613647565b5061020780546001600160a01b03199081167307865c6e87b9f70255377e024ace6630c1eaa37f179091556102088054909116733c1e3b0ad165a4bb19aee73eaddc5919996d4e8b1790558015610dcb576000805461ff0019169055604051600181527f7f26b83ff96e1f2b6a682f133852f6798a09c465da95921460cefb38474024989060200160405180910390a15050565b60006001600160e01b0319821663780e9d6360e01b1480610b425750610b4282612b01565b6000818152606760205260409020546001600160a01b0316610ee65760405162461bcd60e51b8152602060048201526018602482015277115490cdcc8c4e881a5b9d985b1a59081d1bdad95b88125160421b6044820152606401610c76565b600081815260696020526040902080546001600160a01b0319166001600160a01b0384169081179091558190612265826119b7565b6001600160a01b03167f8c5be1e5ebec7d5bd14f71427d1e84f3dd0314c0f7b2291e5b200ac8c7c3b92560405160405180910390a45050565b61012d546001600160a01b0316331461139f5760405162461bcd60e51b815260206004820181905260248201527f4f776e61626c653a2063616c6c6572206973206e6f7420746865206f776e65726044820152606401610c76565b6000828152606760205260409020546001600160a01b03166123745760405162461bcd60e51b815260206004820152602e60248201527f45524337323155524953746f726167653a2055524920736574206f66206e6f6e60448201526d32bc34b9ba32b73a103a37b5b2b760911b6064820152608401610c76565b600082815260c9602090815260409091208251610d1792840190613647565b60008061239f836119b7565b9050806001600160a01b0316846001600160a01b031614806123e657506001600160a01b038082166000908152606a602090815260408083209388168352929052205460ff165b8061240a5750836001600160a01b03166123ff84610bda565b6001600160a01b0316145b949350505050565b826001600160a01b0316612425826119b7565b6001600160a01b0316146124895760405162461bcd60e51b815260206004820152602560248201527f4552433732313a207472616e736665722066726f6d20696e636f72726563742060448201526437bbb732b960d91b6064820152608401610c76565b6001600160a01b0382166124eb5760405162461bcd60e51b8152602060048201526024808201527f4552433732313a207472616e7366657220746f20746865207a65726f206164646044820152637265737360e01b6064820152608401610c76565b6124f6838383612b51565b612501600082612230565b6001600160a01b038316600090815260686020526040812080546001929061252a908490613da2565b90915550506001600160a01b0382166000908152606860205260408120805460019290612558908490613d57565b909155505060008181526067602052604080822080546001600160a01b0319166001600160a01b0386811691821790925591518493918716917fddf252ad1be2c89b69c2b068fc378daa952ba7f163c4a11628f55a4df523b3ef91a4505050565b610dcb828260405180602001604052806000815250612b64565b610ee661229e565b7f4910fdfa16fed3260ed0e7147f7cc6da11a60208b5b9406d12a635614ffd91435460ff161561260e57610d1783612b97565b826001600160a01b03166352d1902d6040518163ffffffff1660e01b815260040160206040518083038186803b15801561264757600080fd5b505afa925050508015612677575060408051601f3d908101601f1916820190925261267491810190613a1f565b60015b6126da5760405162461bcd60e51b815260206004820152602e60248201527f45524331393637557067726164653a206e657720696d706c656d656e7461746960448201526d6f6e206973206e6f74205555505360901b6064820152608401610c76565b600080516020613eb683398151915281146127495760405162461bcd60e51b815260206004820152602960248201527f45524331393637557067726164653a20756e737570706f727465642070726f786044820152681a58589b195555525160ba1b6064820152608401610c76565b50610d17838383612c33565b61275d612c58565b60fb805460ff191690557f5db9ee0a495bf2e6ff9c91a7834c1ba4fdd244a5e8aa4e537bd38aeae4b073aa335b6040516001600160a01b03909116815260200160405180910390a1565b610ee681612ca1565b61012d80546001600160a01b038381166001600160a01b0319831681179093556040519116919082907f8be0079c531659141344cd1fd0a4f28419497f9722a3daafe3b4186f6b6457e090600090a35050565b61280b612ce1565b60fb805460ff191660011790557f62e78cea01bee320cd4e420270b5ea74000d11b0c9f74754ebdbfc544b05a25861278a3390565b816001600160a01b0316836001600160a01b031614156128a25760405162461bcd60e51b815260206004820152601960248201527f4552433732313a20617070726f766520746f2063616c6c6572000000000000006044820152606401610c76565b6001600160a01b038381166000818152606a6020908152604080832094871680845294825291829020805460ff191686151590811790915591519182527f17307eab39ab6107e8899845ad3d59bd9653f200f220920489ca2b5937696c31910160405180910390a3505050565b61291a848484612412565b61292684848484612d27565b611b545760405162461bcd60e51b8152600401610c7690613bd4565b606061294d826121d1565b600082815260c960205260408120805461296690613de5565b80601f016020809104026020016040519081016040528092919081815260200182805461299290613de5565b80156129df5780601f106129b4576101008083540402835291602001916129df565b820191906000526020600020905b8154815290600101906020018083116129c257829003601f168201915b5050505050905060006129fd60408051602081019091526000815290565b9050805160001415612a10575092915050565b815115612a42578082604051602001612a2a929190613b31565b60405160208183030381529060405292505050919050565b61240a84612e34565b600054610100900460ff16612a725760405162461bcd60e51b8152600401610c7690613cbe565b610dcb8282612ea8565b600054610100900460ff1661139f5760405162461bcd60e51b8152600401610c7690613cbe565b600054610100900460ff16612aca5760405162461bcd60e51b8152600401610c7690613cbe565b61139f612ef6565b600054610100900460ff16612af95760405162461bcd60e51b8152600401610c7690613cbe565b61139f612f29565b60006001600160e01b031982166380ac58cd60e01b1480612b3257506001600160e01b03198216635b5e139f60e01b145b80610b4257506301ffc9a760e01b6001600160e01b0319831614610b42565b612b59612ce1565b610d17838383612f59565b612b6e8383613011565b612b7b6000848484612d27565b610d175760405162461bcd60e51b8152600401610c7690613bd4565b6001600160a01b0381163b612c045760405162461bcd60e51b815260206004820152602d60248201527f455243313936373a206e657720696d706c656d656e746174696f6e206973206e60448201526c1bdd08184818dbdb9d1c9858dd609a1b6064820152608401610c76565b600080516020613eb683398151915280546001600160a01b0319166001600160a01b0392909216919091179055565b612c3c8361315f565b600082511180612c495750805b15610d1757611b54838361319f565b60fb5460ff1661139f5760405162461bcd60e51b815260206004820152601460248201527314185d5cd8589b194e881b9bdd081c185d5cd95960621b6044820152606401610c76565b612caa81613293565b600081815260c9602052604090208054612cc390613de5565b159050610ee657600081815260c960205260408120610ee6916136cb565b60fb5460ff161561139f5760405162461bcd60e51b815260206004820152601060248201526f14185d5cd8589b194e881c185d5cd95960821b6044820152606401610c76565b60006001600160a01b0384163b15612e2957604051630a85bd0160e11b81526001600160a01b0385169063150b7a0290612d6b903390899088908890600401613b84565b602060405180830381600087803b158015612d8557600080fd5b505af1925050508015612db5575060408051601f3d908101601f19168201909252612db291810190613a53565b60015b612e0f573d808015612de3576040519150601f19603f3d011682016040523d82523d6000602084013e612de8565b606091505b508051612e075760405162461bcd60e51b8152600401610c7690613bd4565b805181602001fd5b6001600160e01b031916630a85bd0160e11b14905061240a565b506001949350505050565b6060612e3f826121d1565b6000612e5660408051602081019091526000815290565b90506000815111612e765760405180602001604052806000815250612ea1565b80612e808461333a565b604051602001612e91929190613b31565b6040516020818303038152906040525b9392505050565b600054610100900460ff16612ecf5760405162461bcd60e51b8152600401610c7690613cbe565b8151612ee2906065906020850190613647565b508051610d17906066906020840190613647565b600054610100900460ff16612f1d5760405162461bcd60e51b8152600401610c7690613cbe565b60fb805460ff19169055565b600054610100900460ff16612f505760405162461bcd60e51b8152600401610c7690613cbe565b61139f336127b0565b6001600160a01b038316612fb457612faf81609980546000838152609a60205260408120829055600182018355919091527f72a152ddfb8e864297c917af52ea6c1c68aead0fee1a62673fcc7e0c94979d000155565b612fd7565b816001600160a01b0316836001600160a01b031614612fd757612fd78382613454565b6001600160a01b038216612fee57610d17816134f1565b826001600160a01b0316826001600160a01b031614610d1757610d1782826135ca565b6001600160a01b0382166130675760405162461bcd60e51b815260206004820181905260248201527f4552433732313a206d696e7420746f20746865207a65726f20616464726573736044820152606401610c76565b6000818152606760205260409020546001600160a01b0316156130cc5760405162461bcd60e51b815260206004820152601c60248201527f4552433732313a20746f6b656e20616c7265616479206d696e746564000000006044820152606401610c76565b6130d860008383612b51565b6001600160a01b0382166000908152606860205260408120805460019290613101908490613d57565b909155505060008181526067602052604080822080546001600160a01b0319166001600160a01b03861690811790915590518392907fddf252ad1be2c89b69c2b068fc378daa952ba7f163c4a11628f55a4df523b3ef908290a45050565b61316881612b97565b6040516001600160a01b038216907fbc7cd75a20ee27fd9adebab32041f755214dbc6bffa90cc0225b39da2e5c2d3b90600090a250565b60606001600160a01b0383163b6132075760405162461bcd60e51b815260206004820152602660248201527f416464726573733a2064656c65676174652063616c6c20746f206e6f6e2d636f6044820152651b9d1c9858dd60d21b6064820152608401610c76565b600080846001600160a01b0316846040516132229190613b15565b600060405180830381855af49150503d806000811461325d576040519150601f19603f3d011682016040523d82523d6000602084013e613262565b606091505b509150915061328a8282604051806060016040528060278152602001613ed66027913961360e565b95945050505050565b600061329e826119b7565b90506132ac81600084612b51565b6132b7600083612230565b6001600160a01b03811660009081526068602052604081208054600192906132e0908490613da2565b909155505060008281526067602052604080822080546001600160a01b0319169055518391906001600160a01b038416907fddf252ad1be2c89b69c2b068fc378daa952ba7f163c4a11628f55a4df523b3ef908390a45050565b60608161335e5750506040805180820190915260018152600360fc1b602082015290565b8160005b8115613388578061337281613e20565b91506133819050600a83613d6f565b9150613362565b60008167ffffffffffffffff8111156133b157634e487b7160e01b600052604160045260246000fd5b6040519080825280601f01601f1916602001820160405280156133db576020820181803683370190505b5090505b841561240a576133f0600183613da2565b91506133fd600a86613e3b565b613408906030613d57565b60f81b81838151811061342b57634e487b7160e01b600052603260045260246000fd5b60200101906001600160f81b031916908160001a90535061344d600a86613d6f565b94506133df565b6000600161346184611a35565b61346b9190613da2565b6000838152609860205260409020549091508082146134be576001600160a01b03841660009081526097602090815260408083208584528252808320548484528184208190558352609890915290208190555b5060009182526098602090815260408084208490556001600160a01b039094168352609781528383209183525290812055565b60995460009061350390600190613da2565b6000838152609a60205260408120546099805493945090928490811061353957634e487b7160e01b600052603260045260246000fd5b90600052602060002001549050806099838154811061356857634e487b7160e01b600052603260045260246000fd5b6000918252602080832090910192909255828152609a909152604080822084905585825281205560998054806135ae57634e487b7160e01b600052603160045260246000fd5b6001900381819060005260206000200160009055905550505050565b60006135d583611a35565b6001600160a01b039093166000908152609760209081526040808320868452825280832085905593825260989052919091209190915550565b6060831561361d575081612ea1565b82511561362d5782518084602001fd5b8160405162461bcd60e51b8152600401610c769190613bc1565b82805461365390613de5565b90600052602060002090601f01602090048101928261367557600085556136bb565b82601f1061368e57805160ff19168380011785556136bb565b828001600101855582156136bb579182015b828111156136bb5782518255916020019190600101906136a0565b506136c7929150613701565b5090565b5080546136d790613de5565b6000825580601f106136e7575050565b601f016020900490600052602060002090810190610ee691905b5b808211156136c75760008155600101613702565b80356001600160a01b038116811461372d57600080fd5b919050565b600082601f830112613742578081fd5b813567ffffffffffffffff8082111561375d5761375d613e7b565b604051601f8301601f19908116603f0116810190828211818310171561378557613785613e7b565b8160405283815286602085880101111561379d578485fd5b8360208701602083013792830160200193909352509392505050565b6000602082840312156137ca578081fd5b612ea182613716565b600080604083850312156137e5578081fd5b6137ee83613716565b91506137fc60208401613716565b90509250929050565b600080600060608486031215613819578081fd5b61382284613716565b925061383060208501613716565b9150604084013590509250925092565b60008060008060808587031215613855578081fd5b61385e85613716565b935061386c60208601613716565b925060408501359150606085013567ffffffffffffffff81111561388e578182fd5b61389a87828801613732565b91505092959194509250565b600080604083850312156138b8578182fd5b6138c183613716565b915060208301356138d181613e91565b809150509250929050565b600080604083850312156138ee578182fd5b6138f783613716565b9150602083013567ffffffffffffffff811115613912578182fd5b61391e85828601613732565b9150509250929050565b6000806040838503121561393a578182fd5b61394383613716565b946020939093013593505050565b600080600060608486031215613965578283fd5b61396e84613716565b925060208401359150604084013567ffffffffffffffff811115613990578182fd5b61399c86828701613732565b9150509250925092565b600080600080608085870312156139bb578384fd5b6139c485613716565b935060208501359250604085013567ffffffffffffffff8111156139e6578283fd5b6139f287828801613732565b949793965093946060013593505050565b600060208284031215613a14578081fd5b8151612ea181613e91565b600060208284031215613a30578081fd5b5051919050565b600060208284031215613a48578081fd5b8135612ea181613e9f565b600060208284031215613a64578081fd5b8151612ea181613e9f565b600060208284031215613a80578081fd5b813567ffffffffffffffff811115613a96578182fd5b61240a84828501613732565b600060208284031215613ab3578081fd5b5035919050565b60008060408385031215613acc578182fd5b82359150602083013567ffffffffffffffff811115613912578182fd5b60008151808452613b01816020860160208601613db9565b601f01601f19169290920160200192915050565b60008251613b27818460208701613db9565b9190910192915050565b60008351613b43818460208801613db9565b835190830190613b57818360208801613db9565b01949350505050565b6001600160a01b039384168152919092166020820152604081019190915260600190565b6001600160a01b0385811682528416602082015260408101839052608060608201819052600090613bb790830184613ae9565b9695505050505050565b602081526000612ea16020830184613ae9565b60208082526032908201527f4552433732313a207472616e7366657220746f206e6f6e20455243373231526560408201527131b2b4bb32b91034b6b83632b6b2b73a32b960711b606082015260800190565b6020808252602c908201527f46756e6374696f6e206d7573742062652063616c6c6564207468726f7567682060408201526b19195b1959d85d1958d85b1b60a21b606082015260800190565b6020808252602c908201527f46756e6374696f6e206d7573742062652063616c6c6564207468726f7567682060408201526b6163746976652070726f787960a01b606082015260800190565b6020808252602b908201527f496e697469616c697a61626c653a20636f6e7472616374206973206e6f74206960408201526a6e697469616c697a696e6760a81b606082015260800190565b6020808252602e908201527f4552433732313a2063616c6c6572206973206e6f7420746f6b656e206f776e6560408201526d1c881b9bdc88185c1c1c9bdd995960921b606082015260800190565b60008219821115613d6a57613d6a613e4f565b500190565b600082613d7e57613d7e613e65565b500490565b6000816000190483118215151615613d9d57613d9d613e4f565b500290565b600082821015613db457613db4613e4f565b500390565b60005b83811015613dd4578181015183820152602001613dbc565b83811115611b545750506000910152565b600181811c90821680613df957607f821691505b60208210811415613e1a57634e487b7160e01b600052602260045260246000fd5b50919050565b6000600019821415613e3457613e34613e4f565b5060010190565b600082613e4a57613e4a613e65565b500690565b634e487b7160e01b600052601160045260246000fd5b634e487b7160e01b600052601260045260246000fd5b634e487b7160e01b600052604160045260246000fd5b8015158114610ee657600080fd5b6001600160e01b031981168114610ee657600080fdfe360894a13ba1a3210667c828492db98dca3e2076cc3735a920a3ca505d382bbc416464726573733a206c6f772d6c6576656c2064656c65676174652063616c6c206661696c6564a264697066735822122095cbdd0fc36af0afb6b55612b33ea9eac96d8e679ae45232a1850bccd102116e64736f6c63430008040033",
  "linkReferences": {},
  "deployedLinkReferences": {}
}