{
  "_format": "hh-sol-artifact-1",
  "contractName": "CrigenCoinFST",
  "sourceName": "contracts/FST-Token-Crigen.sol",
  "abi": [
    {
      "anonymous": false,
      "inputs": [
        {
          "indexed": true,
          "internalType": "address",
          "name": "owner",
          "type": "address"
        },
        {
          "indexed": true,
          "internalType": "address",
          "name": "spender",
          "type": "address"
        },
        {
          "indexed": false,
          "internalType": "uint256",
          "name": "value",
          "type": "uint256"
        }
      ],
      "name": "Approval",
      "type": "event"
    },
    {
      "anonymous": false,
      "inputs": [
        {
          "indexed": false,
          "internalType": "uint8",
          "name": "version",
          "type": "uint8"
        }
      ],
      "name": "Initialized",
      "type": "event"
    },
    {
      "anonymous": false,
      "inputs": [
        {
          "indexed": true,
          "internalType": "address",
          "name": "previousOwner",
          "type": "address"
        },
        {
          "indexed": true,
          "internalType": "address",
          "name": "newOwner",
          "type": "address"
        }
      ],
      "name": "OwnershipTransferred",
      "type": "event"
    },
    {
      "anonymous": false,
      "inputs": [
        {
          "indexed": false,
          "internalType": "address",
          "name": "account",
          "type": "address"
        }
      ],
      "name": "Paused",
      "type": "event"
    },
    {
      "anonymous": false,
      "inputs": [
        {
          "indexed": true,
          "internalType": "address",
          "name": "from",
          "type": "address"
        },
        {
          "indexed": true,
          "internalType": "address",
          "name": "to",
          "type": "address"
        },
        {
          "indexed": false,
          "internalType": "uint256",
          "name": "value",
          "type": "uint256"
        }
      ],
      "name": "Transfer",
      "type": "event"
    },
    {
      "anonymous": false,
      "inputs": [
        {
          "indexed": false,
          "internalType": "address",
          "name": "account",
          "type": "address"
        }
      ],
      "name": "Unpaused",
      "type": "event"
    },
    {
      "inputs": [
        {
          "internalType": "address",
          "name": "_blacklistUser",
          "type": "address"
        }
      ],
      "name": "addblackListUser",
      "outputs": [],
      "stateMutability": "nonpayable",
      "type": "function"
    },
    {
      "inputs": [
        {
          "internalType": "address",
          "name": "owner",
          "type": "address"
        },
        {
          "internalType": "address",
          "name": "spender",
          "type": "address"
        }
      ],
      "name": "allowance",
      "outputs": [
        {
          "internalType": "uint256",
          "name": "",
          "type": "uint256"
        }
      ],
      "stateMutability": "view",
      "type": "function"
    },
    {
      "inputs": [
        {
          "internalType": "address",
          "name": "spender",
          "type": "address"
        },
        {
          "internalType": "uint256",
          "name": "amount",
          "type": "uint256"
        }
      ],
      "name": "approve",
      "outputs": [
        {
          "internalType": "bool",
          "name": "",
          "type": "bool"
        }
      ],
      "stateMutability": "nonpayable",
      "type": "function"
    },
    {
      "inputs": [],
      "name": "auditLink",
      "outputs": [
        {
          "internalType": "string",
          "name": "",
          "type": "string"
        }
      ],
      "stateMutability": "view",
      "type": "function"
    },
    {
      "inputs": [
        {
          "internalType": "address",
          "name": "account",
          "type": "address"
        }
      ],
      "name": "balanceOf",
      "outputs": [
        {
          "internalType": "uint256",
          "name": "",
          "type": "uint256"
        }
      ],
      "stateMutability": "view",
      "type": "function"
    },
    {
      "inputs": [
        {
          "internalType": "address",
          "name": "",
          "type": "address"
        }
      ],
      "name": "blacklisted",
      "outputs": [
        {
          "internalType": "bool",
          "name": "",
          "type": "bool"
        }
      ],
      "stateMutability": "view",
      "type": "function"
    },
    {
      "inputs": [],
      "name": "decimals",
      "outputs": [
        {
          "internalType": "uint8",
          "name": "",
          "type": "uint8"
        }
      ],
      "stateMutability": "view",
      "type": "function"
    },
    {
      "inputs": [
        {
          "internalType": "address",
          "name": "spender",
          "type": "address"
        },
        {
          "internalType": "uint256",
          "name": "subtractedValue",
          "type": "uint256"
        }
      ],
      "name": "decreaseAllowance",
      "outputs": [
        {
          "internalType": "bool",
          "name": "",
          "type": "bool"
        }
      ],
      "stateMutability": "nonpayable",
      "type": "function"
    },
    {
      "inputs": [],
      "name": "erc20Contract",
      "outputs": [
        {
          "internalType": "contract IERC20Upgradeable",
          "name": "",
          "type": "address"
        }
      ],
      "stateMutability": "view",
      "type": "function"
    },
    {
      "inputs": [],
      "name": "fundManagerAddress",
      "outputs": [
        {
          "internalType": "address",
          "name": "",
          "type": "address"
        }
      ],
      "stateMutability": "view",
      "type": "function"
    },
    {
      "inputs": [],
      "name": "fundManagerName",
      "outputs": [
        {
          "internalType": "string",
          "name": "",
          "type": "string"
        }
      ],
      "stateMutability": "view",
      "type": "function"
    },
    {
      "inputs": [
        {
          "internalType": "address",
          "name": "_investorAddress",
          "type": "address"
        }
      ],
      "name": "getAgreements",
      "outputs": [
        {
          "components": [
            {
              "internalType": "string",
              "name": "link",
              "type": "string"
            },
            {
              "internalType": "uint256",
              "name": "tokenAmount",
              "type": "uint256"
            },
            {
              "internalType": "bool",
              "name": "holding",
              "type": "bool"
            }
          ],
          "internalType": "struct CrigenCoinFST.Agreement[]",
          "name": "",
          "type": "tuple[]"
        }
      ],
      "stateMutability": "view",
      "type": "function"
    },
    {
      "inputs": [],
      "name": "getFundManager",
      "outputs": [
        {
          "internalType": "string",
          "name": "theFundManager",
          "type": "string"
        }
      ],
      "stateMutability": "view",
      "type": "function"
    },
    {
      "inputs": [],
      "name": "getPartnerName",
      "outputs": [
        {
          "internalType": "string",
          "name": "thePartnerName",
          "type": "string"
        }
      ],
      "stateMutability": "view",
      "type": "function"
    },
    {
      "inputs": [
        {
          "internalType": "address",
          "name": "spender",
          "type": "address"
        },
        {
          "internalType": "uint256",
          "name": "addedValue",
          "type": "uint256"
        }
      ],
      "name": "increaseAllowance",
      "outputs": [
        {
          "internalType": "bool",
          "name": "",
          "type": "bool"
        }
      ],
      "stateMutability": "nonpayable",
      "type": "function"
    },
    {
      "inputs": [],
      "name": "initialSupply",
      "outputs": [
        {
          "internalType": "uint256",
          "name": "",
          "type": "uint256"
        }
      ],
      "stateMutability": "view",
      "type": "function"
    },
    {
      "inputs": [],
      "name": "initialize",
      "outputs": [],
      "stateMutability": "nonpayable",
      "type": "function"
    },
    {
      "inputs": [
        {
          "internalType": "address",
          "name": "",
          "type": "address"
        },
        {
          "internalType": "uint256",
          "name": "",
          "type": "uint256"
        }
      ],
      "name": "investorAgreement",
      "outputs": [
        {
          "internalType": "string",
          "name": "link",
          "type": "string"
        },
        {
          "internalType": "uint256",
          "name": "tokenAmount",
          "type": "uint256"
        },
        {
          "internalType": "bool",
          "name": "holding",
          "type": "bool"
        }
      ],
      "stateMutability": "view",
      "type": "function"
    },
    {
      "inputs": [
        {
          "internalType": "address",
          "name": "to",
          "type": "address"
        },
        {
          "internalType": "uint256",
          "name": "amount",
          "type": "uint256"
        }
      ],
      "name": "mint",
      "outputs": [],
      "stateMutability": "nonpayable",
      "type": "function"
    },
    {
      "inputs": [],
      "name": "name",
      "outputs": [
        {
          "internalType": "string",
          "name": "",
          "type": "string"
        }
      ],
      "stateMutability": "view",
      "type": "function"
    },
    {
      "inputs": [],
      "name": "owner",
      "outputs": [
        {
          "internalType": "address",
          "name": "",
          "type": "address"
        }
      ],
      "stateMutability": "view",
      "type": "function"
    },
    {
      "inputs": [],
      "name": "partnerAddress",
      "outputs": [
        {
          "internalType": "address",
          "name": "",
          "type": "address"
        }
      ],
      "stateMutability": "view",
      "type": "function"
    },
    {
      "inputs": [],
      "name": "partnerName",
      "outputs": [
        {
          "internalType": "string",
          "name": "",
          "type": "string"
        }
      ],
      "stateMutability": "view",
      "type": "function"
    },
    {
      "inputs": [],
      "name": "pause",
      "outputs": [],
      "stateMutability": "nonpayable",
      "type": "function"
    },
    {
      "inputs": [],
      "name": "paused",
      "outputs": [
        {
          "internalType": "bool",
          "name": "",
          "type": "bool"
        }
      ],
      "stateMutability": "view",
      "type": "function"
    },
    {
      "inputs": [
        {
          "internalType": "address",
          "name": "to",
          "type": "address"
        },
        {
          "internalType": "uint256",
          "name": "amount",
          "type": "uint256"
        },
        {
          "internalType": "string",
          "name": "_agreementLink",
          "type": "string"
        }
      ],
      "name": "purchaseWithETH",
      "outputs": [],
      "stateMutability": "payable",
      "type": "function"
    },
    {
      "inputs": [
        {
          "internalType": "address",
          "name": "to",
          "type": "address"
        },
        {
          "internalType": "uint256",
          "name": "_amount",
          "type": "uint256"
        },
        {
          "internalType": "uint256",
          "name": "smtxAmount",
          "type": "uint256"
        },
        {
          "internalType": "string",
          "name": "_agreementLink",
          "type": "string"
        }
      ],
      "name": "purchaseWithSMTX",
      "outputs": [],
      "stateMutability": "nonpayable",
      "type": "function"
    },
    {
      "inputs": [
        {
          "internalType": "address",
          "name": "to",
          "type": "address"
        },
        {
          "internalType": "uint256",
          "name": "_amount",
          "type": "uint256"
        },
        {
          "internalType": "uint256",
          "name": "usdcAmount",
          "type": "uint256"
        },
        {
          "internalType": "string",
          "name": "_agreementLink",
          "type": "string"
        }
      ],
      "name": "purchaseWithUSDC",
      "outputs": [],
      "stateMutability": "nonpayable",
      "type": "function"
    },
    {
      "inputs": [
        {
          "internalType": "address",
          "name": "_blacklistUser",
          "type": "address"
        }
      ],
      "name": "removeblackListUser",
      "outputs": [],
      "stateMutability": "nonpayable",
      "type": "function"
    },
    {
      "inputs": [],
      "name": "renounceOwnership",
      "outputs": [],
      "stateMutability": "nonpayable",
      "type": "function"
    },
    {
      "inputs": [
        {
          "internalType": "uint256",
          "name": "_tokenAmount",
          "type": "uint256"
        },
        {
          "internalType": "uint256",
          "name": "_amount",
          "type": "uint256"
        }
      ],
      "name": "sellToken",
      "outputs": [],
      "stateMutability": "nonpayable",
      "type": "function"
    },
    {
      "inputs": [],
      "name": "smtx",
      "outputs": [
        {
          "internalType": "contract IERC20Upgradeable",
          "name": "",
          "type": "address"
        }
      ],
      "stateMutability": "view",
      "type": "function"
    },
    {
      "inputs": [],
      "name": "sstToken",
      "outputs": [
        {
          "internalType": "address",
          "name": "",
          "type": "address"
        }
      ],
      "stateMutability": "view",
      "type": "function"
    },
    {
      "inputs": [],
      "name": "sumoAddress",
      "outputs": [
        {
          "internalType": "address",
          "name": "",
          "type": "address"
        }
      ],
      "stateMutability": "view",
      "type": "function"
    },
    {
      "inputs": [],
      "name": "sumoName",
      "outputs": [
        {
          "internalType": "string",
          "name": "",
          "type": "string"
        }
      ],
      "stateMutability": "view",
      "type": "function"
    },
    {
      "inputs": [],
      "name": "symbol",
      "outputs": [
        {
          "internalType": "string",
          "name": "",
          "type": "string"
        }
      ],
      "stateMutability": "view",
      "type": "function"
    },
    {
      "inputs": [],
      "name": "totalSupply",
      "outputs": [
        {
          "internalType": "uint256",
          "name": "",
          "type": "uint256"
        }
      ],
      "stateMutability": "view",
      "type": "function"
    },
    {
      "inputs": [
        {
          "internalType": "address",
          "name": "_to",
          "type": "address"
        },
        {
          "internalType": "uint256",
          "name": "_value",
          "type": "uint256"
        }
      ],
      "name": "transfer",
      "outputs": [
        {
          "internalType": "bool",
          "name": "",
          "type": "bool"
        }
      ],
      "stateMutability": "nonpayable",
      "type": "function"
    },
    {
      "inputs": [
        {
          "internalType": "address",
          "name": "from",
          "type": "address"
        },
        {
          "internalType": "address",
          "name": "to",
          "type": "address"
        },
        {
          "internalType": "uint256",
          "name": "amount",
          "type": "uint256"
        }
      ],
      "name": "transferFrom",
      "outputs": [
        {
          "internalType": "bool",
          "name": "",
          "type": "bool"
        }
      ],
      "stateMutability": "nonpayable",
      "type": "function"
    },
    {
      "inputs": [
        {
          "internalType": "address",
          "name": "newOwner",
          "type": "address"
        }
      ],
      "name": "transferOwnership",
      "outputs": [],
      "stateMutability": "nonpayable",
      "type": "function"
    },
    {
      "inputs": [],
      "name": "unpause",
      "outputs": [],
      "stateMutability": "nonpayable",
      "type": "function"
    },
    {
      "inputs": [
        {
          "internalType": "string",
          "name": "_newAuditLink",
          "type": "string"
        }
      ],
      "name": "updateAuditedLink",
      "outputs": [],
      "stateMutability": "nonpayable",
      "type": "function"
    },
    {
      "inputs": [
        {
          "internalType": "address",
          "name": "_managerAddress",
          "type": "address"
        }
      ],
      "name": "updateFundManagerAddress",
      "outputs": [],
      "stateMutability": "nonpayable",
      "type": "function"
    },
    {
      "inputs": [
        {
          "internalType": "string",
          "name": "_managerName",
          "type": "string"
        }
      ],
      "name": "updateFundManagerName",
      "outputs": [],
      "stateMutability": "nonpayable",
      "type": "function"
    },
    {
      "inputs": [
        {
          "internalType": "address",
          "name": "_partnerAddress",
          "type": "address"
        }
      ],
      "name": "updatePartnerAddress",
      "outputs": [],
      "stateMutability": "nonpayable",
      "type": "function"
    },
    {
      "inputs": [
        {
          "internalType": "string",
          "name": "_partnerName",
          "type": "string"
        }
      ],
      "name": "updatePartnerName",
      "outputs": [],
      "stateMutability": "nonpayable",
      "type": "function"
    },
    {
      "inputs": [
        {
          "internalType": "address",
          "name": "_smtxAddress",
          "type": "address"
        }
      ],
      "name": "updateSMTXAddress",
      "outputs": [],
      "stateMutability": "nonpayable",
      "type": "function"
    },
    {
      "inputs": [
        {
          "internalType": "string",
          "name": "_sumoname",
          "type": "string"
        }
      ],
      "name": "updateSumoName",
      "outputs": [],
      "stateMutability": "nonpayable",
      "type": "function"
    },
    {
      "inputs": [
        {
          "internalType": "address",
          "name": "_address",
          "type": "address"
        }
      ],
      "name": "updateSumoNameAddress",
      "outputs": [],
      "stateMutability": "nonpayable",
      "type": "function"
    },
    {
      "inputs": [
        {
          "internalType": "address",
          "name": "_usdcAddress",
          "type": "address"
        }
      ],
      "name": "updateUSDCAddress",
      "outputs": [],
      "stateMutability": "nonpayable",
      "type": "function"
    },
    {
      "inputs": [],
      "name": "usdCost",
      "outputs": [
        {
          "internalType": "uint256",
          "name": "",
          "type": "uint256"
        }
      ],
      "stateMutability": "view",
      "type": "function"
    },
    {
      "inputs": [],
      "name": "usdc",
      "outputs": [
        {
          "internalType": "contract IERC20Upgradeable",
          "name": "",
          "type": "address"
        }
      ],
      "stateMutability": "view",
      "type": "function"
    }
  ],
  "bytecode": "0x608060405234801561001057600080fd5b50612b51806100206000396000f3fe6080604052600436106102ff5760003560e01c8063715018a611610190578063a8f6c913116100dc578063dbac26e911610095578063ec0b712e1161006f578063ec0b712e146108dc578063f2fde38b146108f1578063f7d48ebb14610911578063fd76282b1461093157600080fd5b8063dbac26e91461086c578063dd62ed3e1461089c578063e013b224146108bc57600080fd5b8063a8f6c913146107c4578063a9059cbb146107e4578063a99a583c14610804578063d03d012914610824578063d7fb5f2c14610837578063d8c370321461085757600080fd5b806384ae2ed011610149578063939fa96a11610123578063939fa96a1461074f57806395d89b411461076f57806398771b6214610784578063a457c2d7146107a457600080fd5b806384ae2ed0146106f157806385946cbe146107115780638da5cb5b1461073157600080fd5b8063715018a6146106435780637d81c4c1146106585780637e73337714610678578063810a2c7e146106a75780638129fc1c146106c75780638456cb59146106dc57600080fd5b80633e413bee1161024f578063576168fc1161020857806364b507c4116101e257806364b507c4146105cd5780636ab5e399146105e25780636c7113e4146105f857806370a082311461060d57600080fd5b8063576168fc14610575578063597b0296146105955780635c975abb146105b557600080fd5b80633e413bee146104cb5780633f4ba83a146104eb57806340c10f191461050057806344a71fbb146105205780634d68ceb9146105405780634e63d6cc1461055557600080fd5b80631f43f14b116102bc578063313ce56711610296578063313ce5671461044d57806332c833c014610469578063378dc3dc1461049657806339509351146104ab57600080fd5b80631f43f14b146103d557806321d2c4921461040d57806323b872dd1461042d57600080fd5b806306fdde0314610304578063095ea7b31461032f5780630f331cc21461035f578063116ffdd61461038157806318160ddd146103965780631897bcf3146103b5575b600080fd5b34801561031057600080fd5b50610319610951565b60405161032691906128b1565b60405180910390f35b34801561033b57600080fd5b5061034f61034a366004612667565b6109e3565b6040519015158152602001610326565b34801561036b57600080fd5b5061037f61037a366004612764565b6109fd565b005b34801561038d57600080fd5b50610319610a1c565b3480156103a257600080fd5b5060cc545b604051908152602001610326565b3480156103c157600080fd5b5061037f6103d036600461279f565b610aaa565b3480156103e157600080fd5b5060d9546103f5906001600160a01b031681565b6040516001600160a01b039091168152602001610326565b34801561041957600080fd5b5061037f6104283660046125d9565b610b62565b34801561043957600080fd5b5061034f61044836600461262c565b610b8c565b34801561045957600080fd5b5060405160128152602001610326565b34801561047557600080fd5b506104896104843660046125d9565b610bed565b604051610326919061282f565b3480156104a257600080fd5b5060cd546103a7565b3480156104b757600080fd5b5061034f6104c6366004612667565b610d13565b3480156104d757600080fd5b5060d8546103f5906001600160a01b031681565b3480156104f757600080fd5b5061037f610d35565b34801561050c57600080fd5b5061037f61051b366004612667565b610d47565b34801561052c57600080fd5b5061037f61053b3660046125d9565b610d8f565b34801561054c57600080fd5b50610319610db9565b34801561056157600080fd5b5061037f610570366004612764565b610dc6565b34801561058157600080fd5b5060d0546103f5906001600160a01b031681565b3480156105a157600080fd5b5061037f6105b03660046126e5565b610de1565b3480156105c157600080fd5b5060975460ff1661034f565b3480156105d957600080fd5b50610319611089565b3480156105ee57600080fd5b506103a760d65481565b34801561060457600080fd5b50610319611096565b34801561061957600080fd5b506103a76106283660046125d9565b6001600160a01b031660009081526033602052604090205490565b34801561064f57600080fd5b5061037f6110a5565b34801561066457600080fd5b5061037f6106733660046125d9565b6110b7565b34801561068457600080fd5b50610698610693366004612667565b6110e1565b604051610326939291906128c4565b3480156106b357600080fd5b5061037f6106c23660046125d9565b6111b4565b3480156106d357600080fd5b5061037f6111e8565b3480156106e857600080fd5b5061037f6114c0565b3480156106fd57600080fd5b5061037f61070c366004612764565b6114d0565b34801561071d57600080fd5b5061037f61072c3660046126e5565b6114eb565b34801561073d57600080fd5b506065546001600160a01b03166103f5565b34801561075b57600080fd5b5061037f61076a3660046125d9565b611797565b34801561077b57600080fd5b506103196117c1565b34801561079057600080fd5b5060d1546103f5906001600160a01b031681565b3480156107b057600080fd5b5061034f6107bf366004612667565b6117d0565b3480156107d057600080fd5b5060d7546103f5906001600160a01b031681565b3480156107f057600080fd5b5061034f6107ff366004612667565b61184b565b34801561081057600080fd5b5060cf546103f5906001600160a01b031681565b61037f610832366004612690565b611896565b34801561084357600080fd5b5061037f6108523660046125d9565b611ac9565b34801561086357600080fd5b50610319611afa565b34801561087857600080fd5b5061034f6108873660046125d9565b60db6020526000908152604090205460ff1681565b3480156108a857600080fd5b506103a76108b73660046125fa565b611b09565b3480156108c857600080fd5b5061037f6108d7366004612764565b611b34565b3480156108e857600080fd5b50610319611b4f565b3480156108fd57600080fd5b5061037f61090c3660046125d9565b611b5c565b34801561091d57600080fd5b5060ce546103f5906001600160a01b031681565b34801561093d57600080fd5b5061037f61094c3660046125d9565b611bd2565b60606036805461096090612a92565b80601f016020809104026020016040519081016040528092919081815260200182805461098c90612a92565b80156109d95780601f106109ae576101008083540402835291602001916109d9565b820191906000526020600020905b8154815290600101906020018083116109bc57829003601f168201915b5050505050905090565b6000336109f1818585611bfc565b60019150505b92915050565b610a05611d21565b8051610a189060d290602084019061249d565b5050565b60d48054610a2990612a92565b80601f0160208091040260200160405190810160405280929190818152602001828054610a5590612a92565b8015610aa25780601f10610a7757610100808354040283529160200191610aa2565b820191906000526020600020905b815481529060010190602001808311610a8557829003601f168201915b505050505081565b610ab2611d7b565b60d85460cf546040516323b872dd60e01b81526001600160a01b03928316926323b872dd92610aea929116903390869060040161280b565b602060405180830381600087803b158015610b0457600080fd5b505af1158015610b18573d6000803e3d6000fd5b505050506040513d601f19601f82011682018060405250810190610b3c9190612744565b50610b473383611dc1565b8160cd6000828254610b599190612a7b565b90915550505050565b610b6a611d21565b60ce80546001600160a01b0319166001600160a01b0392909216919091179055565b6000610b96611d7b565b336001600160a01b038416610baa57600080fd5b33600090815260db602052604090205460ff16151560011415610bcc57600080fd5b610bd7858285611f0c565b610be2858585611f86565b506001949350505050565b6001600160a01b038116600090815260da60209081526040808320805482518185028101850190935280835260609492939192909184015b82821015610d085783829060005260206000209060030201604051806060016040529081600082018054610c5890612a92565b80601f0160208091040260200160405190810160405280929190818152602001828054610c8490612a92565b8015610cd15780601f10610ca657610100808354040283529160200191610cd1565b820191906000526020600020905b815481529060010190602001808311610cb457829003601f168201915b505050918352505060018281015460208084019190915260029093015460ff16151560409092019190915291835292019101610c25565b505050509050919050565b6000336109f1818585610d268383611b09565b610d309190612939565b611bfc565b610d3d611d21565b610d45612154565b565b610d4f611d7b565b610d57611d21565b60cc548160cd54610d689190612939565b1115610d7357600080fd5b610d7d82826121a6565b8060cd6000828254610b599190612939565b610d97611d21565b60d080546001600160a01b0319166001600160a01b0392909216919091179055565b60d58054610a2990612a92565b610dce611d21565b8051610a189060d490602084019061249d565b610de9611d7b565b60cc548360cd54610dfa9190612939565b1115610e0557600080fd5b6000612710610e15856096612a5c565b610e1f9190612951565b60d95460cf549192506001600160a01b03908116916323b872dd9133911684610e488189612a7b565b610e529190612a7b565b6040518463ffffffff1660e01b8152600401610e709392919061280b565b602060405180830381600087803b158015610e8a57600080fd5b505af1158015610e9e573d6000803e3d6000fd5b505050506040513d601f19601f82011682018060405250810190610ec29190612744565b5060d95460ce546040516323b872dd60e01b81526001600160a01b03928316926323b872dd92610efc92339290911690869060040161280b565b602060405180830381600087803b158015610f1657600080fd5b505af1158015610f2a573d6000803e3d6000fd5b505050506040513d601f19601f82011682018060405250810190610f4e9190612744565b5060d95460d0546040516323b872dd60e01b81526001600160a01b03928316926323b872dd92610f8892339290911690869060040161280b565b602060405180830381600087803b158015610fa257600080fd5b505af1158015610fb6573d6000803e3d6000fd5b505050506040513d601f19601f82011682018060405250810190610fda9190612744565b50610fe585856121a6565b8360cd6000828254610ff79190612939565b909155505060408051606081018252838152602080820187905260018284018190526001600160a01b038916600090815260da835293842080549182018155845292819020825180519394859460039091029092019261105c9284929091019061249d565b50602082015160018201556040909101516002909101805460ff1916911515919091179055505050505050565b60d28054610a2990612a92565b606060d4805461096090612a92565b6110ad611d21565b610d456000612285565b6110bf611d21565b60d880546001600160a01b0319166001600160a01b0392909216919091179055565b60da60205281600052604060002081815481106110fd57600080fd5b90600052602060002090600302016000915091505080600001805461112190612a92565b80601f016020809104026020016040519081016040528092919081815260200182805461114d90612a92565b801561119a5780601f1061116f5761010080835404028352916020019161119a565b820191906000526020600020905b81548152906001019060200180831161117d57829003601f168201915b50505050600183015460029093015491929160ff16905083565b6111bc611d7b565b6111c4611d21565b6001600160a01b0316600090815260db60205260409020805460ff19166001179055565b600054610100900460ff16158080156112085750600054600160ff909116105b806112225750303b158015611222575060005460ff166001145b61128a5760405162461bcd60e51b815260206004820152602e60248201527f496e697469616c697a61626c653a20636f6e747261637420697320616c72656160448201526d191e481a5b9a5d1a585b1a5e995960921b60648201526084015b60405180910390fd5b6000805460ff1916600117905580156112ad576000805461ff0019166101001790555b6112fa604051806040016040528060138152602001722230b730b4902bb2b6363732b9b99021b7b4b760691b815250604051806060016040528060228152602001612afa602291396122d7565b611302612308565b61130a612337565b6113166012600a6129b4565b6113239062055730612a5c565b60cc5560d880546001600160a01b031990811673a0b86991c6218b36c1d19d4a2e9eb0ce3606eb481790915560d98054821673102203517ce35ac5cab9a2cda80df03f26c7419b17905560ce8054821673a6f49c590a8e1afbebf5c245e1768435c7718bf617905560cf80548216733655c868cafa3aa97803cc0aded6419a5eeb4ab290811790915560d0805490921617905560408051808201909152601b8082527f55424220496e766573746d656e742042616e6b204c696d69746564000000000060209092019182526113fa9160d39161249d565b506040805180820190915260078082526629bab6b7b630b160c91b60209092019182526114299160d29161249d565b50604051806060016040528060228152602001612afa6022913980516114579160d49160209091019061249d565b506040805160208101918290526000908190526114769160d59161249d565b5080156114bd576000805461ff0019169055604051600181527f7f26b83ff96e1f2b6a682f133852f6798a09c465da95921460cefb38474024989060200160405180910390a15b50565b6114c8611d21565b610d45612366565b6114d8611d21565b8051610a189060d390602084019061249d565b6114f3611d7b565b60cc548360cd546115049190612939565b111561150f57600080fd5b600061271061151f846096612a5c565b6115299190612951565b90506000816115388186612a7b565b6115429190612a7b565b60d85460cf546040516323b872dd60e01b81529293506001600160a01b03918216926323b872dd9261157d923392911690869060040161280b565b602060405180830381600087803b15801561159757600080fd5b505af11580156115ab573d6000803e3d6000fd5b505050506040513d601f19601f820116820180604052508101906115cf9190612744565b5060d85460ce546040516323b872dd60e01b81526001600160a01b03928316926323b872dd9261160992339290911690879060040161280b565b602060405180830381600087803b15801561162357600080fd5b505af1158015611637573d6000803e3d6000fd5b505050506040513d601f19601f8201168201806040525081019061165b9190612744565b5060d85460d0546040516323b872dd60e01b81526001600160a01b03928316926323b872dd9261169592339290911690879060040161280b565b602060405180830381600087803b1580156116af57600080fd5b505af11580156116c3573d6000803e3d6000fd5b505050506040513d601f19601f820116820180604052508101906116e79190612744565b506116f286866121a6565b8460cd60008282546117049190612939565b909155505060408051606081018252848152602080820188905260018284018190526001600160a01b038a16600090815260da83529384208054918201815584529281902082518051939485946003909102909201926117699284929091019061249d565b50602082015160018201556040909101516002909101805460ff191691151591909117905550505050505050565b61179f611d21565b60d980546001600160a01b0319166001600160a01b0392909216919091179055565b60606037805461096090612a92565b600033816117de8286611b09565b90508381101561183e5760405162461bcd60e51b815260206004820152602560248201527f45524332303a2064656372656173656420616c6c6f77616e63652062656c6f77604482015264207a65726f60d81b6064820152608401611281565b610be28286868403611bfc565b6000611855611d7b565b6001600160a01b03831661186857600080fd5b33600090815260db602052604090205460ff1615156001141561188a57600080fd5b336109f1818585611f86565b61189e611d7b565b60cc548260cd546118af9190612939565b11156118ba57600080fd5b60006127106118ca346096612a5c565b6118d49190612951565b90506118e084846121a6565b8260cd60008282546118f29190612939565b909155505060408051606081018252838152602080820186905260018284018190526001600160a01b038816600090815260da83529384208054918201815584529281902082518051939485946003909102909201926119579284929091019061249d565b50602082015160018201556040909101516002909101805460ff19169115159190911790556000826119898134612a7b565b6119939190612a7b565b60ce546040519192506000916001600160a01b039091169085908381818185875af1925050503d80600081146119e5576040519150601f19603f3d011682016040523d82523d6000602084013e6119ea565b606091505b505060d0546040519192506000916001600160a01b039091169086908381818185875af1925050503d8060008114611a3e576040519150601f19603f3d011682016040523d82523d6000602084013e611a43565b606091505b505060cf546040519192506000916001600160a01b039091169085908381818185875af1925050503d8060008114611a97576040519150601f19603f3d011682016040523d82523d6000602084013e611a9c565b606091505b5050905082611aaa57600080fd5b81611ab457600080fd5b80611abe57600080fd5b505050505050505050565b611ad1611d7b565b611ad9611d21565b6001600160a01b0316600090815260db60205260409020805460ff19169055565b606060d3805461096090612a92565b6001600160a01b03918216600090815260346020908152604080832093909416825291909152205490565b611b3c611d21565b8051610a189060d590602084019061249d565b60d38054610a2990612a92565b611b64611d21565b6001600160a01b038116611bc95760405162461bcd60e51b815260206004820152602660248201527f4f776e61626c653a206e6577206f776e657220697320746865207a65726f206160448201526564647265737360d01b6064820152608401611281565b6114bd81612285565b611bda611d21565b60cf80546001600160a01b0319166001600160a01b0392909216919091179055565b6001600160a01b038316611c5e5760405162461bcd60e51b8152602060048201526024808201527f45524332303a20617070726f76652066726f6d20746865207a65726f206164646044820152637265737360e01b6064820152608401611281565b6001600160a01b038216611cbf5760405162461bcd60e51b815260206004820152602260248201527f45524332303a20617070726f766520746f20746865207a65726f206164647265604482015261737360f01b6064820152608401611281565b6001600160a01b0383811660008181526034602090815260408083209487168084529482529182902085905590518481527f8c5be1e5ebec7d5bd14f71427d1e84f3dd0314c0f7b2291e5b200ac8c7c3b92591015b60405180910390a3505050565b6065546001600160a01b03163314610d455760405162461bcd60e51b815260206004820181905260248201527f4f776e61626c653a2063616c6c6572206973206e6f7420746865206f776e65726044820152606401611281565b60975460ff1615610d455760405162461bcd60e51b815260206004820152601060248201526f14185d5cd8589b194e881c185d5cd95960821b6044820152606401611281565b6001600160a01b038216611e215760405162461bcd60e51b815260206004820152602160248201527f45524332303a206275726e2066726f6d20746865207a65726f206164647265736044820152607360f81b6064820152608401611281565b6001600160a01b03821660009081526033602052604090205481811015611e955760405162461bcd60e51b815260206004820152602260248201527f45524332303a206275726e20616d6f756e7420657863656564732062616c616e604482015261636560f01b6064820152608401611281565b6001600160a01b0383166000908152603360205260408120838303905560358054849290611ec4908490612a7b565b90915550506040518281526000906001600160a01b038516907fddf252ad1be2c89b69c2b068fc378daa952ba7f163c4a11628f55a4df523b3ef90602001611d14565b505050565b6000611f188484611b09565b90506000198114611f805781811015611f735760405162461bcd60e51b815260206004820152601d60248201527f45524332303a20696e73756666696369656e7420616c6c6f77616e63650000006044820152606401611281565b611f808484848403611bfc565b50505050565b6001600160a01b038316611fea5760405162461bcd60e51b815260206004820152602560248201527f45524332303a207472616e736665722066726f6d20746865207a65726f206164604482015264647265737360d81b6064820152608401611281565b6001600160a01b03821661204c5760405162461bcd60e51b815260206004820152602360248201527f45524332303a207472616e7366657220746f20746865207a65726f206164647260448201526265737360e81b6064820152608401611281565b6001600160a01b038316600090815260336020526040902054818110156120c45760405162461bcd60e51b815260206004820152602660248201527f45524332303a207472616e7366657220616d6f756e7420657863656564732062604482015265616c616e636560d01b6064820152608401611281565b6001600160a01b038085166000908152603360205260408082208585039055918516815290812080548492906120fb908490612939565b92505081905550826001600160a01b0316846001600160a01b03167fddf252ad1be2c89b69c2b068fc378daa952ba7f163c4a11628f55a4df523b3ef8460405161214791815260200190565b60405180910390a3611f80565b61215c6123a3565b6097805460ff191690557f5db9ee0a495bf2e6ff9c91a7834c1ba4fdd244a5e8aa4e537bd38aeae4b073aa335b6040516001600160a01b03909116815260200160405180910390a1565b6001600160a01b0382166121fc5760405162461bcd60e51b815260206004820152601f60248201527f45524332303a206d696e7420746f20746865207a65726f2061646472657373006044820152606401611281565b806035600082825461220e9190612939565b90915550506001600160a01b0382166000908152603360205260408120805483929061223b908490612939565b90915550506040518181526001600160a01b038316906000907fddf252ad1be2c89b69c2b068fc378daa952ba7f163c4a11628f55a4df523b3ef9060200160405180910390a35050565b606580546001600160a01b038381166001600160a01b0319831681179093556040519116919082907f8be0079c531659141344cd1fd0a4f28419497f9722a3daafe3b4186f6b6457e090600090a35050565b600054610100900460ff166122fe5760405162461bcd60e51b8152600401611281906128ee565b610a1882826123ec565b600054610100900460ff1661232f5760405162461bcd60e51b8152600401611281906128ee565b610d4561243a565b600054610100900460ff1661235e5760405162461bcd60e51b8152600401611281906128ee565b610d4561246a565b61236e611d7b565b6097805460ff191660011790557f62e78cea01bee320cd4e420270b5ea74000d11b0c9f74754ebdbfc544b05a2586121893390565b60975460ff16610d455760405162461bcd60e51b815260206004820152601460248201527314185d5cd8589b194e881b9bdd081c185d5cd95960621b6044820152606401611281565b600054610100900460ff166124135760405162461bcd60e51b8152600401611281906128ee565b815161242690603690602085019061249d565b508051611f0790603790602084019061249d565b600054610100900460ff166124615760405162461bcd60e51b8152600401611281906128ee565b610d4533612285565b600054610100900460ff166124915760405162461bcd60e51b8152600401611281906128ee565b6097805460ff19169055565b8280546124a990612a92565b90600052602060002090601f0160209004810192826124cb5760008555612511565b82601f106124e457805160ff1916838001178555612511565b82800160010185558215612511579182015b828111156125115782518255916020019190600101906124f6565b5061251d929150612521565b5090565b5b8082111561251d5760008155600101612522565b80356001600160a01b038116811461254d57600080fd5b919050565b600082601f830112612562578081fd5b813567ffffffffffffffff8082111561257d5761257d612ae3565b604051601f8301601f19908116603f011681019082821181831017156125a5576125a5612ae3565b816040528381528660208588010111156125bd578485fd5b8360208701602083013792830160200193909352509392505050565b6000602082840312156125ea578081fd5b6125f382612536565b9392505050565b6000806040838503121561260c578081fd5b61261583612536565b915061262360208401612536565b90509250929050565b600080600060608486031215612640578081fd5b61264984612536565b925061265760208501612536565b9150604084013590509250925092565b60008060408385031215612679578182fd5b61268283612536565b946020939093013593505050565b6000806000606084860312156126a4578283fd5b6126ad84612536565b925060208401359150604084013567ffffffffffffffff8111156126cf578182fd5b6126db86828701612552565b9150509250925092565b600080600080608085870312156126fa578081fd5b61270385612536565b93506020850135925060408501359150606085013567ffffffffffffffff81111561272c578182fd5b61273887828801612552565b91505092959194509250565b600060208284031215612755578081fd5b815180151581146125f3578182fd5b600060208284031215612775578081fd5b813567ffffffffffffffff81111561278b578182fd5b61279784828501612552565b949350505050565b600080604083850312156127b1578182fd5b50508035926020909101359150565b60008151808452815b818110156127e5576020818501810151868301820152016127c9565b818111156127f65782602083870101525b50601f01601f19169290920160200192915050565b6001600160a01b039384168152919092166020820152604081019190915260600190565b60006020808301818452808551808352604092508286019150828160051b870101848801865b838110156128a357603f1989840301855281516060815181865261287b828701826127c0565b838b0151878c0152928901511515958901959095525094870194925090860190600101612855565b509098975050505050505050565b6020815260006125f360208301846127c0565b6060815260006128d760608301866127c0565b602083019490945250901515604090910152919050565b6020808252602b908201527f496e697469616c697a61626c653a20636f6e7472616374206973206e6f74206960408201526a6e697469616c697a696e6760a81b606082015260800190565b6000821982111561294c5761294c612acd565b500190565b60008261296c57634e487b7160e01b81526012600452602481fd5b500490565b600181815b808511156129ac57816000190482111561299257612992612acd565b8085161561299f57918102915b93841c9390800290612976565b509250929050565b60006125f383836000826129ca575060016109f7565b816129d7575060006109f7565b81600181146129ed57600281146129f757612a13565b60019150506109f7565b60ff841115612a0857612a08612acd565b50506001821b6109f7565b5060208310610133831016604e8410600b8410161715612a36575081810a6109f7565b612a408383612971565b8060001904821115612a5457612a54612acd565b029392505050565b6000816000190483118215151615612a7657612a76612acd565b500290565b600082821015612a8d57612a8d612acd565b500390565b600181811c90821680612aa657607f821691505b60208210811415612ac757634e487b7160e01b600052602260045260246000fd5b50919050565b634e487b7160e01b600052601160045260246000fd5b634e487b7160e01b600052604160045260246000fdfe43524947454e205245534f5552434553204c494d4954454420284c4c313832353029a2646970667358221220c624d71f29b8df3f8c252541796e59d65020a62d8ce49c9f8414a9852dbc199464736f6c63430008040033",
  "linkReferences": {},
  "deployedLinkReferences": {}
}