{
  "_format": "hh-sol-artifact-1",
  "contractName": "GenesisFST",
  "sourceName": "contracts/GenesisFST.sol",
  "abi": [
    {
      "inputs": [
        {
          "internalType": "address",
          "name": "spender",
          "type": "address"
        },
        {
          "internalType": "uint256",
          "name": "allowance",
          "type": "uint256"
        },
        {
          "internalType": "uint256",
          "name": "needed",
          "type": "uint256"
        }
      ],
      "name": "ERC20InsufficientAllowance",
      "type": "error"
    },
    {
      "inputs": [
        {
          "internalType": "address",
          "name": "sender",
          "type": "address"
        },
        {
          "internalType": "uint256",
          "name": "balance",
          "type": "uint256"
        },
        {
          "internalType": "uint256",
          "name": "needed",
          "type": "uint256"
        }
      ],
      "name": "ERC20InsufficientBalance",
      "type": "error"
    },
    {
      "inputs": [
        {
          "internalType": "address",
          "name": "approver",
          "type": "address"
        }
      ],
      "name": "ERC20InvalidApprover",
      "type": "error"
    },
    {
      "inputs": [
        {
          "internalType": "address",
          "name": "receiver",
          "type": "address"
        }
      ],
      "name": "ERC20InvalidReceiver",
      "type": "error"
    },
    {
      "inputs": [
        {
          "internalType": "address",
          "name": "sender",
          "type": "address"
        }
      ],
      "name": "ERC20InvalidSender",
      "type": "error"
    },
    {
      "inputs": [
        {
          "internalType": "address",
          "name": "spender",
          "type": "address"
        }
      ],
      "name": "ERC20InvalidSpender",
      "type": "error"
    },
    {
      "inputs": [],
      "name": "EnforcedPause",
      "type": "error"
    },
    {
      "inputs": [],
      "name": "ExpectedPause",
      "type": "error"
    },
    {
      "inputs": [],
      "name": "InvalidInitialization",
      "type": "error"
    },
    {
      "inputs": [],
      "name": "NotInitializing",
      "type": "error"
    },
    {
      "inputs": [
        {
          "internalType": "address",
          "name": "owner",
          "type": "address"
        }
      ],
      "name": "OwnableInvalidOwner",
      "type": "error"
    },
    {
      "inputs": [
        {
          "internalType": "address",
          "name": "account",
          "type": "address"
        }
      ],
      "name": "OwnableUnauthorizedAccount",
      "type": "error"
    },
    {
      "anonymous": false,
      "inputs": [
        {
          "indexed": true,
          "internalType": "address",
          "name": "owner",
          "type": "address"
        },
        {
          "indexed": true,
          "internalType": "address",
          "name": "spender",
          "type": "address"
        },
        {
          "indexed": false,
          "internalType": "uint256",
          "name": "value",
          "type": "uint256"
        }
      ],
      "name": "Approval",
      "type": "event"
    },
    {
      "anonymous": false,
      "inputs": [
        {
          "indexed": false,
          "internalType": "uint64",
          "name": "version",
          "type": "uint64"
        }
      ],
      "name": "Initialized",
      "type": "event"
    },
    {
      "anonymous": false,
      "inputs": [
        {
          "indexed": true,
          "internalType": "address",
          "name": "previousOwner",
          "type": "address"
        },
        {
          "indexed": true,
          "internalType": "address",
          "name": "newOwner",
          "type": "address"
        }
      ],
      "name": "OwnershipTransferred",
      "type": "event"
    },
    {
      "anonymous": false,
      "inputs": [
        {
          "indexed": false,
          "internalType": "address",
          "name": "account",
          "type": "address"
        }
      ],
      "name": "Paused",
      "type": "event"
    },
    {
      "anonymous": false,
      "inputs": [
        {
          "indexed": true,
          "internalType": "address",
          "name": "from",
          "type": "address"
        },
        {
          "indexed": true,
          "internalType": "address",
          "name": "to",
          "type": "address"
        },
        {
          "indexed": false,
          "internalType": "uint256",
          "name": "value",
          "type": "uint256"
        }
      ],
      "name": "Transfer",
      "type": "event"
    },
    {
      "anonymous": false,
      "inputs": [
        {
          "indexed": false,
          "internalType": "address",
          "name": "account",
          "type": "address"
        }
      ],
      "name": "Unpaused",
      "type": "event"
    },
    {
      "inputs": [
        {
          "internalType": "address",
          "name": "_blacklistUser",
          "type": "address"
        }
      ],
      "name": "addblackListUser",
      "outputs": [],
      "stateMutability": "nonpayable",
      "type": "function"
    },
    {
      "inputs": [
        {
          "internalType": "address",
          "name": "owner",
          "type": "address"
        },
        {
          "internalType": "address",
          "name": "spender",
          "type": "address"
        }
      ],
      "name": "allowance",
      "outputs": [
        {
          "internalType": "uint256",
          "name": "",
          "type": "uint256"
        }
      ],
      "stateMutability": "view",
      "type": "function"
    },
    {
      "inputs": [
        {
          "internalType": "address",
          "name": "spender",
          "type": "address"
        },
        {
          "internalType": "uint256",
          "name": "value",
          "type": "uint256"
        }
      ],
      "name": "approve",
      "outputs": [
        {
          "internalType": "bool",
          "name": "",
          "type": "bool"
        }
      ],
      "stateMutability": "nonpayable",
      "type": "function"
    },
    {
      "inputs": [],
      "name": "auditLink",
      "outputs": [
        {
          "internalType": "string",
          "name": "",
          "type": "string"
        }
      ],
      "stateMutability": "view",
      "type": "function"
    },
    {
      "inputs": [
        {
          "internalType": "address",
          "name": "account",
          "type": "address"
        }
      ],
      "name": "balanceOf",
      "outputs": [
        {
          "internalType": "uint256",
          "name": "",
          "type": "uint256"
        }
      ],
      "stateMutability": "view",
      "type": "function"
    },
    {
      "inputs": [
        {
          "internalType": "address",
          "name": "",
          "type": "address"
        }
      ],
      "name": "blacklisted",
      "outputs": [
        {
          "internalType": "bool",
          "name": "",
          "type": "bool"
        }
      ],
      "stateMutability": "view",
      "type": "function"
    },
    {
      "inputs": [],
      "name": "decimals",
      "outputs": [
        {
          "internalType": "uint8",
          "name": "",
          "type": "uint8"
        }
      ],
      "stateMutability": "view",
      "type": "function"
    },
    {
      "inputs": [],
      "name": "erc20Contract",
      "outputs": [
        {
          "internalType": "contract ERC20Upgradeable",
          "name": "",
          "type": "address"
        }
      ],
      "stateMutability": "view",
      "type": "function"
    },
    {
      "inputs": [],
      "name": "fundManagerAddress",
      "outputs": [
        {
          "internalType": "address",
          "name": "",
          "type": "address"
        }
      ],
      "stateMutability": "view",
      "type": "function"
    },
    {
      "inputs": [],
      "name": "fundManagerName",
      "outputs": [
        {
          "internalType": "string",
          "name": "",
          "type": "string"
        }
      ],
      "stateMutability": "view",
      "type": "function"
    },
    {
      "inputs": [
        {
          "internalType": "address",
          "name": "_investorAddress",
          "type": "address"
        }
      ],
      "name": "getAgreements",
      "outputs": [
        {
          "components": [
            {
              "internalType": "string",
              "name": "link",
              "type": "string"
            },
            {
              "internalType": "uint256",
              "name": "tokenAmount",
              "type": "uint256"
            },
            {
              "internalType": "bool",
              "name": "holding",
              "type": "bool"
            }
          ],
          "internalType": "struct GenesisFST.Agreement[]",
          "name": "",
          "type": "tuple[]"
        }
      ],
      "stateMutability": "view",
      "type": "function"
    },
    {
      "inputs": [],
      "name": "getFundManager",
      "outputs": [
        {
          "internalType": "string",
          "name": "theFundManager",
          "type": "string"
        }
      ],
      "stateMutability": "view",
      "type": "function"
    },
    {
      "inputs": [],
      "name": "getPartnerName",
      "outputs": [
        {
          "internalType": "string",
          "name": "thePartnerName",
          "type": "string"
        }
      ],
      "stateMutability": "view",
      "type": "function"
    },
    {
      "inputs": [],
      "name": "initialSupply",
      "outputs": [
        {
          "internalType": "uint256",
          "name": "",
          "type": "uint256"
        }
      ],
      "stateMutability": "view",
      "type": "function"
    },
    {
      "inputs": [],
      "name": "initialize",
      "outputs": [],
      "stateMutability": "nonpayable",
      "type": "function"
    },
    {
      "inputs": [
        {
          "internalType": "address",
          "name": "",
          "type": "address"
        },
        {
          "internalType": "uint256",
          "name": "",
          "type": "uint256"
        }
      ],
      "name": "investorAgreement",
      "outputs": [
        {
          "internalType": "string",
          "name": "link",
          "type": "string"
        },
        {
          "internalType": "uint256",
          "name": "tokenAmount",
          "type": "uint256"
        },
        {
          "internalType": "bool",
          "name": "holding",
          "type": "bool"
        }
      ],
      "stateMutability": "view",
      "type": "function"
    },
    {
      "inputs": [
        {
          "internalType": "address",
          "name": "to",
          "type": "address"
        },
        {
          "internalType": "uint256",
          "name": "amount",
          "type": "uint256"
        }
      ],
      "name": "mint",
      "outputs": [],
      "stateMutability": "nonpayable",
      "type": "function"
    },
    {
      "inputs": [],
      "name": "name",
      "outputs": [
        {
          "internalType": "string",
          "name": "",
          "type": "string"
        }
      ],
      "stateMutability": "view",
      "type": "function"
    },
    {
      "inputs": [],
      "name": "owner",
      "outputs": [
        {
          "internalType": "address",
          "name": "",
          "type": "address"
        }
      ],
      "stateMutability": "view",
      "type": "function"
    },
    {
      "inputs": [],
      "name": "partnerAddress",
      "outputs": [
        {
          "internalType": "address",
          "name": "",
          "type": "address"
        }
      ],
      "stateMutability": "view",
      "type": "function"
    },
    {
      "inputs": [],
      "name": "partnerName",
      "outputs": [
        {
          "internalType": "string",
          "name": "",
          "type": "string"
        }
      ],
      "stateMutability": "view",
      "type": "function"
    },
    {
      "inputs": [],
      "name": "pause",
      "outputs": [],
      "stateMutability": "nonpayable",
      "type": "function"
    },
    {
      "inputs": [],
      "name": "paused",
      "outputs": [
        {
          "internalType": "bool",
          "name": "",
          "type": "bool"
        }
      ],
      "stateMutability": "view",
      "type": "function"
    },
    {
      "inputs": [
        {
          "internalType": "address",
          "name": "to",
          "type": "address"
        },
        {
          "internalType": "uint256",
          "name": "amount",
          "type": "uint256"
        },
        {
          "internalType": "string",
          "name": "_agreementLink",
          "type": "string"
        }
      ],
      "name": "purchaseWithETH",
      "outputs": [],
      "stateMutability": "payable",
      "type": "function"
    },
    {
      "inputs": [
        {
          "internalType": "address",
          "name": "to",
          "type": "address"
        },
        {
          "internalType": "uint256",
          "name": "_amount",
          "type": "uint256"
        },
        {
          "internalType": "uint256",
          "name": "smtxAmount",
          "type": "uint256"
        },
        {
          "internalType": "string",
          "name": "_agreementLink",
          "type": "string"
        }
      ],
      "name": "purchaseWithSMTX",
      "outputs": [],
      "stateMutability": "nonpayable",
      "type": "function"
    },
    {
      "inputs": [
        {
          "internalType": "address",
          "name": "to",
          "type": "address"
        },
        {
          "internalType": "uint256",
          "name": "_amount",
          "type": "uint256"
        },
        {
          "internalType": "uint256",
          "name": "usdcAmount",
          "type": "uint256"
        },
        {
          "internalType": "string",
          "name": "_agreementLink",
          "type": "string"
        }
      ],
      "name": "purchaseWithUSDC",
      "outputs": [],
      "stateMutability": "nonpayable",
      "type": "function"
    },
    {
      "inputs": [
        {
          "internalType": "address",
          "name": "_blacklistUser",
          "type": "address"
        }
      ],
      "name": "removeblackListUser",
      "outputs": [],
      "stateMutability": "nonpayable",
      "type": "function"
    },
    {
      "inputs": [],
      "name": "renounceOwnership",
      "outputs": [],
      "stateMutability": "nonpayable",
      "type": "function"
    },
    {
      "inputs": [
        {
          "internalType": "uint256",
          "name": "_tokenAmount",
          "type": "uint256"
        },
        {
          "internalType": "uint256",
          "name": "_amount",
          "type": "uint256"
        }
      ],
      "name": "sellToken",
      "outputs": [],
      "stateMutability": "nonpayable",
      "type": "function"
    },
    {
      "inputs": [],
      "name": "smtx",
      "outputs": [
        {
          "internalType": "contract ERC20Upgradeable",
          "name": "",
          "type": "address"
        }
      ],
      "stateMutability": "view",
      "type": "function"
    },
    {
      "inputs": [],
      "name": "sstToken",
      "outputs": [
        {
          "internalType": "address",
          "name": "",
          "type": "address"
        }
      ],
      "stateMutability": "view",
      "type": "function"
    },
    {
      "inputs": [],
      "name": "sumoAddress",
      "outputs": [
        {
          "internalType": "address",
          "name": "",
          "type": "address"
        }
      ],
      "stateMutability": "view",
      "type": "function"
    },
    {
      "inputs": [],
      "name": "sumoName",
      "outputs": [
        {
          "internalType": "string",
          "name": "",
          "type": "string"
        }
      ],
      "stateMutability": "view",
      "type": "function"
    },
    {
      "inputs": [],
      "name": "symbol",
      "outputs": [
        {
          "internalType": "string",
          "name": "",
          "type": "string"
        }
      ],
      "stateMutability": "view",
      "type": "function"
    },
    {
      "inputs": [],
      "name": "totalSupply",
      "outputs": [
        {
          "internalType": "uint256",
          "name": "",
          "type": "uint256"
        }
      ],
      "stateMutability": "view",
      "type": "function"
    },
    {
      "inputs": [
        {
          "internalType": "address",
          "name": "_to",
          "type": "address"
        },
        {
          "internalType": "uint256",
          "name": "_value",
          "type": "uint256"
        }
      ],
      "name": "transfer",
      "outputs": [
        {
          "internalType": "bool",
          "name": "",
          "type": "bool"
        }
      ],
      "stateMutability": "nonpayable",
      "type": "function"
    },
    {
      "inputs": [
        {
          "internalType": "address",
          "name": "from",
          "type": "address"
        },
        {
          "internalType": "address",
          "name": "to",
          "type": "address"
        },
        {
          "internalType": "uint256",
          "name": "amount",
          "type": "uint256"
        }
      ],
      "name": "transferFrom",
      "outputs": [
        {
          "internalType": "bool",
          "name": "",
          "type": "bool"
        }
      ],
      "stateMutability": "nonpayable",
      "type": "function"
    },
    {
      "inputs": [
        {
          "internalType": "address",
          "name": "newOwner",
          "type": "address"
        }
      ],
      "name": "transferOwnership",
      "outputs": [],
      "stateMutability": "nonpayable",
      "type": "function"
    },
    {
      "inputs": [],
      "name": "tronUrl",
      "outputs": [
        {
          "internalType": "string",
          "name": "",
          "type": "string"
        }
      ],
      "stateMutability": "view",
      "type": "function"
    },
    {
      "inputs": [],
      "name": "unpause",
      "outputs": [],
      "stateMutability": "nonpayable",
      "type": "function"
    },
    {
      "inputs": [
        {
          "internalType": "string",
          "name": "_newAuditLink",
          "type": "string"
        }
      ],
      "name": "updateAuditedLink",
      "outputs": [],
      "stateMutability": "nonpayable",
      "type": "function"
    },
    {
      "inputs": [
        {
          "internalType": "address",
          "name": "_managerAddress",
          "type": "address"
        }
      ],
      "name": "updateFundManagerAddress",
      "outputs": [],
      "stateMutability": "nonpayable",
      "type": "function"
    },
    {
      "inputs": [
        {
          "internalType": "string",
          "name": "_managerName",
          "type": "string"
        }
      ],
      "name": "updateFundManagerName",
      "outputs": [],
      "stateMutability": "nonpayable",
      "type": "function"
    },
    {
      "inputs": [
        {
          "internalType": "address",
          "name": "_partnerAddress",
          "type": "address"
        }
      ],
      "name": "updatePartnerAddress",
      "outputs": [],
      "stateMutability": "nonpayable",
      "type": "function"
    },
    {
      "inputs": [
        {
          "internalType": "string",
          "name": "_partnerName",
          "type": "string"
        }
      ],
      "name": "updatePartnerName",
      "outputs": [],
      "stateMutability": "nonpayable",
      "type": "function"
    },
    {
      "inputs": [
        {
          "internalType": "address",
          "name": "_smtxAddress",
          "type": "address"
        }
      ],
      "name": "updateSMTXAddress",
      "outputs": [],
      "stateMutability": "nonpayable",
      "type": "function"
    },
    {
      "inputs": [
        {
          "internalType": "string",
          "name": "_sumoname",
          "type": "string"
        }
      ],
      "name": "updateSumoName",
      "outputs": [],
      "stateMutability": "nonpayable",
      "type": "function"
    },
    {
      "inputs": [
        {
          "internalType": "address",
          "name": "_address",
          "type": "address"
        }
      ],
      "name": "updateSumoNameAddress",
      "outputs": [],
      "stateMutability": "nonpayable",
      "type": "function"
    },
    {
      "inputs": [
        {
          "internalType": "address",
          "name": "_usdcAddress",
          "type": "address"
        }
      ],
      "name": "updateUSDCAddress",
      "outputs": [],
      "stateMutability": "nonpayable",
      "type": "function"
    },
    {
      "inputs": [],
      "name": "usdCost",
      "outputs": [
        {
          "internalType": "uint256",
          "name": "",
          "type": "uint256"
        }
      ],
      "stateMutability": "view",
      "type": "function"
    },
    {
      "inputs": [],
      "name": "usdc",
      "outputs": [
        {
          "internalType": "contract ERC20Upgradeable",
          "name": "",
          "type": "address"
        }
      ],
      "stateMutability": "view",
      "type": "function"
    }
  ],
  "bytecode": "0x608060405234801561001057600080fd5b50614249806100206000396000f3fe6080604052600436106102e45760003560e01c8063715018a611610190578063a9059cbb116100dc578063dbac26e911610095578063ec0b712e1161006f578063ec0b712e14610ae5578063f2fde38b14610b10578063f7d48ebb14610b39578063fd76282b14610b64576102e4565b8063dbac26e914610a42578063dd62ed3e14610a7f578063e013b22414610abc576102e4565b8063a9059cbb1461093f578063a99a583c1461097c578063cf9e6e12146109a7578063d03d0129146109d2578063d7fb5f2c146109ee578063d8c3703214610a17576102e4565b806384ae2ed011610149578063939fa96a11610123578063939fa96a1461089557806395d89b41146108be57806398771b62146108e9578063a8f6c91314610914576102e4565b806384ae2ed01461081857806385946cbe146108415780638da5cb5b1461086a576102e4565b8063715018a6146107425780637d81c4c1146107595780637e73337714610782578063810a2c7e146107c15780638129fc1c146107ea5780638456cb5914610801576102e4565b80633e413bee1161024f578063576168fc1161020857806364b507c4116101e257806364b507c4146106845780636ab5e399146106af5780636c7113e4146106da57806370a0823114610705576102e4565b8063576168fc14610605578063597b0296146106305780635c975abb14610659576102e4565b80633e413bee1461051d5780633f4ba83a1461054857806340c10f191461055f57806344a71fbb146105885780634d68ceb9146105b15780634e63d6cc146105dc576102e4565b80631f43f14b116102a15780631f43f14b146103f957806321d2c4921461042457806323b872dd1461044d578063313ce5671461048a57806332c833c0146104b5578063378dc3dc146104f2576102e4565b806306fdde03146102e9578063095ea7b3146103145780630f331cc214610351578063116ffdd61461037a57806318160ddd146103a55780631897bcf3146103d0575b600080fd5b3480156102f557600080fd5b506102fe610b8d565b60405161030b91906132ce565b60405180910390f35b34801561032057600080fd5b5061033b60048036038101906103369190613398565b610c2e565b60405161034891906133f3565b60405180910390f35b34801561035d57600080fd5b5061037860048036038101906103739190613543565b610c51565b005b34801561038657600080fd5b5061038f610c6c565b60405161039c91906132ce565b60405180910390f35b3480156103b157600080fd5b506103ba610cfa565b6040516103c7919061359b565b60405180910390f35b3480156103dc57600080fd5b506103f760048036038101906103f291906135b6565b610d04565b005b34801561040557600080fd5b5061040e610df8565b60405161041b9190613655565b60405180910390f35b34801561043057600080fd5b5061044b60048036038101906104469190613670565b610e1e565b005b34801561045957600080fd5b50610474600480360381019061046f919061369d565b610e6a565b60405161048191906133f3565b60405180910390f35b34801561049657600080fd5b5061049f610f38565b6040516104ac919061370c565b60405180910390f35b3480156104c157600080fd5b506104dc60048036038101906104d79190613670565b610f41565b6040516104e991906138a1565b60405180910390f35b3480156104fe57600080fd5b50610507611096565b604051610514919061359b565b60405180910390f35b34801561052957600080fd5b506105326110a0565b60405161053f9190613655565b60405180910390f35b34801561055457600080fd5b5061055d6110c6565b005b34801561056b57600080fd5b5061058660048036038101906105819190613398565b6110d8565b005b34801561059457600080fd5b506105af60048036038101906105aa9190613670565b61112b565b005b3480156105bd57600080fd5b506105c6611177565b6040516105d391906132ce565b60405180910390f35b3480156105e857600080fd5b5061060360048036038101906105fe9190613543565b611205565b005b34801561061157600080fd5b5061061a611220565b60405161062791906138d2565b60405180910390f35b34801561063c57600080fd5b50610657600480360381019061065291906138ed565b611246565b005b34801561066557600080fd5b5061066e611445565b60405161067b91906133f3565b60405180910390f35b34801561069057600080fd5b5061069961146a565b6040516106a691906132ce565b60405180910390f35b3480156106bb57600080fd5b506106c46114f8565b6040516106d1919061359b565b60405180910390f35b3480156106e657600080fd5b506106ef6114fe565b6040516106fc91906132ce565b60405180910390f35b34801561071157600080fd5b5061072c60048036038101906107279190613670565b611590565b604051610739919061359b565b60405180910390f35b34801561074e57600080fd5b506107576115e7565b005b34801561076557600080fd5b50610780600480360381019061077b9190613670565b6115fb565b005b34801561078e57600080fd5b506107a960048036038101906107a49190613398565b611647565b6040516107b893929190613970565b60405180910390f35b3480156107cd57600080fd5b506107e860048036038101906107e39190613670565b611723565b005b3480156107f657600080fd5b506107ff61178e565b005b34801561080d57600080fd5b50610816611c68565b005b34801561082457600080fd5b5061083f600480360381019061083a9190613543565b611c7a565b005b34801561084d57600080fd5b50610868600480360381019061086391906138ed565b611c95565b005b34801561087657600080fd5b5061087f611e93565b60405161088c91906138d2565b60405180910390f35b3480156108a157600080fd5b506108bc60048036038101906108b79190613670565b611ecb565b005b3480156108ca57600080fd5b506108d3611f17565b6040516108e091906132ce565b60405180910390f35b3480156108f557600080fd5b506108fe611fb8565b60405161090b91906138d2565b60405180910390f35b34801561092057600080fd5b50610929611fde565b6040516109369190613655565b60405180910390f35b34801561094b57600080fd5b5061096660048036038101906109619190613398565b612004565b60405161097391906133f3565b60405180910390f35b34801561098857600080fd5b506109916120c6565b60405161099e91906138d2565b60405180910390f35b3480156109b357600080fd5b506109bc6120ec565b6040516109c991906132ce565b60405180910390f35b6109ec60048036038101906109e791906139ae565b61217a565b005b3480156109fa57600080fd5b50610a156004803603810190610a109190613670565b61232d565b005b348015610a2357600080fd5b50610a2c612398565b604051610a3991906132ce565b60405180910390f35b348015610a4e57600080fd5b50610a696004803603810190610a649190613670565b61242a565b604051610a7691906133f3565b60405180910390f35b348015610a8b57600080fd5b50610aa66004803603810190610aa19190613a1d565b61244a565b604051610ab3919061359b565b60405180910390f35b348015610ac857600080fd5b50610ae36004803603810190610ade9190613543565b6124df565b005b348015610af157600080fd5b50610afa6124fa565b604051610b0791906132ce565b60405180910390f35b348015610b1c57600080fd5b50610b376004803603810190610b329190613670565b612588565b005b348015610b4557600080fd5b50610b4e61260b565b604051610b5b91906138d2565b60405180910390f35b348015610b7057600080fd5b50610b8b6004803603810190610b869190613670565b612631565b005b60606000610b9961267d565b9050806003018054610baa90613a8c565b80601f0160208091040260200160405190810160405280929190818152602001828054610bd690613a8c565b8015610c235780601f10610bf857610100808354040283529160200191610c23565b820191906000526020600020905b815481529060010190602001808311610c0657829003601f168201915b505050505091505090565b600080610c396126a5565b9050610c468185856126ad565b600191505092915050565b610c596126bf565b80600a9081610c689190613c5f565b5050565b600c8054610c7990613a8c565b80601f0160208091040260200160405190810160405280929190818152602001828054610ca590613a8c565b8015610cf25780601f10610cc757610100808354040283529160200191610cf2565b820191906000526020600020905b815481529060010190602001808311610cd557829003601f168201915b505050505081565b6000600354905090565b610d0c612746565b601060009054906101000a900473ffffffffffffffffffffffffffffffffffffffff1673ffffffffffffffffffffffffffffffffffffffff166323b872dd600760009054906101000a900473ffffffffffffffffffffffffffffffffffffffff1633846040518463ffffffff1660e01b8152600401610d8d93929190613d31565b6020604051808303816000875af1158015610dac573d6000803e3d6000fd5b505050506040513d601f19601f82011682018060405250810190610dd09190613d94565b50610ddb3383612787565b8160046000828254610ded9190613df0565b925050819055505050565b601160009054906101000a900473ffffffffffffffffffffffffffffffffffffffff1681565b610e266126bf565b80600560006101000a81548173ffffffffffffffffffffffffffffffffffffffff021916908373ffffffffffffffffffffffffffffffffffffffff16021790555050565b6000610e74612746565b6000610e7e6126a5565b9050600073ffffffffffffffffffffffffffffffffffffffff168473ffffffffffffffffffffffffffffffffffffffff1603610eb957600080fd5b60011515601360003373ffffffffffffffffffffffffffffffffffffffff1673ffffffffffffffffffffffffffffffffffffffff16815260200190815260200160002060009054906101000a900460ff16151503610f1657600080fd5b610f21858285612809565b610f2c85858561289d565b60019150509392505050565b60006012905090565b6060601260008373ffffffffffffffffffffffffffffffffffffffff1673ffffffffffffffffffffffffffffffffffffffff168152602001908152602001600020805480602002602001604051908101604052809291908181526020016000905b8282101561108b5783829060005260206000209060030201604051806060016040529081600082018054610fd590613a8c565b80601f016020809104026020016040519081016040528092919081815260200182805461100190613a8c565b801561104e5780601f106110235761010080835404028352916020019161104e565b820191906000526020600020905b81548152906001019060200180831161103157829003601f168201915b50505050508152602001600182015481526020016002820160009054906101000a900460ff16151515158152505081526020019060010190610fa2565b505050509050919050565b6000600454905090565b601060009054906101000a900473ffffffffffffffffffffffffffffffffffffffff1681565b6110ce6126bf565b6110d6612991565b565b6110e0612746565b6110e86126bf565b600354816004546110f99190613e24565b111561110457600080fd5b61110e8282612a03565b80600460008282546111209190613e24565b925050819055505050565b6111336126bf565b80600860006101000a81548173ffffffffffffffffffffffffffffffffffffffff021916908373ffffffffffffffffffffffffffffffffffffffff16021790555050565b600d805461118490613a8c565b80601f01602080910402602001604051908101604052809291908181526020018280546111b090613a8c565b80156111fd5780601f106111d2576101008083540402835291602001916111fd565b820191906000526020600020905b8154815290600101906020018083116111e057829003601f168201915b505050505081565b61120d6126bf565b80600c908161121c9190613c5f565b5050565b600860009054906101000a900473ffffffffffffffffffffffffffffffffffffffff1681565b61124e612746565b6003548360045461125f9190613e24565b111561126a57600080fd5b600061271060968561127c9190613e58565b6112869190613ec9565b9050601160009054906101000a900473ffffffffffffffffffffffffffffffffffffffff1673ffffffffffffffffffffffffffffffffffffffff166323b872dd33600760009054906101000a900473ffffffffffffffffffffffffffffffffffffffff16866040518463ffffffff1660e01b815260040161130993929190613d31565b6020604051808303816000875af1158015611328573d6000803e3d6000fd5b505050506040513d601f19601f8201168201806040525081019061134c9190613d94565b506113578585612a03565b83600460008282546113699190613e24565b9250508190555060006040518060600160405280848152602001868152602001600115158152509050601260008773ffffffffffffffffffffffffffffffffffffffff1673ffffffffffffffffffffffffffffffffffffffff16815260200190815260200160002081908060018154018082558091505060019003906000526020600020906003020160009091909190915060008201518160000190816114109190613c5f565b506020820151816001015560408201518160020160006101000a81548160ff0219169083151502179055505050505050505050565b600080611450612a85565b90508060000160009054906101000a900460ff1691505090565b600a805461147790613a8c565b80601f01602080910402602001604051908101604052809291908181526020018280546114a390613a8c565b80156114f05780601f106114c5576101008083540402835291602001916114f0565b820191906000526020600020905b8154815290600101906020018083116114d357829003601f168201915b505050505081565b600e5481565b6060600c805461150d90613a8c565b80601f016020809104026020016040519081016040528092919081815260200182805461153990613a8c565b80156115865780601f1061155b57610100808354040283529160200191611586565b820191906000526020600020905b81548152906001019060200180831161156957829003601f168201915b5050505050905090565b60008061159b61267d565b90508060000160008473ffffffffffffffffffffffffffffffffffffffff1673ffffffffffffffffffffffffffffffffffffffff16815260200190815260200160002054915050919050565b6115ef6126bf565b6115f96000612aad565b565b6116036126bf565b80601060006101000a81548173ffffffffffffffffffffffffffffffffffffffff021916908373ffffffffffffffffffffffffffffffffffffffff16021790555050565b6012602052816000526040600020818154811061166357600080fd5b90600052602060002090600302016000915091505080600001805461168790613a8c565b80601f01602080910402602001604051908101604052809291908181526020018280546116b390613a8c565b80156117005780601f106116d557610100808354040283529160200191611700565b820191906000526020600020905b8154815290600101906020018083116116e357829003601f168201915b5050505050908060010154908060020160009054906101000a900460ff16905083565b61172b612746565b6117336126bf565b6001601360008373ffffffffffffffffffffffffffffffffffffffff1673ffffffffffffffffffffffffffffffffffffffff16815260200190815260200160002060006101000a81548160ff02191690831515021790555050565b6000611798612b84565b905060008160000160089054906101000a900460ff1615905060008260000160009054906101000a900467ffffffffffffffff1690506000808267ffffffffffffffff161480156117e65750825b9050600060018367ffffffffffffffff1614801561181b575060003073ffffffffffffffffffffffffffffffffffffffff163b145b905081158015611829575080155b15611860576040517ff92ee8a900000000000000000000000000000000000000000000000000000000815260040160405180910390fd5b60018560000160006101000a81548167ffffffffffffffff021916908367ffffffffffffffff16021790555083156118b05760018560000160086101000a81548160ff0219169083151502179055505b6119246040518060400160405280601481526020017f496e766f6963652047656e6573697320506f6f6c0000000000000000000000008152506040518060400160405280601481526020017f496e766f6963652047656e6573697320506f6f6c000000000000000000000000815250612bac565b61193461192f6126a5565b612bc2565b61193c612bd6565b611944610f38565b60ff16600a611953919061402d565b60dc61195f9190613e58565b60038190555073a0b86991c6218b36c1d19d4a2e9eb0ce3606eb48601060006101000a81548173ffffffffffffffffffffffffffffffffffffffff021916908373ffffffffffffffffffffffffffffffffffffffff16021790555073102203517ce35ac5cab9a2cda80df03f26c7419b601160006101000a81548173ffffffffffffffffffffffffffffffffffffffff021916908373ffffffffffffffffffffffffffffffffffffffff16021790555073a6f49c590a8e1afbebf5c245e1768435c7718bf6600560006101000a81548173ffffffffffffffffffffffffffffffffffffffff021916908373ffffffffffffffffffffffffffffffffffffffff160217905550733655c868cafa3aa97803cc0aded6419a5eeb4ab2600760006101000a81548173ffffffffffffffffffffffffffffffffffffffff021916908373ffffffffffffffffffffffffffffffffffffffff160217905550733655c868cafa3aa97803cc0aded6419a5eeb4ab2600860006101000a81548173ffffffffffffffffffffffffffffffffffffffff021916908373ffffffffffffffffffffffffffffffffffffffff1602179055506040518060400160405280601b81526020017f55424220496e766573746d656e742042616e6b204c696d697465640000000000815250600b9081611b529190613c5f565b506040518060400160405280600781526020017f53756d6f6c616200000000000000000000000000000000000000000000000000815250600a9081611b979190613c5f565b506040518060400160405280601b81526020017f55424220496e766573746d656e742042616e6b204c696d697465640000000000815250600c9081611bdc9190613c5f565b506040518060600160405280602281526020016141f26022913960069081611c049190613c5f565b508315611c615760008560000160086101000a81548160ff0219169083151502179055507fc7f505b2f371ae2175ee4913f4499e1f2633a7b5936321eed1cdaeb6115181d26001604051611c5891906140c7565b60405180910390a15b5050505050565b611c706126bf565b611c78612be8565b565b611c826126bf565b80600b9081611c919190613c5f565b5050565b611c9d612746565b60035483600454611cae9190613e24565b1115611cb957600080fd5b600080818285611cc99190613df0565b611cd39190613df0565b9050601060009054906101000a900473ffffffffffffffffffffffffffffffffffffffff1673ffffffffffffffffffffffffffffffffffffffff166323b872dd33600760009054906101000a900473ffffffffffffffffffffffffffffffffffffffff16846040518463ffffffff1660e01b8152600401611d5693929190613d31565b6020604051808303816000875af1158015611d75573d6000803e3d6000fd5b505050506040513d601f19601f82011682018060405250810190611d999190613d94565b50611da48686612a03565b8460046000828254611db69190613e24565b9250508190555060006040518060600160405280858152602001878152602001600115158152509050601260008873ffffffffffffffffffffffffffffffffffffffff1673ffffffffffffffffffffffffffffffffffffffff1681526020019081526020016000208190806001815401808255809150506001900390600052602060002090600302016000909190919091506000820151816000019081611e5d9190613c5f565b506020820151816001015560408201518160020160006101000a81548160ff021916908315150217905550505050505050505050565b600080611e9e612c5a565b90508060000160009054906101000a900473ffffffffffffffffffffffffffffffffffffffff1691505090565b611ed36126bf565b80601160006101000a81548173ffffffffffffffffffffffffffffffffffffffff021916908373ffffffffffffffffffffffffffffffffffffffff16021790555050565b60606000611f2361267d565b9050806004018054611f3490613a8c565b80601f0160208091040260200160405190810160405280929190818152602001828054611f6090613a8c565b8015611fad5780601f10611f8257610100808354040283529160200191611fad565b820191906000526020600020905b815481529060010190602001808311611f9057829003601f168201915b505050505091505090565b600960009054906101000a900473ffffffffffffffffffffffffffffffffffffffff1681565b600f60009054906101000a900473ffffffffffffffffffffffffffffffffffffffff1681565b600061200e612746565b600073ffffffffffffffffffffffffffffffffffffffff168373ffffffffffffffffffffffffffffffffffffffff160361204757600080fd5b60011515601360003373ffffffffffffffffffffffffffffffffffffffff1673ffffffffffffffffffffffffffffffffffffffff16815260200190815260200160002060009054906101000a900460ff161515036120a457600080fd5b60006120ae6126a5565b90506120bb81858561289d565b600191505092915050565b600760009054906101000a900473ffffffffffffffffffffffffffffffffffffffff1681565b600680546120f990613a8c565b80601f016020809104026020016040519081016040528092919081815260200182805461212590613a8c565b80156121725780601f1061214757610100808354040283529160200191612172565b820191906000526020600020905b81548152906001019060200180831161215557829003601f168201915b505050505081565b612182612746565b600354826004546121939190613e24565b111561219e57600080fd5b6121a88383612a03565b81600460008282546121ba9190613e24565b9250508190555060006040518060600160405280838152602001848152602001600115158152509050601260008573ffffffffffffffffffffffffffffffffffffffff1673ffffffffffffffffffffffffffffffffffffffff16815260200190815260200160002081908060018154018082558091505060019003906000526020600020906003020160009091909190915060008201518160000190816122619190613c5f565b506020820151816001015560408201518160020160006101000a81548160ff02191690831515021790555050506000600760009054906101000a900473ffffffffffffffffffffffffffffffffffffffff1673ffffffffffffffffffffffffffffffffffffffff16346040516122d690614113565b60006040518083038185875af1925050503d8060008114612313576040519150601f19603f3d011682016040523d82523d6000602084013e612318565b606091505b505090508061232657600080fd5b5050505050565b612335612746565b61233d6126bf565b6000601360008373ffffffffffffffffffffffffffffffffffffffff1673ffffffffffffffffffffffffffffffffffffffff16815260200190815260200160002060006101000a81548160ff02191690831515021790555050565b6060600b80546123a790613a8c565b80601f01602080910402602001604051908101604052809291908181526020018280546123d390613a8c565b80156124205780601f106123f557610100808354040283529160200191612420565b820191906000526020600020905b81548152906001019060200180831161240357829003601f168201915b5050505050905090565b60136020528060005260406000206000915054906101000a900460ff1681565b60008061245561267d565b90508060010160008573ffffffffffffffffffffffffffffffffffffffff1673ffffffffffffffffffffffffffffffffffffffff16815260200190815260200160002060008473ffffffffffffffffffffffffffffffffffffffff1673ffffffffffffffffffffffffffffffffffffffff1681526020019081526020016000205491505092915050565b6124e76126bf565b80600d90816124f69190613c5f565b5050565b600b805461250790613a8c565b80601f016020809104026020016040519081016040528092919081815260200182805461253390613a8c565b80156125805780601f1061255557610100808354040283529160200191612580565b820191906000526020600020905b81548152906001019060200180831161256357829003601f168201915b505050505081565b6125906126bf565b600073ffffffffffffffffffffffffffffffffffffffff168173ffffffffffffffffffffffffffffffffffffffff16036125ff576040517f08c379a00000000000000000000000000000000000000000000000000000000081526004016125f69061419a565b60405180910390fd5b61260881612aad565b50565b600560009054906101000a900473ffffffffffffffffffffffffffffffffffffffff1681565b6126396126bf565b80600760006101000a81548173ffffffffffffffffffffffffffffffffffffffff021916908373ffffffffffffffffffffffffffffffffffffffff16021790555050565b60007f52c63247e1f47db19d5ce0460030c497f067ca4cebf71ba98eeadabe20bace00905090565b600033905090565b6126ba8383836001612c82565b505050565b6126c76126a5565b73ffffffffffffffffffffffffffffffffffffffff166126e5611e93565b73ffffffffffffffffffffffffffffffffffffffff1614612744576127086126a5565b6040517f118cdaa700000000000000000000000000000000000000000000000000000000815260040161273b91906138d2565b60405180910390fd5b565b61274e611445565b15612785576040517fd93c066500000000000000000000000000000000000000000000000000000000815260040160405180910390fd5b565b600073ffffffffffffffffffffffffffffffffffffffff168273ffffffffffffffffffffffffffffffffffffffff16036127f95760006040517f96c6fd1e0000000000000000000000000000000000000000000000000000000081526004016127f091906138d2565b60405180910390fd5b61280582600083612e68565b5050565b6000612815848461244a565b90507fffffffffffffffffffffffffffffffffffffffffffffffffffffffffffffffff81146128975781811015612887578281836040517ffb8f41b200000000000000000000000000000000000000000000000000000000815260040161287e939291906141ba565b60405180910390fd5b61289684848484036000612c82565b5b50505050565b600073ffffffffffffffffffffffffffffffffffffffff168373ffffffffffffffffffffffffffffffffffffffff160361290f5760006040517f96c6fd1e00000000000000000000000000000000000000000000000000000000815260040161290691906138d2565b60405180910390fd5b600073ffffffffffffffffffffffffffffffffffffffff168273ffffffffffffffffffffffffffffffffffffffff16036129815760006040517fec442f0500000000000000000000000000000000000000000000000000000000815260040161297891906138d2565b60405180910390fd5b61298c838383612e68565b505050565b6129996130a7565b60006129a3612a85565b905060008160000160006101000a81548160ff0219169083151502179055507f5db9ee0a495bf2e6ff9c91a7834c1ba4fdd244a5e8aa4e537bd38aeae4b073aa6129eb6126a5565b6040516129f891906138d2565b60405180910390a150565b600073ffffffffffffffffffffffffffffffffffffffff168273ffffffffffffffffffffffffffffffffffffffff1603612a755760006040517fec442f05000000000000000000000000000000000000000000000000000000008152600401612a6c91906138d2565b60405180910390fd5b612a8160008383612e68565b5050565b60007fcd5ed15c6e187e77e9aee88184c21f4f2182ab5827cb3b7e07fbedcd63f03300905090565b6000612ab7612c5a565b905060008160000160009054906101000a900473ffffffffffffffffffffffffffffffffffffffff169050828260000160006101000a81548173ffffffffffffffffffffffffffffffffffffffff021916908373ffffffffffffffffffffffffffffffffffffffff1602179055508273ffffffffffffffffffffffffffffffffffffffff168173ffffffffffffffffffffffffffffffffffffffff167f8be0079c531659141344cd1fd0a4f28419497f9722a3daafe3b4186f6b6457e060405160405180910390a3505050565b60007ff0c57e16840df040f15088dc2f81fe391c3923bec73e23a9662efc9c229c6a00905090565b612bb46130e7565b612bbe8282613127565b5050565b612bca6130e7565b612bd381613164565b50565b612bde6130e7565b612be66131ea565b565b612bf0612746565b6000612bfa612a85565b905060018160000160006101000a81548160ff0219169083151502179055507f62e78cea01bee320cd4e420270b5ea74000d11b0c9f74754ebdbfc544b05a258612c426126a5565b604051612c4f91906138d2565b60405180910390a150565b60007f9016d09d72d40fdae2fd8ceac6b6234c7706214fd39c1cd1e609a0528c199300905090565b6000612c8c61267d565b9050600073ffffffffffffffffffffffffffffffffffffffff168573ffffffffffffffffffffffffffffffffffffffff1603612d005760006040517fe602df05000000000000000000000000000000000000000000000000000000008152600401612cf791906138d2565b60405180910390fd5b600073ffffffffffffffffffffffffffffffffffffffff168473ffffffffffffffffffffffffffffffffffffffff1603612d725760006040517f94280d62000000000000000000000000000000000000000000000000000000008152600401612d6991906138d2565b60405180910390fd5b828160010160008773ffffffffffffffffffffffffffffffffffffffff1673ffffffffffffffffffffffffffffffffffffffff16815260200190815260200160002060008673ffffffffffffffffffffffffffffffffffffffff1673ffffffffffffffffffffffffffffffffffffffff168152602001908152602001600020819055508115612e61578373ffffffffffffffffffffffffffffffffffffffff168573ffffffffffffffffffffffffffffffffffffffff167f8c5be1e5ebec7d5bd14f71427d1e84f3dd0314c0f7b2291e5b200ac8c7c3b92585604051612e58919061359b565b60405180910390a35b5050505050565b6000612e7261267d565b9050600073ffffffffffffffffffffffffffffffffffffffff168473ffffffffffffffffffffffffffffffffffffffff1603612ec85781816002016000828254612ebc9190613e24565b92505081905550612fa1565b60008160000160008673ffffffffffffffffffffffffffffffffffffffff1673ffffffffffffffffffffffffffffffffffffffff16815260200190815260200160002054905082811015612f57578481846040517fe450d38c000000000000000000000000000000000000000000000000000000008152600401612f4e939291906141ba565b60405180910390fd5b8281038260000160008773ffffffffffffffffffffffffffffffffffffffff1673ffffffffffffffffffffffffffffffffffffffff16815260200190815260200160002081905550505b600073ffffffffffffffffffffffffffffffffffffffff168373ffffffffffffffffffffffffffffffffffffffff1603612fec5781816002016000828254039250508190555061303c565b818160000160008573ffffffffffffffffffffffffffffffffffffffff1673ffffffffffffffffffffffffffffffffffffffff168152602001908152602001600020600082825401925050819055505b8273ffffffffffffffffffffffffffffffffffffffff168473ffffffffffffffffffffffffffffffffffffffff167fddf252ad1be2c89b69c2b068fc378daa952ba7f163c4a11628f55a4df523b3ef84604051613099919061359b565b60405180910390a350505050565b6130af611445565b6130e5576040517f8dfc202b00000000000000000000000000000000000000000000000000000000815260040160405180910390fd5b565b6130ef61321e565b613125576040517fd7e6bcf800000000000000000000000000000000000000000000000000000000815260040160405180910390fd5b565b61312f6130e7565b600061313961267d565b90508281600301908161314c9190613c5f565b508181600401908161315e9190613c5f565b50505050565b61316c6130e7565b600073ffffffffffffffffffffffffffffffffffffffff168173ffffffffffffffffffffffffffffffffffffffff16036131de5760006040517f1e4fbdf70000000000000000000000000000000000000000000000000000000081526004016131d591906138d2565b60405180910390fd5b6131e781612aad565b50565b6131f26130e7565b60006131fc612a85565b905060008160000160006101000a81548160ff02191690831515021790555050565b6000613228612b84565b60000160089054906101000a900460ff16905090565b600081519050919050565b600082825260208201905092915050565b60005b8381101561327857808201518184015260208101905061325d565b60008484015250505050565b6000601f19601f8301169050919050565b60006132a08261323e565b6132aa8185613249565b93506132ba81856020860161325a565b6132c381613284565b840191505092915050565b600060208201905081810360008301526132e88184613295565b905092915050565b6000604051905090565b600080fd5b600080fd5b600073ffffffffffffffffffffffffffffffffffffffff82169050919050565b600061332f82613304565b9050919050565b61333f81613324565b811461334a57600080fd5b50565b60008135905061335c81613336565b92915050565b6000819050919050565b61337581613362565b811461338057600080fd5b50565b6000813590506133928161336c565b92915050565b600080604083850312156133af576133ae6132fa565b5b60006133bd8582860161334d565b92505060206133ce85828601613383565b9150509250929050565b60008115159050919050565b6133ed816133d8565b82525050565b600060208201905061340860008301846133e4565b92915050565b600080fd5b600080fd5b7f4e487b7100000000000000000000000000000000000000000000000000000000600052604160045260246000fd5b61345082613284565b810181811067ffffffffffffffff8211171561346f5761346e613418565b5b80604052505050565b60006134826132f0565b905061348e8282613447565b919050565b600067ffffffffffffffff8211156134ae576134ad613418565b5b6134b782613284565b9050602081019050919050565b82818337600083830152505050565b60006134e66134e184613493565b613478565b90508281526020810184848401111561350257613501613413565b5b61350d8482856134c4565b509392505050565b600082601f83011261352a5761352961340e565b5b813561353a8482602086016134d3565b91505092915050565b600060208284031215613559576135586132fa565b5b600082013567ffffffffffffffff811115613577576135766132ff565b5b61358384828501613515565b91505092915050565b61359581613362565b82525050565b60006020820190506135b0600083018461358c565b92915050565b600080604083850312156135cd576135cc6132fa565b5b60006135db85828601613383565b92505060206135ec85828601613383565b9150509250929050565b6000819050919050565b600061361b61361661361184613304565b6135f6565b613304565b9050919050565b600061362d82613600565b9050919050565b600061363f82613622565b9050919050565b61364f81613634565b82525050565b600060208201905061366a6000830184613646565b92915050565b600060208284031215613686576136856132fa565b5b60006136948482850161334d565b91505092915050565b6000806000606084860312156136b6576136b56132fa565b5b60006136c48682870161334d565b93505060206136d58682870161334d565b92505060406136e686828701613383565b9150509250925092565b600060ff82169050919050565b613706816136f0565b82525050565b600060208201905061372160008301846136fd565b92915050565b600081519050919050565b600082825260208201905092915050565b6000819050602082019050919050565b600082825260208201905092915050565b600061376f8261323e565b6137798185613753565b935061378981856020860161325a565b61379281613284565b840191505092915050565b6137a681613362565b82525050565b6137b5816133d8565b82525050565b600060608301600083015184820360008601526137d88282613764565b91505060208301516137ed602086018261379d565b50604083015161380060408601826137ac565b508091505092915050565b600061381783836137bb565b905092915050565b6000602082019050919050565b600061383782613727565b6138418185613732565b93508360208202850161385385613743565b8060005b8581101561388f5784840389528151613870858261380b565b945061387b8361381f565b925060208a01995050600181019050613857565b50829750879550505050505092915050565b600060208201905081810360008301526138bb818461382c565b905092915050565b6138cc81613324565b82525050565b60006020820190506138e760008301846138c3565b92915050565b60008060008060808587031215613907576139066132fa565b5b60006139158782880161334d565b945050602061392687828801613383565b935050604061393787828801613383565b925050606085013567ffffffffffffffff811115613958576139576132ff565b5b61396487828801613515565b91505092959194509250565b6000606082019050818103600083015261398a8186613295565b9050613999602083018561358c565b6139a660408301846133e4565b949350505050565b6000806000606084860312156139c7576139c66132fa565b5b60006139d58682870161334d565b93505060206139e686828701613383565b925050604084013567ffffffffffffffff811115613a0757613a066132ff565b5b613a1386828701613515565b9150509250925092565b60008060408385031215613a3457613a336132fa565b5b6000613a428582860161334d565b9250506020613a538582860161334d565b9150509250929050565b7f4e487b7100000000000000000000000000000000000000000000000000000000600052602260045260246000fd5b60006002820490506001821680613aa457607f821691505b602082108103613ab757613ab6613a5d565b5b50919050565b60008190508160005260206000209050919050565b60006020601f8301049050919050565b600082821b905092915050565b600060088302613b1f7fffffffffffffffffffffffffffffffffffffffffffffffffffffffffffffffff82613ae2565b613b298683613ae2565b95508019841693508086168417925050509392505050565b6000613b5c613b57613b5284613362565b6135f6565b613362565b9050919050565b6000819050919050565b613b7683613b41565b613b8a613b8282613b63565b848454613aef565b825550505050565b600090565b613b9f613b92565b613baa818484613b6d565b505050565b5b81811015613bce57613bc3600082613b97565b600181019050613bb0565b5050565b601f821115613c1357613be481613abd565b613bed84613ad2565b81016020851015613bfc578190505b613c10613c0885613ad2565b830182613baf565b50505b505050565b600082821c905092915050565b6000613c3660001984600802613c18565b1980831691505092915050565b6000613c4f8383613c25565b9150826002028217905092915050565b613c688261323e565b67ffffffffffffffff811115613c8157613c80613418565b5b613c8b8254613a8c565b613c96828285613bd2565b600060209050601f831160018114613cc95760008415613cb7578287015190505b613cc18582613c43565b865550613d29565b601f198416613cd786613abd565b60005b82811015613cff57848901518255600182019150602085019450602081019050613cda565b86831015613d1c5784890151613d18601f891682613c25565b8355505b6001600288020188555050505b505050505050565b6000606082019050613d4660008301866138c3565b613d5360208301856138c3565b613d60604083018461358c565b949350505050565b613d71816133d8565b8114613d7c57600080fd5b50565b600081519050613d8e81613d68565b92915050565b600060208284031215613daa57613da96132fa565b5b6000613db884828501613d7f565b91505092915050565b7f4e487b7100000000000000000000000000000000000000000000000000000000600052601160045260246000fd5b6000613dfb82613362565b9150613e0683613362565b9250828203905081811115613e1e57613e1d613dc1565b5b92915050565b6000613e2f82613362565b9150613e3a83613362565b9250828201905080821115613e5257613e51613dc1565b5b92915050565b6000613e6382613362565b9150613e6e83613362565b9250828202613e7c81613362565b91508282048414831517613e9357613e92613dc1565b5b5092915050565b7f4e487b7100000000000000000000000000000000000000000000000000000000600052601260045260246000fd5b6000613ed482613362565b9150613edf83613362565b925082613eef57613eee613e9a565b5b828204905092915050565b60008160011c9050919050565b6000808291508390505b6001851115613f5157808604811115613f2d57613f2c613dc1565b5b6001851615613f3c5780820291505b8081029050613f4a85613efa565b9450613f11565b94509492505050565b600082613f6a5760019050614026565b81613f785760009050614026565b8160018114613f8e5760028114613f9857613fc7565b6001915050614026565b60ff841115613faa57613fa9613dc1565b5b8360020a915084821115613fc157613fc0613dc1565b5b50614026565b5060208310610133831016604e8410600b8410161715613ffc5782820a905083811115613ff757613ff6613dc1565b5b614026565b6140098484846001613f07565b925090508184048111156140205761401f613dc1565b5b81810290505b9392505050565b600061403882613362565b915061404383613362565b92506140707fffffffffffffffffffffffffffffffffffffffffffffffffffffffffffffffff8484613f5a565b905092915050565b6000819050919050565b600067ffffffffffffffff82169050919050565b60006140b16140ac6140a784614078565b6135f6565b614082565b9050919050565b6140c181614096565b82525050565b60006020820190506140dc60008301846140b8565b92915050565b600081905092915050565b50565b60006140fd6000836140e2565b9150614108826140ed565b600082019050919050565b600061411e826140f0565b9150819050919050565b7f4f776e61626c653a206e6577206f776e657220697320746865207a65726f206160008201527f6464726573730000000000000000000000000000000000000000000000000000602082015250565b6000614184602683613249565b915061418f82614128565b604082019050919050565b600060208201905081810360008301526141b381614177565b9050919050565b60006060820190506141cf60008301866138c3565b6141dc602083018561358c565b6141e9604083018461358c565b94935050505056fe545934326a686a776e52393155475a4d42557a54344c774a516b6743463161514852a2646970667358221220eebca5e65697a106d62898cf605a68f9acc5e5ae204d32b8bd2bfd34af92682c64736f6c63430008180033",
  "linkReferences": {},
  "deployedLinkReferences": {}
}