{
  "_format": "hh-sol-artifact-1",
  "contractName": "AirdropTimeLockSMTX",
  "sourceName": "contracts/ClaimTheAirdrop.sol",
  "abi": [
    {
      "inputs": [],
      "stateMutability": "nonpayable",
      "type": "constructor"
    },
    {
      "anonymous": false,
      "inputs": [
        {
          "indexed": false,
          "internalType": "address",
          "name": "recipient",
          "type": "address"
        },
        {
          "indexed": false,
          "internalType": "uint256",
          "name": "amount",
          "type": "uint256"
        }
      ],
      "name": "AllocationPerformed",
      "type": "event"
    },
    {
      "anonymous": false,
      "inputs": [
        {
          "indexed": false,
          "internalType": "address",
          "name": "from",
          "type": "address"
        },
        {
          "indexed": false,
          "internalType": "uint256",
          "name": "amount",
          "type": "uint256"
        }
      ],
      "name": "TokensDeposited",
      "type": "event"
    },
    {
      "anonymous": false,
      "inputs": [
        {
          "indexed": false,
          "internalType": "address",
          "name": "recipient",
          "type": "address"
        },
        {
          "indexed": false,
          "internalType": "uint256",
          "name": "amount",
          "type": "uint256"
        }
      ],
      "name": "TokensUnlocked",
      "type": "event"
    },
    {
      "inputs": [],
      "name": "allIncomingDepositsFinalised",
      "outputs": [
        {
          "internalType": "bool",
          "name": "",
          "type": "bool"
        }
      ],
      "stateMutability": "view",
      "type": "function"
    },
    {
      "inputs": [
        {
          "internalType": "address",
          "name": "",
          "type": "address"
        }
      ],
      "name": "alreadyWithdrawn",
      "outputs": [
        {
          "internalType": "uint256",
          "name": "",
          "type": "uint256"
        }
      ],
      "stateMutability": "view",
      "type": "function"
    },
    {
      "inputs": [
        {
          "internalType": "address",
          "name": "",
          "type": "address"
        }
      ],
      "name": "balances",
      "outputs": [
        {
          "internalType": "uint256",
          "name": "",
          "type": "uint256"
        }
      ],
      "stateMutability": "view",
      "type": "function"
    },
    {
      "inputs": [
        {
          "internalType": "address[]",
          "name": "recipients",
          "type": "address[]"
        },
        {
          "internalType": "uint256[]",
          "name": "amounts",
          "type": "uint256[]"
        }
      ],
      "name": "bulkDepositTokens",
      "outputs": [],
      "stateMutability": "nonpayable",
      "type": "function"
    },
    {
      "inputs": [
        {
          "internalType": "address",
          "name": "recipient",
          "type": "address"
        },
        {
          "internalType": "uint256",
          "name": "amount",
          "type": "uint256"
        },
        {
          "internalType": "uint256[]",
          "name": "_ogSumoList",
          "type": "uint256[]"
        },
        {
          "internalType": "uint256[]",
          "name": "_xSumoList",
          "type": "uint256[]"
        },
        {
          "internalType": "string",
          "name": "secretPhase",
          "type": "string"
        }
      ],
      "name": "claimAirdropToken",
      "outputs": [],
      "stateMutability": "payable",
      "type": "function"
    },
    {
      "inputs": [],
      "name": "cliffEdge",
      "outputs": [
        {
          "internalType": "uint256",
          "name": "",
          "type": "uint256"
        }
      ],
      "stateMutability": "view",
      "type": "function"
    },
    {
      "inputs": [],
      "name": "contractBalance",
      "outputs": [
        {
          "internalType": "uint256",
          "name": "",
          "type": "uint256"
        }
      ],
      "stateMutability": "view",
      "type": "function"
    },
    {
      "inputs": [
        {
          "internalType": "address",
          "name": "recipient",
          "type": "address"
        },
        {
          "internalType": "uint256",
          "name": "amount",
          "type": "uint256"
        }
      ],
      "name": "depositTokens",
      "outputs": [],
      "stateMutability": "nonpayable",
      "type": "function"
    },
    {
      "inputs": [],
      "name": "erc20Contract",
      "outputs": [
        {
          "internalType": "contract IERC20",
          "name": "",
          "type": "address"
        }
      ],
      "stateMutability": "view",
      "type": "function"
    },
    {
      "inputs": [],
      "name": "finalizeAllIncomingDeposits",
      "outputs": [],
      "stateMutability": "nonpayable",
      "type": "function"
    },
    {
      "inputs": [
        {
          "internalType": "uint256",
          "name": "tokenId",
          "type": "uint256"
        }
      ],
      "name": "getOgSumoClaimAddress",
      "outputs": [
        {
          "internalType": "address",
          "name": "name",
          "type": "address"
        }
      ],
      "stateMutability": "view",
      "type": "function"
    },
    {
      "inputs": [
        {
          "internalType": "uint256",
          "name": "tokenId",
          "type": "uint256"
        }
      ],
      "name": "getOgSumoClaimInfo",
      "outputs": [
        {
          "internalType": "bool",
          "name": "name",
          "type": "bool"
        }
      ],
      "stateMutability": "view",
      "type": "function"
    },
    {
      "inputs": [
        {
          "internalType": "address",
          "name": "to",
          "type": "address"
        }
      ],
      "name": "getTotalAvailableAmount",
      "outputs": [
        {
          "internalType": "uint256",
          "name": "",
          "type": "uint256"
        }
      ],
      "stateMutability": "view",
      "type": "function"
    },
    {
      "inputs": [
        {
          "internalType": "address",
          "name": "to",
          "type": "address"
        }
      ],
      "name": "getWithdrawalAmount",
      "outputs": [
        {
          "internalType": "uint256",
          "name": "",
          "type": "uint256"
        }
      ],
      "stateMutability": "view",
      "type": "function"
    },
    {
      "inputs": [
        {
          "internalType": "address",
          "name": "to",
          "type": "address"
        }
      ],
      "name": "getWithdrawalAmountNotVested",
      "outputs": [
        {
          "internalType": "uint256",
          "name": "",
          "type": "uint256"
        }
      ],
      "stateMutability": "view",
      "type": "function"
    },
    {
      "inputs": [
        {
          "internalType": "uint256",
          "name": "tokenId",
          "type": "uint256"
        }
      ],
      "name": "getXSumoClaimAddress",
      "outputs": [
        {
          "internalType": "address",
          "name": "name",
          "type": "address"
        }
      ],
      "stateMutability": "view",
      "type": "function"
    },
    {
      "inputs": [
        {
          "internalType": "uint256",
          "name": "tokenId",
          "type": "uint256"
        }
      ],
      "name": "getXSumoClaimInfo",
      "outputs": [
        {
          "internalType": "bool",
          "name": "name",
          "type": "bool"
        }
      ],
      "stateMutability": "view",
      "type": "function"
    },
    {
      "inputs": [],
      "name": "initialTimestamp",
      "outputs": [
        {
          "internalType": "uint256",
          "name": "",
          "type": "uint256"
        }
      ],
      "stateMutability": "view",
      "type": "function"
    },
    {
      "inputs": [
        {
          "internalType": "uint256",
          "name": "",
          "type": "uint256"
        }
      ],
      "name": "ogSumoClaimAddress",
      "outputs": [
        {
          "internalType": "address",
          "name": "",
          "type": "address"
        }
      ],
      "stateMutability": "view",
      "type": "function"
    },
    {
      "inputs": [
        {
          "internalType": "uint256",
          "name": "",
          "type": "uint256"
        }
      ],
      "name": "ogSumoList",
      "outputs": [
        {
          "internalType": "bool",
          "name": "",
          "type": "bool"
        }
      ],
      "stateMutability": "view",
      "type": "function"
    },
    {
      "inputs": [],
      "name": "owner",
      "outputs": [
        {
          "internalType": "address payable",
          "name": "",
          "type": "address"
        }
      ],
      "stateMutability": "view",
      "type": "function"
    },
    {
      "inputs": [],
      "name": "releaseEdge",
      "outputs": [
        {
          "internalType": "uint256",
          "name": "",
          "type": "uint256"
        }
      ],
      "stateMutability": "view",
      "type": "function"
    },
    {
      "inputs": [
        {
          "internalType": "int256",
          "name": "_cliffTimePeriod",
          "type": "int256"
        },
        {
          "internalType": "int256",
          "name": "_releaseTimePeriod",
          "type": "int256"
        }
      ],
      "name": "setTimestamp",
      "outputs": [],
      "stateMutability": "nonpayable",
      "type": "function"
    },
    {
      "inputs": [],
      "name": "timestampSet",
      "outputs": [
        {
          "internalType": "bool",
          "name": "",
          "type": "bool"
        }
      ],
      "stateMutability": "view",
      "type": "function"
    },
    {
      "inputs": [
        {
          "internalType": "contract IERC20",
          "name": "token",
          "type": "address"
        },
        {
          "internalType": "uint256",
          "name": "amount",
          "type": "uint256"
        }
      ],
      "name": "transferAccidentallyLockedTokens",
      "outputs": [],
      "stateMutability": "nonpayable",
      "type": "function"
    },
    {
      "inputs": [
        {
          "internalType": "contract IERC20",
          "name": "token",
          "type": "address"
        },
        {
          "internalType": "address",
          "name": "to",
          "type": "address"
        },
        {
          "internalType": "uint256",
          "name": "amount",
          "type": "uint256"
        }
      ],
      "name": "transferTimeLockedTokensAfterTimePeriod",
      "outputs": [],
      "stateMutability": "nonpayable",
      "type": "function"
    },
    {
      "inputs": [],
      "name": "walletOwner",
      "outputs": [
        {
          "internalType": "address",
          "name": "",
          "type": "address"
        }
      ],
      "stateMutability": "view",
      "type": "function"
    },
    {
      "inputs": [
        {
          "internalType": "uint256",
          "name": "amount",
          "type": "uint256"
        }
      ],
      "name": "withdrawEth",
      "outputs": [],
      "stateMutability": "nonpayable",
      "type": "function"
    },
    {
      "inputs": [
        {
          "internalType": "uint256",
          "name": "",
          "type": "uint256"
        }
      ],
      "name": "xSumoClaimAddress",
      "outputs": [
        {
          "internalType": "address",
          "name": "",
          "type": "address"
        }
      ],
      "stateMutability": "view",
      "type": "function"
    },
    {
      "inputs": [
        {
          "internalType": "uint256",
          "name": "",
          "type": "uint256"
        }
      ],
      "name": "xSumoList",
      "outputs": [
        {
          "internalType": "bool",
          "name": "",
          "type": "bool"
        }
      ],
      "stateMutability": "view",
      "type": "function"
    },
    {
      "stateMutability": "payable",
      "type": "receive"
    }
  ],
  "bytecode": "0x60806040523480156200001157600080fd5b5060008054610100600160b01b03191661010033908102919091179091556002805460ff19169055733c1e3b0ad165a4bb19aee73eaddc5919996d4e8b1415620000ad5760405162461bcd60e51b8152602060048201526024808201527f6f776e657220616464726573732063616e206e6f742062652030784332432e2e6044820152632e65346160e01b606482015260840160405180910390fd5b600d80546001600160a01b0319908116733c1e3b0ad165a4bb19aee73eaddc5919996d4e8b17909155600580549091167352e595835c862c6f70275a038bde771f7432578117905560015b61177081116200012d576000818152600860205260409020805460ff1916905580620001248162000177565b915050620000f8565b5060015b610ce4811162000166576000818152600660205260409020805460ff19169055806200015d8162000177565b91505062000131565b506000805460ff191690556200019f565b60006000198214156200019857634e487b7160e01b81526011600452602481fd5b5060010190565b61217280620001af6000396000f3fe6080604052600436106101d15760003560e01c80638c5d0d2a116100f7578063bec540a411610095578063ddf27e7c11610064578063ddf27e7c14610617578063efc8f89d14610647578063f679372614610677578063ff480480146106a757600080fd5b8063bec540a41461058b578063c311d049146105c1578063d1484298146105e1578063d6d141711461060157600080fd5b80639aa2e39e116100d15780639aa2e39e146105245780639b69279a14610551578063a536366414610470578063a8f6c9131461056b57600080fd5b80638c5d0d2a146104bc5780638da5cb5b146104cf57806393274cf2146104f457600080fd5b80633e9949421161016f57806356582bf91161013e57806356582bf91461043057806366168bd71461045057806369343f27146104705780638b7afe2e146104a657600080fd5b80633e99494214610389578063473dd948146103a95780634acf914d146103df57806355ce3866146103ff57600080fd5b8063199b6bba116101ab578063199b6bba146102e65780631ae879e81461030657806327607ee71461032657806327e235e31461035c57600080fd5b806302cc6e3f14610258578063084c28d61461026f5780630c339bb51461029857600080fd5b3661025357600054600160a81b900460ff16156102095760405162461bcd60e51b815260040161020090611fae565b60405180910390fd5b600c5461021690346106bd565b600c55604080513381523460208201527f59062170a285eb80e8c6b8ced60428442a51910635005233fc4ce084a475845e910160405180910390a1005b600080fd5b34801561026457600080fd5b5061026d6106d0565b005b34801561027b57600080fd5b5061028560035481565b6040519081526020015b60405180910390f35b3480156102a457600080fd5b506102ce6102b3366004611dea565b6000908152600960205260409020546001600160a01b031690565b6040516001600160a01b03909116815260200161028f565b3480156102f257600080fd5b5061026d610301366004611d77565b610765565b34801561031257600080fd5b506005546102ce906001600160a01b031681565b34801561033257600080fd5b506102ce610341366004611dea565b6007602052600090815260409020546001600160a01b031681565b34801561036857600080fd5b50610285610377366004611bb4565b600b6020526000908152604090205481565b34801561039557600080fd5b5061026d6103a4366004611db7565b610cbe565b3480156103b557600080fd5b506102ce6103c4366004611dea565b6000908152600760205260409020546001600160a01b031690565b3480156103eb57600080fd5b5061026d6103fa366004611dc9565b610da0565b34801561040b57600080fd5b5060005461042090600160a81b900460ff1681565b604051901515815260200161028f565b34801561043c57600080fd5b5061028561044b366004611bb4565b610f14565b34801561045c57600080fd5b5061026d61046b366004611bd0565b610f92565b34801561047c57600080fd5b5061028561048b366004611bb4565b6001600160a01b03166000908152600b602052604090205490565b3480156104b257600080fd5b50610285600c5481565b61026d6104ca366004611bfb565b6110bc565b3480156104db57600080fd5b506000546102ce9061010090046001600160a01b031681565b34801561050057600080fd5b5061042061050f366004611dea565b60009081526006602052604090205460ff1690565b34801561053057600080fd5b5061028561053f366004611bb4565b600a6020526000908152604090205481565b34801561055d57600080fd5b506002546104209060ff1681565b34801561057757600080fd5b50600d546102ce906001600160a01b031681565b34801561059757600080fd5b506102ce6105a6366004611dea565b6009602052600090815260409020546001600160a01b031681565b3480156105cd57600080fd5b5061026d6105dc366004611dea565b611403565b3480156105ed57600080fd5b5061026d6105fc366004611cee565b6114f6565b34801561060d57600080fd5b5061028560015481565b34801561062357600080fd5b50610420610632366004611dea565b60066020526000908152604090205460ff1681565b34801561065357600080fd5b50610420610662366004611dea565b60086020526000908152604090205460ff1681565b34801561068357600080fd5b50610420610692366004611dea565b60009081526008602052604090205460ff1690565b3480156106b357600080fd5b5061028560045481565b60006106c98284612025565b9392505050565b60005461010090046001600160a01b031633146106ff5760405162461bcd60e51b815260040161020090611f62565b60025460ff1615156001146107265760405162461bcd60e51b815260040161020090611eea565b600054600160a81b900460ff16156107505760405162461bcd60e51b815260040161020090611fae565b6000805460ff60a81b1916600160a81b179055565b60025460ff16151560011461078c5760405162461bcd60e51b815260040161020090611eea565b60005460ff16156107af5760405162461bcd60e51b815260040161020090611f3a565b6000805460ff191660011790556001600160a01b0382166107e25760405162461bcd60e51b815260040161020090611e51565b6001600160a01b0382166000908152600b60205260409020548111156108605760405162461bcd60e51b815260206004820152602d60248201527f496e73756666696369656e7420746f6b656e2062616c616e63652c207472792060448201526c1b195cdcd95c88185b5bdd5b9d609a1b6064820152608401610200565b336001600160a01b038316146108d05760405162461bcd60e51b815260206004820152602f60248201527f4f6e6c792074686520746f6b656e20726563697069656e742063616e2070657260448201526e666f726d2074686520756e6c6f636b60881b6064820152608401610200565b600d546001600160a01b038481169116146109875760405162461bcd60e51b8152602060048201526064602482018190527f546f6b656e20706172616d65746572206d757374206265207468652073616d6560448301527f2061732074686520657263323020636f6e747261637420616464726573732077908201527f68696368207761732070617373656420696e746f2074686520636f6e7374727560848201526331ba37b960e11b60a482015260c401610200565b60035442116109fe5760405162461bcd60e51b815260206004820152603f60248201527f546f6b656e7320617265206f6e6c7920617661696c61626c652061667465722060448201527f636f72726563742074696d6520706572696f642068617320656c6170736564006064820152608401610200565b600454421115610acb576001600160a01b0382166000908152600a6020526040902054610a2b90826106bd565b6001600160a01b0383166000908152600a6020908152604080832093909355600b90522054610a5a9082611819565b6001600160a01b038084166000908152600b6020526040902091909155610a849084168383611825565b604080516001600160a01b0384168152602081018390527fe7b379c6c1fa169e9079c25e9143b127637eef8ec8c9d5c06ddb4ab3e1195888910160405180910390a1610caf565b6001600160a01b0382166000908152600b6020908152604080832054600a909252822054610af8916106bd565b90506000610b3b610b1660035460045461181990919063ffffffff16565b610b35610b2e6003544261181990919063ffffffff16565b859061187c565b90611888565b6001600160a01b0385166000908152600a602052604081205491925090610b62908361207c565b905080841115610bed5760405162461bcd60e51b815260206004820152604a60248201527f546f6b656e20616d6f756e74206e6f7420617661696c61626c6520666f72207560448201527f6e6c6f636b207269676874206e6f772c20706c6561736520747279206c65737360648201526932b91030b6b7bab73a1760b11b608482015260a401610200565b6001600160a01b0385166000908152600a6020526040902054610c1090856106bd565b6001600160a01b0386166000908152600a6020908152604080832093909355600b90522054610c3f9085611819565b6001600160a01b038087166000908152600b6020526040902091909155610c699087168686611825565b604080516001600160a01b0387168152602081018690527fe7b379c6c1fa169e9079c25e9143b127637eef8ec8c9d5c06ddb4ab3e1195888910160405180910390a15050505b50506000805460ff1916905550565b60005461010090046001600160a01b03163314610ced5760405162461bcd60e51b815260040161020090611f62565b60005460ff1615610d105760405162461bcd60e51b815260040161020090611f3a565b6000805460ff191660011790556001600160a01b038216610d735760405162461bcd60e51b815260206004820152601d60248201527f546f6b656e20616464726573732063616e206e6f74206265207a65726f0000006044820152606401610200565b600054610d92906001600160a01b038481169161010090041683611825565b50506000805460ff19169055565b60005461010090046001600160a01b03163314610dcf5760405162461bcd60e51b815260040161020090611f62565b60025460ff1615610e2e5760405162461bcd60e51b8152602060048201526024808201527f5468652074696d65207374616d702068617320616c7265616479206265656e2060448201526339b2ba1760e11b6064820152608401610200565b8115801590610e3c57508015155b610e885760405162461bcd60e51b815260206004820152601c60248201527f54696d6520706572696f64732063616e206e6f74206265207a65726f000000006044820152606401610200565b6002805460ff191660019081179091554290556000821315610eb957600154610eb190836106bd565b600355610ed2565b610ece610ec5836120de565b60015490611819565b6003555b6000811315610ef057600154610ee890826106bd565b600455610f00565b610efc610ec5826120de565b6004555b60045460035410610f1057600080fd5b5050565b6001600160a01b0381166000908152600b6020908152604080832054600a9092528220548291610f4491906106bd565b90506000610f62610b1660035460045461181990919063ffffffff16565b6001600160a01b0385166000908152600a602052604081205491925090610f89908361207c565b95945050505050565b60005461010090046001600160a01b03163314610fc15760405162461bcd60e51b815260040161020090611f62565b600054600160a81b900460ff1615610feb5760405162461bcd60e51b815260040161020090611fae565b600354600454610ffa91611819565b8110156110195760405162461bcd60e51b815260040161020090611e94565b6001600160a01b03821661103f5760405162461bcd60e51b815260040161020090611e51565b6001600160a01b0382166000908152600b602052604090205461106290826106bd565b6001600160a01b0383166000818152600b60209081526040918290209390935580519182529181018390527fcad22dd3bcdad18c651a372fe3e7e893af3d354482d9ac6c310c8342eb7af574910160405180910390a15050565b600054600160a81b900460ff16156110e65760405162461bcd60e51b815260040161020090611fae565b6003546004546110f591611819565b8410156111145760405162461bcd60e51b815260040161020090611e94565b60408051808201909152601f81527f68747470733a2f2f636f696e2e73756d6f7465782e636f2f6b65793d313233006020808301919091528251908301207ff81000445b7452a992d7dd668f4141120ed7e02f7ef284b0ad2e8220b1e5a6d8146111b85760405162461bcd60e51b81526020600482015260156024820152744e6f742066726f6d206d61696e207765627369746560581b6044820152606401610200565b6001600160a01b0386166111de5760405162461bcd60e51b815260040161020090611e51565b60005b84518110156112af5760016008600087848151811061121057634e487b7160e01b600052603260045260246000fd5b6020026020010151815260200190815260200160002060006101000a81548160ff021916908315150217905550336009600087848151811061126257634e487b7160e01b600052603260045260246000fd5b6020026020010151815260200190815260200160002060006101000a8154816001600160a01b0302191690836001600160a01b0316021790555080806112a7906120c3565b9150506111e1565b5060005b8351811015611381576001600660008684815181106112e257634e487b7160e01b600052603260045260246000fd5b6020026020010151815260200190815260200160002060006101000a81548160ff021916908315150217905550336007600086848151811061133457634e487b7160e01b600052603260045260246000fd5b6020026020010151815260200190815260200160002060006101000a8154816001600160a01b0302191690836001600160a01b031602179055508080611379906120c3565b9150506112b3565b506001600160a01b0386166000908152600b60205260409020546113a590866106bd565b6001600160a01b0387166000818152600b60209081526040918290209390935580519182529181018790527fcad22dd3bcdad18c651a372fe3e7e893af3d354482d9ac6c310c8342eb7af574910160405180910390a1505050505050565b60005461010090046001600160a01b031633146114325760405162461bcd60e51b815260040161020090611f62565b60005460ff16156114555760405162461bcd60e51b815260040161020090611f3a565b6000805460ff19166001179055600c548111156114a95760405162461bcd60e51b8152602060048201526012602482015271496e73756666696369656e742066756e647360701b6044820152606401610200565b600c546114b69082611819565b600c55600080546040516101009091046001600160a01b0316916108fc841502918491818181858888f19350505050158015610d92573d6000803e3d6000fd5b60005461010090046001600160a01b031633146115255760405162461bcd60e51b815260040161020090611f62565b600054600160a81b900460ff161561154f5760405162461bcd60e51b815260040161020090611fae565b8281146115ce5760405162461bcd60e51b815260206004820152604160248201527f54686520726563697069656e747320616e6420616d6f756e747320617272617960448201527f73206d757374206265207468652073616d652073697a6520696e206c656e67746064820152600d60fb1b608482015260a401610200565b60005b838110156118125760008585838181106115fb57634e487b7160e01b600052603260045260246000fd5b90506020020160208101906116109190611bb4565b6001600160a01b031614156116375760405162461bcd60e51b815260040161020090611e51565b60035460045461164691611819565b83838381811061166657634e487b7160e01b600052603260045260246000fd5b90506020020135101561168b5760405162461bcd60e51b815260040161020090611e94565b61170e8383838181106116ae57634e487b7160e01b600052603260045260246000fd5b90506020020135600b60008888868181106116d957634e487b7160e01b600052603260045260246000fd5b90506020020160208101906116ee9190611bb4565b6001600160a01b03168152602081019190915260400160002054906106bd565b600b600087878581811061173257634e487b7160e01b600052603260045260246000fd5b90506020020160208101906117479190611bb4565b6001600160a01b031681526020810191909152604001600020557fcad22dd3bcdad18c651a372fe3e7e893af3d354482d9ac6c310c8342eb7af5748585838181106117a257634e487b7160e01b600052603260045260246000fd5b90506020020160208101906117b79190611bb4565b8484848181106117d757634e487b7160e01b600052603260045260246000fd5b604080516001600160a01b0390951685526020918202939093013590840152500160405180910390a18061180a816120c3565b9150506115d1565b5050505050565b60006106c9828461207c565b604080516001600160a01b038416602482015260448082018490528251808303909101815260649091019091526020810180516001600160e01b031663a9059cbb60e01b179052611877908490611894565b505050565b60006106c9828461205d565b60006106c9828461203d565b60006118e9826040518060400160405280602081526020017f5361666545524332303a206c6f772d6c6576656c2063616c6c206661696c6564815250856001600160a01b03166119669092919063ffffffff16565b80519091501561187757808060200190518101906119079190611d57565b6118775760405162461bcd60e51b815260206004820152602a60248201527f5361666545524332303a204552433230206f7065726174696f6e20646964206e6044820152691bdd081cdd58d8d9595960b21b6064820152608401610200565b6060611975848460008561197d565b949350505050565b6060824710156119de5760405162461bcd60e51b815260206004820152602660248201527f416464726573733a20696e73756666696369656e742062616c616e636520666f6044820152651c8818d85b1b60d21b6064820152608401610200565b6001600160a01b0385163b611a355760405162461bcd60e51b815260206004820152601d60248201527f416464726573733a2063616c6c20746f206e6f6e2d636f6e74726163740000006044820152606401610200565b600080866001600160a01b03168587604051611a519190611e02565b60006040518083038185875af1925050503d8060008114611a8e576040519150601f19603f3d011682016040523d82523d6000602084013e611a93565b606091505b5091509150611aa3828286611aae565b979650505050505050565b60608315611abd5750816106c9565b825115611acd5782518084602001fd5b8160405162461bcd60e51b81526004016102009190611e1e565b60008083601f840112611af8578182fd5b50813567ffffffffffffffff811115611b0f578182fd5b6020830191508360208260051b8501011115611b2a57600080fd5b9250929050565b600082601f830112611b41578081fd5b8135602067ffffffffffffffff821115611b5d57611b5d61210e565b8160051b611b6c828201611ff4565b838152828101908684018388018501891015611b86578687fd5b8693505b85841015611ba8578035835260019390930192918401918401611b8a565b50979650505050505050565b600060208284031215611bc5578081fd5b81356106c981612124565b60008060408385031215611be2578081fd5b8235611bed81612124565b946020939093013593505050565b600080600080600060a08688031215611c12578081fd5b8535611c1d81612124565b94506020868101359450604087013567ffffffffffffffff80821115611c41578384fd5b611c4d8a838b01611b31565b95506060890135915080821115611c62578384fd5b611c6e8a838b01611b31565b94506080890135915080821115611c83578384fd5b818901915089601f830112611c96578384fd5b813581811115611ca857611ca861210e565b611cba601f8201601f19168501611ff4565b91508082528a84828501011115611ccf578485fd5b8084840185840137810190920192909252949793965091945092919050565b60008060008060408587031215611d03578384fd5b843567ffffffffffffffff80821115611d1a578586fd5b611d2688838901611ae7565b90965094506020870135915080821115611d3e578384fd5b50611d4b87828801611ae7565b95989497509550505050565b600060208284031215611d68578081fd5b815180151581146106c9578182fd5b600080600060608486031215611d8b578283fd5b8335611d9681612124565b92506020840135611da681612124565b929592945050506040919091013590565b60008060408385031215611be2578182fd5b60008060408385031215611ddb578182fd5b50508035926020909101359150565b600060208284031215611dfb578081fd5b5035919050565b60008251611e14818460208701612093565b9190910192915050565b6020815260008251806020840152611e3d816040850160208701612093565b601f01601f19169190910160400192915050565b60208082526023908201527f45524332303a207472616e7366657220746f20746865207a65726f206164647260408201526265737360e81b606082015260800190565b60208082526036908201527f416d6f756e74206465706f7369746564206d7573742062652067726561746572604082015275081d1a185b881b995d14995b19585cd954195c9a5bd960521b606082015260800190565b60208082526030908201527f506c6561736520736574207468652074696d65207374616d702066697273742c60408201526f103a3432b7103a393c9030b3b0b4b71760811b606082015260800190565b6020808252600e908201526d4e6f2072652d656e7472616e637960901b604082015260600190565b6020808252602c908201527f4d6573736167652073656e646572206d7573742062652074686520636f6e747260408201526b30b1ba13b99037bbb732b91760a11b606082015260800190565b60208082526026908201527f496e636f6d696e67206465706f736974732068617665206265656e2066696e616040820152653634b9b2b21760d11b606082015260800190565b604051601f8201601f1916810167ffffffffffffffff8111828210171561201d5761201d61210e565b604052919050565b60008219821115612038576120386120f8565b500190565b60008261205857634e487b7160e01b81526012600452602481fd5b500490565b6000816000190483118215151615612077576120776120f8565b500290565b60008282101561208e5761208e6120f8565b500390565b60005b838110156120ae578181015183820152602001612096565b838111156120bd576000848401525b50505050565b60006000198214156120d7576120d76120f8565b5060010190565b6000600160ff1b8214156120f4576120f46120f8565b0390565b634e487b7160e01b600052601160045260246000fd5b634e487b7160e01b600052604160045260246000fd5b6001600160a01b038116811461213957600080fd5b5056fea2646970667358221220b5977bb350a07f0167540859255731e4585fe8f3bb86eaf0500caaf4bb29417264736f6c63430008040033",
  "linkReferences": {},
  "deployedLinkReferences": {}
}