{
  "_format": "hh-sol-artifact-1",
  "contractName": "HomevestCoinFST",
  "sourceName": "contracts/FST-Token-Homevest.sol",
  "abi": [
    {
      "anonymous": false,
      "inputs": [
        {
          "indexed": true,
          "internalType": "address",
          "name": "owner",
          "type": "address"
        },
        {
          "indexed": true,
          "internalType": "address",
          "name": "spender",
          "type": "address"
        },
        {
          "indexed": false,
          "internalType": "uint256",
          "name": "value",
          "type": "uint256"
        }
      ],
      "name": "Approval",
      "type": "event"
    },
    {
      "anonymous": false,
      "inputs": [
        {
          "indexed": false,
          "internalType": "uint8",
          "name": "version",
          "type": "uint8"
        }
      ],
      "name": "Initialized",
      "type": "event"
    },
    {
      "anonymous": false,
      "inputs": [
        {
          "indexed": true,
          "internalType": "address",
          "name": "previousOwner",
          "type": "address"
        },
        {
          "indexed": true,
          "internalType": "address",
          "name": "newOwner",
          "type": "address"
        }
      ],
      "name": "OwnershipTransferred",
      "type": "event"
    },
    {
      "anonymous": false,
      "inputs": [
        {
          "indexed": false,
          "internalType": "address",
          "name": "account",
          "type": "address"
        }
      ],
      "name": "Paused",
      "type": "event"
    },
    {
      "anonymous": false,
      "inputs": [
        {
          "indexed": true,
          "internalType": "address",
          "name": "from",
          "type": "address"
        },
        {
          "indexed": true,
          "internalType": "address",
          "name": "to",
          "type": "address"
        },
        {
          "indexed": false,
          "internalType": "uint256",
          "name": "value",
          "type": "uint256"
        }
      ],
      "name": "Transfer",
      "type": "event"
    },
    {
      "anonymous": false,
      "inputs": [
        {
          "indexed": false,
          "internalType": "address",
          "name": "account",
          "type": "address"
        }
      ],
      "name": "Unpaused",
      "type": "event"
    },
    {
      "inputs": [
        {
          "internalType": "address",
          "name": "_blacklistUser",
          "type": "address"
        }
      ],
      "name": "addblackListUser",
      "outputs": [],
      "stateMutability": "nonpayable",
      "type": "function"
    },
    {
      "inputs": [
        {
          "internalType": "address",
          "name": "owner",
          "type": "address"
        },
        {
          "internalType": "address",
          "name": "spender",
          "type": "address"
        }
      ],
      "name": "allowance",
      "outputs": [
        {
          "internalType": "uint256",
          "name": "",
          "type": "uint256"
        }
      ],
      "stateMutability": "view",
      "type": "function"
    },
    {
      "inputs": [
        {
          "internalType": "address",
          "name": "spender",
          "type": "address"
        },
        {
          "internalType": "uint256",
          "name": "amount",
          "type": "uint256"
        }
      ],
      "name": "approve",
      "outputs": [
        {
          "internalType": "bool",
          "name": "",
          "type": "bool"
        }
      ],
      "stateMutability": "nonpayable",
      "type": "function"
    },
    {
      "inputs": [],
      "name": "auditLink",
      "outputs": [
        {
          "internalType": "string",
          "name": "",
          "type": "string"
        }
      ],
      "stateMutability": "view",
      "type": "function"
    },
    {
      "inputs": [
        {
          "internalType": "address",
          "name": "account",
          "type": "address"
        }
      ],
      "name": "balanceOf",
      "outputs": [
        {
          "internalType": "uint256",
          "name": "",
          "type": "uint256"
        }
      ],
      "stateMutability": "view",
      "type": "function"
    },
    {
      "inputs": [
        {
          "internalType": "address",
          "name": "",
          "type": "address"
        }
      ],
      "name": "blacklisted",
      "outputs": [
        {
          "internalType": "bool",
          "name": "",
          "type": "bool"
        }
      ],
      "stateMutability": "view",
      "type": "function"
    },
    {
      "inputs": [],
      "name": "decimals",
      "outputs": [
        {
          "internalType": "uint8",
          "name": "",
          "type": "uint8"
        }
      ],
      "stateMutability": "view",
      "type": "function"
    },
    {
      "inputs": [
        {
          "internalType": "address",
          "name": "spender",
          "type": "address"
        },
        {
          "internalType": "uint256",
          "name": "subtractedValue",
          "type": "uint256"
        }
      ],
      "name": "decreaseAllowance",
      "outputs": [
        {
          "internalType": "bool",
          "name": "",
          "type": "bool"
        }
      ],
      "stateMutability": "nonpayable",
      "type": "function"
    },
    {
      "inputs": [],
      "name": "erc20Contract",
      "outputs": [
        {
          "internalType": "contract IERC20Upgradeable",
          "name": "",
          "type": "address"
        }
      ],
      "stateMutability": "view",
      "type": "function"
    },
    {
      "inputs": [],
      "name": "fundManagerAddress",
      "outputs": [
        {
          "internalType": "address",
          "name": "",
          "type": "address"
        }
      ],
      "stateMutability": "view",
      "type": "function"
    },
    {
      "inputs": [],
      "name": "fundManagerName",
      "outputs": [
        {
          "internalType": "string",
          "name": "",
          "type": "string"
        }
      ],
      "stateMutability": "view",
      "type": "function"
    },
    {
      "inputs": [
        {
          "internalType": "address",
          "name": "_investorAddress",
          "type": "address"
        }
      ],
      "name": "getAgreements",
      "outputs": [
        {
          "components": [
            {
              "internalType": "string",
              "name": "link",
              "type": "string"
            },
            {
              "internalType": "uint256",
              "name": "tokenAmount",
              "type": "uint256"
            },
            {
              "internalType": "bool",
              "name": "holding",
              "type": "bool"
            }
          ],
          "internalType": "struct HomevestCoinFST.Agreement[]",
          "name": "",
          "type": "tuple[]"
        }
      ],
      "stateMutability": "view",
      "type": "function"
    },
    {
      "inputs": [],
      "name": "getFundManager",
      "outputs": [
        {
          "internalType": "string",
          "name": "theFundManager",
          "type": "string"
        }
      ],
      "stateMutability": "view",
      "type": "function"
    },
    {
      "inputs": [],
      "name": "getPartnerName",
      "outputs": [
        {
          "internalType": "string",
          "name": "thePartnerName",
          "type": "string"
        }
      ],
      "stateMutability": "view",
      "type": "function"
    },
    {
      "inputs": [
        {
          "internalType": "address",
          "name": "spender",
          "type": "address"
        },
        {
          "internalType": "uint256",
          "name": "addedValue",
          "type": "uint256"
        }
      ],
      "name": "increaseAllowance",
      "outputs": [
        {
          "internalType": "bool",
          "name": "",
          "type": "bool"
        }
      ],
      "stateMutability": "nonpayable",
      "type": "function"
    },
    {
      "inputs": [],
      "name": "initialSupply",
      "outputs": [
        {
          "internalType": "uint256",
          "name": "",
          "type": "uint256"
        }
      ],
      "stateMutability": "view",
      "type": "function"
    },
    {
      "inputs": [],
      "name": "initialize",
      "outputs": [],
      "stateMutability": "nonpayable",
      "type": "function"
    },
    {
      "inputs": [
        {
          "internalType": "address",
          "name": "",
          "type": "address"
        },
        {
          "internalType": "uint256",
          "name": "",
          "type": "uint256"
        }
      ],
      "name": "investorAgreement",
      "outputs": [
        {
          "internalType": "string",
          "name": "link",
          "type": "string"
        },
        {
          "internalType": "uint256",
          "name": "tokenAmount",
          "type": "uint256"
        },
        {
          "internalType": "bool",
          "name": "holding",
          "type": "bool"
        }
      ],
      "stateMutability": "view",
      "type": "function"
    },
    {
      "inputs": [
        {
          "internalType": "address",
          "name": "to",
          "type": "address"
        },
        {
          "internalType": "uint256",
          "name": "amount",
          "type": "uint256"
        }
      ],
      "name": "mint",
      "outputs": [],
      "stateMutability": "nonpayable",
      "type": "function"
    },
    {
      "inputs": [],
      "name": "name",
      "outputs": [
        {
          "internalType": "string",
          "name": "",
          "type": "string"
        }
      ],
      "stateMutability": "view",
      "type": "function"
    },
    {
      "inputs": [],
      "name": "owner",
      "outputs": [
        {
          "internalType": "address",
          "name": "",
          "type": "address"
        }
      ],
      "stateMutability": "view",
      "type": "function"
    },
    {
      "inputs": [],
      "name": "partnerAddress",
      "outputs": [
        {
          "internalType": "address",
          "name": "",
          "type": "address"
        }
      ],
      "stateMutability": "view",
      "type": "function"
    },
    {
      "inputs": [],
      "name": "partnerName",
      "outputs": [
        {
          "internalType": "string",
          "name": "",
          "type": "string"
        }
      ],
      "stateMutability": "view",
      "type": "function"
    },
    {
      "inputs": [],
      "name": "pause",
      "outputs": [],
      "stateMutability": "nonpayable",
      "type": "function"
    },
    {
      "inputs": [],
      "name": "paused",
      "outputs": [
        {
          "internalType": "bool",
          "name": "",
          "type": "bool"
        }
      ],
      "stateMutability": "view",
      "type": "function"
    },
    {
      "inputs": [
        {
          "internalType": "address",
          "name": "to",
          "type": "address"
        },
        {
          "internalType": "uint256",
          "name": "amount",
          "type": "uint256"
        },
        {
          "internalType": "string",
          "name": "_agreementLink",
          "type": "string"
        }
      ],
      "name": "purchaseWithETH",
      "outputs": [],
      "stateMutability": "payable",
      "type": "function"
    },
    {
      "inputs": [
        {
          "internalType": "address",
          "name": "to",
          "type": "address"
        },
        {
          "internalType": "uint256",
          "name": "_amount",
          "type": "uint256"
        },
        {
          "internalType": "uint256",
          "name": "smtxAmount",
          "type": "uint256"
        },
        {
          "internalType": "string",
          "name": "_agreementLink",
          "type": "string"
        }
      ],
      "name": "purchaseWithSMTX",
      "outputs": [],
      "stateMutability": "nonpayable",
      "type": "function"
    },
    {
      "inputs": [
        {
          "internalType": "address",
          "name": "to",
          "type": "address"
        },
        {
          "internalType": "uint256",
          "name": "_amount",
          "type": "uint256"
        },
        {
          "internalType": "uint256",
          "name": "usdcAmount",
          "type": "uint256"
        },
        {
          "internalType": "string",
          "name": "_agreementLink",
          "type": "string"
        }
      ],
      "name": "purchaseWithUSDC",
      "outputs": [],
      "stateMutability": "nonpayable",
      "type": "function"
    },
    {
      "inputs": [
        {
          "internalType": "address",
          "name": "_blacklistUser",
          "type": "address"
        }
      ],
      "name": "removeblackListUser",
      "outputs": [],
      "stateMutability": "nonpayable",
      "type": "function"
    },
    {
      "inputs": [],
      "name": "renounceOwnership",
      "outputs": [],
      "stateMutability": "nonpayable",
      "type": "function"
    },
    {
      "inputs": [
        {
          "internalType": "uint256",
          "name": "_tokenAmount",
          "type": "uint256"
        },
        {
          "internalType": "uint256",
          "name": "_amount",
          "type": "uint256"
        }
      ],
      "name": "sellToken",
      "outputs": [],
      "stateMutability": "nonpayable",
      "type": "function"
    },
    {
      "inputs": [],
      "name": "smtx",
      "outputs": [
        {
          "internalType": "contract IERC20Upgradeable",
          "name": "",
          "type": "address"
        }
      ],
      "stateMutability": "view",
      "type": "function"
    },
    {
      "inputs": [],
      "name": "sstToken",
      "outputs": [
        {
          "internalType": "address",
          "name": "",
          "type": "address"
        }
      ],
      "stateMutability": "view",
      "type": "function"
    },
    {
      "inputs": [],
      "name": "sumoAddress",
      "outputs": [
        {
          "internalType": "address",
          "name": "",
          "type": "address"
        }
      ],
      "stateMutability": "view",
      "type": "function"
    },
    {
      "inputs": [],
      "name": "sumoName",
      "outputs": [
        {
          "internalType": "string",
          "name": "",
          "type": "string"
        }
      ],
      "stateMutability": "view",
      "type": "function"
    },
    {
      "inputs": [],
      "name": "symbol",
      "outputs": [
        {
          "internalType": "string",
          "name": "",
          "type": "string"
        }
      ],
      "stateMutability": "view",
      "type": "function"
    },
    {
      "inputs": [],
      "name": "totalSupply",
      "outputs": [
        {
          "internalType": "uint256",
          "name": "",
          "type": "uint256"
        }
      ],
      "stateMutability": "view",
      "type": "function"
    },
    {
      "inputs": [
        {
          "internalType": "address",
          "name": "_to",
          "type": "address"
        },
        {
          "internalType": "uint256",
          "name": "_value",
          "type": "uint256"
        }
      ],
      "name": "transfer",
      "outputs": [
        {
          "internalType": "bool",
          "name": "",
          "type": "bool"
        }
      ],
      "stateMutability": "nonpayable",
      "type": "function"
    },
    {
      "inputs": [
        {
          "internalType": "address",
          "name": "from",
          "type": "address"
        },
        {
          "internalType": "address",
          "name": "to",
          "type": "address"
        },
        {
          "internalType": "uint256",
          "name": "amount",
          "type": "uint256"
        }
      ],
      "name": "transferFrom",
      "outputs": [
        {
          "internalType": "bool",
          "name": "",
          "type": "bool"
        }
      ],
      "stateMutability": "nonpayable",
      "type": "function"
    },
    {
      "inputs": [
        {
          "internalType": "address",
          "name": "newOwner",
          "type": "address"
        }
      ],
      "name": "transferOwnership",
      "outputs": [],
      "stateMutability": "nonpayable",
      "type": "function"
    },
    {
      "inputs": [],
      "name": "unpause",
      "outputs": [],
      "stateMutability": "nonpayable",
      "type": "function"
    },
    {
      "inputs": [
        {
          "internalType": "string",
          "name": "_newAuditLink",
          "type": "string"
        }
      ],
      "name": "updateAuditedLink",
      "outputs": [],
      "stateMutability": "nonpayable",
      "type": "function"
    },
    {
      "inputs": [
        {
          "internalType": "address",
          "name": "_managerAddress",
          "type": "address"
        }
      ],
      "name": "updateFundManagerAddress",
      "outputs": [],
      "stateMutability": "nonpayable",
      "type": "function"
    },
    {
      "inputs": [
        {
          "internalType": "string",
          "name": "_managerName",
          "type": "string"
        }
      ],
      "name": "updateFundManagerName",
      "outputs": [],
      "stateMutability": "nonpayable",
      "type": "function"
    },
    {
      "inputs": [
        {
          "internalType": "address",
          "name": "_partnerAddress",
          "type": "address"
        }
      ],
      "name": "updatePartnerAddress",
      "outputs": [],
      "stateMutability": "nonpayable",
      "type": "function"
    },
    {
      "inputs": [
        {
          "internalType": "string",
          "name": "_partnerName",
          "type": "string"
        }
      ],
      "name": "updatePartnerName",
      "outputs": [],
      "stateMutability": "nonpayable",
      "type": "function"
    },
    {
      "inputs": [
        {
          "internalType": "address",
          "name": "_smtxAddress",
          "type": "address"
        }
      ],
      "name": "updateSMTXAddress",
      "outputs": [],
      "stateMutability": "nonpayable",
      "type": "function"
    },
    {
      "inputs": [
        {
          "internalType": "string",
          "name": "_sumoname",
          "type": "string"
        }
      ],
      "name": "updateSumoName",
      "outputs": [],
      "stateMutability": "nonpayable",
      "type": "function"
    },
    {
      "inputs": [
        {
          "internalType": "address",
          "name": "_address",
          "type": "address"
        }
      ],
      "name": "updateSumoNameAddress",
      "outputs": [],
      "stateMutability": "nonpayable",
      "type": "function"
    },
    {
      "inputs": [
        {
          "internalType": "address",
          "name": "_usdcAddress",
          "type": "address"
        }
      ],
      "name": "updateUSDCAddress",
      "outputs": [],
      "stateMutability": "nonpayable",
      "type": "function"
    },
    {
      "inputs": [],
      "name": "usdCost",
      "outputs": [
        {
          "internalType": "uint256",
          "name": "",
          "type": "uint256"
        }
      ],
      "stateMutability": "view",
      "type": "function"
    },
    {
      "inputs": [],
      "name": "usdc",
      "outputs": [
        {
          "internalType": "contract IERC20Upgradeable",
          "name": "",
          "type": "address"
        }
      ],
      "stateMutability": "view",
      "type": "function"
    }
  ],
  "bytecode": "0x608060405234801561001057600080fd5b50612b50806100206000396000f3fe6080604052600436106102ff5760003560e01c8063715018a611610190578063a8f6c913116100dc578063dbac26e911610095578063ec0b712e1161006f578063ec0b712e146108dc578063f2fde38b146108f1578063f7d48ebb14610911578063fd76282b1461093157600080fd5b8063dbac26e91461086c578063dd62ed3e1461089c578063e013b224146108bc57600080fd5b8063a8f6c913146107c4578063a9059cbb146107e4578063a99a583c14610804578063d03d012914610824578063d7fb5f2c14610837578063d8c370321461085757600080fd5b806384ae2ed011610149578063939fa96a11610123578063939fa96a1461074f57806395d89b411461076f57806398771b6214610784578063a457c2d7146107a457600080fd5b806384ae2ed0146106f157806385946cbe146107115780638da5cb5b1461073157600080fd5b8063715018a6146106435780637d81c4c1146106585780637e73337714610678578063810a2c7e146106a75780638129fc1c146106c75780638456cb59146106dc57600080fd5b80633e413bee1161024f578063576168fc1161020857806364b507c4116101e257806364b507c4146105cd5780636ab5e399146105e25780636c7113e4146105f857806370a082311461060d57600080fd5b8063576168fc14610575578063597b0296146105955780635c975abb146105b557600080fd5b80633e413bee146104cb5780633f4ba83a146104eb57806340c10f191461050057806344a71fbb146105205780634d68ceb9146105405780634e63d6cc1461055557600080fd5b80631f43f14b116102bc578063313ce56711610296578063313ce5671461044d57806332c833c014610469578063378dc3dc1461049657806339509351146104ab57600080fd5b80631f43f14b146103d557806321d2c4921461040d57806323b872dd1461042d57600080fd5b806306fdde0314610304578063095ea7b31461032f5780630f331cc21461035f578063116ffdd61461038157806318160ddd146103965780631897bcf3146103b5575b600080fd5b34801561031057600080fd5b50610319610951565b60405161032691906128ab565b60405180910390f35b34801561033b57600080fd5b5061034f61034a366004612661565b6109e3565b6040519015158152602001610326565b34801561036b57600080fd5b5061037f61037a36600461275e565b6109fd565b005b34801561038d57600080fd5b50610319610a1c565b3480156103a257600080fd5b5060cc545b604051908152602001610326565b3480156103c157600080fd5b5061037f6103d0366004612799565b610aaa565b3480156103e157600080fd5b5060d9546103f5906001600160a01b031681565b6040516001600160a01b039091168152602001610326565b34801561041957600080fd5b5061037f6104283660046125d3565b610b62565b34801561043957600080fd5b5061034f610448366004612626565b610b8c565b34801561045957600080fd5b5060405160128152602001610326565b34801561047557600080fd5b506104896104843660046125d3565b610bed565b6040516103269190612829565b3480156104a257600080fd5b5060cd546103a7565b3480156104b757600080fd5b5061034f6104c6366004612661565b610d13565b3480156104d757600080fd5b5060d8546103f5906001600160a01b031681565b3480156104f757600080fd5b5061037f610d35565b34801561050c57600080fd5b5061037f61051b366004612661565b610d47565b34801561052c57600080fd5b5061037f61053b3660046125d3565b610d8f565b34801561054c57600080fd5b50610319610db9565b34801561056157600080fd5b5061037f61057036600461275e565b610dc6565b34801561058157600080fd5b5060d0546103f5906001600160a01b031681565b3480156105a157600080fd5b5061037f6105b03660046126df565b610de1565b3480156105c157600080fd5b5060975460ff1661034f565b3480156105d957600080fd5b50610319611089565b3480156105ee57600080fd5b506103a760d65481565b34801561060457600080fd5b50610319611096565b34801561061957600080fd5b506103a76106283660046125d3565b6001600160a01b031660009081526033602052604090205490565b34801561064f57600080fd5b5061037f6110a5565b34801561066457600080fd5b5061037f6106733660046125d3565b6110b7565b34801561068457600080fd5b50610698610693366004612661565b6110e1565b604051610326939291906128be565b3480156106b357600080fd5b5061037f6106c23660046125d3565b6111b4565b3480156106d357600080fd5b5061037f6111e8565b3480156106e857600080fd5b5061037f6114ba565b3480156106fd57600080fd5b5061037f61070c36600461275e565b6114ca565b34801561071d57600080fd5b5061037f61072c3660046126df565b6114e5565b34801561073d57600080fd5b506065546001600160a01b03166103f5565b34801561075b57600080fd5b5061037f61076a3660046125d3565b611791565b34801561077b57600080fd5b506103196117bb565b34801561079057600080fd5b5060d1546103f5906001600160a01b031681565b3480156107b057600080fd5b5061034f6107bf366004612661565b6117ca565b3480156107d057600080fd5b5060d7546103f5906001600160a01b031681565b3480156107f057600080fd5b5061034f6107ff366004612661565b611845565b34801561081057600080fd5b5060cf546103f5906001600160a01b031681565b61037f61083236600461268a565b611890565b34801561084357600080fd5b5061037f6108523660046125d3565b611ac3565b34801561086357600080fd5b50610319611af4565b34801561087857600080fd5b5061034f6108873660046125d3565b60db6020526000908152604090205460ff1681565b3480156108a857600080fd5b506103a76108b73660046125f4565b611b03565b3480156108c857600080fd5b5061037f6108d736600461275e565b611b2e565b3480156108e857600080fd5b50610319611b49565b3480156108fd57600080fd5b5061037f61090c3660046125d3565b611b56565b34801561091d57600080fd5b5060ce546103f5906001600160a01b031681565b34801561093d57600080fd5b5061037f61094c3660046125d3565b611bcc565b60606036805461096090612a8c565b80601f016020809104026020016040519081016040528092919081815260200182805461098c90612a8c565b80156109d95780601f106109ae576101008083540402835291602001916109d9565b820191906000526020600020905b8154815290600101906020018083116109bc57829003601f168201915b5050505050905090565b6000336109f1818585611bf6565b60019150505b92915050565b610a05611d1b565b8051610a189060d2906020840190612497565b5050565b60d48054610a2990612a8c565b80601f0160208091040260200160405190810160405280929190818152602001828054610a5590612a8c565b8015610aa25780601f10610a7757610100808354040283529160200191610aa2565b820191906000526020600020905b815481529060010190602001808311610a8557829003601f168201915b505050505081565b610ab2611d75565b60d85460cf546040516323b872dd60e01b81526001600160a01b03928316926323b872dd92610aea9291169033908690600401612805565b602060405180830381600087803b158015610b0457600080fd5b505af1158015610b18573d6000803e3d6000fd5b505050506040513d601f19601f82011682018060405250810190610b3c919061273e565b50610b473383611dbb565b8160cd6000828254610b599190612a75565b90915550505050565b610b6a611d1b565b60ce80546001600160a01b0319166001600160a01b0392909216919091179055565b6000610b96611d75565b336001600160a01b038416610baa57600080fd5b33600090815260db602052604090205460ff16151560011415610bcc57600080fd5b610bd7858285611f06565b610be2858585611f80565b506001949350505050565b6001600160a01b038116600090815260da60209081526040808320805482518185028101850190935280835260609492939192909184015b82821015610d085783829060005260206000209060030201604051806060016040529081600082018054610c5890612a8c565b80601f0160208091040260200160405190810160405280929190818152602001828054610c8490612a8c565b8015610cd15780601f10610ca657610100808354040283529160200191610cd1565b820191906000526020600020905b815481529060010190602001808311610cb457829003601f168201915b505050918352505060018281015460208084019190915260029093015460ff16151560409092019190915291835292019101610c25565b505050509050919050565b6000336109f1818585610d268383611b03565b610d309190612933565b611bf6565b610d3d611d1b565b610d4561214e565b565b610d4f611d75565b610d57611d1b565b60cc548160cd54610d689190612933565b1115610d7357600080fd5b610d7d82826121a0565b8060cd6000828254610b599190612933565b610d97611d1b565b60d080546001600160a01b0319166001600160a01b0392909216919091179055565b60d58054610a2990612a8c565b610dce611d1b565b8051610a189060d4906020840190612497565b610de9611d75565b60cc548360cd54610dfa9190612933565b1115610e0557600080fd5b6000612710610e15856096612a56565b610e1f919061294b565b60d95460cf549192506001600160a01b03908116916323b872dd9133911684610e488189612a75565b610e529190612a75565b6040518463ffffffff1660e01b8152600401610e7093929190612805565b602060405180830381600087803b158015610e8a57600080fd5b505af1158015610e9e573d6000803e3d6000fd5b505050506040513d601f19601f82011682018060405250810190610ec2919061273e565b5060d95460ce546040516323b872dd60e01b81526001600160a01b03928316926323b872dd92610efc923392909116908690600401612805565b602060405180830381600087803b158015610f1657600080fd5b505af1158015610f2a573d6000803e3d6000fd5b505050506040513d601f19601f82011682018060405250810190610f4e919061273e565b5060d95460d0546040516323b872dd60e01b81526001600160a01b03928316926323b872dd92610f88923392909116908690600401612805565b602060405180830381600087803b158015610fa257600080fd5b505af1158015610fb6573d6000803e3d6000fd5b505050506040513d601f19601f82011682018060405250810190610fda919061273e565b50610fe585856121a0565b8360cd6000828254610ff79190612933565b909155505060408051606081018252838152602080820187905260018284018190526001600160a01b038916600090815260da835293842080549182018155845292819020825180519394859460039091029092019261105c92849290910190612497565b50602082015160018201556040909101516002909101805460ff1916911515919091179055505050505050565b60d28054610a2990612a8c565b606060d4805461096090612a8c565b6110ad611d1b565b610d45600061227f565b6110bf611d1b565b60d880546001600160a01b0319166001600160a01b0392909216919091179055565b60da60205281600052604060002081815481106110fd57600080fd5b90600052602060002090600302016000915091505080600001805461112190612a8c565b80601f016020809104026020016040519081016040528092919081815260200182805461114d90612a8c565b801561119a5780601f1061116f5761010080835404028352916020019161119a565b820191906000526020600020905b81548152906001019060200180831161117d57829003601f168201915b50505050600183015460029093015491929160ff16905083565b6111bc611d75565b6111c4611d1b565b6001600160a01b0316600090815260db60205260409020805460ff19166001179055565b600054610100900460ff16158080156112085750600054600160ff909116105b806112225750303b158015611222575060005460ff166001145b61128a5760405162461bcd60e51b815260206004820152602e60248201527f496e697469616c697a61626c653a20636f6e747261637420697320616c72656160448201526d191e481a5b9a5d1a585b1a5e995960921b60648201526084015b60405180910390fd5b6000805460ff1916600117905580156112ad576000805461ff0019166101001790555b6112f46040518060400160405280600d81526020016c2437b6b2bb32b9ba1021b7b4b760991b815250604051806060016040528060278152602001612af4602791396122d1565b6112fc612302565b611304612331565b6113106012600a6129ae565b61131d906203d090612a56565b60cc5560d880546001600160a01b031990811673a0b86991c6218b36c1d19d4a2e9eb0ce3606eb481790915560d98054821673102203517ce35ac5cab9a2cda80df03f26c7419b17905560ce8054821673a6f49c590a8e1afbebf5c245e1768435c7718bf617905560cf80548216733655c868cafa3aa97803cc0aded6419a5eeb4ab290811790915560d0805490921617905560408051808201909152601b8082527f55424220496e766573746d656e742042616e6b204c696d69746564000000000060209092019182526113f49160d391612497565b506040805180820190915260078082526629bab6b7b630b160c91b60209092019182526114239160d291612497565b50604051806060016040528060278152602001612af46027913980516114519160d491602090910190612497565b506040805160208101918290526000908190526114709160d591612497565b5080156114b7576000805461ff0019169055604051600181527f7f26b83ff96e1f2b6a682f133852f6798a09c465da95921460cefb38474024989060200160405180910390a15b50565b6114c2611d1b565b610d45612360565b6114d2611d1b565b8051610a189060d3906020840190612497565b6114ed611d75565b60cc548360cd546114fe9190612933565b111561150957600080fd5b6000612710611519846096612a56565b611523919061294b565b90506000816115328186612a75565b61153c9190612a75565b60d85460cf546040516323b872dd60e01b81529293506001600160a01b03918216926323b872dd926115779233929116908690600401612805565b602060405180830381600087803b15801561159157600080fd5b505af11580156115a5573d6000803e3d6000fd5b505050506040513d601f19601f820116820180604052508101906115c9919061273e565b5060d85460ce546040516323b872dd60e01b81526001600160a01b03928316926323b872dd92611603923392909116908790600401612805565b602060405180830381600087803b15801561161d57600080fd5b505af1158015611631573d6000803e3d6000fd5b505050506040513d601f19601f82011682018060405250810190611655919061273e565b5060d85460d0546040516323b872dd60e01b81526001600160a01b03928316926323b872dd9261168f923392909116908790600401612805565b602060405180830381600087803b1580156116a957600080fd5b505af11580156116bd573d6000803e3d6000fd5b505050506040513d601f19601f820116820180604052508101906116e1919061273e565b506116ec86866121a0565b8460cd60008282546116fe9190612933565b909155505060408051606081018252848152602080820188905260018284018190526001600160a01b038a16600090815260da835293842080549182018155845292819020825180519394859460039091029092019261176392849290910190612497565b50602082015160018201556040909101516002909101805460ff191691151591909117905550505050505050565b611799611d1b565b60d980546001600160a01b0319166001600160a01b0392909216919091179055565b60606037805461096090612a8c565b600033816117d88286611b03565b9050838110156118385760405162461bcd60e51b815260206004820152602560248201527f45524332303a2064656372656173656420616c6c6f77616e63652062656c6f77604482015264207a65726f60d81b6064820152608401611281565b610be28286868403611bf6565b600061184f611d75565b6001600160a01b03831661186257600080fd5b33600090815260db602052604090205460ff1615156001141561188457600080fd5b336109f1818585611f80565b611898611d75565b60cc548260cd546118a99190612933565b11156118b457600080fd5b60006127106118c4346096612a56565b6118ce919061294b565b90506118da84846121a0565b8260cd60008282546118ec9190612933565b909155505060408051606081018252838152602080820186905260018284018190526001600160a01b038816600090815260da835293842080549182018155845292819020825180519394859460039091029092019261195192849290910190612497565b50602082015160018201556040909101516002909101805460ff19169115159190911790556000826119838134612a75565b61198d9190612a75565b60ce546040519192506000916001600160a01b039091169085908381818185875af1925050503d80600081146119df576040519150601f19603f3d011682016040523d82523d6000602084013e6119e4565b606091505b505060d0546040519192506000916001600160a01b039091169086908381818185875af1925050503d8060008114611a38576040519150601f19603f3d011682016040523d82523d6000602084013e611a3d565b606091505b505060cf546040519192506000916001600160a01b039091169085908381818185875af1925050503d8060008114611a91576040519150601f19603f3d011682016040523d82523d6000602084013e611a96565b606091505b5050905082611aa457600080fd5b81611aae57600080fd5b80611ab857600080fd5b505050505050505050565b611acb611d75565b611ad3611d1b565b6001600160a01b0316600090815260db60205260409020805460ff19169055565b606060d3805461096090612a8c565b6001600160a01b03918216600090815260346020908152604080832093909416825291909152205490565b611b36611d1b565b8051610a189060d5906020840190612497565b60d38054610a2990612a8c565b611b5e611d1b565b6001600160a01b038116611bc35760405162461bcd60e51b815260206004820152602660248201527f4f776e61626c653a206e6577206f776e657220697320746865207a65726f206160448201526564647265737360d01b6064820152608401611281565b6114b78161227f565b611bd4611d1b565b60cf80546001600160a01b0319166001600160a01b0392909216919091179055565b6001600160a01b038316611c585760405162461bcd60e51b8152602060048201526024808201527f45524332303a20617070726f76652066726f6d20746865207a65726f206164646044820152637265737360e01b6064820152608401611281565b6001600160a01b038216611cb95760405162461bcd60e51b815260206004820152602260248201527f45524332303a20617070726f766520746f20746865207a65726f206164647265604482015261737360f01b6064820152608401611281565b6001600160a01b0383811660008181526034602090815260408083209487168084529482529182902085905590518481527f8c5be1e5ebec7d5bd14f71427d1e84f3dd0314c0f7b2291e5b200ac8c7c3b92591015b60405180910390a3505050565b6065546001600160a01b03163314610d455760405162461bcd60e51b815260206004820181905260248201527f4f776e61626c653a2063616c6c6572206973206e6f7420746865206f776e65726044820152606401611281565b60975460ff1615610d455760405162461bcd60e51b815260206004820152601060248201526f14185d5cd8589b194e881c185d5cd95960821b6044820152606401611281565b6001600160a01b038216611e1b5760405162461bcd60e51b815260206004820152602160248201527f45524332303a206275726e2066726f6d20746865207a65726f206164647265736044820152607360f81b6064820152608401611281565b6001600160a01b03821660009081526033602052604090205481811015611e8f5760405162461bcd60e51b815260206004820152602260248201527f45524332303a206275726e20616d6f756e7420657863656564732062616c616e604482015261636560f01b6064820152608401611281565b6001600160a01b0383166000908152603360205260408120838303905560358054849290611ebe908490612a75565b90915550506040518281526000906001600160a01b038516907fddf252ad1be2c89b69c2b068fc378daa952ba7f163c4a11628f55a4df523b3ef90602001611d0e565b505050565b6000611f128484611b03565b90506000198114611f7a5781811015611f6d5760405162461bcd60e51b815260206004820152601d60248201527f45524332303a20696e73756666696369656e7420616c6c6f77616e63650000006044820152606401611281565b611f7a8484848403611bf6565b50505050565b6001600160a01b038316611fe45760405162461bcd60e51b815260206004820152602560248201527f45524332303a207472616e736665722066726f6d20746865207a65726f206164604482015264647265737360d81b6064820152608401611281565b6001600160a01b0382166120465760405162461bcd60e51b815260206004820152602360248201527f45524332303a207472616e7366657220746f20746865207a65726f206164647260448201526265737360e81b6064820152608401611281565b6001600160a01b038316600090815260336020526040902054818110156120be5760405162461bcd60e51b815260206004820152602660248201527f45524332303a207472616e7366657220616d6f756e7420657863656564732062604482015265616c616e636560d01b6064820152608401611281565b6001600160a01b038085166000908152603360205260408082208585039055918516815290812080548492906120f5908490612933565b92505081905550826001600160a01b0316846001600160a01b03167fddf252ad1be2c89b69c2b068fc378daa952ba7f163c4a11628f55a4df523b3ef8460405161214191815260200190565b60405180910390a3611f7a565b61215661239d565b6097805460ff191690557f5db9ee0a495bf2e6ff9c91a7834c1ba4fdd244a5e8aa4e537bd38aeae4b073aa335b6040516001600160a01b03909116815260200160405180910390a1565b6001600160a01b0382166121f65760405162461bcd60e51b815260206004820152601f60248201527f45524332303a206d696e7420746f20746865207a65726f2061646472657373006044820152606401611281565b80603560008282546122089190612933565b90915550506001600160a01b03821660009081526033602052604081208054839290612235908490612933565b90915550506040518181526001600160a01b038316906000907fddf252ad1be2c89b69c2b068fc378daa952ba7f163c4a11628f55a4df523b3ef9060200160405180910390a35050565b606580546001600160a01b038381166001600160a01b0319831681179093556040519116919082907f8be0079c531659141344cd1fd0a4f28419497f9722a3daafe3b4186f6b6457e090600090a35050565b600054610100900460ff166122f85760405162461bcd60e51b8152600401611281906128e8565b610a1882826123e6565b600054610100900460ff166123295760405162461bcd60e51b8152600401611281906128e8565b610d45612434565b600054610100900460ff166123585760405162461bcd60e51b8152600401611281906128e8565b610d45612464565b612368611d75565b6097805460ff191660011790557f62e78cea01bee320cd4e420270b5ea74000d11b0c9f74754ebdbfc544b05a2586121833390565b60975460ff16610d455760405162461bcd60e51b815260206004820152601460248201527314185d5cd8589b194e881b9bdd081c185d5cd95960621b6044820152606401611281565b600054610100900460ff1661240d5760405162461bcd60e51b8152600401611281906128e8565b8151612420906036906020850190612497565b508051611f01906037906020840190612497565b600054610100900460ff1661245b5760405162461bcd60e51b8152600401611281906128e8565b610d453361227f565b600054610100900460ff1661248b5760405162461bcd60e51b8152600401611281906128e8565b6097805460ff19169055565b8280546124a390612a8c565b90600052602060002090601f0160209004810192826124c5576000855561250b565b82601f106124de57805160ff191683800117855561250b565b8280016001018555821561250b579182015b8281111561250b5782518255916020019190600101906124f0565b5061251792915061251b565b5090565b5b80821115612517576000815560010161251c565b80356001600160a01b038116811461254757600080fd5b919050565b600082601f83011261255c578081fd5b813567ffffffffffffffff8082111561257757612577612add565b604051601f8301601f19908116603f0116810190828211818310171561259f5761259f612add565b816040528381528660208588010111156125b7578485fd5b8360208701602083013792830160200193909352509392505050565b6000602082840312156125e4578081fd5b6125ed82612530565b9392505050565b60008060408385031215612606578081fd5b61260f83612530565b915061261d60208401612530565b90509250929050565b60008060006060848603121561263a578081fd5b61264384612530565b925061265160208501612530565b9150604084013590509250925092565b60008060408385031215612673578182fd5b61267c83612530565b946020939093013593505050565b60008060006060848603121561269e578283fd5b6126a784612530565b925060208401359150604084013567ffffffffffffffff8111156126c9578182fd5b6126d58682870161254c565b9150509250925092565b600080600080608085870312156126f4578081fd5b6126fd85612530565b93506020850135925060408501359150606085013567ffffffffffffffff811115612726578182fd5b6127328782880161254c565b91505092959194509250565b60006020828403121561274f578081fd5b815180151581146125ed578182fd5b60006020828403121561276f578081fd5b813567ffffffffffffffff811115612785578182fd5b6127918482850161254c565b949350505050565b600080604083850312156127ab578182fd5b50508035926020909101359150565b60008151808452815b818110156127df576020818501810151868301820152016127c3565b818111156127f05782602083870101525b50601f01601f19169290920160200192915050565b6001600160a01b039384168152919092166020820152604081019190915260600190565b60006020808301818452808551808352604092508286019150828160051b870101848801865b8381101561289d57603f19898403018552815160608151818652612875828701826127ba565b838b0151878c015292890151151595890195909552509487019492509086019060010161284f565b509098975050505050505050565b6020815260006125ed60208301846127ba565b6060815260006128d160608301866127ba565b602083019490945250901515604090910152919050565b6020808252602b908201527f496e697469616c697a61626c653a20636f6e7472616374206973206e6f74206960408201526a6e697469616c697a696e6760a81b606082015260800190565b6000821982111561294657612946612ac7565b500190565b60008261296657634e487b7160e01b81526012600452602481fd5b500490565b600181815b808511156129a657816000190482111561298c5761298c612ac7565b8085161561299957918102915b93841c9390800290612970565b509250929050565b60006125ed83836000826129c4575060016109f7565b816129d1575060006109f7565b81600181146129e757600281146129f157612a0d565b60019150506109f7565b60ff841115612a0257612a02612ac7565b50506001821b6109f7565b5060208310610133831016604e8410600b8410161715612a30575081810a6109f7565b612a3a838361296b565b8060001904821115612a4e57612a4e612ac7565b029392505050565b6000816000190483118215151615612a7057612a70612ac7565b500290565b600082821015612a8757612a87612ac7565b500390565b600181811c90821680612aa057607f821691505b60208210811415612ac157634e487b7160e01b600052602260045260246000fd5b50919050565b634e487b7160e01b600052601160045260246000fd5b634e487b7160e01b600052604160045260246000fdfe484f4d455645535420494e5445524e4154494f4e414c204c494d54454420284c4c313738303729a26469706673582212208e120299d7ed0d8312c9ddb0b68021dee3f13095cde5c74aa512c9c21a7a1bbb64736f6c63430008040033",
  "linkReferences": {},
  "deployedLinkReferences": {}
}