{
  "_format": "hh-sol-artifact-1",
  "contractName": "SMTX",
  "sourceName": "contracts/SMTX2.sol",
  "abi": [
    {
      "anonymous": false,
      "inputs": [
        {
          "indexed": true,
          "internalType": "address",
          "name": "owner",
          "type": "address"
        },
        {
          "indexed": true,
          "internalType": "address",
          "name": "spender",
          "type": "address"
        },
        {
          "indexed": false,
          "internalType": "uint256",
          "name": "value",
          "type": "uint256"
        }
      ],
      "name": "Approval",
      "type": "event"
    },
    {
      "anonymous": false,
      "inputs": [
        {
          "indexed": false,
          "internalType": "uint8",
          "name": "version",
          "type": "uint8"
        }
      ],
      "name": "Initialized",
      "type": "event"
    },
    {
      "anonymous": false,
      "inputs": [
        {
          "indexed": true,
          "internalType": "address",
          "name": "previousOwner",
          "type": "address"
        },
        {
          "indexed": true,
          "internalType": "address",
          "name": "newOwner",
          "type": "address"
        }
      ],
      "name": "OwnershipTransferred",
      "type": "event"
    },
    {
      "anonymous": false,
      "inputs": [
        {
          "indexed": false,
          "internalType": "address",
          "name": "account",
          "type": "address"
        }
      ],
      "name": "Paused",
      "type": "event"
    },
    {
      "anonymous": false,
      "inputs": [
        {
          "indexed": true,
          "internalType": "address",
          "name": "from",
          "type": "address"
        },
        {
          "indexed": true,
          "internalType": "address",
          "name": "to",
          "type": "address"
        },
        {
          "indexed": false,
          "internalType": "uint256",
          "name": "value",
          "type": "uint256"
        }
      ],
      "name": "Transfer",
      "type": "event"
    },
    {
      "anonymous": false,
      "inputs": [
        {
          "indexed": false,
          "internalType": "address",
          "name": "account",
          "type": "address"
        }
      ],
      "name": "Unpaused",
      "type": "event"
    },
    {
      "inputs": [
        {
          "internalType": "address",
          "name": "owner",
          "type": "address"
        },
        {
          "internalType": "address",
          "name": "spender",
          "type": "address"
        }
      ],
      "name": "allowance",
      "outputs": [
        {
          "internalType": "uint256",
          "name": "",
          "type": "uint256"
        }
      ],
      "stateMutability": "view",
      "type": "function"
    },
    {
      "inputs": [
        {
          "internalType": "address",
          "name": "spender",
          "type": "address"
        },
        {
          "internalType": "uint256",
          "name": "amount",
          "type": "uint256"
        }
      ],
      "name": "approve",
      "outputs": [
        {
          "internalType": "bool",
          "name": "",
          "type": "bool"
        }
      ],
      "stateMutability": "nonpayable",
      "type": "function"
    },
    {
      "inputs": [
        {
          "internalType": "address",
          "name": "account",
          "type": "address"
        }
      ],
      "name": "balanceOf",
      "outputs": [
        {
          "internalType": "uint256",
          "name": "",
          "type": "uint256"
        }
      ],
      "stateMutability": "view",
      "type": "function"
    },
    {
      "inputs": [],
      "name": "decimals",
      "outputs": [
        {
          "internalType": "uint8",
          "name": "",
          "type": "uint8"
        }
      ],
      "stateMutability": "view",
      "type": "function"
    },
    {
      "inputs": [
        {
          "internalType": "address",
          "name": "spender",
          "type": "address"
        },
        {
          "internalType": "uint256",
          "name": "subtractedValue",
          "type": "uint256"
        }
      ],
      "name": "decreaseAllowance",
      "outputs": [
        {
          "internalType": "bool",
          "name": "",
          "type": "bool"
        }
      ],
      "stateMutability": "nonpayable",
      "type": "function"
    },
    {
      "inputs": [
        {
          "internalType": "address",
          "name": "spender",
          "type": "address"
        },
        {
          "internalType": "uint256",
          "name": "addedValue",
          "type": "uint256"
        }
      ],
      "name": "increaseAllowance",
      "outputs": [
        {
          "internalType": "bool",
          "name": "",
          "type": "bool"
        }
      ],
      "stateMutability": "nonpayable",
      "type": "function"
    },
    {
      "inputs": [],
      "name": "initialize",
      "outputs": [],
      "stateMutability": "nonpayable",
      "type": "function"
    },
    {
      "inputs": [
        {
          "internalType": "address",
          "name": "to",
          "type": "address"
        },
        {
          "internalType": "uint256",
          "name": "amount",
          "type": "uint256"
        }
      ],
      "name": "mint",
      "outputs": [],
      "stateMutability": "nonpayable",
      "type": "function"
    },
    {
      "inputs": [],
      "name": "name",
      "outputs": [
        {
          "internalType": "string",
          "name": "",
          "type": "string"
        }
      ],
      "stateMutability": "view",
      "type": "function"
    },
    {
      "inputs": [],
      "name": "owner",
      "outputs": [
        {
          "internalType": "address",
          "name": "",
          "type": "address"
        }
      ],
      "stateMutability": "view",
      "type": "function"
    },
    {
      "inputs": [],
      "name": "paused",
      "outputs": [
        {
          "internalType": "bool",
          "name": "",
          "type": "bool"
        }
      ],
      "stateMutability": "view",
      "type": "function"
    },
    {
      "inputs": [],
      "name": "renounceOwnership",
      "outputs": [],
      "stateMutability": "nonpayable",
      "type": "function"
    },
    {
      "inputs": [],
      "name": "symbol",
      "outputs": [
        {
          "internalType": "string",
          "name": "",
          "type": "string"
        }
      ],
      "stateMutability": "view",
      "type": "function"
    },
    {
      "inputs": [],
      "name": "totalSupply",
      "outputs": [
        {
          "internalType": "uint256",
          "name": "",
          "type": "uint256"
        }
      ],
      "stateMutability": "view",
      "type": "function"
    },
    {
      "inputs": [
        {
          "internalType": "address",
          "name": "to",
          "type": "address"
        },
        {
          "internalType": "uint256",
          "name": "amount",
          "type": "uint256"
        }
      ],
      "name": "transfer",
      "outputs": [
        {
          "internalType": "bool",
          "name": "",
          "type": "bool"
        }
      ],
      "stateMutability": "nonpayable",
      "type": "function"
    },
    {
      "inputs": [
        {
          "internalType": "address",
          "name": "from",
          "type": "address"
        },
        {
          "internalType": "address",
          "name": "to",
          "type": "address"
        },
        {
          "internalType": "uint256",
          "name": "amount",
          "type": "uint256"
        }
      ],
      "name": "transferFrom",
      "outputs": [
        {
          "internalType": "bool",
          "name": "",
          "type": "bool"
        }
      ],
      "stateMutability": "nonpayable",
      "type": "function"
    },
    {
      "inputs": [
        {
          "internalType": "address",
          "name": "newOwner",
          "type": "address"
        }
      ],
      "name": "transferOwnership",
      "outputs": [],
      "stateMutability": "nonpayable",
      "type": "function"
    }
  ],
  "bytecode": "0x608060405234801561001057600080fd5b506110c0806100206000396000f3fe608060405234801561001057600080fd5b506004361061010b5760003560e01c806370a08231116100a257806395d89b411161007157806395d89b411461020c578063a457c2d714610214578063a9059cbb14610227578063dd62ed3e1461023a578063f2fde38b1461024d57600080fd5b806370a08231146101b8578063715018a6146101e15780638129fc1c146101e95780638da5cb5b146101f157600080fd5b8063313ce567116100de578063313ce56714610176578063395093511461018557806340c10f19146101985780635c975abb146101ad57600080fd5b806306fdde0314610110578063095ea7b31461012e57806318160ddd1461015157806323b872dd14610163575b600080fd5b610118610260565b6040516101259190610e79565b60405180910390f35b61014161013c366004610e50565b6102f2565b6040519015158152602001610125565b6035545b604051908152602001610125565b610141610171366004610e15565b61030c565b60405160128152602001610125565b610141610193366004610e50565b610330565b6101ab6101a6366004610e50565b610352565b005b60975460ff16610141565b6101556101c6366004610dc2565b6001600160a01b031660009081526033602052604090205490565b6101ab6103e9565b6101ab6103fd565b6065546040516001600160a01b039091168152602001610125565b61011861059b565b610141610222366004610e50565b6105aa565b610141610235366004610e50565b610625565b610155610248366004610de3565b610633565b6101ab61025b366004610dc2565b61065e565b60606036805461026f90611039565b80601f016020809104026020016040519081016040528092919081815260200182805461029b90611039565b80156102e85780601f106102bd576101008083540402835291602001916102e8565b820191906000526020600020905b8154815290600101906020018083116102cb57829003601f168201915b5050505050905090565b6000336103008185856106d4565b60019150505b92915050565b60003361031a8582856107f8565b610325858585610872565b506001949350505050565b6000336103008185856103438383610633565b61034d9190610f17565b6106d4565b61035a610a40565b60cc548160cd5461036b9190610f17565b111561037657600080fd5b610395826103866012600a610f72565b610390908461101a565b610a9a565b8060cd60008282546103a79190610f17565b909155505060405181815233906000907fddf252ad1be2c89b69c2b068fc378daa952ba7f163c4a11628f55a4df523b3ef906020015b60405180910390a35050565b6103f1610a40565b6103fb6000610b76565b565b600054610100900460ff161580801561041d5750600054600160ff909116105b806104375750303b158015610437575060005460ff166001145b61049f5760405162461bcd60e51b815260206004820152602e60248201527f496e697469616c697a61626c653a20636f6e747261637420697320616c72656160448201526d191e481a5b9a5d1a585b1a5e995960921b60648201526084015b60405180910390fd5b6000805460ff1916600117905580156104c2576000805461ff0019166101001790555b610507604051806040016040528060078152602001660a6aa9a9ea88ab60cb1b815250604051806040016040528060048152602001630a69aa8b60e31b815250610bc8565b61050f610bf9565b610517610c28565b6105236012600a610f72565b61053190633b9aca0061101a565b60cc55610552336105446012600a610f72565b61039090637735940061101a565b8015610598576000805461ff0019169055604051600181527f7f26b83ff96e1f2b6a682f133852f6798a09c465da95921460cefb38474024989060200160405180910390a15b50565b60606037805461026f90611039565b600033816105b88286610633565b9050838110156106185760405162461bcd60e51b815260206004820152602560248201527f45524332303a2064656372656173656420616c6c6f77616e63652062656c6f77604482015264207a65726f60d81b6064820152608401610496565b61032582868684036106d4565b600033610300818585610872565b6001600160a01b03918216600090815260346020908152604080832093909416825291909152205490565b610666610a40565b6001600160a01b0381166106cb5760405162461bcd60e51b815260206004820152602660248201527f4f776e61626c653a206e6577206f776e657220697320746865207a65726f206160448201526564647265737360d01b6064820152608401610496565b61059881610b76565b6001600160a01b0383166107365760405162461bcd60e51b8152602060048201526024808201527f45524332303a20617070726f76652066726f6d20746865207a65726f206164646044820152637265737360e01b6064820152608401610496565b6001600160a01b0382166107975760405162461bcd60e51b815260206004820152602260248201527f45524332303a20617070726f766520746f20746865207a65726f206164647265604482015261737360f01b6064820152608401610496565b6001600160a01b0383811660008181526034602090815260408083209487168084529482529182902085905590518481527f8c5be1e5ebec7d5bd14f71427d1e84f3dd0314c0f7b2291e5b200ac8c7c3b925910160405180910390a3505050565b60006108048484610633565b9050600019811461086c578181101561085f5760405162461bcd60e51b815260206004820152601d60248201527f45524332303a20696e73756666696369656e7420616c6c6f77616e63650000006044820152606401610496565b61086c84848484036106d4565b50505050565b6001600160a01b0383166108d65760405162461bcd60e51b815260206004820152602560248201527f45524332303a207472616e736665722066726f6d20746865207a65726f206164604482015264647265737360d81b6064820152608401610496565b6001600160a01b0382166109385760405162461bcd60e51b815260206004820152602360248201527f45524332303a207472616e7366657220746f20746865207a65726f206164647260448201526265737360e81b6064820152608401610496565b6001600160a01b038316600090815260336020526040902054818110156109b05760405162461bcd60e51b815260206004820152602660248201527f45524332303a207472616e7366657220616d6f756e7420657863656564732062604482015265616c616e636560d01b6064820152608401610496565b6001600160a01b038085166000908152603360205260408082208585039055918516815290812080548492906109e7908490610f17565b92505081905550826001600160a01b0316846001600160a01b03167fddf252ad1be2c89b69c2b068fc378daa952ba7f163c4a11628f55a4df523b3ef84604051610a3391815260200190565b60405180910390a361086c565b6065546001600160a01b031633146103fb5760405162461bcd60e51b815260206004820181905260248201527f4f776e61626c653a2063616c6c6572206973206e6f7420746865206f776e65726044820152606401610496565b6001600160a01b038216610af05760405162461bcd60e51b815260206004820152601f60248201527f45524332303a206d696e7420746f20746865207a65726f2061646472657373006044820152606401610496565b8060356000828254610b029190610f17565b90915550506001600160a01b03821660009081526033602052604081208054839290610b2f908490610f17565b90915550506040518181526001600160a01b038316906000907fddf252ad1be2c89b69c2b068fc378daa952ba7f163c4a11628f55a4df523b3ef906020016103dd565b5050565b606580546001600160a01b038381166001600160a01b0319831681179093556040519116919082907f8be0079c531659141344cd1fd0a4f28419497f9722a3daafe3b4186f6b6457e090600090a35050565b600054610100900460ff16610bef5760405162461bcd60e51b815260040161049690610ecc565b610b728282610c5c565b600054610100900460ff16610c205760405162461bcd60e51b815260040161049690610ecc565b6103fb610caa565b600054610100900460ff16610c4f5760405162461bcd60e51b815260040161049690610ecc565b6103fb610cda565b505050565b600054610100900460ff16610c835760405162461bcd60e51b815260040161049690610ecc565b8151610c96906036906020850190610d0d565b508051610c57906037906020840190610d0d565b600054610100900460ff16610cd15760405162461bcd60e51b815260040161049690610ecc565b6103fb33610b76565b600054610100900460ff16610d015760405162461bcd60e51b815260040161049690610ecc565b6097805460ff19169055565b828054610d1990611039565b90600052602060002090601f016020900481019282610d3b5760008555610d81565b82601f10610d5457805160ff1916838001178555610d81565b82800160010185558215610d81579182015b82811115610d81578251825591602001919060010190610d66565b50610d8d929150610d91565b5090565b5b80821115610d8d5760008155600101610d92565b80356001600160a01b0381168114610dbd57600080fd5b919050565b600060208284031215610dd3578081fd5b610ddc82610da6565b9392505050565b60008060408385031215610df5578081fd5b610dfe83610da6565b9150610e0c60208401610da6565b90509250929050565b600080600060608486031215610e29578081fd5b610e3284610da6565b9250610e4060208501610da6565b9150604084013590509250925092565b60008060408385031215610e62578182fd5b610e6b83610da6565b946020939093013593505050565b6000602080835283518082850152825b81811015610ea557858101830151858201604001528201610e89565b81811115610eb65783604083870101525b50601f01601f1916929092016040019392505050565b6020808252602b908201527f496e697469616c697a61626c653a20636f6e7472616374206973206e6f74206960408201526a6e697469616c697a696e6760a81b606082015260800190565b60008219821115610f2a57610f2a611074565b500190565b600181815b80851115610f6a578160001904821115610f5057610f50611074565b80851615610f5d57918102915b93841c9390800290610f34565b509250929050565b6000610ddc8383600082610f8857506001610306565b81610f9557506000610306565b8160018114610fab5760028114610fb557610fd1565b6001915050610306565b60ff841115610fc657610fc6611074565b50506001821b610306565b5060208310610133831016604e8410600b8410161715610ff4575081810a610306565b610ffe8383610f2f565b806000190482111561101257611012611074565b029392505050565b600081600019048311821515161561103457611034611074565b500290565b600181811c9082168061104d57607f821691505b6020821081141561106e57634e487b7160e01b600052602260045260246000fd5b50919050565b634e487b7160e01b600052601160045260246000fdfea2646970667358221220f7e81762d27de218723c6bdaa6551dfb8ea7c29a1f48e601a9b4a2ffeb43ccf364736f6c63430008040033",
  "linkReferences": {},
  "deployedLinkReferences": {}
}