{
  "_format": "hh-sol-artifact-1",
  "contractName": "PreSaleSeedInvestorSMTX",
  "sourceName": "contracts/PreSaleSeed.sol",
  "abi": [
    {
      "inputs": [],
      "stateMutability": "nonpayable",
      "type": "constructor"
    },
    {
      "anonymous": false,
      "inputs": [
        {
          "indexed": false,
          "internalType": "address",
          "name": "recipient",
          "type": "address"
        },
        {
          "indexed": false,
          "internalType": "uint256",
          "name": "amount",
          "type": "uint256"
        }
      ],
      "name": "AllocationPerformed",
      "type": "event"
    },
    {
      "anonymous": false,
      "inputs": [
        {
          "indexed": false,
          "internalType": "address",
          "name": "from",
          "type": "address"
        },
        {
          "indexed": false,
          "internalType": "uint256",
          "name": "amount",
          "type": "uint256"
        }
      ],
      "name": "TokensDeposited",
      "type": "event"
    },
    {
      "anonymous": false,
      "inputs": [
        {
          "indexed": false,
          "internalType": "address",
          "name": "recipient",
          "type": "address"
        },
        {
          "indexed": false,
          "internalType": "uint256",
          "name": "amount",
          "type": "uint256"
        }
      ],
      "name": "TokensUnlocked",
      "type": "event"
    },
    {
      "inputs": [],
      "name": "allIncomingDepositsFinalised",
      "outputs": [
        {
          "internalType": "bool",
          "name": "",
          "type": "bool"
        }
      ],
      "stateMutability": "view",
      "type": "function"
    },
    {
      "inputs": [
        {
          "internalType": "address",
          "name": "",
          "type": "address"
        }
      ],
      "name": "alreadyWithdrawn",
      "outputs": [
        {
          "internalType": "uint256",
          "name": "",
          "type": "uint256"
        }
      ],
      "stateMutability": "view",
      "type": "function"
    },
    {
      "inputs": [
        {
          "internalType": "address",
          "name": "",
          "type": "address"
        }
      ],
      "name": "balances",
      "outputs": [
        {
          "internalType": "uint256",
          "name": "",
          "type": "uint256"
        }
      ],
      "stateMutability": "view",
      "type": "function"
    },
    {
      "inputs": [],
      "name": "cliffEdge",
      "outputs": [
        {
          "internalType": "uint256",
          "name": "",
          "type": "uint256"
        }
      ],
      "stateMutability": "view",
      "type": "function"
    },
    {
      "inputs": [],
      "name": "contractBalance",
      "outputs": [
        {
          "internalType": "uint256",
          "name": "",
          "type": "uint256"
        }
      ],
      "stateMutability": "view",
      "type": "function"
    },
    {
      "inputs": [
        {
          "internalType": "address",
          "name": "recipient",
          "type": "address"
        },
        {
          "internalType": "uint256",
          "name": "amount",
          "type": "uint256"
        }
      ],
      "name": "depositTokens",
      "outputs": [],
      "stateMutability": "payable",
      "type": "function"
    },
    {
      "inputs": [],
      "name": "erc20Contract",
      "outputs": [
        {
          "internalType": "contract IERC20",
          "name": "",
          "type": "address"
        }
      ],
      "stateMutability": "view",
      "type": "function"
    },
    {
      "inputs": [],
      "name": "finalizeAllIncomingDeposits",
      "outputs": [],
      "stateMutability": "nonpayable",
      "type": "function"
    },
    {
      "inputs": [
        {
          "internalType": "address",
          "name": "to",
          "type": "address"
        }
      ],
      "name": "getWithdrawalAmount",
      "outputs": [
        {
          "internalType": "uint256",
          "name": "",
          "type": "uint256"
        }
      ],
      "stateMutability": "view",
      "type": "function"
    },
    {
      "inputs": [],
      "name": "initialTimestamp",
      "outputs": [
        {
          "internalType": "uint256",
          "name": "",
          "type": "uint256"
        }
      ],
      "stateMutability": "view",
      "type": "function"
    },
    {
      "inputs": [],
      "name": "owner",
      "outputs": [
        {
          "internalType": "address payable",
          "name": "",
          "type": "address"
        }
      ],
      "stateMutability": "view",
      "type": "function"
    },
    {
      "inputs": [],
      "name": "releaseEdge",
      "outputs": [
        {
          "internalType": "uint256",
          "name": "",
          "type": "uint256"
        }
      ],
      "stateMutability": "view",
      "type": "function"
    },
    {
      "inputs": [
        {
          "internalType": "int256",
          "name": "_cliffTimePeriod",
          "type": "int256"
        },
        {
          "internalType": "int256",
          "name": "_releaseTimePeriod",
          "type": "int256"
        }
      ],
      "name": "setTimestamp",
      "outputs": [],
      "stateMutability": "nonpayable",
      "type": "function"
    },
    {
      "inputs": [],
      "name": "timestampSet",
      "outputs": [
        {
          "internalType": "bool",
          "name": "",
          "type": "bool"
        }
      ],
      "stateMutability": "view",
      "type": "function"
    },
    {
      "inputs": [
        {
          "internalType": "contract IERC20",
          "name": "token",
          "type": "address"
        },
        {
          "internalType": "uint256",
          "name": "amount",
          "type": "uint256"
        }
      ],
      "name": "transferAccidentallyLockedTokens",
      "outputs": [],
      "stateMutability": "nonpayable",
      "type": "function"
    },
    {
      "inputs": [
        {
          "internalType": "contract IERC20",
          "name": "token",
          "type": "address"
        },
        {
          "internalType": "address",
          "name": "to",
          "type": "address"
        },
        {
          "internalType": "uint256",
          "name": "amount",
          "type": "uint256"
        }
      ],
      "name": "transferTimeLockedTokensAfterTimePeriod",
      "outputs": [],
      "stateMutability": "nonpayable",
      "type": "function"
    },
    {
      "inputs": [
        {
          "internalType": "uint256",
          "name": "amount",
          "type": "uint256"
        }
      ],
      "name": "withdrawEth",
      "outputs": [],
      "stateMutability": "nonpayable",
      "type": "function"
    },
    {
      "stateMutability": "payable",
      "type": "receive"
    }
  ],
  "bytecode": "0x608060405234801561001057600080fd5b5060008054610100600160b01b03191661010033908102919091179091556002805460ff19169055733c1e3b0ad165a4bb19aee73eaddc5919996d4e8b14156100ab5760405162461bcd60e51b8152602060048201526024808201527f6f776e657220616464726573732063616e206e6f742062652030784332432e2e6044820152632e65346160e01b606482015260840160405180910390fd5b600880546001600160a01b031916733c1e3b0ad165a4bb19aee73eaddc5919996d4e8b1790556000805460ff191690556115b2806100ea6000396000f3fe6080604052600436106101025760003560e01c806366168bd7116100955780639b69279a116100645780639b69279a1461033a578063a8f6c91314610354578063c311d04914610374578063d6d1417114610394578063ff480480146103aa57600080fd5b806366168bd7146102a75780638b7afe2e146102ba5780638da5cb5b146102d05780639aa2e39e1461030d57600080fd5b80633e994942116100d15780633e994942146102165780634acf914d1461023657806355ce38661461025657806356582bf91461028757600080fd5b806302cc6e3f14610189578063084c28d6146101a0578063199b6bba146101c957806327e235e3146101e957600080fd5b3661018457600054600160a81b900460ff161561013a5760405162461bcd60e51b815260040161013190611450565b60405180910390fd5b60075461014790346103c0565b600755604080513381523460208201527f59062170a285eb80e8c6b8ced60428442a51910635005233fc4ce084a475845e910160405180910390a1005b600080fd5b34801561019557600080fd5b5061019e6103d3565b005b3480156101ac57600080fd5b506101b660035481565b6040519081526020015b60405180910390f35b3480156101d557600080fd5b5061019e6101e436600461126f565b610468565b3480156101f557600080fd5b506101b6610204366004611208565b60066020526000908152604090205481565b34801561022257600080fd5b5061019e6102313660046112af565b6109c1565b34801561024257600080fd5b5061019e6102513660046112c1565b610aa3565b34801561026257600080fd5b5060005461027790600160a81b900460ff1681565b60405190151581526020016101c0565b34801561029357600080fd5b506101b66102a2366004611208565b610c17565b61019e6102b5366004611224565b610c95565b3480156102c657600080fd5b506101b660075481565b3480156102dc57600080fd5b506000546102f59061010090046001600160a01b031681565b6040516001600160a01b0390911681526020016101c0565b34801561031957600080fd5b506101b6610328366004611208565b60056020526000908152604090205481565b34801561034657600080fd5b506002546102779060ff1681565b34801561036057600080fd5b506008546102f5906001600160a01b031681565b34801561038057600080fd5b5061019e61038f3660046112e2565b610e47565b3480156103a057600080fd5b506101b660015481565b3480156103b657600080fd5b506101b660045481565b60006103cc8284611496565b9392505050565b60005461010090046001600160a01b031633146104025760405162461bcd60e51b815260040161013190611404565b60025460ff1615156001146104295760405162461bcd60e51b81526004016101319061138c565b600054600160a81b900460ff16156104535760405162461bcd60e51b815260040161013190611450565b6000805460ff60a81b1916600160a81b179055565b60025460ff16151560011461048f5760405162461bcd60e51b81526004016101319061138c565b60005460ff16156104b25760405162461bcd60e51b8152600401610131906113dc565b6000805460ff191660011790556001600160a01b0382166104e55760405162461bcd60e51b815260040161013190611349565b6001600160a01b0382166000908152600660205260409020548111156105635760405162461bcd60e51b815260206004820152602d60248201527f496e73756666696369656e7420746f6b656e2062616c616e63652c207472792060448201526c1b195cdcd95c88185b5bdd5b9d609a1b6064820152608401610131565b336001600160a01b038316146105d35760405162461bcd60e51b815260206004820152602f60248201527f4f6e6c792074686520746f6b656e20726563697069656e742063616e2070657260448201526e666f726d2074686520756e6c6f636b60881b6064820152608401610131565b6008546001600160a01b0384811691161461068a5760405162461bcd60e51b8152602060048201526064602482018190527f546f6b656e20706172616d65746572206d757374206265207468652073616d6560448301527f2061732074686520657263323020636f6e747261637420616464726573732077908201527f68696368207761732070617373656420696e746f2074686520636f6e7374727560848201526331ba37b960e11b60a482015260c401610131565b60035442116107015760405162461bcd60e51b815260206004820152603f60248201527f546f6b656e7320617265206f6e6c7920617661696c61626c652061667465722060448201527f636f72726563742074696d6520706572696f642068617320656c6170736564006064820152608401610131565b6004544211156107ce576001600160a01b03821660009081526005602052604090205461072e90826103c0565b6001600160a01b03831660009081526005602090815260408083209390935560069052205461075d9082610f3a565b6001600160a01b038084166000908152600660205260409020919091556107879084168383610f46565b604080516001600160a01b0384168152602081018390527fe7b379c6c1fa169e9079c25e9143b127637eef8ec8c9d5c06ddb4ab3e1195888910160405180910390a16109b2565b6001600160a01b03821660009081526006602090815260408083205460059092528220546107fb916103c0565b9050600061083e610819600354600454610f3a90919063ffffffff16565b61083861083160035442610f3a90919063ffffffff16565b8590610f9d565b90610fa9565b6001600160a01b0385166000908152600560205260408120549192509061086590836114ed565b9050808411156108f05760405162461bcd60e51b815260206004820152604a60248201527f546f6b656e20616d6f756e74206e6f7420617661696c61626c6520666f72207560448201527f6e6c6f636b207269676874206e6f772c20706c6561736520747279206c65737360648201526932b91030b6b7bab73a1760b11b608482015260a401610131565b6001600160a01b03851660009081526005602052604090205461091390856103c0565b6001600160a01b0386166000908152600560209081526040808320939093556006905220546109429085610f3a565b6001600160a01b0380871660009081526006602052604090209190915561096c9087168686610f46565b604080516001600160a01b0387168152602081018690527fe7b379c6c1fa169e9079c25e9143b127637eef8ec8c9d5c06ddb4ab3e1195888910160405180910390a15050505b50506000805460ff1916905550565b60005461010090046001600160a01b031633146109f05760405162461bcd60e51b815260040161013190611404565b60005460ff1615610a135760405162461bcd60e51b8152600401610131906113dc565b6000805460ff191660011790556001600160a01b038216610a765760405162461bcd60e51b815260206004820152601d60248201527f546f6b656e20616464726573732063616e206e6f74206265207a65726f0000006044820152606401610131565b600054610a95906001600160a01b038481169161010090041683610f46565b50506000805460ff19169055565b60005461010090046001600160a01b03163314610ad25760405162461bcd60e51b815260040161013190611404565b60025460ff1615610b315760405162461bcd60e51b8152602060048201526024808201527f5468652074696d65207374616d702068617320616c7265616479206265656e2060448201526339b2ba1760e11b6064820152608401610131565b8115801590610b3f57508015155b610b8b5760405162461bcd60e51b815260206004820152601c60248201527f54696d6520706572696f64732063616e206e6f74206265207a65726f000000006044820152606401610131565b6002805460ff191660019081179091554290556000821315610bbc57600154610bb490836103c0565b600355610bd5565b610bd1610bc883611534565b60015490610f3a565b6003555b6000811315610bf357600154610beb90826103c0565b600455610c03565b610bff610bc882611534565b6004555b60045460035410610c1357600080fd5b5050565b6001600160a01b03811660009081526006602090815260408083205460059092528220548291610c4791906103c0565b90506000610c65610819600354600454610f3a90919063ffffffff16565b6001600160a01b03851660009081526005602052604081205491925090610c8c90836114ed565b95945050505050565b60025460ff161515600114610cbc5760405162461bcd60e51b81526004016101319061138c565b600054600160a81b900460ff1615610ce65760405162461bcd60e51b815260040161013190611450565b600354600454610cf591610f3a565b811015610d635760405162461bcd60e51b815260206004820152603660248201527f416d6f756e74206465706f7369746564206d7573742062652067726561746572604482015275081d1a185b881b995d14995b19585cd954195c9a5bd960521b6064820152608401610131565b6001600160a01b038216610d895760405162461bcd60e51b815260040161013190611349565b6001600160a01b038216600090815260066020526040902054610dac90826103c0565b6001600160a01b038084166000908152600660205260408082209390935580549251610100909304909116913480156108fc0292909190818181858888f19350505050158015610e00573d6000803e3d6000fd5b50604080516001600160a01b0384168152602081018390527fcad22dd3bcdad18c651a372fe3e7e893af3d354482d9ac6c310c8342eb7af574910160405180910390a15050565b60005461010090046001600160a01b03163314610e765760405162461bcd60e51b815260040161013190611404565b60005460ff1615610e995760405162461bcd60e51b8152600401610131906113dc565b6000805460ff19166001179055600754811115610eed5760405162461bcd60e51b8152602060048201526012602482015271496e73756666696369656e742066756e647360701b6044820152606401610131565b600754610efa9082610f3a565b600755600080546040516101009091046001600160a01b0316916108fc841502918491818181858888f19350505050158015610a95573d6000803e3d6000fd5b60006103cc82846114ed565b604080516001600160a01b038416602482015260448082018490528251808303909101815260649091019091526020810180516001600160e01b031663a9059cbb60e01b179052610f98908490610fb5565b505050565b60006103cc82846114ce565b60006103cc82846114ae565b600061100a826040518060400160405280602081526020017f5361666545524332303a206c6f772d6c6576656c2063616c6c206661696c6564815250856001600160a01b03166110879092919063ffffffff16565b805190915015610f985780806020019051810190611028919061124f565b610f985760405162461bcd60e51b815260206004820152602a60248201527f5361666545524332303a204552433230206f7065726174696f6e20646964206e6044820152691bdd081cdd58d8d9595960b21b6064820152608401610131565b6060611096848460008561109e565b949350505050565b6060824710156110ff5760405162461bcd60e51b815260206004820152602660248201527f416464726573733a20696e73756666696369656e742062616c616e636520666f6044820152651c8818d85b1b60d21b6064820152608401610131565b6001600160a01b0385163b6111565760405162461bcd60e51b815260206004820152601d60248201527f416464726573733a2063616c6c20746f206e6f6e2d636f6e74726163740000006044820152606401610131565b600080866001600160a01b0316858760405161117291906112fa565b60006040518083038185875af1925050503d80600081146111af576040519150601f19603f3d011682016040523d82523d6000602084013e6111b4565b606091505b50915091506111c48282866111cf565b979650505050505050565b606083156111de5750816103cc565b8251156111ee5782518084602001fd5b8160405162461bcd60e51b81526004016101319190611316565b600060208284031215611219578081fd5b81356103cc81611564565b60008060408385031215611236578081fd5b823561124181611564565b946020939093013593505050565b600060208284031215611260578081fd5b815180151581146103cc578182fd5b600080600060608486031215611283578081fd5b833561128e81611564565b9250602084013561129e81611564565b929592945050506040919091013590565b60008060408385031215611236578182fd5b600080604083850312156112d3578182fd5b50508035926020909101359150565b6000602082840312156112f3578081fd5b5035919050565b6000825161130c818460208701611504565b9190910192915050565b6020815260008251806020840152611335816040850160208701611504565b601f01601f19169190910160400192915050565b60208082526023908201527f45524332303a207472616e7366657220746f20746865207a65726f206164647260408201526265737360e81b606082015260800190565b60208082526030908201527f506c6561736520736574207468652074696d65207374616d702066697273742c60408201526f103a3432b7103a393c9030b3b0b4b71760811b606082015260800190565b6020808252600e908201526d4e6f2072652d656e7472616e637960901b604082015260600190565b6020808252602c908201527f4d6573736167652073656e646572206d7573742062652074686520636f6e747260408201526b30b1ba13b99037bbb732b91760a11b606082015260800190565b60208082526026908201527f496e636f6d696e67206465706f736974732068617665206265656e2066696e616040820152653634b9b2b21760d11b606082015260800190565b600082198211156114a9576114a961154e565b500190565b6000826114c957634e487b7160e01b81526012600452602481fd5b500490565b60008160001904831182151516156114e8576114e861154e565b500290565b6000828210156114ff576114ff61154e565b500390565b60005b8381101561151f578181015183820152602001611507565b8381111561152e576000848401525b50505050565b6000600160ff1b82141561154a5761154a61154e565b0390565b634e487b7160e01b600052601160045260246000fd5b6001600160a01b038116811461157957600080fd5b5056fea264697066735822122061b08587d7097e42290d8e6b680a8c994c580bb454a859462f408b56dcf1edcc64736f6c63430008040033",
  "linkReferences": {},
  "deployedLinkReferences": {}
}